:100000000C946D010C9452150C942B150C94041542
:100010000C94DD140C9495010C9495010C94B61479
:100020000C9495010C9472180C9479150C94E815A5
:100030000C9495010C9495010C9495010C949501E8
:100040000C9495010C9495010C9495010C949501D8
:100050000C9495010C9495010C9495010C946C14DE
:100060000C9495010C9440180C941A180C9495015A
:100070000C9495010C9495010C9495010C949501A8
:100080000C9495010C9495010C9495010C94950198
:100090000C9451130C9495010C9495010C949501BA
:1000A0000C9495010C9495010C94950105A84CCDE8
:1000B000B2D44EB93836A9020C50B9918688083CA2
:1000C000A6AAAA2ABE000000803F00407A10F35A78
:1000D00000A0724E18090010A5D4E80000E8764888
:1000E000170000E40B54020000CA9A3B000000E134
:1000F000F505000080969800000040420F000000C7
:10010000A08601000000102700000000E8030000A6
:1001100000006400000000000A0000000000010070
:10012000000000002C76D888DC674F0823DFC1DF91
:10013000AE59E1B1B796E5E3E453C63AE651997694
:1001400096E8E6C28426EB898C9B62ED407C6FFCCE
:10015000EFBC9C9F40F2BAA56FA5F490055A2AF710
:100160005C936B6CF9676DC11BFCE0E40D47FEF519
:1001700020E6B500D0ED902E030094357705008081
:10018000841E080000204E0A000000C80C333333E0
:10019000330F986E12831141EF8D2114893BE65580
:1001A00016CFFEE6DB18D1844B381BF77C1D901D63
:1001B000A4BBE424203284725E228100C9F124ECC5
:1001C000A1E53D27000000002300260029002C00A7
:1001D0002F00080B000202020000090400000102C7
:1001E000020000052400100105240101010424027D
:1001F00006052406000107058103100040090401DB
:1002000000020A0000000705020240000007058303
:10021000024000000403090412010002EF02014041
:10022000FB1F0023000101020301506F6C6F6C750E
:1002300020436F72706F726174696F6E00506F6CE3
:100240006F6C7520412D5374617220333255340028
:10025000070605040100080A0B0C0D090000000048
:10026000240027002A002D00300000000000250097
:1002700028002B002E0031000404040404030405AC
:100280000202020204030202020206060606060633
:100290000404020202040404080201104080401019
:1002A000204080408008020401804020100201109C
:1002B0008010204040200000000200090F000003D1
:1002C0000401000C0000000000000000000000001D
:1002D000000000000000EE18B42111241FBECFEF73
:1002E000DAE0DEBFCDBF27E0A4E3B3E001C01D929A
:1002F000A93EB207E1F713E0A0E0B1E0EEE3F3E5D9
:1003000002C005900D92A433B107D9F711E0CCE6F5
:10031000D1E004C02197FE010E94E125CB36D10730
:10032000C9F70E94091A0C9492290C9400006F924C
:100330007F928F929F92AF92BF92CF92DF92EF9275
:10034000FF920F931F93CF93DF938090C4059090FB
:10035000C505340181E0681A7108C4E1D4E080EF7A
:10036000E82E84E0F82E10E000E0061517050CF0EA
:1003700052C06801AFEFCA1ADA0A5E01B4E0AB0EF0
:10038000B11C8C149D0409F43FC0F50121913191F9
:10039000419151915F016C817D818E819F810E948D
:1003A000642481112DC0F501EC52FF4F2081318171
:1003B00042815381D7016D917D918D919C910E94D5
:1003C000642481111DC0FE01C801019634968C156C
:1003D0009D05B4F44C815D816E817F8140835183A2
:1003E00062837383D7014D915D916D917C91DF01A3
:1003F000A852BF4F4D935D936D937C931397E5CFB8
:10040000BFEFCB1ADB0ABDCF0E5F1F4F2896E8E087
:10041000EE0EF11CAACFDF91CF911F910F91FF90AB
:10042000EF90DF90CF90BF90AF909F908F907F9094
:100430006F900895FC018091C503882311F13FB7A7
:10044000F89482E08093E9002091F200822F90E0FE
:100450001816190614F481E090E0882339F02898E2
:1004600044E64093C4034091F1004083222339F0D5
:100470002091F200211103C02BE62093E8003FBF3A
:1004800008958FEF9FEF08952FB7F89483E080933E
:10049000E9009091E800892F807295FF04C0909147
:1004A000F20080E4891B2FBF08952091A103260F3D
:1004B0003327331F21323105ECF420910C04FC0169
:1004C00090E080E0243069F082E00895A091A103DB
:1004D0002191AC014F575C4FA40FB52FB11D2C9348
:1004E0000196861798F38091A103680F6093A1038A
:1004F00080E0089581E008950895E0917F03809160
:100500007E03E81730F4F0E0E451FC4F808190E086
:1005100008958FEF9FEF089590917F0380917E0360
:100520002FEF3FEF981748F4E92FF0E0E451FC4F2C
:10053000208130E09F5F90937F03C90108958091EF
:100540007E0390917F03891B990B0895CF93DF93CE
:10055000CB01EA01642F0E945502CE01DF91CF91B9
:100560000895CF93DF931F92CDB7DEB7698361E023
:10057000CE0101960E94550281E090E00F90DF913C
:10058000CF9108958091760381110DC082E0809310
:10059000720384E0809373031092750310927403C6
:1005A00081E08093760382E793E0089581508F3055
:1005B00008F047C0E82FF0E0E052FD4F0C94E12531
:1005C000FD020103EF02F502F902210321032103D9
:1005D00004030A030E031203180321031C03809172
:1005E00080008F77809380000895809180008F7DB8
:1005F000F9CF80918000877FF5CF84B58F7784BD58
:10060000089584B58F7DFBCF809190008F77809384
:1006100090000895809190008F7DF9CF8091900097
:10062000877FF5CF8091C0008F778093C0000895B9
:100630008091C0008F7DF9CF8091C200877F809329
:10064000C20008951F93CF93DF93282F30E0F90164
:10065000EA54FD4F8491F901E956FD4FD491F90117
:10066000E858FD4FC491CC23A9F0162F81110E94A8
:10067000D602EC2FF0E0EE0FFF1FE659FD4FA591DB
:10068000B4918FB7F894EC91111108C0D095DE2386
:10069000DC938FBFDF91CF911F910895DE2BF8CFB0
:1006A0001F93CF93DF93C1E0C0938003882399F118
:1006B000D091B8001091BA008091BC008A7B8093E1
:1006C000BC0060E082E00E94220360E083E00E94C0
:1006D000220310920C04C093EB031092E60361E036
:1006E00082E00E94220361E083E00E942203809165
:1006F000B9008E7F8093B9008091B9008D7F80937F
:10070000B90088E48093B80085E48093BC0010931E
:10071000BA00D093B800DF91CF911F910895CF9385
:10072000DF9390E0FC01E956FD4F249188589D4FDE
:10073000FC0184918823C9F090E0880F991FFC0187
:10074000E45AFD4FA591B491FC01E659FD4FC591C6
:10075000D49161110DC09FB7F8948C91209582239C
:100760008C938881282328839FBFDF91CF910895A0
:10077000623051F49FB7F8943C91822F8095832387
:100780008C93E8812E2BEFCF8FB7F894EC912E2B22
:100790002C938FBFEACF823108F08251E82FF0E02E
:1007A000E05BFD4FE49190917B008E2F880F880FC6
:1007B00080729F7D892B80937B00E770E064E093DB
:1007C0007C0080917A00806480937A0080917A0026
:1007D00086FDFCCF809178009091790008953FB715
:1007E000F89480916E0390916F03A0917003B09183
:1007F000710326B5A89B05C02F3F19F00196A11DD6
:10080000B11D3FBFBA2FA92F982F8827BC01CD015A
:10081000620F711D811D911D42E0660F771F881FB9
:10082000991F4A95D1F708958F929F92AF92BF92E8
:10083000CF92DF92EF92FF920F931F93CF93DF93AC
:10084000D82FC62F142F613208F09CC00E94EF03EE
:100850006B017C0180910C0481116FC081E0809359
:100860000C041093EB039FEF9093EA031092E903BB
:100870009C0F9093E8038093E7038091E703DD0FDB
:10088000D82BD093E7038091E603813009F07CC038
:100890001092E6030E94EF036B017C018091E70355
:1008A0008093BB0080910E0490910F04A0911004DE
:1008B000B0911104892B8A2B8B2BA1F00E94EF039E
:1008C00000910E0410910F04209110043091110436
:1008D0006C197D098E099F09061717072807390724
:1008E00008F44CC08091BC0083FDD8CF85EC809388
:1008F000BC000E94EF036B017C0180910C048130ED
:1009000009F444C08091E9038C1710F4C091E90305
:10091000E6ECF3E0ACEEB3E080E08C1359C08C2F32
:10092000DF91CF911F910F91FF90EF90DF90CF90CB
:10093000BF90AF909F908F90089580910E049091FA
:100940000F04A0911004B0911104892B8A2B8B2BDA
:1009500009F480CF0E94EF0380900E0490900F0462
:10096000A0901004B09011046C197D098E099F09A4
:1009700086169706A806B90608F06CCF80910D047C
:100980000E945003C0E0CBCF85EEB1CF80910E0422
:1009900090910F04A0911004B0911104892B8A2B1F
:1009A0008B2B09F4AACF0E94EF0300910E04109143
:1009B0000F0420911004309111046C197D098E09E7
:1009C0009F09061717072807390708F096CFD6CFD3
:1009D00091919D938F5FA1CF8F929F92AF92BF9283
:1009E000CF92DF92EF92FF924B015C010E94EF03E6
:1009F0006B017C010E94EF036C197D098E099F0930
:100A0000683E734081059105A8F321E0821A9108A0
:100A1000A108B10888EEC80E83E0D81EE11CF11CC5
:100A200081149104A104B10429F7FF90EF90DF90A5
:100A3000CF90BF90AF909F908F9008952FB7F8946C
:100A400060916A0370916B0380916C0390916D03C8
:100A50002FBF0895089540915C0350915D0320914C
:100A60005A0330915B0342175307B4F49091E800A6
:100A70009570E1F39091E80092FD19C08093F10028
:100A800080915C0390915D0301968F739927892B68
:100A900019F48EEF8093E80080915C0390915D03E0
:100AA000019690935D0380935C0381E0089580E05C
:100AB0000895EF92FF920F931F93CF93DF93F82E39
:100AC000192FE62E042F81E0860F880F0E942B0538
:100AD00083E00E942B05CF2DD12FEC0EFD2EF11CB3
:100AE000CE15DF05B9F007FF13C0FE0184910E9407
:100AF0002B05182F80E00E942B0581232196811160
:100B0000EFCFDF91CF911F910F91FF90EF9008955C
:100B10008881EDCF81E0F5CFDF92EF92FF920F93C6
:100B20001F93CF93DF93D82E8A01EB017B01E40E54
:100B3000F51ECE15DF0559F0D7FE12C0FE018491D7
:100B40000E942B0521968111F4CF0FEF1FEFC801F2
:100B5000DF91CF911F910F91FF90EF90DF9008955B
:100B60008881EECF0F931F93CF93DF931F92CDB762
:100B7000DEB782E0898342E450E062ED71E080E814
:100B80000E948C050E94C202DC0112960D911C91FC
:100B90000115110589F0D801ED91FC910280F381D6
:100BA000E02DBE016F5F7F4FC801099597FD04C01E
:100BB000F80100851185ECCF89810F90DF91CF91ED
:100BC0001F910F910895615030F02091F100FC01C8
:100BD00020830196F8CF289884E68093C403089573
:100BE000AF92BF92CF92DF92EF92FF920F931F933B
:100BF000CF93DF936C017B018B01040F151FEB0179
:100C00005E01AE18BF08C017D10759F06991D6012F
:100C1000ED91FC910190F081E02DC6010995892BA1
:100C200079F7C501DF91CF911F910F91FF90EF9060
:100C3000DF90CF90BF90AF90089590E080E008954E
:100C4000FC01538D448D252F30E0842F90E0821BD2
:100C5000930B541710F0CF96089501970895FC0157
:100C6000918D828D981761F0A28DAE0FBF2FB11DAF
:100C70005D968C91928D9F5F9F73928F90E0089507
:100C80008FEF9FEF0895FC01918D828D981731F0C1
:100C9000828DE80FF11D858D90E008958FEF9FEF15
:100CA0000895FC01918D228D892F90E0805C9F4FEB
:100CB000821B91098F739927089582ED95E00E9418
:100CC000510621E0892B09F420E0822F089580E06D
:100CD00090E0892B29F00E945D0681110C940000A0
:100CE0000895FC01A48DA80FB92FB11DA35ABF4FC1
:100CF0002C91848D90E001968F739927848FA6891B
:100D0000B7892C93A089B1898C9182748C93938D2F
:100D1000848D981306C00288F389E02D80818F7D31
:100D200080830895EF92FF920F931F93CF93DF93E9
:100D3000EC0181E0888F9B8D8C8D981319C0E88918
:100D4000F989808185FF14C09FB7F894EE89FF89E7
:100D50006083E889F9898081827480839FBF81E004
:100D600090E0DF91CF911F910F91FF90EF90089548
:100D7000F62E0B8D10E00F5F1F4F0F731127E02E23
:100D80008C8D8E110CC00FB607FCFACFE889F9895B
:100D9000808185FFF5CFCE010E947106F1CFEB8DEA
:100DA000EC0FFD2FF11DE35AFF4FF0829FB7F8942F
:100DB0000B8FEA89FB8980818062CFCFCF93DF934D
:100DC000EC01888D8823B9F0AA89BB89E889F98963
:100DD0008C9185FD03C0808186FD0DC00FB607FC98
:100DE000F7CF8C9185FFF2CF808185FFEDCFCE01CB
:100DF0000E947106E9CFDF91CF9108958F929F9263
:100E0000AF92BF92CF92DF92EF92FF920F931F9318
:100E1000CF93DF936C017B018A0180910B018823C2
:100E200009F45CC08091C503882309F457C0809100
:100E3000600380FF05C08091E00082608093E00045
:100E4000E801B12C8AEFA82E93E0892E2AE3922E96
:100E5000209711F4BB20D9F10E94440281110AC0ED
:100E6000AA94AA20D9F161E070E080E090E00E94AD
:100E7000EC04EECF8C171D0611F00CF08C2F9FB7F1
:100E8000F8948092E9002091E80025FD02C09FBF00
:100E9000DFCF282F30E0C21BD30BF701815020F0A9
:100EA00041914093F100FACFE20EF31EBB2021F0F6
:100EB0009092E800B12CEBCF8091E80085FDE7CF60
:100EC0009092E800BB24B394209709F3F3CF5D9888
:100ED00084E680935F03101611063CF081E090E0F9
:100EE000F6019383828310E000E0C801DF91CF9187
:100EF0001F910F91FF90EF90DF90CF90BF90AF9038
:100F00009F908F900895CF93DF931F92CDB7DEB758
:100F10006983DC01ED91FC910280F381E02D41E0D9
:100F200050E0BE016F5F7F4F09950F90DF91CF9129
:100F3000089583E08093E9008091F200882319F0FE
:100F40008AE38093E80008950E94440290E00895A7
:100F5000CF93DF931F92CDB7DEB7FC0184859585D3
:100F600097FD08C02FEF3FEF358724870F90DF9163
:100F7000CF910895CE0101960E941A02019719F4AB
:100F8000898190E0F3CF8FEF9FEFF0CF0F931F9306
:100F9000CF93DF931F92CDB7DEB78C01FC01848520
:100FA000958597FF0BC0CE0101960E941A0201970A
:100FB00071F4898190E0F80195878487F801848530
:100FC00095850F90DF91CF911F910F9108958FEF2D
:100FD0009FEFF1CFFC018485958597FD0BC09FB7EE
:100FE000F89482E08093E9008091F2009FBF90E046
:100FF000019608959FB7F89482E08093E90080916C
:10100000F2009FBF90E008952E98269A2D98259A79
:101010002A98229A2998219A2F98279A8AEA8093C7
:10102000800089E18093810084EA91E090938700B9
:1010300080938600109289001092880010928B0095
:1010400010928A0010928D0010928C0008950F93D8
:101050001F93CF93DF938C01EB01809149038111A2
:1010600005C081E0809349030E94040880E017FFD7
:1010700004C011950195110981E00D3291E0190725
:1010800014F00CE211E010938B0000938A00882387
:1010900029F12A9A229A80914903811105C081E0A1
:1010A000809349030E94040880E0D7FF04C0D195D3
:1010B000C195D10981E0CD3291E0D90714F0CCE29D
:1010C000D1E0D0938900C0938800882349F0299A01
:1010D000219ADF91CF911F910F9108952A98DACF2D
:1010E0002998F6CF8CB1282F30E035952795359586
:1010F0002795422F417083B190E054E095958795F4
:101100005A95E1F782278170209147039091480317
:10111000609145037091460324279827291B330BC0
:10112000260F371F30934603209345032091470332
:1011300090914803281729F0941719F091E09093A3
:101140004403809347034093480308959FB19170EF
:101150008CB186FB882780F9892720914203309142
:101160004303409140035091410329273827231B13
:10117000330B240F351F30934103209340033091EC
:10118000420320914303381729F0291719F021E071
:1011900020933F0380934203909343030895249840
:1011A0002C9A6A98729A6E98769A8098889AF8948F
:1011B00091E090936800EBE6F0E0808180618083AD
:1011C00022E738E030935303209352039BBB809176
:1011D000BF068F7E8093BF0683B19091BF0680715A
:1011E000892B8093BF06789486EA98E09093150146
:1011F00080931401EAE6F0E080818F7C8061808337
:10120000EE9A8CB182FB882780F98093480393B1D2
:10121000809148039295917089278093470310929B
:10122000460310924503109244038FB1817080935E
:1012300043039CB18091430396FB992790F989273A
:1012400080934203109241031092400310923F0397
:1012500008950F931F93CF93DF93EC01888581113D
:101260000EC0898591E098879A8562E0911101C04E
:1012700060E00E948F038FE090E00197F1F72985ED
:1012800030E0F901EA54FD4F8491F901E956FD4F30
:101290000491F901E858FD4F14911123C9F081110F
:1012A0000E94D602E12FF0E0EE0FFF1FEC53FE4F3D
:1012B000A591B491EC910E2331E009F430E0832F35
:1012C0002B8582278170DF91CF911F910F91089517
:1012D00080E0F6CF0F931F93CF93DF93EC01E8816B
:1012E000F9810190F081E02D099501E0182F102778
:1012F0000E941E052D81213091F030F02230E9F05E
:10130000233009F110E005C01111FCCF7F836E83FB
:101310000D83812FDF91CF911F910F91089511239C
:1013200011F01D82EFCF2E813F81621B730B6F3056
:10133000710578F382E08D83E5CF112351F37F832C
:101340006E8383E0F8CF1123A9F32E813F81621BC6
:10135000730B6F307105B0F21D82DBCFFC01808111
:101360000E94CB03BC01990F880B990B0E946B2440
:1013700020E030EC4FE754E40E94592620E030E0B2
:1013800040EA50E40E94CA2421E73DE34AE05FE3DB
:101390000E94E72527ED33EA46E851E40E945926EA
:1013A0009B01AC0160E070E080E89FE30E94592659
:1013B0000895CF92DF92EF92FF92CF93DF93EC01EB
:1013C0000E941E056B017C0180913B0390913C03C0
:1013D000A0913D03B0913E03B701A601481B590BF4
:1013E0006A0B7B0B8C859D85092E000CAA0BBB0B11
:1013F000481759076A077B0708F448C08091120410
:101400009091130490933A038093390380913703AA
:101410009091380390933603809335038091340381
:10142000811105C081E0809334030E94CF08F894B5
:101430008091450390914603789490931304809390
:10144000120480913403811105C081E0809334033C
:101450000E94CF08F89480914003909141037894C2
:1014600090933803809337030E941E05C0923B037C
:10147000D0923C03E0923D03F0923E0381E0DF9185
:10148000CF91FF90EF90DF90CF90089580E0F7CF5D
:10149000CF92DF92EF92FF92CF93DF93EC012881FE
:1014A00039814A815B81688579858A859B850E941F
:1014B00059266B017C01609137037091380380914C
:1014C000350390913603681B790B072E000C880BAF
:1014D000990B0E946B249B01AC01C701B6010E94CD
:1014E000CA246B017C016C857D85072E000C880B5E
:1014F000990B0E946B2420E030E04AE754E40E94FC
:1015000059269B01AC01C701B6010E945926DF9103
:10151000CF91FF90EF90DF90CF900895CF92DF9220
:10152000EF92FF92CF93DF93EC01288139814A81BA
:101530005B81688579858A859B850E9459266B0128
:101540007C01609112047091130480913903909191
:101550003A03681B790B072E000C880B990B0E942D
:101560006B249B01AC01C701B6010E94CA246B0128
:101570007C016C857D85072E000C880B990B0E94E1
:101580006B2420E030E04AE754E40E9459269B0196
:10159000AC01C701B6010E945926DF91CF91FF909F
:1015A000EF90DF90CF900895CF93DF93EC01888187
:1015B0009981009711F00E943728198218821D82A4
:1015C0001C821B821A82DF91CF910895FC018081D9
:1015D0009181009711F00C943728089585ED809340
:1015E000BC0080910E0490910F04A0911004B09162
:1015F00011040796A11DB11D23E0B695A7959795F7
:1016000087952A95D1F72091BC0024FD03C0109244
:101610000C04089540910E0450910F046091100441
:1016200070911104452B462B472B69F30097A105B8
:10163000B10541F02AE22A95F1F700C00197A1090E
:10164000B109E1CF80910D040C945003CF93DF9347
:10165000A2EEB0E09C911C92E9EEF0E020811082B5
:10166000C0EFD0E03881188240E02899416020998D
:1016700042602098289A80E18A95F1F783B141FB76
:101680000EF0209840FB0EF028980EF4289A41FBAB
:101690000EF4209A1082388320839C938095817069
:1016A000DF91CF910895CF93DF93A2EEB0E09C91AC
:1016B0001C92E9EEF0E020811082C0EFD0E038818A
:1016C000188240E05D9941605599426055985D9A55
:1016D00080E18A95F1F789B141FB0EF0559840FB06
:1016E0000EF05D980EF45D9A41FB0EF4559A10824F
:1016F000388320839C9390E025E0959587952A95E3
:10170000E1F7809590958170DF91CF9108950E94C7
:101710007D29FB0101900020E9F73197AF01461BBD
:10172000570BDC01ED91FC910280F381E02D0994CF
:101730008F929F92AF92BF920F931F93CF93DF939D
:10174000CDB7DEB7A1970FB6F894DEBF0FBECDBF01
:1017500019A2423008F44AE08E010F5D1F4F842E1B
:10176000912CB12CA12CA50194010E94BF25E62F3C
:10177000B901CA01EA3004F5E05DD801EE938D01AC
:10178000232B242B252B79F790E080E0109729F06C
:10179000BD018FE696E00E94890BA1960FB6F894E2
:1017A000DEBF0FBECDBFDF91CF911F910F91BF90D4
:1017B000AF909F908F900895E95CDFCF4F925F923A
:1017C0006F927F928F929F92AF92BF92CF92DF9251
:1017D000EF92FF920F931F93CF936B017C01742EB6
:1017E000AC019B010E944D2760E771E0811126C08A
:1017F00046015701E894B7F82FEF3FEF4FE75FE757
:10180000C501B4010E944D2781110CC02FEF3FEF9D
:101810004FE75FE7C501B4010E94642464E771E00B
:10182000181664F02FEF3FEF4FE75FE4C701B601F2
:101830000E9440271816ACF468E771E08FE696E046
:10184000CF911F910F91FF90EF90DF90CF90BF90BD
:10185000AF909F908F907F906F905F904F900C947F
:10186000890B2FEF3FEF4FE75FECC701B6010E94F6
:10187000642487FDE1CF20E030E0A901C701B60173
:101880000E94642410E000E087FF0AC06DE28FE64A
:1018900096E00E9483078C01F7FAF094F7F8F09431
:1018A000C0E060E070E080E09FE37C1641F020E063
:1018B00030E040E251E40E945926CF5FF6CFA70105
:1018C00096010E94E8252B013C010E94D2264B0183
:1018D0005C014AE00E94980B7C01E00EF11ECC23D3
:1018E000C1F1C501B4010E9469249B01AC01C3018F
:1018F000B2010E94E7254B015C016EE28FE696E0A3
:101900000E948307E80EF91EC15018F120E030E074
:1019100040E251E4C501B4010E94CA242B013C01FC
:101920000E94D2264B01B12CA12C4AE0C501B40182
:101930000E94980BE80EF91EC501B4010E946924AB
:101940009B01AC01C301B2010E94E7254B015C0180
:10195000DBCFC701CF911F910F91FF90EF90DF90E8
:10196000CF90BF90AF909F908F907F906F905F903F
:101970004F90089542E00C94DE0BCF93DF9342E04A
:101980000E94DE0BEC016CE771E08FE696E00E94AE
:10199000890B8C0F9D1FDF91CF910895BC018FE6BD
:1019A00096E00C94890BCF93DF93BC018FE696E011
:1019B0000E94890BEC016CE771E08FE696E00E94D3
:1019C000890B8C0F9D1FDF91CF9108950F931F936B
:1019D000CF93DF938FE791E00E94D30C04E114E0F2
:1019E000D0E0C0E08091C4059091C505C817D90723
:1019F000BCF4F80161917191819191918F010E94E4
:101A0000BA0C81E991E00E94CE0CF801EC52FF4F34
:101A100060817181828193810E94BD0C2196E2CF09
:101A2000DF91CF911F910F910895CF92DF92EF92A6
:101A3000FF92CF93DF936C01990FEE08FF08F7FE3A
:101A400021C06DE28FE696E00E948307EC016627D5
:101A50007727CB016C197D098E099F094AE00E9406
:101A6000980BC80FD91F6CE771E08FE696E00E94D3
:101A7000890B8C0F9D1FDF91CF91FF90EF90DF902E
:101A8000CF9008954AE0C701B6010E94980BEC017F
:101A9000EACF0F931F93CF93DF93EC018881998155
:101AA000009759F02A813B812617370730F081E0F3
:101AB000DF91CF911F910F9108958B016F5F7F4F41
:101AC0000E94C028009759F0998388831B830A835A
:101AD0002C813D81232B59F7FC011082E8CF80E057
:101AE000E7CFEF92FF920F931F93CF93DF93EC0119
:101AF000FB01E080F180E114F10411F10481158112
:101B000001151105A9F08C819D81080F191FB801DD
:101B1000CE010E94490D882399F0288139818C815A
:101B20009D81B701820F931F0E948B291D830C8317
:101B3000CE01DF91CF911F910F91FF90EF9008950B
:101B4000CE010E94D40AF4CFEF92FF920F931F931D
:101B5000CF93DF93EC017B018A01BA010E94490D0A
:101B600081110BC0CE010E94D40ACE01DF91CF912A
:101B70001F910F91FF90EF9008951D830C83B70183
:101B8000888199810E948B29F0CFFB010190002070
:101B9000E9F73197AF01461B570B0C94A40DEF9258
:101BA000FF920F931F93CF93DF93CDB7DEB72C97A0
:101BB0000FB6F894DEBF0FBECDBF8C017B011A8239
:101BC00019821C821B821E821D828AE38F831886E3
:101BD000BE01695F7F4FCE0101960E94C50D188638
:101BE0001F821A8619861C861B86F8016081718106
:101BF0006115710531F044815581CE0107960E942F
:101C0000A40DBE016F5F7F4FCE0107960E94710D3C
:101C1000B7010E94710DFC01448155816081718181
:101C200082ED95E00E94F0056CE771E082ED95E0B1
:101C30000E94890BCE0107960E94E60ACE0101960A
:101C40000E94E60A2C960FB6F894DEBF0FBECDBFF9
:101C5000DF91CF911F910F91FF90EF900895EF9238
:101C6000FF920F931F93CF93DF93CDB7DEB7A1976A
:101C70000FB6F894DEBF0FBECDBF7C01CB01BA0119
:101C8000F7011182108213821282158214828E0152
:101C90000F5F1F4F22E044E00E94B821009789F0B7
:101CA000BC01C7010E94C50DA1960FB6F894DEBF16
:101CB0000FBECDBFDF91CF911F910F91FF90EF909D
:101CC0000895C7010E94D40AEFCF0F931F93CF93BB
:101CD000DF93CDB7DEB762970FB6F894DEBF0FBEC5
:101CE000CDBF8C01CB01F8011182108213821282C8
:101CF000158214824AE0BE016F5F7F4F0E94D62199
:101D0000BE016F5F7F4FC8010E94C50D62960FB67E
:101D1000F894DEBF0FBECDBFDF91CF911F910F9121
:101D20000895FC011182108213821282158214829E
:101D3000FB0101900020E9F73197AF01461B570BDB
:101D40000C94A40DCF92DF92EF92FF920F931F930A
:101D5000CF93DF93CDB7DEB767970FB6F894DEBFAA
:101D60000FBECDBF8BE891E00197F1F741E061E054
:101D700082E10E94140410927F0380937E0310E09E
:101D8000813029F486EC95E00E948C02182F84E9BA
:101D900091E00E94D30C112309F462C083EE93E01A
:101DA0000197F1F741E060E182E10E941404109292
:101DB0007F0380937E03803109F052C08E010F5F54
:101DC0001F4F6E0181E1C80ED11C780186EC95E0B1
:101DD0000E948C02F80181938F01CE16DF06B1F7C5
:101DE0000D811E81B80190E080E04AE00E94980BCE
:101DF0006CE771E08FE696E00E94890B1B8A1A8AD5
:101E00001D8A1C8A1F8A1E8A4AE0B701C8010E94E7
:101E10000322B701CE0142960E94C50D6BE971E025
:101E2000C7010E94910EBE016E5E7F4FC7010E94E6
:101E3000CF0DC7010E94E60ACE0142960E94E60A33
:101E4000802F67960FB6F894DEBF0FBECDBFDF912F
:101E5000CF911F910F91FF90EF90DF90CF90089559
:101E6000F0CFEF92FF920F931F93CF93DF93CDB7F5
:101E7000DEB762970FB6F894DEBF0FBECDBF64EA3F
:101E800071E0CE0107960E94910E68EB71E0CE01E1
:101E900001960E94910EBE01695F7F4FCE010196AF
:101EA0000E94CF0DCE0101960E94E60ACE01079650
:101EB0000E94E60A8CEA91E00E94D30C0E94A20ED6
:101EC000843009F09AC06FEB71E0CE0107960E9452
:101ED000910E68EB71E0CE0101960E94910EBE0159
:101EE000695F7F4FCE0101960E94CF0DCE01019612
:101EF0000E94E60ACE0107960E94E60A81E08093DE
:101F0000660380916503882371F081E062960FB6C5
:101F1000F894DEBF0FBECDBFDF91CF911F910F911F
:101F2000FF90EF9008950E94970184E1E82E84E0ED
:101F3000F82E10E000E0F70141915191619171910B
:101F40007F01CE010D960E942F0EB801CE0107969B
:101F50000E94650E65EC71E0CE0101960E94910E23
:101F6000BE01695F7F4FCE0101960E94710DBE01D7
:101F7000635F7F4F0E94CF0DCE0101960E94E60A5B
:101F8000CE0107960E94E60ACE010D960E94E60A4F
:101F9000F701EC52FF4F4081518162817381CE0184
:101FA0000D960E942F0EB801CE0107960E94650E75
:101FB00061EF72E0CE0101960E94910EBE01695F51
:101FC0007F4FCE0101960E94710DBE01635F7F4F6E
:101FD0000E94CF0DCE0101960E94E60ACE0107961F
:101FE0000E94E60ACE010D960E94E60A0F5F1F4F7F
:101FF0000633110509F09FCF88CF80E087CFCF93BC
:10200000DF93CDB7DEB72C970FB6F894DEBF0FBEC7
:10201000CDBF64EA71E0CE0107960E94910E63ED98
:1020200071E0CE0101960E94910EBE01695F7F4F63
:10203000CE0101960E94CF0DCE0101960E94E60AC4
:10204000CE0107960E94E60A87EC91E00E94D30C2D
:102050000E94A20E833089F56FEB71E0CE010796E6
:102060000E94910E63ED71E0CE0101960E94910EE7
:10207000BE01695F7F4FCE0101960E94CF0DCE0158
:1020800001960E94E60ACE0107960E94E60A809118
:102090006603882379F081E08093640381E0809374
:1020A00065032C960FB6F894DEBF0FBECDBFDF914F
:1020B000CF91089510926403F1CF80E0F2CF4F9258
:1020C0005F926F927F928F929F92AF92BF92CF92C8
:1020D000DF92EF92FF920F931F93CF93DF93CDB7D1
:1020E000DEB76A970FB6F894DEBF0FBECDBF9A8FEA
:1020F000898F4A015B01280139010E941E05A98DC3
:10210000BA8D96966D937D938D939C939997A50127
:102110009401C301B8010E94E7256B017C0120E016
:1021200030E0A9010E94402718160CF032C111E0DE
:1021300020E030E040E85EE3C701B6010E9440279E
:1021400018160CF010E0A5019401C301B2010E9421
:10215000E8254B015C01A98DBA8D1E968D919D914C
:102160000D90BC91A02D8D839E83AF83B887E98DA0
:10217000FA8D46885788608C718CC301B2010E9429
:10218000542669877A878B879C87A98DBA8D52964A
:102190008D919D910D90BC91A02D8D879E87AF87CD
:1021A000B88BC301B2010E944527698B7A8B8B8B58
:1021B0009C8B112309F4FAC0A98DBA8D9E968D913E
:1021C0009D910D90BC91A02D89839A83AB83BC8394
:1021D00020E030E040E05FE3BC01CD010E94CA2472
:1021E0006D8B7E8B8F8B988FA7019601C501B401F3
:1021F0000E9459269B01AC016D897E898F89988D3B
:102200000E94CA244B015C0129813A814B815C8187
:10221000C701B6010E9459262DEC3CEC4CE45DE36D
:102220000E94CA24A30192010E94E8256B017C014F
:102230000E9445272B013C0129893A894B895C89F9
:10224000C501B4010E94CA249B01AC016D817E814D
:102250008F8198850E94E72569837A838B839C838D
:10226000A5019401C301B2010E94CA249B01AC01E3
:1022700069817A818B819C810E94E825E98DFA8DA4
:1022800066877787808B918BC701B6010E945426A1
:102290002B013C0129853A854B855C85C501B4013C
:1022A0000E94CA2469837A838B839C83A50194014D
:1022B000C301B2010E94CA249B01AC0169817A81E9
:1022C0008B819C810E94E7252D853E854F8558890D
:1022D0000E94E825A98DBA8D52966D937D938D93BA
:1022E0009C935597FD01C68AD78AE08EF18EA98D01
:1022F000BA8D5696CD90DD90ED90FC9059972BEDD0
:102300003FE049EC50E4C701B6010E94402718168F
:102310000CF08BC02BED3FE049EC50E4C701B60157
:102320000E94E725E98DFA8D668B778B808F918FE0
:10233000E98DFA8D86859785A089B18982AB93ABAB
:10234000A4ABB5AB82899389A489B58986AB97ABD9
:10235000A0AFB1AF86899789A08DB18D82AF93AFC1
:10236000A4AFB5AF6A960FB6F894DEBF0FBECDBF6F
:10237000DF91CF911F910F91FF90EF90DF90CF9061
:10238000BF90AF909F908F907F906F905F904F9095
:10239000089520E030E040E85EEBC701B6010E94FE
:1023A0006424182F111F1127111FCDCE20E030E01B
:1023B00040E05FE3C501B4010E94CA246B017C01C7
:1023C00029853A854B855C850E94CA242DEC3CEC1E
:1023D0004CE45DE30E94CA242D813E814F815885E3
:1023E0000E94E825A98DBA8D1E966D937D938D93DD
:1023F0009C93519729893A894B895C89C701B60119
:102400000E94CA242DEC3CEC4CE45DE30E94CA24FB
:102410002D853E854F8558890E94E825E98DFA8DE6
:10242000628B738B848B958B62CF20E030E0A901A7
:10243000C701B6010E94642487FF7ACF2BED3FE0ED
:1024400049EC50E4C701B6010E94E825A98DBA8D78
:1024500056966D937D938D939C93599769CF2F9248
:102460003F924F925F926F927F928F929F92AF9224
:10247000BF92CF92DF92EF92FF920F931F93CF9371
:10248000DF93CDB7DEB72C970FB6F894DEBF0FBE43
:10249000CDBF6B017C012B013C0177FA709477F87A
:1024A000709480911A01882309F49CC020E030E0E8
:1024B000A901C7010E94402718160CF086C07C2D88
:1024C0006D2D9E2D8F2D272F362F492F582FC70169
:1024D000B6010E9459260E94CB265B0170E060E0A5
:1024E00090E080E00E9427088091A6079091A707BE
:1024F0002EE1289FA001299F500D11245A83498362
:1025000080911204909113049C878B871C01319455
:10251000219431089501BB0C440B550B2F83388750
:1025200049875A874B855C8557FDA101809112042C
:102530009091130497FF03C09195819591099A0199
:10254000281B390B121613061CF09C01241B350B9B
:1025500049815A8142175307ECF16F81788589854B
:102560009A850E946B2420E030E046E952E40E9404
:10257000CA244B015C010E94CB266B837C838D8334
:102580009E83C501B40190580E94CB26CB016B817C
:102590007C810E94270886EC96E00E94D909882356
:1025A00009F4C0CF86EC96E00E94480A4B015C011A
:1025B00086EC96E00E948E0AAB01BC019501840175
:1025C00086EC96E00E945F10ADCF742D652D962DA0
:1025D000872D79CF70E060E090E080E00E942708CE
:1025E00010921A01C701B6010E94CB266B01C301EC
:1025F000B2010E94CB26CB01B6010E942708809130
:10260000A8070E94CB039A8389838091AA070E941E
:10261000CB03C090B007D090B107E090B207F09024
:10262000B307BC01990F880B990B0E946B24A7017B
:1026300096010E94642487FD10C0A981BA81BD0162
:10264000BB0F880B990B0E946B249B01AC01C70147
:10265000B6010E944027181614F570E060E090E083
:1026600080E00E94270881E080931A012C960FB623
:10267000F894DEBF0FBECDBFDF91CF911F910F91B8
:10268000FF90EF90DF90CF90BF90AF909F908F9092
:102690007F906F905F904F903F902F90089580E0D3
:1026A000E5CF1F920F920FB60F9211242F933F93F5
:1026B0004F935F936F937F938F939F93AF93BF934A
:1026C000EF93FF938091B900887F803609F44AC068
:1026D000F0F5883209F4A5C018F5803109F499C0E5
:1026E000B8F4882309F4F5C0883009F492C0FF914A
:1026F000EF91BF91AF919F918F917F916F915F917A
:102700004F913F912F910F900FBE0F901F901895F2
:10271000883109F486C0803251F78093EA0314C0EF
:10272000803409F49BC040F48033B9F38833F9F660
:102730008093EA0385ECAEC0803509F483C0883508
:1027400009F494C0883499F60E94EE0AD0CF8839F3
:1027500009F48AC038F5883729F050F4883611F02A
:10276000803729F683E080930C041092C30355C090
:10277000883809F479C0803919F0803809F0B7CF6A
:102780008091C303803208F06FC0E091C30381E001
:102790008E0F8093C3038091BB00F0E0ED55FC4F9A
:1027A00080833BC0803B39F0D0F4803A09F477C095
:1027B000883A09F09CCF84E080930C041092A20325
:1027C0001092A103F0E0E0E009958091A10381114E
:1027D0000FC081E08093A1031092810309C0803C67
:1027E00009F4A8CF883C09F4A5CF883B09F07FCF36
:1027F000E091A20381E08E0F8093A203F0E0EF57F7
:10280000FC4F80818093BB009091A2038091A10333
:1028100029C08091E7038093BB0085EC8093BC00C6
:1028200066CF9091E9038091E803981758F5E091FD
:10283000E90381E08E0F8093E903F0E0EA53FC4F57
:102840008081E9CFE091E90381E08E0F8093E90375
:102850008091BB00F0E0EA53FC4F80839091E90344
:102860008091E8039817C8F285E8D8CFE091E90392
:1028700081E08E0F8093E9038091BB00F0E0EA5382
:10288000FC4F80838091EB0381115ECF81E08093C8
:10289000E60384EA8093BC0010920C0428CF85ECF8
:1028A0008093BC0010920C048091C303803230F4FA
:1028B000E091C303F0E0ED55FC4F10826091C3033B
:1028C00070E083EA93E0F0E0E0E009951092C30342
:1028D0000ECF1092EA0338CF1F920F920FB60F92CD
:1028E00011242F933F938F939F93AF93BF93809126
:1028F0006A0390916B03A0916C03B0916D033091CA
:10290000690323E0230F2D3758F50196A11DB11D52
:102910002093690380936A0390936B03A0936C03E5
:10292000B0936D0380916E0390916F03A09170033B
:10293000B09171030196A11DB11D80936E03909318
:102940006F03A0937003B0937103BF91AF919F91F8
:102950008F913F912F910F900FBE0F901F90189560
:1029600026E8230F0296A11DB11DD2CF1F920F9210
:102970000FB60F9211242F933F934F935F936F9352
:102980007F938F939F93AF93BF93EF93FF93E091C8
:102990001401F09115010995FF91EF91BF91AF914D
:1029A0009F918F917F916F915F914F913F912F9167
:1029B0000F900FBE0F901F9018951F920F920FB699
:1029C0000F9211242F933F934F935F936F937F93B5
:1029D0008F939F93AF93BF93EF93FF93E091120177
:1029E000F09113010995FF91EF91BF91AF919F91E4
:1029F0008F917F916F915F914F913F912F910F90A8
:102A00000FBE0F901F9018951F920F920FB60F9246
:102A100011242F933F934F935F936F937F938F93E3
:102A20009F93AF93BF93EF93FF93E0911001F091C9
:102A300011010995FF91EF91BF91AF919F918F91F6
:102A40007F916F915F914F913F912F910F900FBEAA
:102A50000F901F9018951F920F920FB60F9211248E
:102A60002F933F934F935F936F937F938F939F9396
:102A7000AF93BF93EF93FF93E0910E01F0910F019D
:102A80000995FF91EF91BF91AF919F918F917F91A8
:102A90006F915F914F913F912F910F900FBE0F90CB
:102AA0001F9018951F920F920FB60F9211242F931B
:102AB0003F934F935F936F937F938F939F93AF93C6
:102AC000BF93EF93FF93E0910C01F0910D010995F5
:102AD000FF91EF91BF91AF919F918F917F916F91F6
:102AE0005F914F913F912F910F900FBE0F901F90CC
:102AF00018951F920F920FB60F9211248F939F93E8
:102B00008091E1009091E100937F9093E10083FF39
:102B10000FC01092E90091E09093EB001092EC004E
:102B200092E39093ED001092C50398E09093F0002B
:102B300082FF22C093E09093E9009091F2009923E4
:102B400019F09AE39093E80090915F03992341F084
:102B500090915F03915090935F03911101C05D9A32
:102B60009091C403992341F09091C40391509093A4
:102B7000C403911101C0289A84FF18C08091E2001B
:102B80008E7E81608093E2008091E1008F7E809351
:102B9000E100809160038E7E8061809360039F914D
:102BA0008F910F900FBE0F901F90189580FFF7CF59
:102BB0008091E2008E7E80618093E2008091E1004E
:102BC0008E7E8093E100809160038E7E8160E5CFF0
:102BD0001F920F920FB60F921124CF92DF92EF92B5
:102BE000FF920F931F932F933F934F935F936F9396
:102BF0007F938F939F93AF93BF93EF93FF93CF9365
:102C0000DF93CDB7DEB76C97DEBFCDBF1092E90082
:102C10008091E80083FF25C068E0CE0145960E94C0
:102C2000E30582EF8093E8008D8987FF39C090919A
:102C3000E80090FFFCCF982F907609F034C19E8970
:102C40004F89588D2F89F88C911131C0803861F5EA
:102C5000809161038093F1001092F1008EEF8093D8
:102C6000E8006C960FB6F894DEBF0FBECDBFDF91C3
:102C7000CF91FF91EF91BF91AF919F918F917F91F4
:102C80006F915F914F913F912F911F910F91FF9005
:102C9000EF90DF90CF900F900FBE0F901F90189580
:102CA0009EEF9093E800C7CF1092F100D5CF9130FE
:102CB00059F48111D3CF4130510581F680916103E0
:102CC0008D7F80936103CACF933049F48111C6CFC1
:102CD0004130510519F6809161038260F2CF953041
:102CE00041F48091E80080FFFCCF20682093E3004E
:102CF000B5CF963009F0A9C00B8D1C8D22E0109243
:102D0000E90010925D0310925C03F2122EC0109243
:102D10005B0310925A030E94B2051F8299E09983C7
:102D2000FA8291E09E8390EA98879AEF99872091A2
:102D30005C0330915D03275F3F4F3C832B838D8382
:102D40001092E90010925D0310925C0310935B03F4
:102D500000935A0349E050E0BE016F5F7F4F80E06F
:102D60000E948C050E94B20579CF10935B030093FB
:102D70005A030E94C202DC0112960D911C910115AA
:102D8000110509F451C1D801ED91FC910480F58140
:102D9000E02DBE016B5E7F4FC8010995009709F0D9
:102DA0003EC1F80100851185EACFF3E0FF120EC0A5
:102DB0008F89882309F440C0823061F440E862E1E1
:102DC0008DE392E00E945905811148CF81E2809302
:102DD000EB0047CF813029F440E862E18AE292E0DB
:102DE000F1CF833099F70E94C202DC011296ED9078
:102DF000FC908E010F5F1F4F6801E114F10479F020
:102E0000D701ED91FC910680F781E02DB801C70153
:102E10000995080F111DF701E084F184EECFD80168
:102E20001C92F60101900020E9F73197BF016C195F
:102E30007D0940E0C601C6CF64E172E0FB01449128
:102E400050E080E80E948C0509CF973009F4BECF8E
:102E5000983021F481E08093F10000CF993009F09F
:102E6000FDCE837009F0B2CFE2E2F1E081E031E023
:102E700096E32191222371F08093E9003093EB00D7
:102E8000DF0111972C912093EC009093ED008F5F60
:102E9000873079F78EE78093EA001092EA008F89F5
:102EA0008093C503DBCE8B8D9C8D1092E900109230
:102EB0005D0310925C0390935B0380935A03898DAA
:102EC000811192C08E899D89913A49F4813209F02D
:102ED0007DCF47E050E064E071E080E0B3CF913215
:102EE00009F074CF833269F48F89988DB0E0A0E047
:102EF0008093000190930101A0930201B09303011C
:102F0000ADCE803269F48091E80082FFFCCF67E0AB
:102F100084E091E00E94E3058BEF8093E8009ECE71
:102F2000823209F09BCE8F8980930B01EEEFFFE791
:102F3000859194918B3F9C4D51F1E0E0F8E08091B8
:102F4000040190910501A0910601B0910701803B19
:102F50009440A105B105F1F480910B0180FD1AC0E8
:102F6000EE3F8AE0F80789F587E797E7918380834A
:102F70008091600080935E0388E19BE00FB6F89437
:102F8000A895809360000FBE9093600067CEEEEF2F
:102F9000FAE0D5CF808191818737974709F05ECEDF
:102FA000A8958091600088618093600080915E03A5
:102FB00080936000EE3F2AE0F20789F08091FE0ADC
:102FC0009091FF0A9183808349CE808191818737D8
:102FD000980751F29093FF0A8093FE0AC5CF109292
:102FE000FF0A1092FE0A3ACE0E94C202DC0112963B
:102FF0000D911C910115110509F4E8CED801ED9150
:10300000FC910190F081E02DBE016B5E7F4FC80105
:103010000995811123CEF80100851185EBCF181693
:1030200019060CF41BCED2CEF1E0FF12BECE68E141
:1030300072E004CF1F920F920FB60F9211242F93BC
:103040003F934F935F936F937F938F939F93AF9330
:10305000BF93EF93FF9382ED95E00E947106FF917D
:10306000EF91BF91AF919F918F917F916F915F9100
:103070004F913F912F910F900FBE0F901F90189579
:103080001F920F920FB60F9211242F938F939F933D
:10309000EF93FF93E091E205F091E3058081E091E9
:1030A000E805F091E90582FD1BC090818091EB0558
:1030B0008F5F8F732091EC05821741F0E091EB0553
:1030C000F0E0EE52FA4F958F8093EB05FF91EF9170
:1030D0009F918F912F910F900FBE0F901F90189579
:1030E0008081F4CF1F920F920FB60F9211242F936D
:1030F0003F934F935F936F937F938F939F93AF9380
:10310000BF93EF93FF93CF93DF9300D01F92CDB780
:10311000DEB783B1898389819091BF0689278A832D
:1031200080916B009A8189238B838B8180FF05C0FE
:10313000E0914A03F0914B0309958B8181FF05C013
:10314000E0914C03F0914D0309958B8182FF05C0FE
:10315000E0914E03F0914F0309958B8183FF05C0E9
:10316000E0915003F091510309958B8184FF05C0D4
:10317000E0915203F091530309958B8185FF05C0BF
:10318000E0915403F091550309958B8186FF05C0AA
:10319000E0915603F091570309958B8187FF05C095
:1031A000E0915803F0915903099589818093BF06F6
:1031B0000F900F900F90DF91CF91FF91EF91BF9102
:1031C000AF919F918F917F916F915F914F913F91BF
:1031D0002F910F900FBE0F901F901895E6ECF5E021
:1031E0001382128288EE93E0A0E0B0E0848395839E
:1031F000A683B7832CE231E031832083E2EDF5E052
:103200001382128284839583A683B7832EE331E0F1
:10321000318320832DEC30E0358724872CEC30E09F
:103220003787268728EC30E0318B208B29EC30E083
:10323000338B228B2AEC30E0358B248B2EEC30E064
:10324000378B268B118E128E138E148EEFE6F6E0DE
:103250001382128284839583A683B78380E591E0ED
:10326000918380838FEF9FEF9587848783B18093CD
:10327000BF061092E407ECECF7E0128215828EE6AE
:1032800091E091838083E4ECF7E01282158288E676
:1032900091E091838083E8EBF7E01282158210863B
:1032A0008EE0818781E08287838782E691E0918347
:1032B0008083E6ECF6E080E090E0A4EBB4E4808369
:1032C0009183A283B38380E090E0ACE0B2E4848396
:1032D0009583A683B78388E599EEABE5B3E4808751
:1032E0009187A287B38782E390E0958784871686CB
:1032F0001786108A118A128A138A148A158A168AE6
:10330000178A108E118E128E138E148E158E168EB5
:10331000178E10A211A212A213A214A215A280E06D
:1033200090EEAEE0B3E486A797A7A0ABB1AB12AA2C
:1033300013AA14AA15AA16AA17AA10AE11AE12AE95
:1033400013AE14AE15AE80E090E0A0E0BFE3809332
:10335000960790939707A0939807B09399078DECE1
:103360009CECACE4BEE380939A0790939B07A093F8
:103370009C07B0939D0710929E0710929F07109292
:10338000A0071092A1071092A2071092A307109213
:10339000A4071092A50788E090E09093A707809378
:1033A000A60785E190E09093A9078093A80786E19E
:1033B00090E09093AB078093AA078DEC9CECACEC6B
:1033C000BCE38093AC079093AD07A093AE07B09396
:1033D000AF0780E090E0A8E4B3E48093B007909357
:1033E000B107A093B207B093B30780E090E0A8ECD8
:1033F000B2E48093B4079093B507A093B607B09357
:10340000B7076EE771E080EC96E00E94910E0C9495
:103410001E05CF93DF93CDB7DEB7CC55D1090FB6DC
:10342000F894DEBF0FBECDBF789484B5826084BDB2
:1034300084B5816084BD85B5826085BD85B58160B8
:1034400085BD80916E00816080936E001092810036
:1034500080918100826080938100809181008160F1
:1034600080938100809180008160809380008091B2
:10347000910082608093910080919100816080939F
:103480009100809190008160809390008091C100B4
:1034900084608093C1008091C10082608093C100EC
:1034A0008091C10081608093C1008091C3008160E0
:1034B0008093C3008091C00082608093C00080919F
:1034C000C20081608093C20080917A008460809302
:1034D0007A0080917A00826080937A0080917A00ED
:1034E000816080937A0080917A00806880937A006E
:1034F0001092C50310926103109260038091D7006F
:1035000081608093D70080EA8093D80089B580617C
:1035100089BD89B5826089BD09B400FEFDCF61E037
:1035200070E080E090E00E94EC048091D8008F7CF5
:1035300080618093D8008091E000807F8093E000DC
:103540008091E1008E7E8093E1008DE08093E20027
:10355000559A209A0E941E056093F0067093F1061A
:103560008093F2069093F3061092F8061092F906F3
:103570001092FA061092FB061092FC061092FD06BD
:103580001092FE061092FF0610920007109201079B
:1035900010920207109203078091C4059091C5050F
:1035A000FC01EE0FFF1FEE0FFF1FEC5EFB4F1082C2
:1035B000118212821382FC01EE0FFF1FEE0FFF1F1C
:1035C000E451FB4F10821182128213820196909374
:1035D000C5058093C40560E08DE10E948F038DE1F5
:1035E00090E0909317018093160160E082E10E94C1
:1035F0008F0382E190E09093190180931801E0918C
:10360000E205F091E30582E08083E091DE05F09130
:10361000DF051082E091E005F091E10580E1808313
:103620001092EA05E091E605F091E70586E08083D7
:10363000E091E405F091E505808180618083E0916F
:10364000E405F091E505808188608083E091E405E0
:10365000F091E505808180688083E091E405F09138
:10366000E50580818F7D80839E012F5F3F4F19018B
:103670003E013DE3630E711C57E0452E512C86EC54
:1036800096E00E94D909882309F459C086EC96E097
:103690000E94480A6B017C0186EC96E00E948E0A2B
:1036A000AB01BC019701860186EC96E00E945F1099
:1036B0000E941E051EAE1DAE21961FAE1EAE2197A6
:1036C00023961FAE1EAE23972AE0A1010E94E1219E
:1036D000B101C3010E94C50D67ED71E0C1010E94F7
:1036E000910EB301C1010E94CF0DC1010E94E60AF3
:1036F000C3010E94E60AE0916703F0916803E93094
:10370000F105E8F4EA57F44E0C94E1258F1BBB1B3E
:10371000F81F52207920BC20C520DA20642184ECD7
:1037200097E00E946A098823B9F041E050E0509385
:1037300068034093670381EE91E00E94D30C80E020
:1037400090E0892B09F49BCF0E945D06882309F441
:1037500096CF0E94000093CF8CEC97E00E946A09FC
:10376000882369F388E090E090936803809367036F
:103770008CEE91E0E2CF8091A8070E94CB038C01F0
:103780008091AA070E94CB039C01B801110F880BFE
:10379000990B8901330F220B330B600F711F821FAE
:1037A000931F0E946B242091B0073091B107409184
:1037B000B2075091B3070E94642487FFECC070E009
:1037C00060E090E080E00E94270868EE73E080E00F
:1037D00090E00E94EC040E941E056D966CAF7DAFD8
:1037E0008EAF9FAF6D970E941E056D962CAD3DADBF
:1037F0004EAD5FAD6D97621B730B840B950B693BF0
:103800007B408105910508F000C186EC96E00E949E
:10381000D909882341F386EC96E00E948E0A9B0129
:10382000AC0160E070E084E092E40E94E7256596D8
:103830006CAF7DAF8EAF9FAF659786EC96E00E9430
:10384000480A9B01AC0160E070E084E092E40E94D1
:10385000E7252D966CAF7DAF8EAF9FAF2D97209152
:103860009E0730919F074091A0075091A107659650
:103870006CAD7DAD8EAD9FAD65970E94E8256996D4
:103880006CAF7DAF8EAF9FAF699760939E077093CB
:103890009F078093A0079093A1072091A2073091E2
:1038A000A3074091A4075091A5072D966CAD7DAD5F
:1038B0008EAD9FAD2D970E94E8254B015C01809253
:1038C000A2079092A307A092A407B092A507C09068
:1038D0009607D0909707E0909807F090990780910D
:1038E0009A0790919B07A0919C07B0919D076196C4
:1038F0008CAF9DAFAEAFBFAF6197A70196012D967C
:103900006CAD7DAD8EAD9FAD2D970E94CA242D96D6
:103910006CAF7DAF8EAF9FAF2D9761962CAD3DAD57
:103920004EAD5FAD6197C501B4010E94CA249B01F1
:10393000AC012D966CAD7DAD8EAD9FAD2D970E94E7
:10394000E8250E94CB264B01A701960165966CAD38
:103950007DAD8EAD9FAD65970E94CA246B017C0141
:1039600061962CAD3DAD4EAD5FAD619769966CAD86
:103970007DAD8EAD9FAD69970E94CA249B01AC01BD
:10398000C701B6010E94E8250E94CB26CB01B401F5
:103990000E94270828CF8091A8070E94CB038C01A2
:1039A0008091AA070E94CB03B801681B790B072EF0
:1039B000000C880B990B0E946B242091AC0730916E
:1039C000AD074091AE075091AF070E94CA246B012A
:1039D0007C0120E030E048E452E40E94E8250E94A7
:1039E000CB264B01A701960160E070E088E492E4E9
:1039F0000E94E7250E94CB26CB01B4010E94270834
:103A00000E94310F0E94FF0F9ACE70E060E090E0BC
:103A100080E00E94270820EE3EE245E652E46091F5
:103A200000077091010780910207909103070E949F
:103A3000CA246B017C0184EF91E00E94CE0CC70187
:103A4000B6010E94BD0C20E030E84DE953E4C70107
:103A5000B6010E944027181654F020E030E044E3FD
:103A600052E4C701B6010E94642487FFC6C083E503
:103A700092E00E94CE0C8CEF91E00E94CE0C8091DF
:103A8000C4059091C5050E94150D81E192E00E9448
:103A9000CE0CE091C405F091C505EE0FFF1FEE0FAF
:103AA000FF1FEC5EFB4F60817181828193810E94D8
:103AB000BA0C81E991E00E94CE0CE091C405F0912E
:103AC000C505EE0FFF1FEE0FFF1FE451FB4F608196
:103AD0007181828193810E94BD0C0091C405109177
:103AE000C505C801880F991F880F991FDC01AC5EBE
:103AF000BB4F7D01FC01E05FFB4F20E030E040E880
:103B00005FE360817181828193810E94E825F701E2
:103B10006083718382839383F801EE0FFF1FEE0FA2
:103B2000FF1FE851FB4F80819181A281B381000F7B
:103B3000111F000F111FF801E451FB4F8083918387
:103B4000A283B3838CEF91E00E94CE0C8091C405D8
:103B50009091C5050E94150D89E292E00E94CE0C5D
:103B6000E091C405F091C505EE0FFF1FEE0FFF1F9A
:103B7000EC5EFB4F60817181828193810E94BA0C5F
:103B800081E991E00E94CE0CE091C405F091C50559
:103B9000EE0FFF1FEE0FFF1FE451FB4F608171819D
:103BA000828193810E94BD0C8091C4059091C505CE
:103BB00001969093C5058093C40586EC92E00E941F
:103BC000D30C0E94310F0E94FF0F8091660388235F
:103BD00009F405C280916503882309F400C280912D
:103BE0006403882309F4F4C1E6E0F0E0F09368038D
:103BF000E09367038BED92E0A0CD20E030E044E35A
:103C000052E4C701B6010E94402718160CF073C099
:103C100020E030E047E053E4C701B6010E9464248D
:103C200087FF69C08CEF91E00E94CE0C8091C405A3
:103C30009091C5050E94150D81E192E00E94CE0C85
:103C4000E091C405F091C505EE0FFF1FEE0FFF1FB9
:103C5000EC5EFB4F60817181828193810E94BA0C7E
:103C600081E991E00E94CE0CE091C405F091C50578
:103C7000EE0FFF1FEE0FFF1FE451FB4F60817181BC
:103C8000828193810E94BD0C0091C4051091C505ED
:103C90007801F1E0EF1AF108C801880F991F880F29
:103CA000991F9C0124513B4F6901FC01E851FB4FD6
:103CB00020E030E040E85FE36081718182819381A0
:103CC0000E94E825D6016D937D938D939C93139765
:103CD000F701EE0FFF1FEE0FFF1FEC5EFB4F808121
:103CE0009181A281B381000F111F000F111FF801F4
:103CF000EC5EFB4F23CF20E030E047E053E4C70108
:103D0000B6010E94402718160CF0A9C020E030E050
:103D100041E653E4C701B6010E94642487FF9FC0B7
:103D20008CEF91E00E94CE0C8091C4059091C50566
:103D30000E94150D81E192E00E94CE0CE091C40535
:103D4000F091C505EE0FFF1FEE0FFF1FEC5EFB4F5E
:103D500060817181828193810E94BA0C81E991E036
:103D60000E94CE0CE091C405F091C505EE0FFF1F37
:103D7000EE0FFF1FE451FB4F6081718182819381BF
:103D80000E94BD0C0091C4051091C505C801880FA3
:103D9000991F880F991FFC01EC5EFB4F7F01FC010E
:103DA000E05FFB4F20E030E040E85FE3608171813D
:103DB000828193810E94E725D7016D937D938D9336
:103DC0009C931397F801EE0FFF1FEE0FFF1FE851B2
:103DD000FB4F80819181A281B381000F111F000FE1
:103DE000111FF801E451FB4F80839183A283B383B9
:103DF0008CEF91E00E94CE0C8091C4059091C50596
:103E00000E94150D89E292E00E94CE0CE091C4055B
:103E1000F091C505EE0FFF1FEE0FFF1FEC5EFB4F8D
:103E200060817181828193810E94BA0C81E991E065
:103E30000E94CE0CE091C405F091C505EE0FFF1F66
:103E4000EE0FFF1FE451FB4F6081718182819381EE
:103E50000E94BD0C81E492E00E94CE0CA5CE20E031
:103E600030E041E653E4C701B6010E94402718162E
:103E70000CF0ABC020E030E84DE953E4C701B601D7
:103E80000E94642487FFA1C08CEF91E00E94CE0CB9
:103E90008091C4059091C5050E94150D81E192E0C5
:103EA0000E94CE0CE091C405F091C505EE0FFF1FF6
:103EB000EE0FFF1FEC5EFB4F608171818281938169
:103EC0000E94BA0C81E991E00E94CE0CE091C405F9
:103ED000F091C505EE0FFF1FEE0FFF1FE451FB4FE2
:103EE00060817181828193810E94BD0C0091C40523
:103EF0001091C5057801B1E0EB1AF108C801880FEF
:103F0000991F880F991FFC01E451FB4F6F01FC01C1
:103F1000E851FB4F20E030E040E85FE360817181D1
:103F2000828193810E94E725D6016D937D938D93C5
:103F30009C931397F701EE0FFF1FEE0FFF1FEC5E30
:103F4000FB4F80819181A281B381000F111F000F6F
:103F5000111FF801EC5EFB4F80839183A283B38332
:103F60008CEF91E00E94CE0C8091C4059091C50524
:103F70000E94150D89E292E00E94CE0CE091C405EA
:103F8000F091C505EE0FFF1FEE0FFF1FEC5EFB4F1C
:103F900060817181828193810E94BA0C81E991E0F4
:103FA0000E94CE0CE091C405F091C505EE0FFF1FF5
:103FB000EE0FFF1FE451FB4F60817181828193817D
:103FC0000E94BD0C81E592E047CF81E692E044CFAC
:103FD000509268034092670386EE92E0AECB22E0F7
:103FE00030E0309368032093670383EF92E0A5CB22
:103FF00088E191E00E94AE0920E030E0A9010E9432
:10400000402718166CF588E191E00E94AE0920E087
:1040100030E040EF51E40E94402787FF2DC086E149
:1040200091E00E94AE0920E030E0A9010E94402703
:1040300018165CF586E191E00E94AE0920E030E0C0
:1040400040EF51E40E94642418160CF46ECB84E017
:1040500090E0909368038093670382E093E06DCBD8
:1040600088E191E00E94AE0920E030E040EF51ECA1
:104070000E94642418169CF243E050E050936803B9
:104080004093670388EF92E058CB86E191E00E946D
:10409000AE0920E030E040EF51EC0E94402787FD60
:1040A00044CBD5CF0E94310F0E94FF0F60E070E03B
:1040B00086E992E40E942F12882309F440CB809174
:1040C0006603882309F431CB80916503882309F4C2
:1040D0002CCB80916403882339F0A6E0B0E0B09344
:1040E0006803A09367032BCB509268034092670349
:1040F00026CB0E94310F0E94FF0F60E070E086E93E
:1041000092EC0E942F12882309F419CB8091660348
:10411000882321F0809165038111DBCF86E191E056
:104120000E94AE0920E030E0A9010E944027181645
:10413000B4F486E191E00E94AE0920E030E040EF67
:1041400051E40E94642418160CF4EFCAE5E0F0E094
:10415000F0936803E09367038EE093E0EECA86E194
:1041600091E00E94AE0920E030E040EF51EC0E9467
:10417000402787FDDACAEACF0E94310F0E94FF0F65
:1041800060E070E086E992EC95CF6BE173E0C301EB
:104190000E94910E60E273E0C1010E94910EB30192
:1041A000C1010E94CF0DC1010E94E60AC3010E9415
:1041B000E60AC5CA8091620390916303892B09F4D2
:1041C000BECA0E94E60C0E9497010E94E60C84E1A0
:1041D000C82E84E0D82E0CEE14E0F12CE12C8BE2FA
:1041E00093E00E94CE0C5601D6016D917D918D9188
:1041F0009D916D010E94BA0CF5014081518162814F
:104200007381CE018D5B9F4F0E942F0EB701C301BA
:104210000E94650E65EC71E0C1010E94910EB30130
:10422000C1010E94710DBE016D5B7F4F0E94CF0DD9
:10423000C1010E94E60AC3010E94E60ACE018D5B1D
:104240009F4F0E94E60A8FE293E00E94CE0C580135
:10425000D8016D917D918D919D918D010E94BD0C34
:10426000F5014081518162817381CE018D5B9F4F49
:104270000E942F0EB701C3010E94650E61EF72E02C
:10428000C1010E94910EB301C1010E94710DBE01D6
:104290006D5B7F4F0E94CF0DC1010E94E60AC301F2
:1042A0000E94E60ACE018D5B9F4F0E94E60AFFEF57
:1042B000EF1AFF0A26E3E216F10409F090CF1092FC
:1042C0006303109262033BCA81016EE771E0C8018B
:1042D0000E94910E0A5F1F4F60167106B1F782EDC2
:1042E00095E00E945106892BA9F182ED95E00E948C
:1042F0002F06F82E8DAF1EAE0091C4061091C50694
:104300000F5F1F4FB80180EC96E00E94490D882393
:1043100089F02091C0063091C1068091C406909129
:10432000C506B301820F931F0E948B291093C50607
:104330000093C4063AE0F312D2CF4091C4065091E4
:10434000C5066091C0067091C1068FE696E00E9496
:10435000FE06C5CF830106501109C8010E94E60A76
:1043600020163106C1F7EBC980EC96E00C94E60A02
:10437000EF920F931F93CF93DF93E80134E047FD53
:1043800034E1042E000C550B57FF03C051954195A5
:104390005109E32E022F242FAE010E941D22CE01CF
:1043A000DF91CF911F910F91EF900895BB274A3075
:1043B00031F4992322F4BDE2909581959F4F0C949E
:1043C0000422BB27FA01A62F62177105810591050A
:1043D000330B30FB66F0AA27660F771F881F991FE3
:1043E000AA1FA21710F0A21B63953850A9F7A05D71
:1043F000AA3308F0A95DA19336F7B111B1931082E9
:10440000CA010C945424BB27FB015527AA27880F07
:10441000991FAA1FA41710F0A41B83955051B9F738
:10442000A05DAA3308F0A95DA193009779F7B111B7
:10443000B1931192CB010C945424A9E0B0E0E3E2D3
:10444000F2E20C948E256A01F22EB02E102FFBE3BF
:10445000AF2EA01608F41BE31F5F012F27E0AE016B
:104460004F5F5F4F0E947C23BC018981982F997018
:10447000913009F43FC09BE2E1FC04C09E2D917095
:10448000E0FC3AC05E2D5071E82FE87083FF46C013
:1044900084E0911101C083E0EF2DE81B8F1508F037
:1044A000E0E0D6018E2F20E2552351F1992329F027
:1044B000D6019C93C60101966C0196012D5F3F4F7A
:1044C000E2FE24C08EE4D6018C9391E411969C9375
:1044D000119712968C93D9018E2F90E281111BC0F7
:1044E000E20FF32FF11D10828EEF9FEF2996ECE083
:1044F0000C94AA259DE2C6CF90E2C4CF2D938150A3
:104500008111FCCFCE0ED11CE0E0D0CF8EE6D601DB
:104510008C9391E6DBCF9D938150E0CF482F447080
:1045200082FF3DC084E0911101C083E08F1510F43B
:10453000EF2DE81BD6018E2F20E2552309F1992398
:1045400029F0D6019C93C60101966C0196012D5F5E
:104550003F4FE2FE1BC089E4D6018C938EE4119696
:104560008C93119786E412968C93D9018E2F90E24A
:10457000882309F4B5CF9D938150FACF2D938150B4
:104580008111FCCFCE0ED11CE0E0D9CF89E6D60157
:104590008C938EE611968C93119786E6E4CF9B015F
:1045A00077FF02C030E020E0A1E0B0E0911102C04E
:1045B000B0E0A0E0F9013196AE0FBF1F8B2C912C1B
:1045C000BB2009F461C05401EFEFAE1ABE0AAA0D78
:1045D000BB1DFA161B0619F014F04F2D4A1B511182
:1045E00088C0E3FC59C07601A42FB0E2A1114FC0EE
:1045F000C40ED11C992309F45BC040E0D60111968A
:10460000F60190836D01552309F448C0012F060F70
:104610009A81582F507184FF03C0913309F40150DF
:1046200010160CF047C0093008F008E0EEE2FE2E4C
:104630005B01A01AB10885019194819491082F3FE4
:10464000320729F4D601FC92F60131966F01621708
:10465000730794F1021713077CF5DB01A21BB30B60
:10466000AA24A394B12CAC0EBD1EAA0DBB1D11969D
:104670008C9121503109D601119628153905F4F095
:10468000F60180836D01DBCFB12CA12CA0CFF70107
:10469000B1937F01A150AACF9111B0CFD601942F31
:1046A00050E302C05D9391509111FCCFC40ED11C18
:1046B00040E0ACCF01E0BACF80E3DBCF62177307F5
:1046C00031F4963388F4953311F4552369F0F601EB
:1046D0008083FD01842F90E2811108C0A40FB11DD9
:1046E0001C9290E080E002CF81E3F1CF9193815062
:1046F000F3CF911183CF8ACF283008F027E03327FA
:10470000DA01990F311D87FD9160009661057105F1
:1047100039F432602E5F3D9330E32A95E1F7089536
:104720009F3F30F080387105610509F03C5F3C5FC8
:104730003D93913008F08068911DDF93CF931F93D4
:104740000F93FF92EF92192F987F9695E92F9695E8
:104750009695E90FFF27EC5DFE4F99273327EE244E
:10476000FF24A701E70105900894079428F4360F69
:10477000E71EF81E491F511D660F771F881F991FDE
:104780000694A1F70590079428F4E70EF81E491F38
:10479000561FC11D770F881F991F661F0694A1F72A
:1047A0000590079428F4F80E491F561FC71FD11D06
:1047B000880F991F661F771F0694A1F7059007942D
:1047C00020F4490F561FC71FD81F990F661F771F68
:1047D000881F0694A9F784911095177041F0D6951B
:1047E000C79557954795F794E7941A95C1F7EAEC62
:1047F000F0E068941590159135916591959105902B
:104800007FE27395E118F10A430B560BC90BD009EF
:10481000C0F7E10CF11E431F561FC91FD01D7EF4C7
:10482000703311F48A95E6CFE894015030F0080F08
:104830000AF40027021708F4202F2395022F7A3359
:1048400028F079E37D932A95E9F710C07D932A95A6
:1048500089F6069497956795379517951794E118FB
:10486000F10A430B560BC90BD00998F023957E91A2
:1048700073957A3308F070E37C932013B8F77E9138
:1048800070617D9330F0839571E37D9370E32A9599
:10489000E1F71124EF90FF900F911F91CF91DF91DD
:1048A000992787FD90950895DC01FC01672F719190
:1048B0007723E1F7329704C07C916D937083629106
:1048C000AE17BF07C8F308950E94A62408F481E03C
:1048D0000895E89409C097FB3EF4909580957095F3
:1048E00061957F4F8F4F9F4F9923A9F0F92F96E93C
:1048F000BB279395F695879577956795B795F111B1
:10490000F8CFFAF4BB0F11F460FF1BC06F5F7F4F4D
:104910008F4F9F4F16C0882311F096E911C077235F
:1049200021F09EE8872F762F05C0662371F096E868
:10493000862F70E060E02AF09A95660F771F881F37
:10494000DAF7880F9695879597F90895990F0008DB
:10495000550FAA0BE0E8FEEF16161706E807F90751
:10496000C0F012161306E407F50798F0621B730BEC
:10497000840B950B39F40A2661F0232B242B252B6D
:1049800021F408950A2609F4A140A6958FEF811D10
:10499000811D08950E94DD240C944E250E9440251F
:1049A00038F00E94472520F0952311F00C9437250C
:1049B0000C943D2511240C9482250E945F2570F3F0
:1049C000959FC1F3950F50E0551F629FF001729FB4
:1049D000BB27F00DB11D639FAA27F00DB11DAA1FC3
:1049E000649F6627B00DA11D661F829F2227B00D10
:1049F000A11D621F739FB00DA11D621F839FA00D9B
:104A0000611D221F749F3327A00D611D231F849FEA
:104A1000600D211D822F762F6A2F11249F57504041
:104A20009AF0F1F088234AF0EE0FFF1FBB1F661FBC
:104A3000771F881F91505040A9F79E3F510580F085
:104A40000C9437250C9482255F3FE4F3983ED4F311
:104A5000869577956795B795F795E7959F5FC1F729
:104A6000FE2B880F911D9695879597F9089597F9D4
:104A70009F6780E870E060E008959FEF80EC089504
:104A800000240A941616170618060906089500242D
:104A90000A9412161306140605060895092E0394A7
:104AA000000C11F4882352F0BB0F40F4BF2B11F41B
:104AB00060FF04C06F5F7F4F8F4F9F4F089557FD7A
:104AC0009058440F551F59F05F3F71F04795880F7C
:104AD00097FB991F61F09F3F79F087950895121613
:104AE00013061406551FF2CF4695F1DF08C01616BF
:104AF00017061806991FF1CF869571056105089470
:104B00000895E894BB2766277727CB0197F9089586
:104B10002F923F924F925F926F927F928F929F92CD
:104B2000AF92BF92CF92DF92EF92FF920F931F93BB
:104B3000CF93DF93CDB7DEB7CA1BDB0B0FB6F8946C
:104B4000DEBF0FBECDBF09942A88398848885F84AC
:104B50006E847D848C849B84AA84B984C884DF801D
:104B6000EE80FD800C811B81AA81B981CE0FD11D01
:104B70000FB6F894DEBF0FBECDBFED010895A1E2E0
:104B80001A2EAA1BBB1BFD010DC0AA1FBB1FEE1FC7
:104B9000FF1FA217B307E407F50720F0A21BB30B12
:104BA000E40BF50B661F771F881F991F1A9469F78E
:104BB00060957095809590959B01AC01BD01CF01EA
:104BC0000895EE0FFF1F0590F491E02D09945058C1
:104BD000BB27AA270E94FF250C944E250E94402542
:104BE00038F00E94472520F039F49F3F19F426F44D
:104BF0000C943D250EF4E095E7FB0C943725E92F46
:104C00000E945F2558F3BA17620773078407950758
:104C100020F079F4A6F50C9481250EF4E0950B2E86
:104C2000BA2FA02D0B01B90190010C01CA01A001FE
:104C30001124FF27591B99F0593F50F4503E68F159
:104C40001A16F040A22F232F342F4427585FF3CF9A
:104C5000469537952795A795F0405395C9F77EF46B
:104C60001F16BA0B620B730B840BBAF09150A1F0B4
:104C7000FF0FBB1F661F771F881FC2F70EC0BA0F3A
:104C8000621F731F841F48F4879577956795B795C2
:104C9000F7959E3F08F0B0CF9395880F08F09927BD
:104CA000EE0F9795879508950E940327E3950C943E
:104CB0002C270E946D260C944E250E94472558F003
:104CC0000E94402540F029F45F3F29F00C943725DD
:104CD00051110C9482250C943D250E945F2568F3A8
:104CE0009923B1F3552391F3951B550BBB27AA27A5
:104CF00062177307840738F09F5F5F4F220F331FDF
:104D0000441FAA1FA9F335D00E2E3AF0E0E832D0A6
:104D100091505040E695001CCAF72BD0FE2F29D0A9
:104D2000660F771F881FBB1F261737074807AB077B
:104D3000B0E809F0BB0B802DBF01FF2793585F4FF0
:104D40003AF09E3F510578F00C9437250C9482255B
:104D50005F3FE4F3983ED4F3869577956795B795D2
:104D6000F7959F5FC9F7880F911D9695879597F9DD
:104D70000895E1E0660F771F881FBB1F6217730756
:104D80008407BA0720F0621B730B840BBA0BEE1F6B
:104D900088F7E09508950E94D2266894B1110C948A
:104DA000822508950E94672588F09F5798F0B92FB3
:104DB0009927B751B0F0E1F0660F771F881F991F50
:104DC0001AF0BA95C9F714C0B13091F00E9481254C
:104DD000B1E008950C948125672F782F8827B85F5C
:104DE00039F0B93FCCF3869577956795B395D9F7A8
:104DF0003EF490958095709561957F4F8F4F9F4FB2
:104E000008950C943D250E946725D8F3E894E0E0CE
:104E1000BB279F57F0F02AED3FE049EC06C0EE0FAC
:104E2000BB0F661F771F881F28F0B23A620773070F
:104E3000840728F0B25A620B730B840BE3959A95A2
:104E400072F7803830F49A95BB0F661F771F881F62
:104E5000D2F790480C945427EF93E0FF07C0A2EAE2
:104E60002AED3FE049EC5FEB0E94FF250E944E25B2
:104E70000F90039401FC9058ECEAF0E00C9460274A
:104E80000E94A62408F48FEF08959F930E940327A1
:104E90000F9007FCEE5F0C942C270E94A624880B31
:104EA000990B08959F3F31F0915020F487957795A5
:104EB0006795B795880F911D9695879597F90895F1
:104EC0009F938F937F936F93FF93EF939B01AC011D
:104ED0000E94CA24EF91FF910E9474272F913F9165
:104EE0004F915F910C94CA24DF93CF931F930F933C
:104EF000FF92EF92DF927B018C01689406C0DA2E5C
:104F0000EF010E94DD24FE01E894A59125913591E1
:104F100045915591A6F3EF010E94FF25FE019701EF
:104F2000A801DA9469F7DF90EF90FF900F911F913D
:104F3000CF91DF9108950F931F93CF93DF9382302A
:104F4000910510F482E090E0E091E707F091E80726
:104F500030E020E0B0E0A0E0309799F42115310571
:104F600009F44AC0281B390B24303105D8F58A8151
:104F70009B816115710589F1FB0193838283FE0199
:104F800011C0408151810281138148175907E0F017
:104F90004817590799F4109761F012960C931297DD
:104FA00013961C933296CF01DF91CF911F910F91F1
:104FB00008950093E7071093E807F4CF2115310512
:104FC00051F04217530738F0A901DB019A01BD01E6
:104FD000DF01F801C1CFEF01F9CF9093E80780938B
:104FE000E707CDCFFE01E20FF31F8193919322508B
:104FF000310939832883D7CF2091E5073091E6071F
:10500000232B41F420911D0130911E013093E607BE
:105010002093E50720911B0130911C0121153105DA
:1050200041F42DB73EB740911F0150912001241B40
:10503000350BE091E507F091E607E217F307A0F4DE
:105040002E1B3F0B2817390778F0AC014E5F5F4FDE
:105050002417350748F04E0F5F1F5093E607409323
:10506000E507819391939FCFF0E0E0E09CCFCF9351
:10507000DF930097E9F0FC01329713821282A0912E
:10508000E707B091E807ED0130E020E01097A1F4C8
:1050900020813181820F931F2091E5073091E6072F
:1050A0002817390709F061C0F093E607E093E50798
:1050B000DF91CF910895EA01CE17DF07E8F54A8125
:1050C0005B819E0141155105B1F7E901FB83EA833C
:1050D00049915991C40FD51FEC17FD0761F48081E8
:1050E00091810296840F951FE901998388838281BB
:1050F00093819B838A83F0E0E0E012968D919C91EE
:1051000013970097B9F52D913C911197CD01029617
:10511000820F931F2091E5073091E6072817390782
:1051200039F6309751F51092E8071092E707B093DF
:10513000E607A093E507BCCFD383C28340815181AA
:10514000840F951FC817D90761F44E5F5F4F8881A0
:105150009981480F591F518340838A819B81938392
:1051600082832115310509F0B0CFF093E807E09371
:10517000E7079ECFFD01DC01C0CF13821282D7CF9B
:10518000B0E0A0E0E6ECF8E20C948A258C010097F0
:1051900051F4CB010E949B278C01C801CDB7DEB72B
:1051A000E0E10C94A625FC01E60FF71F9C012250BC
:1051B0003109E217F30708F49DC0D901CD91DC91C4
:1051C0001197C617D70798F0C530D10530F3CE0137
:1051D00004978617970708F3C61BD70B2297C1932E
:1051E000D1936D937C93CF010E943728D6CF5B017A
:1051F000AC1ABD0A4C018C0E9D1EA091E707B09120
:10520000E807512C412CF12CE12C109731F58091BD
:10521000E5079091E6078815990509F05CC04616E8
:10522000570608F058C080911B0190911C0100970F
:1052300041F48DB79EB740911F0150912001841B0E
:10524000950BE817F90708F055C0F093E607E093CF
:10525000E507F90171836083A0CF8D919C9111972F
:1052600012966C90129713967C901397A815B90517
:1052700059F56C0142E0C40ED11CCA14DB0420F1C4
:10528000AC014A195B09DA011296159780F0628227
:10529000738251834083D9016D937C93E114F104AF
:1052A00071F0D7011396FC93EE93129776CF229666
:1052B0008C0F9D1FF90191838083F301EFCFF09351
:1052C000E807E093E70769CF4816590608F42C0170
:1052D0007D01D3019ACFCB010E949B277C010097CF
:1052E00049F0AE01B8010E948229C8010E94372806
:1052F000870153CF10E000E050CF81E090E0F894B8
:105300000C949229FB01DC0102C001900D924150E6
:105310005040D8F70895FB01DC0101900D92002068
:10532000E1F7089511E0CCE6D1E004C0FE010E944F
:0E533000E1252196CD36D107C9F7F894FFCFBD
:10533E00FFFFFFFF00E10000000000002A052A0524
:10534E002A052A052A0512001200010000E907802D
:10535E000000C1808100000000000000B102A60222
:10536E001D067C029F028C027D0200000000920648
:10537E00F0052006DE0651062F064306000000004B
:10538E008307FE06A4079907EA07A807C6070000C9
:10539E000000290900000000530B00000000260B3E
:1053AE006E616E00696E66006F7666000D0A0054BF
:1053BE004845204D4150204F48204D5920474F44DD
:1053CE00002020004745542049440054616720497D
:1053DE00443A20004C6F6F6B696E67004C6F6F6BB9
:1053EE00696E6720666F722047617261676500465D
:1053FE006F756E640058004C6F6F6B696E67206638
:10540E006F72204B6579004D51545420466C616784
:10541E000044524956455F4C494E45005245435F44
:10542E004D41500068656164696E67004375727224
:10543E00656E7420436F6F7264696E6174653A2095
:10544E00004F6C6420436F6F7264696E6174657394
:10545E003A2028782C792920004E657720436F6FEB
:10546E007264696E617465733A2028782C792920EC
:10547E00003138302064656772656520636173653D
:10548E00003237302064656772656520636173652D
:10549E00003C3C3C3C3C3C3C3C3C3C3C3C3C3C3C7A
:1054AE003C3C3C3C3C3C3C3C3C3C3C3C3C3C3C5F0B
:1054BE005F5F5F5F5F5F5F5F5F5F5F5F5F5F5F5FEE
:1054CE005F5F6572726F725F5F5F5F5F5F5F5F5F8F
:1054DE005F5F5F5F5F5F5F5F3E3E3E3E3E3E3E3ED6
:1054EE003E3E3E3E3E3E3E3E3E3E3E3E3E3E3E3ECE
:1054FE003E3E3E3E3E005245414348454420494EC5
:10550E0054455253454354494F4E00656E64707274
:10551E00696D61727900454E445345434F4E444187
:10552E005259005455524E004F50454E5F4C454611
:10553E005400434C4F5345445F4C45465400434C36
:10554E004F5345445F46524F4E54005452554500FA
:10555E004B657920466F756E642000583A20002006
:04556E00593A200086
:00000001FF
