:100000000C946D010C94DF1A0C94B81A0C94911A8C
:100010000C946A1A0C9495010C9495010C94431A53
:100020000C9495010C94FF1D0C94061B0C94751BED
:100030000C9495010C9495010C9495010C949501E8
:100040000C9495010C9495010C9495010C949501D8
:100050000C9495010C9495010C9495010C94F9194C
:100060000C9495010C94CD1D0C94A71D0C94950136
:100070000C9495010C9495010C9495010C949501A8
:100080000C9495010C9495010C9495010C94950198
:100090000C947B1E0C9495010C9495010C94950185
:1000A0000C9495010C9495010C94950105A84CCDE8
:1000B000B2D44EB93836A9020C50B9918688083CA2
:1000C000A6AAAA2ABE000000803F00407A10F35A78
:1000D00000A0724E18090010A5D4E80000E8764888
:1000E000170000E40B54020000CA9A3B000000E134
:1000F000F505000080969800000040420F000000C7
:10010000A08601000000102700000000E8030000A6
:1001100000006400000000000A0000000000010070
:10012000000000002C76D888DC674F0823DFC1DF91
:10013000AE59E1B1B796E5E3E453C63AE651997694
:1001400096E8E6C28426EB898C9B62ED407C6FFCCE
:10015000EFBC9C9F40F2BAA56FA5F490055A2AF710
:100160005C936B6CF9676DC11BFCE0E40D47FEF519
:1001700020E6B500D0ED902E030094357705008081
:10018000841E080000204E0A000000C80C333333E0
:10019000330F986E12831141EF8D2114893BE65580
:1001A00016CFFEE6DB18D1844B381BF77C1D901D63
:1001B000A4BBE424203284725E228100C9F124ECC5
:1001C000A1E53D27000000002300260029002C00A7
:1001D0002F00080B000202020000090400000102C7
:1001E000020000052400100105240101010424027D
:1001F00006052406000107058103100040090401DB
:1002000000020A0000000705020240000007058303
:10021000024000000403090412010002EF02014041
:10022000FB1F0023000101020301506F6C6F6C750E
:1002300020436F72706F726174696F6E00506F6CE3
:100240006F6C7520412D5374617220333255340028
:10025000070605040100080A0B0C0D090000000048
:10026000240027002A002D00300000000000250097
:1002700028002B002E0031000404040404030405AC
:100280000202020204030202020206060606060633
:100290000404020202040404080201104080401019
:1002A000204080408008020401804020100201109C
:1002B0008010204040200000000200090F000003D1
:1002C0000401000C0000000000000000000000001D
:1002D0000000000000009A1F062211241FBECFEF6D
:1002E000DAE0DEBFCDBF27E0A8EEB2E001C01D928C
:1002F000A13AB207E1F712E0A0E0B1E0EEE9F3E5E0
:1003000002C005900D92A83EB107D9F711E0CCE6E6
:10031000D1E004C02197FE010E941126CB36D107FF
:10032000C9F70E94B5200C94C2290C9400006F926A
:100330007F928F929F92AF92BF92CF92DF92EF9275
:10034000FF920F931F93CF93DF9380907C05909043
:100350007D05340181E0681A7108CCECD3E088EAAD
:10036000E82E84E0F82E10E000E0061517050CF0EA
:1003700052C06801AFEFCA1ADA0A5E01B4E0AB0EF0
:10038000B11C8C149D0409F43FC0F50121913191F9
:10039000419151915F016C817D818E819F810E948D
:1003A000942481112DC0F501EC52FF4F2081318141
:1003B00042815381D7016D917D918D919C910E94D5
:1003C000942481111DC0FE01C801019634968C153C
:1003D0009D05B4F44C815D816E817F8140835183A2
:1003E00062837383D7014D915D916D917C91DF01A3
:1003F000A852BF4F4D935D936D937C931397E5CFB8
:10040000BFEFCB1ADB0ABDCF0E5F1F4F2896E8E087
:10041000EE0EF11CAACFDF91CF911F910F91FF90AB
:10042000EF90DF90CF90BF90AF909F908F907F9094
:100430006F900895FC0180917B03882311F13FB7F1
:10044000F89482E08093E9002091F200822F90E0FE
:100450001816190614F481E090E0882339F02898E2
:1004600044E640937A034091F1004083222339F01F
:100470002091F200211103C02BE62093E8003FBF3A
:1004800008958FEF9FEF08952FB7F89483E080933E
:10049000E9009091E800892F807295FF04C0909147
:1004A000F20080E4891B2FBF0895809172038111AF
:1004B0000DC082E080936E0384E080936F031092FE
:1004C00071031092700381E0809372038EE693E0D3
:1004D000089581508F3008F047C0E82FF0E0ED58C4
:1004E000FD4F0C94112690029402820288028C0225
:1004F000B402B402B40297029D02A102A502AB02AB
:10050000B402AF02809180008F77809380000895BD
:10051000809180008F7DF9CF80918000877FF5CF1B
:1005200084B58F7784BD089584B58F7DFBCF80918E
:1005300090008F77809390000895809190008F7D38
:10054000F9CF80919000877FF5CF8091C0008F77A1
:100550008093C00008958091C0008F7DF9CF809175
:10056000C200877F8093C20008951F93CF93DF93CB
:10057000282F30E0F901EA54FD4F8491F901E95642
:10058000FD4FD491F901E858FD4FC491CC23A9F057
:10059000162F81110E946902EC2FF0E0EE0FFF1F71
:1005A000E659FD4FA591B4918FB7F894EC911111D4
:1005B00008C0D095DE23DC938FBFDF91CF911F91D0
:1005C0000895DE2BF8CFCF93DF9390E0FC01E9563E
:1005D000FD4F249188589D4FFC0184918823C9F0D8
:1005E00090E0880F991FFC01E45AFD4FA591B4914A
:1005F000FC01E659FD4FC591D49161110DC09FB723
:10060000F8948C91209582238C93888128232883C9
:100610009FBFDF91CF910895623051F49FB7F89456
:100620003C91822F809583238C93E8812E2BEFCFF2
:100630008FB7F894EC912E2B2C938FBFEACF823199
:1006400008F08251E82FF0E0E05BFD4FE4919091DB
:100650007B008E2F880F880F80729F7D892B80935F
:100660007B00E770E064E0937C0080917A00806416
:1006700080937A0080917A0086FDFCCF809178008B
:100680009091790008953FB7F89480916A03909112
:100690006B03A0916C03B0916D0326B5A89B05C0B8
:1006A0002F3F19F00196A11DB11D3FBFBA2FA92FF1
:1006B000982F8827BC01CD01620F711D811D911DEE
:1006C00042E0660F771F881F991F4A95D1F708955A
:1006D0008F929F92AF92BF92CF92DF92EF92FF9252
:1006E0004B015C010E9443036B017C010E944303A8
:1006F0006C197D098E099F09683E7340810591053B
:10070000A8F321E0821A9108A108B10888EEC80E6A
:1007100083E0D81EE11CF11C81149104A104B104F2
:1007200029F7FF90EF90DF90CF90BF90AF909F9010
:100730008F9008952FB7F8946091660370916703C6
:1007400080916803909169032FBF089508950895DB
:1007500008954091590350915A03209157033091C5
:10076000580342175307B4F49091E8009570E1F3F1
:100770009091E80092FD19C08093F1008091590397
:1007800090915A0301968F739927892B19F48EEF54
:100790008093E8008091590390915A0301969093B9
:1007A0005A038093590381E0089580E00895EF9201
:1007B000FF920F931F93CF93DF93F82E192FE62EFE
:1007C000042F81E0860F880F0E94A90383E00E9416
:1007D000A903CF2DD12FEC0EFD2EF11CCE15DF0578
:1007E000B9F007FF13C0FE0184910E94A903182FDE
:1007F00080E00E94A903812321968111EFCFDF9130
:10080000CF911F910F91FF90EF9008958881EDCFC8
:1008100081E0F5CFDF92EF92FF920F931F93CF937A
:10082000DF93D82E8A01EB017B01E40EF51ECE1575
:10083000DF0559F0D7FE12C0FE0184910E94A90382
:1008400021968111F4CF0FEF1FEFC801DF91CF91F7
:100850001F910F91FF90EF90DF9008958881EECF68
:100860000F931F93CF93DF931F92CDB7DEB782E034
:10087000898342E450E062ED71E080E80E940A045E
:100880000E945502DC0112960D911C910115110573
:1008900089F0D801ED91FC910280F381E02DBE0139
:1008A0006F5F7F4FC801099597FD04C0F80100856F
:1008B0001185ECCF89810F90DF91CF911F910F911E
:1008C0000895615030F02091F100FC0120830196E1
:1008D000F8CF289884E680937A030895AF92BF9268
:1008E000CF92DF92EF92FF920F931F93CF93DF93FC
:1008F0006C017B018B01040F151FEB015E01AE182B
:10090000BF08C017D10759F06991D601ED91FC914C
:100910000190F081E02DC6010995892B79F7C50179
:10092000DF91CF911F910F91FF90EF90DF90CF90CB
:10093000BF90AF900895FC01538D448D252F30E07A
:10094000842F90E0821B930B541710F0CF960895DC
:1009500001970895FC01918D828D981761F0A28D09
:10096000AE0FBF2FB11D5D968C91928D9F5F9F73CF
:10097000928F90E008958FEF9FEF0895FC01918D85
:10098000828D981731F0828DE80FF11D858D90E0F2
:1009900008958FEF9FEF0895FC01918D228D892F8F
:1009A00090E0805C9F4F821B91098F739927089577
:1009B0008EE795E00E94CC0421E0892B09F420E029
:1009C000822F089580E090E0892B29F00E94D804BE
:1009D00081110C9400000895FC01A48DA80FB92F7B
:1009E000B11DA35ABF4F2C91848D90E001968F7357
:1009F0009927848FA689B7892C93A089B1898C9176
:100A000082748C93938D848D981306C00288F38929
:100A1000E02D80818F7D80830895EF92FF920F9368
:100A20001F93CF93DF93EC0181E0888F9B8D8C8D9A
:100A3000981319C0E889F989808185FF14C09FB790
:100A4000F894EE89FF896083E889F989808182744E
:100A500080839FBF81E090E0DF91CF911F910F9144
:100A6000FF90EF900895F62E0B8D10E00F5F1F4F53
:100A70000F731127E02E8C8D8E110CC00FB607FC62
:100A8000FACFE889F989808185FFF5CFCE010E94F0
:100A9000EC04F1CFEB8DEC0FFD2FF11DE35AFF4F6E
:100AA000F0829FB7F8940B8FEA89FB89808180627E
:100AB000CFCFCF93DF93EC01888D8823B9F0AA893B
:100AC000BB89E889F9898C9185FD03C0808186FD09
:100AD0000DC00FB607FCF7CF8C9185FFF2CF808158
:100AE00085FFEDCFCE010E94EC04E9CFDF91CF91DD
:100AF00008958F929F92AF92BF92CF92DF92EF9222
:100B0000FF920F931F93CF93DF936C017B018A01B8
:100B100080910B01882309F45CC080917B038823BA
:100B200009F457C080915D0380FF05C08091E0000B
:100B300082608093E000E801B12C8AEFA82E93E058
:100B4000892E2AE3922E209711F4BB20D9F10E941E
:100B5000440281110AC0AA94AA20D9F161E070E090
:100B600080E090E00E946803EECF8C171D0611F024
:100B70000CF08C2F9FB7F8948092E9002091E80048
:100B800025FD02C09FBFDFCF282F30E0C21BD30B53
:100B9000F701815020F041914093F100FACFE20E2D
:100BA000F31EBB2021F09092E800B12CEBCF809196
:100BB000E80085FDE7CF9092E800BB24B39420972E
:100BC00009F3F3CF5D9884E680935C031016110659
:100BD0003CF081E090E0F6019383828310E000E036
:100BE000C801DF91CF911F910F91FF90EF90DF909F
:100BF000CF90BF90AF909F908F900895CF93DF9349
:100C00001F92CDB7DEB76983DC01ED91FC910280C4
:100C1000F381E02D41E050E0BE016F5F7F4F099509
:100C20000F90DF91CF91089583E08093E900809148
:100C3000F200882319F08AE38093E80008950E9467
:100C4000440290E00895CF93DF931F92CDB7DEB7B3
:100C5000FC018485958597FD08C02FEF3FEF358710
:100C600024870F90DF91CF910895CE0101960E94C5
:100C70001A02019719F4898190E0F3CF8FEF9FEF6B
:100C8000F0CF0F931F93CF93DF931F92CDB7DEB7B3
:100C90008C01FC018485958597FF0BC0CE010196E0
:100CA0000E941A02019771F4898190E0F8019587FA
:100CB0008487F801848595850F90DF91CF911F91EE
:100CC0000F9108958FEF9FEFF1CFFC0184859585FB
:100CD00097FD0BC09FB7F89482E08093E900809164
:100CE000F2009FBF90E0019608959FB7F89482E0CC
:100CF0008093E9008091F2009FBF90E008952E98C4
:100D0000269A2D98259A2A98229A2998219A2F98DE
:100D1000279A8AEA8093800089E18093810084EA9F
:100D200091E0909387008093860010928900109242
:100D3000880010928B0010928A0010928D00109201
:100D40008C0008950F931F93CF93DF938C01EB01D9
:100D500080914603811105C081E0809346030E9483
:100D60007F0680E017FF04C011950195110981E00D
:100D70000D3291E0190714F00CE211E010938B0092
:100D800000938A00882329F12A9A229A80914603A7
:100D9000811105C081E0809346030E947F0680E0B8
:100DA000D7FF04C0D195C195D10981E0CD3291E042
:100DB000D90714F0CCE2D1E0D0938900C093880029
:100DC000882349F0299A219ADF91CF911F910F91A1
:100DD00008952A98DACF2998F6CF8CB1282F30E0E1
:100DE0003595279535952795422F417083B190E031
:100DF00054E0959587955A95E1F782278170209167
:100E0000440390914503609142037091430324276A
:100E10009827291B330B260F371F3093430320934A
:100E200042032091440390914503281729F0941719
:100E300019F091E09093410380934403409345035C
:100E400008959FB191708CB186FB882780F989271E
:100E500020913F033091400340913D0350913E0368
:100E600029273827231B330B240F351F30933E03CC
:100E700020933D0330913F0320914003381729F020
:100E8000291719F021E020933C0380933F039093AE
:100E90004003089524982C9A6A98729A6E98769ACC
:100EA0008098889AF89491E090936800EBE6F0E0DF
:100EB0008081806180832DEE36E030935003209353
:100EC0004F039BBB80916B068F7E80936B0683B133
:100ED00090916B068071892B80936B06789481E2E8
:100EE00097E09093150180931401EAE6F0E0808189
:100EF0008F7C80618083EE9A8CB182FB882780F999
:100F00008093450393B18091450392959170892711
:100F100080934403109243031092420310924103C2
:100F20008FB18170809340039CB18091400396FB08
:100F3000992790F9892780933F0310923E031092DE
:100F40003D0310923C0308950F931F93CF93DF93BB
:100F5000EC01888581110EC0898591E098879A857A
:100F600062E0911101C060E00E94E3028FE090E036
:100F70000197F1F7298530E0F901EA54FD4F84919A
:100F8000F901E956FD4F0491F901E858FD4F14911C
:100F90001123C9F081110E946902E12FF0E0EE0FE8
:100FA000FF1FEC53FE4FA591B491EC910E2331E05D
:100FB00009F430E0832F2B8582278170DF91CF9158
:100FC0001F910F91089580E0F6CF0F931F93CF9359
:100FD000DF93EC01E881F9810190F081E02D099522
:100FE00001E0182F10270E949A032D81213091F0E3
:100FF00030F02230E9F0233009F110E005C0111182
:10100000FCCF7F836E830D83812FDF91CF911F9162
:101010000F910895112311F01D82EFCF2E813F8192
:10102000621B730B6F30710578F382E08D83E5CF1F
:10103000112351F37F836E8383E0F8CF1123A9F34B
:101040002E813F81621B730B6F307105B0F21D82E0
:10105000DBCF20911903260F3327331F21323105AF
:10106000ECF42091C403FC0190E080E0243069F0AE
:1010700082E00895A09119032191AC0147505D4F82
:10108000A40FB52FB11D2C930196861798F380916C
:101090001903680F6093190380E0089581E00895B3
:1010A0001092C40381E08093A30310929E0361E039
:1010B00082E00E94B50261E083E00E94B502E9EBA4
:1010C000F0E080818E7F808380818D7F808388E4C3
:1010D0008093B80085E48093BC000895CF93DF939C
:1010E00091E09093F8028823B9F0C091B800D091B4
:1010F000BA008091BC008A7B8093BC0060E082E0F3
:101100000E94B50260E083E00E94B5020E94500890
:10111000D093BA00C093B800DF91CF9108958F9219
:101120009F92AF92BF92CF92DF92EF92FF920F9376
:101130001F93CF93DF93D82FC62F142F613208F05F
:101140009CC00E9443036B017C018091C403811108
:101150006FC081E08093C4031093A3039FEF90932B
:10116000A2031092A1039C0F9093A00380939F036E
:1011700080919F03DD0FD82BD0939F0380919E0316
:10118000813009F07CC010929E030E9443036B01E2
:101190007C0180919F038093BB008091C603909156
:1011A000C703A091C803B091C903892B8A2B8B2B4D
:1011B000A1F00E9443030091C6031091C703209140
:1011C000C8033091C9036C197D098E099F09061760
:1011D00017072807390708F44CC08091BC0083FD2D
:1011E000D8CF85EC8093BC000E9443036B017C0147
:1011F0008091C403813009F444C08091A1038C170D
:1012000010F4C091A103EEE7F3E0A4EAB3E080E0BC
:101210008C1359C08C2FDF91CF911F910F91FF90AC
:10122000EF90DF90CF90BF90AF909F908F900895F8
:101230008091C6039091C703A091C803B091C903E0
:10124000892B8A2B8B2B09F480CF0E94430380903B
:10125000C6039090C703A090C803B090C9036C194F
:101260007D098E099F0986169706A806B90608F01B
:101270006CCF8091C5030E946E08C0E0CBCF85EE95
:10128000B1CF8091C6039091C703A091C803B091DC
:10129000C903892B8A2B8B2B09F4AACF0E94430305
:1012A0000091C6031091C7032091C8033091C90370
:1012B0006C197D098E099F0906171707280739073A
:1012C00008F096CFD6CF91919D938F5FA1CF0895CF
:1012D000E0917D0380917C03E81730F4F0E0EC5559
:1012E000FC4F808190E008958FEF9FEF08959091DB
:1012F0007D0380917C032FEF3FEF981748F4E92F8F
:10130000F0E0EC55FC4F208130E09F5F90937D032F
:10131000C901089580917C0390917D03891B990BED
:101320000895CF93DF93CB01EA01642F0E9429082F
:10133000CE01DF91CF910895CF93DF931F92CDB768
:10134000DEB7698361E0CE0101960E94290881E041
:1013500090E00F90DF91CF91089590E080E00895A4
:10136000FC0180810E941F03BC01990F880B990B1F
:101370000E949B2420E030EC4FE754E40E94892631
:1013800020E030E040EA50E40E94FA2421E73DE307
:101390004AE05FE30E94172627ED33EA46E851E46E
:1013A0000E9489269B01AC0160E070E080E89FE329
:1013B0000E9489260895CF92DF92EF92FF92CF93F9
:1013C000DF93EC010E949A036B017C018091EF0294
:1013D0009091F002A091F102B091F202B701A60142
:1013E000481B590B6A0B7B0B8C859D85092E000CC5
:1013F000AA0BBB0B481759076A077B0708F448C0BC
:101400008091CA039091CB039093EE028093ED02FA
:101410008091EB029091EC029093EA028093E902B2
:101420008091E802811105C081E08093E8020E946A
:101430004A07F894809142039091430378949093E3
:10144000CB038093CA038091E802811105C081E03B
:101450008093E8020E944A07F89480913D0390919E
:101460003E0378949093EC028093EB020E949A03DF
:10147000C092EF02D092F002E092F102F092F202FA
:1014800081E0DF91CF91FF90EF90DF90CF900895B2
:1014900080E0F7CFCF92DF92EF92FF92CF93DF936E
:1014A000EC01288139814A815B81688579858A854B
:1014B0009B850E9489266B017C016091EB027091F3
:1014C000EC028091E9029091EA02681B790B072EE9
:1014D000000C880B990B0E949B249B01AC01C70157
:1014E000B6010E94FA246B017C016C857D85072E74
:1014F000000C880B990B0E949B2420E030E04AE707
:1015000054E40E9489269B01AC01C701B6010E94E8
:101510008926DF91CF91FF90EF90DF90CF900895D3
:10152000CF92DF92EF92FF92CF93DF93EC0128816D
:1015300039814A815B81688579858A859B850E948E
:1015400089266B017C016091CA037091CB03809165
:10155000ED029091EE02681B790B072E000C880BB0
:10156000990B0E949B249B01AC01C701B6010E940C
:10157000FA246B017C016C857D85072E000C880B9D
:10158000990B0E949B2420E030E04AE754E40E943B
:1015900089269B01AC01C701B6010E948926DF9113
:1015A000CF91FF90EF90DF90CF9008958BE891E07E
:1015B0000197F1F741E061E082E10E948F0810920B
:1015C0007D0380937C03813029F48CE696E00E94B1
:1015D0007709089580E00895CF93DF93EC01888127
:1015E0009981009711F00E946728198218821D8244
:1015F0001C821B821A82DF91CF910895FC018081A9
:101600009181009711F00C94672808950E94AD29EC
:10161000FB0101900020E9F73197AF01461B570B02
:10162000DC01ED91FC910280F381E02D09948F9211
:101630009F92AF92BF920F931F93CF93DF93CDB73B
:10164000DEB7A1970FB6F894DEBF0FBECDBF19A2CB
:10165000423008F44AE08E010F5D1F4F842E912C1A
:10166000B12CA12CA50194010E94EF25E62FB90110
:10167000CA01EA3004F5E05DD801EE938D01232B19
:10168000242B252B79F790E080E0109729F0BD01FD
:101690008BE196E00E94080BA1960FB6F894DEBF8E
:1016A0000FBECDBFDF91CF911F910F91BF90AF9033
:1016B0009F908F900895E95CDFCF4F925F926F9279
:1016C0007F928F929F92AF92BF92CF92DF92EF92D2
:1016D000FF920F931F93CF936B017C01742EAC018B
:1016E0009B010E947D2760E771E0811126C04601C1
:1016F0005701E894B7F82FEF3FEF4FE75FE7C501D9
:10170000B4010E947D2781110CC02FEF3FEF4FE7FE
:101710005FE7C501B4010E94942464E771E01816E4
:1017200064F02FEF3FEF4FE75FE4C701B6010E947F
:1017300070271816ACF468E771E08BE196E0CF9162
:101740001F910F91FF90EF90DF90CF90BF90AF90DF
:101750009F908F907F906F905F904F900C94080BAC
:101760002FEF3FEF4FE75FECC701B6010E949424D3
:1017700087FDE1CF20E030E0A901C701B6010E945A
:10178000942410E000E087FF0AC06DE28BE196E050
:101790000E94FE058C01F7FAF094F7F8F094C0E08F
:1017A00060E070E080E09FE37C1641F020E030E0F4
:1017B00040E251E40E948926CF5FF6CFA70196014F
:1017C0000E9418262B013C010E9402274B015C015C
:1017D0004AE00E94170B7C01E00EF11ECC23C1F100
:1017E000C501B4010E9499249B01AC01C301B2015F
:1017F0000E9417264B015C016EE28BE196E00E948D
:10180000FE05E80EF91EC15018F120E030E040E27C
:1018100051E4C501B4010E94FA242B013C010E944D
:1018200002274B01B12CA12C4AE0C501B4010E9452
:10183000170BE80EF91EC501B4010E9499249B0103
:10184000AC01C301B2010E9417264B015C01DBCF42
:10185000C701CF911F910F91FF90EF90DF90CF9034
:10186000BF90AF909F908F907F906F905F904F90C0
:101870000895CF93DF9342E00E945D0BEC016CE78B
:1018800071E08BE196E00E94080B8C0F9D1FDF91A9
:10189000CF910895BC018BE196E00C94080B0F9357
:1018A0001F93CF93DF936FE771E08BE196E00E9487
:1018B000080B6CE771E08BE196E00E94080B0CECE2
:1018C00013E0D0E0C0E080917C0590917D05C817C1
:1018D000D907C4F4F80161917191819191918F01BF
:1018E00042E00E945D0B81E991E00E944A0CF80100
:1018F000EC52FF4F60817181828193810E94390C8B
:101900002196E1CFDF91CF911F910F910895CF9252
:10191000DF92EF92FF92CF93DF936C01990FEE0865
:10192000FF08F7FE21C06DE28BE196E00E94FE0504
:10193000EC0166277727CB016C197D098E099F0979
:101940004AE00E94170BC80FD91F6CE771E08BE1CA
:1019500096E00E94080B8C0F9D1FDF91CF91FF90A6
:10196000EF90DF90CF9008954AE0C701B6010E9442
:10197000170BEC01EACF0F931F93CF93DF93EC018A
:1019800088819981009759F02A813B812617370772
:1019900030F081E0DF91CF911F910F9108958B017D
:1019A0006F5F7F4F0E94F028009759F099838883DA
:1019B0001B830A832C813D81232B59F7FC01108264
:1019C000E8CF80E0E7CFEF92FF920F931F93CF9382
:1019D000DF93EC01FB01E080F180E114F10411F1EF
:1019E0000481158101151105A9F08C819D81080FD5
:1019F000191FB801CE010E94BB0C882399F02881E1
:101A000039818C819D81B701820F931F0E94BB2970
:101A10001D830C83CE01DF91CF911F910F91FF9019
:101A2000EF900895CE010E94EC0AF4CFEF92FF925E
:101A30000F931F93CF93DF93EC017B018A01BA01CF
:101A40000E94BB0C81110BC0CE010E94EC0ACE019A
:101A5000DF91CF911F910F91FF90EF9008951D831B
:101A60000C83B701888199810E94BB29F0CFFB01CB
:101A700001900020E9F73197AF01461B570B0C94FA
:101A8000160DEF92FF920F931F93CF93DF93CDB775
:101A9000DEB72C970FB6F894DEBF0FBECDBF8C011A
:101AA0007B011A8219821C821B821E821D828AE39C
:101AB0008F831886BE01695F7F4FCE0101960E9419
:101AC000370D18861F821A8619861C861B86F80118
:101AD000608171816115710531F044815581CE01BC
:101AE00007960E94160DBE016F5F7F4FCE010796CD
:101AF0000E94E30CB7010E94E30CFC014481558174
:101B0000608171818EE795E00E946E046CE771E060
:101B10008EE795E00E94080BCE0107960E94FE0A10
:101B2000CE0101960E94FE0A2C960FB6F894DEBFF5
:101B30000FBECDBFDF91CF911F910F91FF90EF901E
:101B40000895EF92FF920F931F93CF93DF93CDB73A
:101B5000DEB7A1970FB6F894DEBF0FBECDBF7C01F4
:101B6000CB01BA01F7011182108213821282158211
:101B700014828E010F5F1F4F22E044E00E940A2270
:101B8000009789F0BC01C7010E94370DA1960FB6DE
:101B9000F894DEBF0FBECDBFDF91CF911F910F91A3
:101BA000FF90EF900895C7010E94EC0AEFCF0F93CA
:101BB0001F93CF93DF93CDB7DEB762970FB6F8943C
:101BC000DEBF0FBECDBF8C01CB01F80111821082A8
:101BD00013821282158214824AE0BE016F5F7F4F2A
:101BE0000E942822BE016F5F7F4FC8010E94370DFF
:101BF00062960FB6F894DEBF0FBECDBFDF91CF91D6
:101C00001F910F910895FC0111821082138212829C
:101C100015821482FB0101900020E9F73197AF0192
:101C2000461B570B0C94160D85ED8093BC008091DC
:101C3000C6039091C703A091C803B091C90307964A
:101C4000A11DB11D23E0B695A795979587952A9577
:101C5000D1F72091BC0024FD03C01092C403089565
:101C60004091C6035091C7036091C8037091C903A6
:101C7000452B462B472B69F30097A105B10541F091
:101C80002AE22A95F1F700C00197A109B109E1CF35
:101C90008091C5030C946E08CF93DF93A2EEB0E061
:101CA0009C911C92E9EEF0E020811082C0EFD0E020
:101CB0003881188240E0289941602099426020983C
:101CC000289A80E18A95F1F783B141FB0EF02098C4
:101CD00040FB0EF028980EF4289A41FB0EF4209A4F
:101CE0001082388320839C9380958170DF91CF91FF
:101CF0000895CF93DF93A2EEB0E09C911C92E9EEA1
:101D0000F0E020811082C0EFD0E03881188240E0FE
:101D10005D9941605599426055985D9A80E18A9538
:101D2000F1F789B141FB0EF0559840FB0EF05D983C
:101D30000EF45D9A41FB0EF4559A1082388320838D
:101D40009C9390E025E0959587952A95E1F78095FD
:101D500090958170DF91CF910895AF92BF92CF920D
:101D6000DF92FF920F931F93CF93DF93CDB7DEB730
:101D700067970FB6F894DEBF0FBECDBF83EE93E03A
:101D80000197F1F741E060E182E10E948F08109233
:101D90007D0380937C03803189F080E067960FB6E5
:101DA000F894DEBF0FBECDBFDF91CF911F910F9191
:101DB000FF90DF90CF90BF90AF900895CE01019635
:101DC0006C015E0191E1A90EB11CFC2C0D2D8CE67D
:101DD00096E00E947709F60181936F01EA15FB05F1
:101DE000B1F71D819E811B8A1A8A1D8A1C8A1F8A4F
:101DF0001E8A4AE06F2D702F812F0E9433226F2D93
:101E0000702FCE0142960E94370D64E971E08F2D4C
:101E1000902F0E94030EBE016E5E7F4F8F2D902F7C
:101E20000E94410D8F2D902F0E94FE0ACE014296F6
:101E30000E94FE0A812FB2CFEF92FF920F931F9361
:101E4000CF93DF93CDB7DEB762970FB6F894DEBFBE
:101E50000FBECDBF0E94D60A882309F474C00E9429
:101E6000AD0E813009F06FC08093F5028091F402CD
:101E7000811169C00E9497018CECE82E83E0F82E56
:101E800010E000E0F70141915191619171917F0162
:101E9000CE010D960E94A10DB801CE0107960E94B9
:101EA000D70D6DE971E0CE0101960E94030EBE01CF
:101EB000695F7F4FCE0101960E94E30CBE01635F14
:101EC0007F4F0E94410DCE0101960E94FE0ACE0175
:101ED00007960E94FE0ACE010D960E94FE0AF701A7
:101EE000EC52FF4F4081518162817381CE010D968A
:101EF0000E94A10DB801CE0107960E94D70D6DE991
:101F000072E0CE0101960E94030EBE01695F7F4F11
:101F1000CE0101960E94E30CBE01635F7F4F0E94D9
:101F2000410DCE0101960E94FE0ACE0107960E9445
:101F3000FE0ACE010D960E94FE0A0F5F1F4F063368
:101F4000110509F09FCF62960FB6F894DEBF0FBE61
:101F5000CDBFDF91CF911F910F91FF90EF9008952A
:101F60000E94D60A882371F00E94AD0E833051F48E
:101F70008091F502882339F081E08093F30281E0BB
:101F80008093F40208951092F302F9CF4F925F927A
:101F90006F927F928F929F92AF92BF92CF92DF9279
:101FA000EF92FF920F931F93CF93DF93CDB7DEB7DE
:101FB0006A970FB6F894DEBF0FBECDBF9A8F898F98
:101FC0004A015B01280139010E949A03A98DBA8D4B
:101FD00096966D937D938D939C939997A50194010B
:101FE000C301B8010E9417266B017C0120E030E09C
:101FF000A9010E94702718160CF032C111E020E0F0
:1020000030E040E85EE3C701B6010E947027181671
:102010000CF010E0A5019401C301B2010E94182642
:102020004B015C01A98DBA8D1E968D919D910D90ED
:10203000BC91A02D8D839E83AF83B887E98DFA8DE7
:1020400046885788608C718CC301B2010E94842637
:1020500069877A878B879C87A98DBA8D52968D91D7
:102060009D910D90BC91A02D8D879E87AF87B88BD9
:10207000C301B2010E947527698B7A8B8B8B9C8B75
:10208000112309F4FAC0A98DBA8D9E968D919D9168
:102090000D90BC91A02D89839A83AB83BC8320E0F3
:1020A00030E040E05FE3BC01CD010E94FA246D8B7B
:1020B0007E8B8F8B988FA7019601C501B4010E947A
:1020C00089269B01AC016D897E898F89988D0E943C
:1020D000FA244B015C0129813A814B815C81C70163
:1020E000B6010E9489262DEC3CEC4CE45DE30E9495
:1020F000FA24A30192010E9418266B017C010E9420
:1021000075272B013C0129893A894B895C89C501D6
:10211000B4010E94FA249B01AC016D817E818F8104
:1021200098850E94172669837A838B839C83A501F7
:102130009401C301B2010E94FA249B01AC016981A0
:102140007A818B819C810E941826E98DFA8D6687A1
:102150007787808B918BC701B6010E9484262B0163
:102160003C0129853A854B855C85C501B4010E94F7
:10217000FA2469837A838B839C83A5019401C3012C
:10218000B2010E94FA249B01AC0169817A818B81A2
:102190009C810E9417262D853E854F8558890E9477
:1021A0001826A98DBA8D52966D937D938D939C932D
:1021B0005597FD01C68AD78AE08EF18EA98DBA8D1A
:1021C0005696CD90DD90ED90FC9059972BED3FE029
:1021D00049EC50E4C701B6010E94702718160CF0B4
:1021E0008BC02BED3FE049EC50E4C701B6010E94E3
:1021F0001726E98DFA8D668B778B808F918FE98D0D
:10220000FA8D86859785A089B18982AB93ABA4AB03
:10221000B5AB82899389A489B58986AB97ABA0AF0A
:10222000B1AF86899789A08DB18D82AF93AFA4AFEE
:10223000B5AF6A960FB6F894DEBF0FBECDBFDF9183
:10224000CF911F910F91FF90EF90DF90CF90BF90B3
:10225000AF909F908F907F906F905F904F90089578
:1022600020E030E040E85EEBC701B6010E94942414
:10227000182F111F1127111FCDCE20E030E040E0B4
:102280005FE3C501B4010E94FA246B017C0129853A
:102290003A854B855C850E94FA242DEC3CEC4CE49D
:1022A0005DE30E94FA242D813E814F8158850E9472
:1022B0001826A98DBA8D1E966D937D938D939C9350
:1022C000519729893A894B895C89C701B6010E94D7
:1022D000FA242DEC3CEC4CE45DE30E94FA242D85BD
:1022E0003E854F8558890E941826E98DFA8D628BAC
:1022F000738B848B958B62CF20E030E0A901C701FE
:10230000B6010E94942487FF7ACF2BED3FE049EC81
:1023100050E4C701B6010E941826A98DBA8D5696C1
:102320006D937D938D939C93599769CF2F923F9294
:102330004F925F926F927F928F929F92AF92BF92D5
:10234000CF92DF92EF92FF920F931F93CF93DF9381
:10235000CDB7DEB72C970FB6F894DEBF0FBECDBF5A
:102360006B017C012B013C0177FA709477F8709433
:1023700080911A01882309F49CC020E030E0A90173
:10238000C7010E94702718160CF086C07C2D6D2D99
:102390009E2D8F2D272F362F492F582FC701B6017D
:1023A0000E9489260E94FB265B0170E060E090E0BD
:1023B00080E00E94A20680915E0790915F072EE167
:1023C000289FA001299F500D11245A834983809191
:1023D000CA039091CB039C878B871C013194219475
:1023E00031089501BB0C440B550B2F833887498767
:1023F0005A874B855C8557FDA1018091CA03909156
:10240000CB0397FF03C09195819591099A01281BF1
:10241000390B121613061CF09C01241B350B498145
:102420005A8142175307ECF16F81788589859A8527
:102430000E949B2420E030E046E952E40E94FA2406
:102440004B015C010E94FB266B837C838D839E8302
:10245000C501B40190580E94FB26CB016B817C81A1
:102460000E94A2068EE796E00E94DB09882309F409
:10247000C0CF8EE796E00E944A0A4B015C018EE7CE
:1024800096E00E94900AAB01BC01950184018EE7A1
:1024900096E00E94C60FADCF742D652D962D872D29
:1024A00079CF70E060E090E080E00E94A206109298
:1024B0001A01C701B6010E94FB266B01C301B201DC
:1024C0000E94FB26CB01B6010E94A2068091600704
:1024D0000E941F039A838983809162070E941F03D1
:1024E000C0906807D0906907E0906A07F0906B078A
:1024F000BC01990F880B990B0E949B24A7019601A0
:102500000E94942487FD10C0A981BA81BD01BB0F30
:10251000880B990B0E949B249B01AC01C701B6015B
:102520000E947027181614F570E060E090E080E0DB
:102530000E94A20681E080931A012C960FB6F894AF
:10254000DEBF0FBECDBFDF91CF911F910F91FF90E6
:10255000EF90DF90CF90BF90AF909F908F907F9043
:102560006F905F904F903F902F90089580E0E5CF5F
:102570004F925F926F927F928F929F92AF92BF9293
:10258000CF92DF92EF92FF920F931F93CF93DF933F
:10259000CDB7DEB7C855D1090FB6F894DEBF0FBE70
:1025A000CDBF8EE796E00E944A0A6B017C018EE760
:1025B00096E00E94900AAB01BC01970186018EE76C
:1025C00096E00E94C60FE091F602F091F702E93022
:1025D000F10508F03DC0E151FD4E0C941126F812B2
:1025E0004013B8175C187418CC18F3180F19A219F7
:1025F0008CE797E00E94E507882319F06FE971E006
:102600003FC584E897E00E94E507882309F16DEA59
:1026100071E0CE0101960E94030E6AEA71E0CE01DC
:10262000CD960E94030EBE016F5F7F4FCE01CD9607
:102630000E94410DCE01CD960E94FE0ACE01019668
:102640000E94FE0A88E090E09093F7028093F602E1
:10265000C85ADF4F0FB6F894DEBF0FBECDBFDF9173
:10266000CF911F910F91FF90EF90DF90CF90BF908F
:10267000AF909F908F907F906F905F904F90089554
:10268000809160070E941F038C01809162070E9465
:102690001F039C01B801110F880B990B8901330F9F
:1026A000220B330B600F711F821F931F0E949B240C
:1026B000209168073091690740916A0750916B0734
:1026C0000E94942487FFD6C070E060E090E080E034
:1026D0000E94A20668EE73E080E090E00E9468032A
:1026E0000E949A0369966CAF7DAF8EAF9FAF6997DA
:1026F0000E949A0369962CAD3DAD4EAD5FAD6997D2
:10270000621B730B840B950B693B7B408105910524
:1027100008F0F7C08EE796E00E94DB09882341F3BA
:102720008EE796E00E94900A9B01AC0160E070E0A9
:1027300084E092E40E9417266B017C018EE796E00C
:102740000E944A0A9B01AC0160E070E084E092E4E0
:102750000E9417262B013C01209156073091570704
:102760004091580750915907C701B6010E94182699
:1027700065966CAF7DAF8EAF9FAF65976093560740
:1027800070935707809358079093590720915A07E1
:1027900030915B0740915C0750915D07C301B20126
:1027A0000E9418264B015C0180925A0790925B07A9
:1027B000A0925C07B0925D0780914E0790914F0701
:1027C000A0915007B09151072D968CAF9DAFAEAF41
:1027D000BFAF2D9720915207309153074091540776
:1027E0005091550761962CAF3DAF4EAF5FAF6197EB
:1027F0009C01AD01C301B2010E94FA242B013C01EE
:1028000061962CAD3DAD4EAD5FAD6197C501B40194
:102810000E94FA249B01AC01C301B2010E94182658
:102820000E94FB264B012D962CAD3DAD4EAD5FAD0C
:102830002D97C701B6010E94FA246B017C016196B5
:102840002CAD3DAD4EAD5FAD619765966CAD7DAD88
:102850008EAD9FAD65970E94FA249B01AC01C70124
:10286000B6010E9418260E94FB26CB01B4010E94EB
:10287000A2063ECF809160070E941F038C018091C9
:1028800062070E941F03B801681B790B072E000C1A
:10289000880B990B0E949B24209164073091650757
:1028A00040916607509167070E94FA246B017C01F2
:1028B00020E030E040E252E40E9418260E94FB260D
:1028C0004B01A701960160E070E080E292E40E9473
:1028D00017260E94FB26CB01B4010E94A2060E948B
:1028E0009A0324EF31E040E050E00E94EF25672B8F
:1028F000682B692B09F4ACCE0E941C0F0E94B00F0C
:10290000A7CE70E060E090E080E00E94A20620EE9A
:102910003EE245E652E46091B8067091B9068091B6
:10292000BA069091BB060E94FA246B017C0185EBEC
:1029300091E00E944A0CC701B6010E94390C20E0C8
:1029400030E84DE953E4C701B6010E94702718161C
:1029500054F020E030E044E352E4C701B6010E94A5
:10296000942487FFCDC084E192E00E944A0C8DEB55
:1029700091E00E944A0C80917C0590917D050E9417
:10298000870C82ED91E00E944A0CE0917C05F09169
:102990007D05EE0FFF1FEE0FFF1FE453FC4F60811C
:1029A00071818281938142E00E945D0B81E991E017
:1029B0000E944A0CE0917C05F0917D05EE0FFF1F0F
:1029C000EE0FFF1FEC55FB4F608171818281938177
:1029D0000E94390CE0907C05F0907D058701000F86
:1029E000111F000F111F04531C4FF701EE0FFF1FA3
:1029F000EE0FFF1FE853FC4F20E030E040E85FE3BC
:102A000060817181828193810E941826D8016D9323
:102A10007D938D939C931397F701EE0FFF1FEE0F9D
:102A2000FF1FE056FB4F80819181A281B381F701A6
:102A3000EE0FFF1FEE0FFF1FEC55FB4F80839183BE
:102A4000A283B3838DEB91E00E944A0C80917C05B8
:102A500090917D050E94870C8AEE91E00E944A0CBD
:102A6000E0917C05F0917D05EE0FFF1FEE0FFF1F3B
:102A7000E453FC4F608171818281938142E00E9426
:102A80005D0B81E991E00E944A0CE0917C05F09198
:102A90007D05EE0FFF1FEE0FFF1FEC55FB4F608112
:102AA0007181828193810E94390C80917C05909183
:102AB0007D05019690937D0580937C050E949A0385
:102AC0000E9499246B017C010E949A030E94992420
:102AD0004B015C0120E030E84BE355E4C701B6014F
:102AE0000E9418269B01AC01C501B4010E949424E8
:102AF00018160CF4F4C10E941C0F0E94B00FE4CF12
:102B000020E030E044E352E4C701B6010E947027A0
:102B100018160CF073C020E030E047E053E4C70122
:102B2000B6010E94942487FF69C08DEB91E00E945A
:102B30004A0C80917C0590917D050E94870C82ED66
:102B400091E00E944A0CE0917C05F0917D05EE0F2A
:102B5000FF1FEE0FFF1FE453FC4F608171818281E4
:102B6000938142E00E945D0B81E991E00E944A0C52
:102B7000E0917C05F0917D05EE0FFF1FEE0FFF1F2A
:102B8000EC55FB4F60817181828193810E94390CE9
:102B9000E0907C05F0907D05870101501109C70187
:102BA000880F991F880F991FFC01EC55FB4F6F018F
:102BB000FC01E056FB4F20E030E040E85FE360813D
:102BC0007181828193810E941826D6016D937D9335
:102BD0008D939C931397000F111F000F111FF80185
:102BE000E453FC4F80819181A281B381F701EE0F04
:102BF000FF1FEE0FFF1FE453FC4F20CF20E030E01B
:102C000047E053E4C701B6010E94702718160CF084
:102C1000ACC020E030E041E653E4C701B6010E94B9
:102C2000942487FFA2C08DEB91E00E944A0C809112
:102C30007C0590917D050E94870C82ED91E00E94B9
:102C40004A0CE0917C05F0917D05EE0FFF1FEE0F21
:102C5000FF1FE453FC4F608171818281938142E0C8
:102C60000E945D0B81E991E00E944A0CE0917C0595
:102C7000F0917D05EE0FFF1FEE0FFF1FEC55FB4F90
:102C800060817181828193810E94390CE0907C0582
:102C9000F0907D058701000F111F000F111F0453D5
:102CA0001C4FF701EE0FFF1FEE0FFF1FE853FC4F05
:102CB00020E030E040E85FE36081718182819381B0
:102CC0000E941726F8016083718382839383F70142
:102CD000EE0FFF1FEE0FFF1FE056FB4F808191812B
:102CE000A281B381F701EE0FFF1FEE0FFF1FEC551E
:102CF000FB4F80839183A283B3838DEB91E00E948D
:102D00004A0C80917C0590917D050E94870C8AEE8B
:102D100091E00E944A0CE0917C05F0917D05EE0F58
:102D2000FF1FEE0FFF1FE453FC4F60817181828112
:102D3000938142E00E945D0B81E991E00E944A0C80
:102D4000E0917C05F0917D05EE0FFF1FEE0FFF1F58
:102D5000EC55FB4F60817181828193810E94390C17
:102D600082E092E00E944A0CA0CE20E030E041E6F2
:102D700053E4C701B6010E94702718160CF0ACC0CE
:102D800020E030E84DE953E4C701B6010E949424E5
:102D900087FFA2C08DEB91E00E944A0C80917C05D8
:102DA00090917D050E94870C82ED91E00E944A0C73
:102DB000E0917C05F0917D05EE0FFF1FEE0FFF1FE8
:102DC000E453FC4F608171818281938142E00E94D3
:102DD0005D0B81E991E00E944A0CE0917C05F09145
:102DE0007D05EE0FFF1FEE0FFF1FEC55FB4F6081BF
:102DF0007181828193810E94390CE0907C05F09072
:102E00007D05870101501109C701880F991F880F9F
:102E1000991F9C012C553B4F6901FC01E056FB4F6B
:102E200020E030E040E85FE360817181828193813E
:102E30000E941726D6016D937D938D939C931397D3
:102E4000000F111F000F111FF801E453FC4F808188
:102E50009181A281B381F701EE0FFF1FEE0FFF1FDB
:102E6000E453FC4F80839183A283B3838DEB91E085
:102E70000E944A0C80917C0590917D050E94870CF0
:102E80008AEE91E00E944A0CE0917C05F0917D056C
:102E9000EE0FFF1FEE0FFF1FE453FC4F60817181A7
:102EA0008281938142E00E945D0B81E991E00E9462
:102EB0004A0CE0917C05F0917D05EE0FFF1FEE0FAF
:102EC000FF1FEC55FB4F60817181828193810E94CD
:102ED000390C82E192E046CF82E292E043CF8091CA
:102EE000F502882339F18091F402882319F1809149
:102EF000F302882309F459C167E872E0CE01019614
:102F00000E94030E6AEA71E0CE01CD960E94030E84
:102F1000BE016F5F7F4FCE01CD960E94410DCE0165
:102F2000CD960E94FE0ACE0101960E94FE0A86E01E
:102F300090E08ACB6FE972E0CE0101960E94030E09
:102F40006AEA71E0CE01CD960E94030EBE016F5F6A
:102F50007F4FCE01CD960E94410DCE01CD960E94AD
:102F6000FE0ACE0101960E94FE0A82E090E06CCB40
:102F700086E191E00E94B00920E030E0A9010E94C2
:102F8000702718160CF043C086E191E00E94B0094A
:102F900020E030E040EF51E40E94702787FF44C0FA
:102FA00088E191E00E94B00920E030E0A9010E9490
:102FB000702718160CF056C088E191E00E94B00905
:102FC00020E030E040EF51E40E94942418160CF405
:102FD00055C06EEA72E0CE0101960E94030E6AEAC5
:102FE00071E0CE01CD960E94030EBE016F5F7F4F50
:102FF000CE01CD960E94410DCE01CD960E94FE0AD3
:10300000CE0101960E94FE0A84E090E01DCB86E18D
:1030100091E00E94B00920E030E040EF51EC0E94C6
:10302000942418160CF4BCCF64EA72E0CE01019629
:103030000E94030E6AEA71E0CE01CD960E94030E53
:10304000BE016F5F7F4FCE01CD960E94410DCE0134
:10305000CD960E94FE0ACE0101960E94FE0A83E0F0
:1030600090E0F2CA88E191E00E94B00920E030E0EF
:1030700040EF51EC0E94702787FFABCF6AEB72E004
:10308000CE0101960E94030E6AEA71E0CE01CD9650
:103090000E94030EBE016F5F7F4FCE01CD960E944E
:1030A000410DCE01CD960E94FE0ACE0101960E94EE
:1030B000FE0A81E090E0C8CA0E941C0F0E94B00F77
:1030C00060E070E080E292E40E949611882309F4A7
:1030D000BFCA8091F502882309F490CA8091F40256
:1030E000882309F48BCA03CF0E941C0F0E94B00FE3
:1030F00060E070E080E292EC0E949611882309F46F
:10310000A7CA8091F502882321F08091F4028111F1
:10311000EECE88E191E00E94B00920E030E0A90104
:103120000E94702718165CF588E191E00E94B009B2
:1031300020E030E040EF51E40E94942418160CF493
:103140005DCA65EC72E0CE0101960E94030E6AEA48
:1031500071E0CE01CD960E94030EBE016F5F7F4FDE
:10316000CE01CD960E94410DCE01CD960E94FE0A61
:10317000CE0101960E94FE0A85E090E065CA88E1D2
:1031800091E00E94B00920E030E040EF51EC0E9455
:10319000702787FD33CAD5CF0E941C0F0E94B00F45
:1031A00060E070E080E292EC8FCF62E972E0CE01E5
:1031B00001960E94030E6AEA71E0CE01CD960E944C
:1031C000030EBE016F5F7F4FCE01CD960E94410D71
:1031D000CE01CD960E94FE0ACE0101960E94FE0A03
:1031E00087E090E031CA62ED72E0CE0101960E9464
:1031F000030E67ED72E0CE01CD960E94030EBE0174
:103200006F5F7F4FCE01CD960E94410DCE01CD96CE
:103210000E94FE0ACE0101960E94FE0A19CA0E946F
:103220004F0C0E9497010E944F0C8CECE82E83E01B
:10323000F82E10E000E0F7014191519161917191F8
:103240007F01CE0101960E94A10DB801CE01CD965D
:103250000E94D70D6DE971E0CE018D5B9F4F0E94FA
:10326000030EBE01635C7F4FCE018D5B9F4F0E94BA
:10327000E30CBE016F5F7F4F0E94410DCE018D5B5D
:103280009F4F0E94FE0ACE01CD960E94FE0ACE01FB
:1032900001960E94FE0AF701EC52FF4F40815181D6
:1032A00062817381CE0101960E94A10DB801CE0109
:1032B000CD960E94D70D6DE972E0CE018D5B9F4FD8
:1032C0000E94030EBE01635C7F4FCE018D5B9F4F5A
:1032D0000E94E30CBE016F5F7F4F0E94410DCE0143
:1032E0008D5B9F4F0E94FE0ACE01CD960E94FE0A82
:1032F000CE0101960E94FE0A0F5F1F4F0633110593
:1033000009F099CF62EE72E0CE0101960E94030EA1
:103310006AEA71E0CE01CD960E94030EBE016F5F96
:103320007F4FCE01CD960E94410DCE01CD960E94D9
:10333000FE0ACE0101960E94FE0A1092F702109238
:10334000F60286C98E010F5F1F4F7E01FDE3EF0E6F
:10335000F11C68016EE771E0C8010E94030E0A5F6C
:103360001F4F0E151F05B1F78EE795E00E94CC04A4
:10337000892BA9F18EE795E00E94AA04B82E8DAFA3
:103380001EAE00917C0610917D060F5F1F4FB801A5
:1033900088E796E00E94BB0C882389F0209178068C
:1033A0003091790680917C0690917D06B701820F5D
:1033B000931F0E94BB2910937D0600937C062AE090
:1033C000B212D2CF40917C0650917D066091780672
:1033D000709179068BE196E00E947905C5CF36E0C1
:1033E000E31AF108C7010E94FE0ACE14DF04B9F700
:1033F0002FC91F920F920FB60F9211242F933F9354
:103400008F939F93AF93BF938091660390916703CF
:10341000A0916803B09169033091650323E0230F05
:103420002D3758F50196A11DB11D2093650380939A
:10343000660390936703A0936803B0936903809138
:103440006A0390916B03A0916C03B0916D03019698
:10345000A11DB11D80936A0390936B03A0936C032D
:10346000B0936D03BF91AF919F918F913F912F9139
:103470000F900FBE0F901F90189526E8230F02960D
:10348000A11DB11DD2CF1F920F920FB60F92112422
:103490002F933F934F935F936F937F938F939F935C
:1034A000AF93BF93EF93FF93E0911401F091150157
:1034B0000995FF91EF91BF91AF919F918F917F916E
:1034C0006F915F914F913F912F910F900FBE0F9091
:1034D0001F9018951F920F920FB60F9211242F93E1
:1034E0003F934F935F936F937F938F939F93AF938C
:1034F000BF93EF93FF93E0911201F09113010995AF
:10350000FF91EF91BF91AF919F918F917F916F91BB
:103510005F914F913F912F910F900FBE0F901F9091
:1035200018951F920F920FB60F9211242F933F936D
:103530004F935F936F937F938F939F93AF93BF93BB
:10354000EF93FF93E0911001F09111010995FF9124
:10355000EF91BF91AF919F918F917F916F915F910B
:103560004F913F912F910F900FBE0F901F90189584
:103570001F920F920FB60F9211242F933F934F93E8
:103580005F936F937F938F939F93AF93BF93EF93CB
:10359000FF93E0910E01F0910F010995FF91EF91DA
:1035A000BF91AF919F918F917F916F915F914F915B
:1035B0003F912F910F900FBE0F901F9018951F9263
:1035C0000F920FB60F9211242F933F934F935F9357
:1035D0006F937F938F939F93AF93BF93EF93FF93DB
:1035E000E0910C01F0910D010995FF91EF91BF91D0
:1035F000AF919F918F917F916F915F914F913F918B
:103600002F910F900FBE0F901F9018951F920F9241
:103610000FB60F9211248F939F938091E1009091A8
:10362000E100937F9093E10083FF0FC01092E900C7
:1036300091E09093EB001092EC0092E39093ED00F8
:1036400010927B0398E09093F00082FF22C093E0F9
:103650009093E9009091F200992319F09AE39093E6
:10366000E80090915C03992341F090915C039150A4
:1036700090935C03911101C05D9A90917A03992314
:1036800041F090917A03915090937A03911101C087
:10369000289A84FF18C08091E2008E7E816080931A
:1036A000E2008091E1008F7E8093E10080915D03D4
:1036B0008E7E806180935D039F918F910F900FBEEE
:1036C0000F901F90189580FFF7CF8091E2008E7EBB
:1036D00080618093E2008091E1008E7E8093E10022
:1036E00080915D038E7E8160E5CF1F920F920FB6B1
:1036F0000F921124CF92DF92EF92FF920F931F93BC
:103700002F933F934F935F936F937F938F939F93E9
:10371000AF93BF93EF93FF93CF93DF93CDB7DEB714
:103720006C97DEBFCDBF1092E9008091E80083FF67
:1037300025C068E0CE0145960E94610482EF809327
:10374000E8008D8987FF39C09091E80090FFFCCF99
:10375000982F907609F034C19E894F89588D2F8912
:10376000F88C911131C0803861F580915E038093AF
:10377000F1001092F1008EEF8093E8006C960FB686
:10378000F894DEBF0FBECDBFDF91CF91FF91EF91D7
:10379000BF91AF919F918F917F916F915F914F9169
:1037A0003F912F911F910F91FF90EF90DF90CF905D
:1037B0000F900FBE0F901F9018959EEF9093E8000A
:1037C000C7CF1092F100D5CF913059F48111D3CFEA
:1037D0004130510581F680915E038D7F80935E03B9
:1037E000CACF933049F48111C6CF4130510519F643
:1037F00080915E038260F2CF953041F48091E800C1
:1038000080FFFCCF20682093E300B5CF963009F00D
:10381000A9C00B8D1C8D22E01092E90010925A0372
:1038200010925903F2122EC01092580310925703AF
:103830000E9430041F8299E09983FA8291E09E836E
:1038400090EA98879AEF99872091590330915A030B
:10385000275F3F4F3C832B838D831092E9001092AA
:103860005A0310925903109358030093570349E0E9
:1038700050E0BE016F5F7F4F80E00E940A040E940B
:10388000300479CF10935803009357030E945502D8
:10389000DC0112960D911C910115110509F451C11D
:1038A000D801ED91FC910480F581E02DBE016B5EA5
:1038B0007F4FC8010995009709F03EC1F8010085C6
:1038C0001185EACFF3E0FF120EC08F89882309F437
:1038D00040C0823061F440E862E18DE392E00E94F2
:1038E000D703811148CF81E28093EB0047CF81302D
:1038F00029F440E862E18AE292E0F1CF833099F75F
:103900000E945502DC011296ED90FC908E010F5F33
:103910001F4F6801E114F10479F0D701ED91FC919A
:103920000680F781E02DB801C7010995080F111D28
:10393000F701E084F184EECFD8011C92F6010190EA
:103940000020E9F73197BF016C197D0940E0C601FD
:10395000C6CF64E172E0FB01449150E080E80E9430
:103960000A0409CF973009F4BECF983021F481E0E2
:103970008093F10000CF993009F0FDCE837009F0FB
:10398000B2CFE2E2F1E081E031E096E3219122233F
:1039900071F08093E9003093EB00DF0111972C91D7
:1039A0002093EC009093ED008F5F873079F78EE7DE
:1039B0008093EA001092EA008F8980937B03DBCE2C
:1039C0008B8D9C8D1092E90010925A03109259032E
:1039D0009093580380935703898D811192C08E89EB
:1039E0009D89913A49F4813209F07DCF47E050E05A
:1039F00064E071E080E0B3CF913209F074CF83329C
:103A000069F48F89988DB0E0A0E0809300019093D5
:103A10000101A0930201B0930301ADCE803269F49D
:103A20008091E80082FFFCCF67E084E091E00E9493
:103A300061048BEF8093E8009ECE823209F09BCE2A
:103A40008F8980930B01EEEFFFE7859194918B3F77
:103A50009C4D51F1E0E0F8E0809104019091050166
:103A6000A0910601B0910701803B9440A105B105EA
:103A7000F1F480910B0180FD1AC0EE3F8AE0F80757
:103A800089F587E797E79183808380916000809331
:103A90005B0388E19BE00FB6F894A89580936000E3
:103AA0000FBE9093600067CEEEEFFAE0D5CF808135
:103AB00091818737974709F05ECEA8958091600085
:103AC00088618093600080915B0380936000EE3F8B
:103AD0002AE0F20789F08091FE0A9091FF0A918313
:103AE000808349CE808191818737980751F29093E6
:103AF000FF0A8093FE0AC5CF1092FF0A1092FE0AB9
:103B00003ACE0E945502DC0112960D911C910115CE
:103B1000110509F4E8CED801ED91FC910190F081F6
:103B2000E02DBE016B5E7F4FC8010995811123CE48
:103B3000F80100851185EBCF181619060CF41BCE81
:103B4000D2CEF1E0FF12BECE68E172E004CF1F9248
:103B50000F920FB60F9211242F933F934F935F93C1
:103B60006F937F938F939F93AF93BF93EF93FF9345
:103B70008EE795E00E94EC04FF91EF91BF91AF9129
:103B80009F918F917F916F915F914F913F912F9175
:103B90000F900FBE0F901F9018951F920F920FB6A7
:103BA0000F9211242F938F939F93EF93FF93E091A4
:103BB0008E05F0918F058081E0919405F091950537
:103BC00082FD1BC09081809197058F5F8F7320913C
:103BD0009805821741F0E0919705F0E0E258FA4F1E
:103BE000958F80939705FF91EF919F918F912F91E2
:103BF0000F900FBE0F901F9018958081F4CF1F92E9
:103C00000F920FB60F9211242F933F934F935F9310
:103C10006F937F938F939F93AF93BF93EF93FF9394
:103C2000CF93DF9300D01F92CDB7DEB783B18983E6
:103C3000898190916B0689278A8380916B009A8194
:103C400089238B838B8180FF05C0E0914703F0912E
:103C5000480309958B8181FF05C0E0914903F091EC
:103C60004A0309958B8182FF05C0E0914B03F091D7
:103C70004C0309958B8183FF05C0E0914D03F091C2
:103C80004E0309958B8184FF05C0E0914F03F091AD
:103C9000500309958B8185FF05C0E0915103F09198
:103CA000520309958B8186FF05C0E0915303F09183
:103CB000540309958B8187FF05C0E0915503F0916E
:103CC00056030995898180936B060F900F900F9092
:103CD000DF91CF91FF91EF91BF91AF919F918F9124
:103CE0007F916F915F914F913F912F910F900FBEF8
:103CF0000F901F9018951F920F920FB60F921124DC
:103D00002F933F934F935F936F937F938F939F93E3
:103D1000AF93BF93EF93FF938091B900887F803674
:103D200009F44AC0F0F5883209F4A7C018F58031CB
:103D300009F49BC0B8F4882309F4F9C0883009F469
:103D400094C0FF91EF91BF91AF919F918F917F911F
:103D50006F915F914F913F912F910F900FBE0F90F8
:103D60001F901895883109F488C0803251F78093EC
:103D7000A20314C0803409F49DC040F48033B9F329
:103D80008833F9F68093A20385ECB0C0803509F43E
:103D900085C0883509F496C0883499F60E94140EBF
:103DA000D0CF883909F48CC038F5883729F050F421
:103DB000883611F0803729F683E08093C40310928F
:103DC0003B0357C0883809F47BC0803919F080382C
:103DD00009F0B7CF80913B03803208F071C0E091C9
:103DE0003B0381E08E0F80933B038091BB00F0E0AA
:103DF000E55EFC4F80833DC0803B39F0E0F4803AC3
:103E000009F479C0883A09F09CCF84E08093C40318
:103E100010921A0310921903E0916103F09162036A
:103E200009958091190381110FC081E080931903D6
:103E30001092F90209C0803C09F4A6CF883C09F42D
:103E4000A3CF883B09F07DCFE0911A0381E08E0F6C
:103E500080931A03F0E0E750FD4F80818093BB0010
:103E600090911A038091190329C080919F03809338
:103E7000BB0085EC8093BC0064CF9091A10380913E
:103E8000A003981758F5E091A10381E08E0F80936D
:103E9000A103F0E0E258FC4F8081E9CFE091A1035B
:103EA00081E08E0F8093A1038091BB00F0E0E25887
:103EB000FC4F80839091A1038091A0039817C8F2D2
:103EC00085E8D8CFE091A10381E08E0F8093A10314
:103ED0008091BB00F0E0E258FC4F80838091A30307
:103EE00081115CCF81E080939E0384EA8093BC00C3
:103EF0001092C40326CF85EC8093BC001092C403BB
:103F000080913B03803230F4E0913B03F0E0E55ECA
:103F1000FC4F108260913B0370E0E0915F03F091F1
:103F200060038BE193E0099510923B030ACF109256
:103F3000A20334CFEEE7F5E01382128288EE93E01D
:103F4000A0E0B0E084839583A683B7832CE231E0C0
:103F5000318320832DEC30E0358724872CEC30E052
:103F60003787268728EC30E0318B208B29EC30E036
:103F7000338B228B2AEC30E0358B248B2EEC30E017
:103F8000378B268B118E128E138E148EEBE1F6E09A
:103F90001382128284839583A683B7832EE331E054
:103FA000318320832FEF3FEF3587248723B1209380
:103FB0006B06ECE6F6E01382128284839583A68377
:103FC000B78380E591E09183808310929C07E4E8B9
:103FD000F7E0128215828EE691E091838083ECE710
:103FE000F7E01282158288E691E091838083E0E712
:103FF000F7E01282158210868EE0818781E0828749
:10400000838782E691E091838083EEE7F6E080E0AB
:1040100090E0A4EBB4E480839183A283B38380E037
:1040200090E0ACE0B2E484839583A683B78388E50F
:1040300099EEABE5B3E480879187A287B38782E3EB
:1040400090E09587848716861786108A118A128ACF
:10405000138A148A158A168A178A108E118E128E68
:10406000138E148E158E168E178E10A211A212A208
:1040700013A214A215A280E090EEAEE0B3E486A7EE
:1040800097A7A0ABB1AB12AA13AA14AA15AA16AA95
:1040900017AA10AE11AE12AE13AE14AE15AE80E07C
:1040A00090E0A0E0BFE380934E0790934F07A0936A
:1040B0005007B09351078DEC9CECACE4BEE38093C9
:1040C000520790935307A0935407B093550710924B
:1040D00056071092570710925807109259071092DE
:1040E0005A0710925B0710925C0710925D0788E0F8
:1040F00090E090935F0780935E0785E190E0909356
:1041000061078093600786E190E090936307809356
:1041100062078DEC9CECACECBCE38093640790935D
:104120006507A0936607B093670780E090E0A8E476
:10413000B3E48093680790936907A0936A07B093EC
:104140006B0780E090E0A8ECB2E480936C0790935A
:104150006D07A0936E07B0936F076EE771E088E775
:1041600096E00E94030E0C949A03789484B58260C2
:1041700084BD84B5816084BD85B5826085BD85B50B
:10418000816085BD80916E00816080936E00109289
:104190008100809181008260809381008091810004
:1041A0008160809381008091800081608093800095
:1041B0008091910082608093910080919100816054
:1041C0008093910080919000816080939000809115
:1041D000C10084608093C1008091C100826080939F
:1041E000C1008091C10081608093C1008091C300B3
:1041F00081608093C3008091C00082608093C00082
:104200008091C20081608093C20080917A008460B6
:1042100080937A0080917A00826080937A00809106
:104220007A00816080937A0080917A008068809320
:104230007A0010927B0310925E0310925D038091CE
:10424000D70081608093D70080EA8093D80089B539
:10425000806189BD89B5826089BD09B400FEFDCF4A
:1042600061E070E080E090E00E9468038091D800F7
:104270008F7C80618093D8008091E000807F809364
:10428000E0008091E1008E7E8093E1008DE08093DC
:10429000E200559A209A8FEF9FEF90932806809323
:1042A000270610927D0310927C03109264031092F3
:1042B00063030E94500886EA93E090936203809320
:1042C000610387EA93E09093600380935F0388E43F
:1042D0008093B8000E949A036093A8067093A90681
:1042E0008093AA069093AB061092B0061092B10686
:1042F0001092B2061092B3061092B4061092B50650
:104300001092B6061092B7061092B8061092B9062F
:104310001092BA061092BB0680917C0590917D05A3
:10432000FC01EE0FFF1FEE0FFF1FE453FC4F108246
:10433000118212821382FC01EE0FFF1FEE0FFF1F8E
:10434000EC55FB4F108211821282138201969093DA
:104350007D0580937C0560E08DE10E94E3028DE1A4
:1043600090E0909319018093180160E082E10E942F
:10437000E30282E190E09093170180931601E091AF
:104380008E05F0918F0582E08083E0918A05F0919F
:104390008B051082E0918C05F0918D0580E1808382
:1043A00010929605E0919205F091930586E0808346
:1043B000E0919005F0919105808180618083E0918A
:1043C0009005F0919105808188608083E09190054F
:1043D000F0919105808180688083E0919005F09153
:1043E000910580818F7D8083C0E0D0E08EE796E0EC
:1043F0000E94DB0981110E94B8122097B9F30E9434
:10440000D804882399F30E940000F0CF88E796E053
:104410000C94FE0AEF920F931F93CF93DF93E80162
:1044200034E047FD34E1042E000C550B57FF03C068
:10443000519541955109E32E022F242FAE010E9480
:104440004D22CE01DF91CF911F910F91EF900895F2
:10445000BB274A3031F4992322F4BDE2909581952F
:104460009F4F0C943422BB27FB015527AA27880FA6
:10447000991FAA1FA41710F0A41B83955051B9F7D8
:10448000A05DAA3308F0A95DA193009779F7B11157
:10449000B1931192CB010C948424A9E0B0E0E3E540
:1044A000F2E20C94BE256A01F22EB02E102FFBE32F
:1044B000AF2EA01608F41BE31F5F012F27E0AE010B
:1044C0004F5F5F4F0E94AC23BC018981982F997088
:1044D000913009F43FC09BE2E1FC04C09E2D917035
:1044E000E0FC3AC05E2D5071E82FE87083FF46C0B3
:1044F00084E0911101C083E0EF2DE81B8F1508F0D7
:10450000E0E0D6018E2F20E2552351F1992329F0C6
:10451000D6019C93C60101966C0196012D5F3F4F19
:10452000E2FE24C08EE4D6018C9391E411969C9314
:10453000119712968C93D9018E2F90E281111BC096
:10454000E20FF32FF11D10828EEF9FEF2996ECE022
:104550000C94DA259DE2C6CF90E2C4CF2D93815012
:104560008111FCCFCE0ED11CE0E0D0CF8EE6D6017B
:104570008C9391E6DBCF9D938150E0CF482F447020
:1045800082FF3DC084E0911101C083E08F1510F4DB
:10459000EF2DE81BD6018E2F20E2552309F1992338
:1045A00029F0D6019C93C60101966C0196012D5FFE
:1045B0003F4FE2FE1BC089E4D6018C938EE4119636
:1045C0008C93119786E412968C93D9018E2F90E2EA
:1045D000882309F4B5CF9D938150FACF2D93815054
:1045E0008111FCCFCE0ED11CE0E0D9CF89E6D601F7
:1045F0008C938EE611968C93119786E6E4CF9B01FF
:1046000077FF02C030E020E0A1E0B0E0911102C0ED
:10461000B0E0A0E0F9013196AE0FBF1F8B2C912CBA
:10462000BB2009F461C05401EFEFAE1ABE0AAA0D17
:10463000BB1DFA161B0619F014F04F2D4A1B511121
:1046400088C0E3FC59C07601A42FB0E2A1114FC08D
:10465000C40ED11C992309F45BC040E0D601119629
:10466000F60190836D01552309F448C0012F060F10
:104670009A81582F507184FF03C0913309F401507F
:1046800010160CF047C0093008F008E0EEE2FE2EEC
:104690005B01A01AB10885019194819491082F3F84
:1046A000320729F4D601FC92F60131966F016217A8
:1046B000730794F1021713077CF5DB01A21BB30B00
:1046C000AA24A394B12CAC0EBD1EAA0DBB1D11963D
:1046D0008C9121503109D601119628153905F4F035
:1046E000F60180836D01DBCFB12CA12CA0CFF701A7
:1046F000B1937F01A150AACF9111B0CFD601942FD1
:1047000050E302C05D9391509111FCCFC40ED11CB7
:1047100040E0ACCF01E0BACF80E3DBCF6217730794
:1047200031F4963388F4953311F4552369F0F6018A
:104730008083FD01842F90E2811108C0A40FB11D78
:104740001C9290E080E002CF81E3F1CF9193815001
:10475000F3CF911183CF8ACF283008F027E0332799
:10476000DA01990F311D87FD916000966105710591
:1047700039F432602E5F3D9330E32A95E1F70895D6
:104780009F3F30F080387105610509F03C5F3C5F68
:104790003D93913008F08068911DDF93CF931F9374
:1047A0000F93FF92EF92192F987F9695E92F969588
:1047B0009695E90FFF27EC5DFE4F99273327EE24EE
:1047C000FF24A701E70105900894079428F4360F09
:1047D000E71EF81E491F511D660F771F881F991F7E
:1047E0000694A1F70590079428F4E70EF81E491FD8
:1047F000561FC11D770F881F991F661F0694A1F7CA
:104800000590079428F4F80E491F561FC71FD11DA5
:10481000880F991F661F771F0694A1F705900794CC
:1048200020F4490F561FC71FD81F990F661F771F07
:10483000881F0694A9F784911095177041F0D695BA
:10484000C79557954795F794E7941A95C1F7EAEC01
:10485000F0E06894159015913591659195910590CA
:104860007FE27395E118F10A430B560BC90BD0098F
:10487000C0F7E10CF11E431F561FC91FD01D7EF467
:10488000703311F48A95E6CFE894015030F0080FA8
:104890000AF40027021708F4202F2395022F7A33F9
:1048A00028F079E37D932A95E9F710C07D932A9546
:1048B00089F6069497956795379517951794E1189B
:1048C000F10A430B560BC90BD00998F023957E9142
:1048D00073957A3308F070E37C932013B8F77E91D8
:1048E00070617D9330F0839571E37D9370E32A9539
:1048F000E1F71124EF90FF900F911F91CF91DF917D
:10490000992787FD90950895DC01FC01672F71912F
:104910007723E1F7329704C07C916D9370836291A5
:10492000AE17BF07C8F308950E94D62408F481E0AB
:104930000895E89409C097FB3EF490958095709592
:1049400061957F4F8F4F9F4F9923A9F0F92F96E9DB
:10495000BB279395F695879577956795B795F11150
:10496000F8CFFAF4BB0F11F460FF1BC06F5F7F4FED
:104970008F4F9F4F16C0882311F096E911C07723FF
:1049800021F09EE8872F762F05C0662371F096E808
:10499000862F70E060E02AF09A95660F771F881FD7
:1049A000DAF7880F9695879597F90895990F00087B
:1049B000550FAA0BE0E8FEEF16161706E807F907F1
:1049C000C0F012161306E407F50798F0621B730B8C
:1049D000840B950B39F40A2661F0232B242B252B0D
:1049E00021F408950A2609F4A140A6958FEF811DB0
:1049F000811D08950E940D250C947E250E9470252E
:104A000038F00E94772520F0952311F00C9467254B
:104A10000C946D2511240C94B2250E948F2570F3FF
:104A2000959FC1F3950F50E0551F629FF001729F53
:104A3000BB27F00DB11D639FAA27F00DB11DAA1F62
:104A4000649F6627B00DA11D661F829F2227B00DAF
:104A5000A11D621F739FB00DA11D621F839FA00D3A
:104A6000611D221F749F3327A00D611D231F849F8A
:104A7000600D211D822F762F6A2F11249F575040E1
:104A80009AF0F1F088234AF0EE0FFF1FBB1F661F5C
:104A9000771F881F91505040A9F79E3F510580F025
:104AA0000C9467250C94B2255F3FE4F3983ED4F351
:104AB000869577956795B795F795E7959F5FC1F7C9
:104AC000FE2B880F911D9695879597F9089597F974
:104AD0009F6780E870E060E008959FEF80EC0895A4
:104AE00000240A94161617061806090608950024CD
:104AF0000A9412161306140605060895092E039447
:104B0000000C11F4882352F0BB0F40F4BF2B11F4BA
:104B100060FF04C06F5F7F4F8F4F9F4F089557FD19
:104B20009058440F551F59F05F3F71F04795880F1B
:104B300097FB991F61F09F3F79F0879508951216B2
:104B400013061406551FF2CF4695F1DF08C016165E
:104B500017061806991FF1CF86957105610508940F
:104B60000895E894BB2766277727CB0197F9089526
:104B70002F923F924F925F926F927F928F929F926D
:104B8000AF92BF92CF92DF92EF92FF920F931F935B
:104B9000CF93DF93CDB7DEB7CA1BDB0B0FB6F8940C
:104BA000DEBF0FBECDBF09942A88398848885F844C
:104BB0006E847D848C849B84AA84B984C884DF80BD
:104BC000EE80FD800C811B81AA81B981CE0FD11DA1
:104BD0000FB6F894DEBF0FBECDBFED010895A1E280
:104BE0001A2EAA1BBB1BFD010DC0AA1FBB1FEE1F67
:104BF000FF1FA217B307E407F50720F0A21BB30BB2
:104C0000E40BF50B661F771F881F991F1A9469F72D
:104C100060957095809590959B01AC01BD01CF0189
:104C20000895EE0FFF1F0590F491E02D0994505860
:104C3000BB27AA270E942F260C947E250E94702550
:104C400038F00E94772520F039F49F3F19F426F4BC
:104C50000C946D250EF4E095E7FB0C946725E92F85
:104C60000E948F2558F3BA176207730784079507C8
:104C700020F079F4A6F50C94B1250EF4E0950B2EF6
:104C8000BA2FA02D0B01B90190010C01CA01A0019E
:104C90001124FF27591B99F0593F50F4503E68F1F9
:104CA0001A16F040A22F232F342F4427585FF3CF3A
:104CB000469537952795A795F0405395C9F77EF40B
:104CC0001F16BA0B620B730B840BBAF09150A1F054
:104CD000FF0FBB1F661F771F881FC2F70EC0BA0FDA
:104CE000621F731F841F48F4879577956795B79562
:104CF000F7959E3F08F0B0CF9395880F08F099275D
:104D0000EE0F9795879508950E943327E3950C94AD
:104D10005C270E949D260C947E250E94772558F0E2
:104D20000E94702540F029F45F3F29F00C9467251C
:104D300051110C94B2250C946D250E948F2568F3B7
:104D40009923B1F3552391F3951B550BBB27AA2744
:104D500062177307840738F09F5F5F4F220F331F7E
:104D6000441FAA1FA9F335D00E2E3AF0E0E832D046
:104D700091505040E695001CCAF72BD0FE2F29D049
:104D8000660F771F881FBB1F261737074807AB071B
:104D9000B0E809F0BB0B802DBF01FF2793585F4F90
:104DA0003AF09E3F510578F00C9467250C94B2259B
:104DB0005F3FE4F3983ED4F3869577956795B79572
:104DC000F7959F5FC9F7880F911D9695879597F97D
:104DD0000895E1E0660F771F881FBB1F62177307F6
:104DE0008407BA0720F0621B730B840BBA0BEE1F0B
:104DF00088F7E09508950E9402276894B1110C94F9
:104E0000B22508950E94972588F09F5798F0B92FF2
:104E10009927B751B0F0E1F0660F771F881F991FEF
:104E20001AF0BA95C9F714C0B13091F00E94B125BB
:104E3000B1E008950C94B125672F782F8827B85FCB
:104E400039F0B93FCCF3869577956795B395D9F747
:104E50003EF490958095709561957F4F8F4F9F4F51
:104E600008950C946D250E949725D8F3E894E0E00E
:104E7000BB279F57F0F02AED3FE049EC06C0EE0F4C
:104E8000BB0F661F771F881F28F0B23A62077307AF
:104E9000840728F0B25A620B730B840BE3959A9542
:104EA00072F7803830F49A95BB0F661F771F881F02
:104EB000D2F790480C948427EF93E0FF07C0A2EA52
:104EC0002AED3FE049EC5FEB0E942F260E947E25F1
:104ED0000F90039401FC9058ECEAF0E00C949027BA
:104EE0000E94D62408F48FEF08959F930E943327E1
:104EF0000F9007FCEE5F0C945C270E94D624880B71
:104F0000990B08959F3F31F0915020F48795779544
:104F10006795B795880F911D9695879597F9089590
:104F20009F938F937F936F93FF93EF939B01AC01BC
:104F30000E94FA24EF91FF910E94A4272F913F91A4
:104F40004F915F910C94FA24DF93CF931F930F93AB
:104F5000FF92EF92DF927B018C01689406C0DA2EFB
:104F6000EF010E940D25FE01E894A5912591359150
:104F700045915591A6F3EF010E942F26FE0197015E
:104F8000A801DA9469F7DF90EF90FF900F911F91DD
:104F9000CF91DF9108950F931F93CF93DF938230CA
:104FA000910510F482E090E0E0919F07F091A00756
:104FB00030E020E0B0E0A0E0309799F42115310511
:104FC00009F44AC0281B390B24303105D8F58A81F1
:104FD0009B816115710589F1FB0193838283FE0139
:104FE00011C0408151810281138148175907E0F0B7
:104FF0004817590799F4109761F012960C9312977D
:1050000013961C933296CF01DF91CF911F910F9190
:10501000089500939F071093A007F4CF2115310541
:1050200051F04217530738F0A901DB019A01BD0185
:10503000DF01F801C1CFEF01F9CF9093A007809372
:105040009F07CDCFFE01E20FF31F81939193225072
:10505000310939832883D7CF20919D0730919E074E
:10506000232B41F420911D0130911E0130939E07A6
:1050700020939D0720911B0130911C0121153105C2
:1050800041F42DB73EB740911F0150912001241BE0
:10509000350BE0919D07F0919E07E217F307A0F40E
:1050A0002E1B3F0B2817390778F0AC014E5F5F4F7E
:1050B0002417350748F04E0F5F1F50939E0740930B
:1050C0009D07819391939FCFF0E0E0E09CCFCF9339
:1050D000DF930097E9F0FC01329713821282A091CE
:1050E0009F07B091A007ED0130E020E01097A1F4F8
:1050F00020813181820F931F20919D0730919E075F
:105100002817390709F061C0F0939E07E0939D07C7
:10511000DF91CF910895EA01CE17DF07E8F54A81C4
:105120005B819E0141155105B1F7E901FB83EA83DB
:1051300049915991C40FD51FEC17FD0761F4808187
:1051400091810296840F951FE9019983888382815A
:1051500093819B838A83F0E0E0E012968D919C918D
:1051600013970097B9F52D913C911197CD010296B7
:10517000820F931F20919D0730919E0728173907B2
:1051800039F6309751F51092A00710929F07B0930F
:105190009E07A0939D07BCCFD383C28340815181DA
:1051A000840F951FC817D90761F44E5F5F4F888140
:1051B0009981480F591F518340838A819B81938332
:1051C00082832115310509F0B0CFF093A007E09359
:1051D0009F079ECFFD01DC01C0CF13821282D7CF83
:1051E000B0E0A0E0E6EFF8E20C94BA258C0100975D
:1051F00051F4CB010E94CB278C01C801CDB7DEB79B
:10520000E0E10C94D625FC01E60FF71F9C0122502B
:105210003109E217F30708F49DC0D901CD91DC9163
:105220001197C617D70798F0C530D10530F3CE01D6
:1052300004978617970708F3C61BD70B2297C193CD
:10524000D1936D937C93CF010E946728D6CF5B01E9
:10525000AC1ABD0A4C018C0E9D1EA0919F07B09107
:10526000A007512C412CF12CE12C109731F58091A5
:105270009D0790919E078815990509F05CC0461618
:10528000570608F058C080911B0190911C010097AF
:1052900041F48DB79EB740911F0150912001841BAE
:1052A000950BE817F90708F055C0F0939E07E093B7
:1052B0009D07F90171836083A0CF8D919C91119717
:1052C00012966C90129713967C901397A815B905B7
:1052D00059F56C0142E0C40ED11CCA14DB0420F164
:1052E000AC014A195B09DA011296159780F06282C7
:1052F000738251834083D9016D937C93E114F1044F
:1053000071F0D7011396FC93EE93129776CF229605
:105310008C0F9D1FF90191838083F301EFCFF093F0
:10532000A007E0939F0769CF4816590608F42C019F
:105330007D01D3019ACFCB010E94CB277C0100973E
:1053400049F0AE01B8010E94B229C8010E94672845
:10535000870153CF10E000E050CF81E090E0F89457
:105360000C94C229FB01DC0102C001900D92415056
:105370005040D8F70895FB01DC0101900D92002008
:10538000E1F7089511E0CCE6D1E004C0FE010E94EF
:0E53900011262196CD36D107C9F7F894FFCF2C
:10539E00FFFFFFFF00E1000000000000A803A803CC
:1053AE00A803A803A80312001200010000A10780A1
:1053BE000000C18081000000000000000D056E0499
:1053CE009B045905CC04AA04BE0400000000FE058F
:1053DE0079051F0614066506230641060000000027
:1053EE009C099109AD0967098A09770968090000C6
:1053FE000000A40700000000790E000000004C0E13
:10540E006E616E00696E66006F7666000D0A00545E
:10541E004845204D4150204F48204D5920474F447C
:10542E00002020005461672049443A20005800446F
:10543E0052495645204C494E450052530052454361
:10544E005F4D41500068656164696E670043757217
:10545E0072656E7420436F6F7264696E6174653A23
:10546E0020004F6C6420436F6F7264696E617465C7
:10547E00733A2028782C792920004E657720436FC7
:10548E006F7264696E617465733A2028782C79297D
:10549E002000313830206465677265652063617362
:1054AE00650032373020646567726565206361730D
:1054BE0065003C3C3C3C3C3C3C3C3C3C3C3C3C3C31
:1054CE003C3C3C3C3C3C3C3C3C3C3C3C3C3C3C3C0E
:1054DE005F5F5F5F5F5F5F5F5F5F5F5F5F5F5F5FCE
:1054EE005F5F5F6572726F725F5F5F5F5F5F5F5F6F
:1054FE005F5F5F5F5F5F5F5F5F3E3E3E3E3E3E3E95
:10550E003E3E3E3E3E3E3E3E3E3E3E3E3E3E3E3EAD
:10551E003E3E3E3E3E3E00454E445052494D415267
:10552E005900454E445345434F4E44415259005441
:10553E0055524E004F50454E5F4C45465400434C1D
:10554E004F5345445F4C4546540044524956455FBF
:10555E004C494E4500434C4F5345445F46524F4EC7
:10556E00540054525545004B657920466F756E6454
:08557E00200049444C450000E7
:00000001FF
