:100000000C946D010C94811B0C945A1B0C94331BA3
:100010000C940C1B0C9495010C9495010C94E51A0E
:100020000C9495010C94A11E0C94A81B0C94171C05
:100030000C9495010C9495010C9495010C949501E8
:100040000C9495010C9495010C9495010C949501D8
:100050000C9495010C9495010C9495010C949B1AA9
:100060000C9495010C946F1E0C94491E0C949501F0
:100070000C9495010C9495010C9495010C949501A8
:100080000C9495010C9495010C9495010C94950198
:100090000C941D1F0C9495010C9495010C949501E2
:1000A0000C9495010C9495010C94950105A84CCDE8
:1000B000B2D44EB93836A9020C50B9918688083CA2
:1000C000A6AAAA2ABE000000803F00407A10F35A78
:1000D00000A0724E18090010A5D4E80000E8764888
:1000E000170000E40B54020000CA9A3B000000E134
:1000F000F505000080969800000040420F000000C7
:10010000A08601000000102700000000E8030000A6
:1001100000006400000000000A0000000000010070
:10012000000000002C76D888DC674F0823DFC1DF91
:10013000AE59E1B1B796E5E3E453C63AE651997694
:1001400096E8E6C28426EB898C9B62ED407C6FFCCE
:10015000EFBC9C9F40F2BAA56FA5F490055A2AF710
:100160005C936B6CF9676DC11BFCE0E40D47FEF519
:1001700020E6B500D0ED902E030094357705008081
:10018000841E080000204E0A000000C80C333333E0
:10019000330F986E12831141EF8D2114893BE65580
:1001A00016CFFEE6DB18D1844B381BF77C1D901D63
:1001B000A4BBE424203284725E228100C9F124ECC5
:1001C000A1E53D27000000002300260029002C00A7
:1001D0002F00080B000202020000090400000102C7
:1001E000020000052400100105240101010424027D
:1001F00006052406000107058103100040090401DB
:1002000000020A0000000705020240000007058303
:10021000024000000403090412010002EF02014041
:10022000FB1F0023000101020301506F6C6F6C750E
:1002300020436F72706F726174696F6E00506F6CE3
:100240006F6C7520412D5374617220333255340028
:10025000070605040100080A0B0C0D090000000048
:10026000240027002A002D00300000000000250097
:1002700028002B002E0031000404040404030405AC
:100280000202020204030202020206060606060633
:100290000404020202040404080201104080401019
:1002A000204080408008020401804020100201109C
:1002B0008010204040200000000200090F000003D1
:1002C0000401000C0000000000000000000000001D
:1002D0000000000000003C20F42211241FBECFEFDC
:1002E000DAE0DEBFCDBF27E0AEEFB2E001C01D9285
:1002F000AD3BB207E1F712E0A0E0B1E0E2E8F5E5DE
:1003000002C005900D92AE3FB107D9F711E0CCE6DF
:10031000D1E004C02197FE010E940327CB36D1070C
:10032000C9F70E945D210C94B42A0C9400006F92CE
:100330007F928F929F92AF92BF92CF92DF92EF9275
:10034000FF920F931F93CF93DF938090920590902D
:100350009305340181E0681A7108C2EED3E08EEB98
:10036000E82E84E0F82E10E000E0061517050CF0EA
:1003700052C06801AFEFCA1ADA0A5E01B4E0AB0EF0
:10038000B11C8C149D0409F43FC0F50121913191F9
:10039000419151915F016C817D818E819F810E948D
:1003A000862581112DC0F501EC52FF4F208131814E
:1003B00042815381D7016D917D918D919C910E94D5
:1003C000862581111DC0FE01C801019634968C1549
:1003D0009D05B4F44C815D816E817F8140835183A2
:1003E00062837383D7014D915D916D917C91DF01A3
:1003F000A852BF4F4D935D936D937C931397E5CFB8
:10040000BFEFCB1ADB0ABDCF0E5F1F4F2896E8E087
:10041000EE0EF11CAACFDF91CF911F910F91FF90AB
:10042000EF90DF90CF90BF90AF909F908F907F9094
:100430006F900895FC0180919103882311F13FB7DB
:10044000F89482E08093E9002091F200822F90E0FE
:100450001816190614F481E090E0882339F02898E2
:1004600044E6409390034091F1004083222339F009
:100470002091F200211103C02BE62093E8003FBF3A
:1004800008958FEF9FEF08952FB7F89483E080933E
:10049000E9009091E800892F807295FF04C0909147
:1004A000F20080E4891B2FBF089580918803811199
:1004B0000DC082E08093840384E0809385031092D2
:1004C00087031092860381E08093880384E893E099
:1004D000089581508F3008F047C0E82FF0E0ED58C4
:1004E000FD4F0C94032790029402820288028C0232
:1004F000B402B402B40297029D02A102A502AB02AB
:10050000B402AF02809180008F77809380000895BD
:10051000809180008F7DF9CF80918000877FF5CF1B
:1005200084B58F7784BD089584B58F7DFBCF80918E
:1005300090008F77809390000895809190008F7D38
:10054000F9CF80919000877FF5CF8091C0008F77A1
:100550008093C00008958091C0008F7DF9CF809175
:10056000C200877F8093C20008951F93CF93DF93CB
:10057000282F30E0F901EA54FD4F8491F901E95642
:10058000FD4FD491F901E858FD4FC491CC23A9F057
:10059000162F81110E946902EC2FF0E0EE0FFF1F71
:1005A000E659FD4FA591B4918FB7F894EC911111D4
:1005B00008C0D095DE23DC938FBFDF91CF911F91D0
:1005C0000895DE2BF8CFCF93DF9390E0FC01E9563E
:1005D000FD4F249188589D4FFC0184918823C9F0D8
:1005E00090E0880F991FFC01E45AFD4FA591B4914A
:1005F000FC01E659FD4FC591D49161110DC09FB723
:10060000F8948C91209582238C93888128232883C9
:100610009FBFDF91CF910895623051F49FB7F89456
:100620003C91822F809583238C93E8812E2BEFCFF2
:100630008FB7F894EC912E2B2C938FBFEACF823199
:1006400008F08251E82FF0E0E05BFD4FE4919091DB
:100650007B008E2F880F880F80729F7D892B80935F
:100660007B00E770E064E0937C0080917A00806416
:1006700080937A0080917A0086FDFCCF809178008B
:100680009091790008953FB7F894809180039091FC
:100690008103A0918203B091830326B5A89B05C076
:1006A0002F3F19F00196A11DB11D3FBFBA2FA92FF1
:1006B000982F8827BC01CD01620F711D811D911DEE
:1006C00042E0660F771F881F991F4A95D1F708955A
:1006D0008F929F92AF92BF92CF92DF92EF92FF9252
:1006E0004B015C010E9443036B017C010E944303A8
:1006F0006C197D098E099F09683E7340810591053B
:10070000A8F321E0821A9108A108B10888EEC80E6A
:1007100083E0D81EE11CF11C81149104A104B104F2
:1007200029F7FF90EF90DF90CF90BF90AF909F9010
:100730008F9008952FB7F89460917C0370917D039A
:1007400080917E0390917F032FBF089508950895AF
:10075000089540916F035091700320916D03309183
:100760006E0342175307B4F49091E8009570E1F3DB
:100770009091E80092FD19C08093F10080916F0381
:100780009091700301968F739927892B19F48EEF3E
:100790008093E80080916F0390917003019690938D
:1007A000700380936F0381E0089580E00895EF92D5
:1007B000FF920F931F93CF93DF93F82E192FE62EFE
:1007C000042F81E0860F880F0E94A90383E00E9416
:1007D000A903CF2DD12FEC0EFD2EF11CCE15DF0578
:1007E000B9F007FF13C0FE0184910E94A903182FDE
:1007F00080E00E94A903812321968111EFCFDF9130
:10080000CF911F910F91FF90EF9008958881EDCFC8
:1008100081E0F5CFDF92EF92FF920F931F93CF937A
:10082000DF93D82E8A01EB017B01E40EF51ECE1575
:10083000DF0559F0D7FE12C0FE0184910E94A90382
:1008400021968111F4CF0FEF1FEFC801DF91CF91F7
:100850001F910F91FF90EF90DF9008958881EECF68
:100860000F931F93CF93DF931F92CDB7DEB782E034
:10087000898342E450E062ED71E080E80E940A045E
:100880000E945502DC0112960D911C910115110573
:1008900089F0D801ED91FC910280F381E02DBE0139
:1008A0006F5F7F4FC801099597FD04C0F80100856F
:1008B0001185ECCF89810F90DF91CF911F910F911E
:1008C0000895615030F02091F100FC0120830196E1
:1008D000F8CF289884E6809390030895AF92BF9252
:1008E000CF92DF92EF92FF920F931F93CF93DF93FC
:1008F0006C017B018B01040F151FEB015E01AE182B
:10090000BF08C017D10759F06991D601ED91FC914C
:100910000190F081E02DC6010995892B79F7C50179
:10092000DF91CF911F910F91FF90EF90DF90CF90CB
:10093000BF90AF900895FC01538D448D252F30E07A
:10094000842F90E0821B930B541710F0CF960895DC
:1009500001970895FC01918D828D981761F0A28D09
:10096000AE0FBF2FB11D5D968C91928D9F5F9F73CF
:10097000928F90E008958FEF9FEF0895FC01918D85
:10098000828D981731F0828DE80FF11D858D90E0F2
:1009900008958FEF9FEF0895FC01918D228D892F8F
:1009A00090E0805C9F4F821B91098F739927089577
:1009B00084E995E00E94CC0421E0892B09F420E031
:1009C000822F089580E090E0892B29F00E94D804BE
:1009D00081110C9400000895FC01A48DA80FB92F7B
:1009E000B11DA35ABF4F2C91848D90E001968F7357
:1009F0009927848FA689B7892C93A089B1898C9176
:100A000082748C93938D848D981306C00288F38929
:100A1000E02D80818F7D80830895EF92FF920F9368
:100A20001F93CF93DF93EC0181E0888F9B8D8C8D9A
:100A3000981319C0E889F989808185FF14C09FB790
:100A4000F894EE89FF896083E889F989808182744E
:100A500080839FBF81E090E0DF91CF911F910F9144
:100A6000FF90EF900895F62E0B8D10E00F5F1F4F53
:100A70000F731127E02E8C8D8E110CC00FB607FC62
:100A8000FACFE889F989808185FFF5CFCE010E94F0
:100A9000EC04F1CFEB8DEC0FFD2FF11DE35AFF4F6E
:100AA000F0829FB7F8940B8FEA89FB89808180627E
:100AB000CFCFCF93DF93EC01888D8823B9F0AA893B
:100AC000BB89E889F9898C9185FD03C0808186FD09
:100AD0000DC00FB607FCF7CF8C9185FFF2CF808158
:100AE00085FFEDCFCE010E94EC04E9CFDF91CF91DD
:100AF00008958F929F92AF92BF92CF92DF92EF9222
:100B0000FF920F931F93CF93DF936C017B018A01B8
:100B100080910C01882309F45CC0809191038823A3
:100B200009F457C08091730380FF05C08091E000F5
:100B300082608093E000E801B12C8AEFA82E93E058
:100B4000892E2AE3922E209711F4BB20D9F10E941E
:100B5000440281110AC0AA94AA20D9F161E070E090
:100B600080E090E00E946803EECF8C171D0611F024
:100B70000CF08C2F9FB7F8948092E9002091E80048
:100B800025FD02C09FBFDFCF282F30E0C21BD30B53
:100B9000F701815020F041914093F100FACFE20E2D
:100BA000F31EBB2021F09092E800B12CEBCF809196
:100BB000E80085FDE7CF9092E800BB24B39420972E
:100BC00009F3F3CF5D9884E6809372031016110643
:100BD0003CF081E090E0F6019383828310E000E036
:100BE000C801DF91CF911F910F91FF90EF90DF909F
:100BF000CF90BF90AF909F908F900895CF93DF9349
:100C00001F92CDB7DEB76983DC01ED91FC910280C4
:100C1000F381E02D41E050E0BE016F5F7F4F099509
:100C20000F90DF91CF91089583E08093E900809148
:100C3000F200882319F08AE38093E80008950E9467
:100C4000440290E00895CF93DF931F92CDB7DEB7B3
:100C5000FC018485958597FD08C02FEF3FEF358710
:100C600024870F90DF91CF910895CE0101960E94C5
:100C70001A02019719F4898190E0F3CF8FEF9FEF6B
:100C8000F0CF0F931F93CF93DF931F92CDB7DEB7B3
:100C90008C01FC018485958597FF0BC0CE010196E0
:100CA0000E941A02019771F4898190E0F8019587FA
:100CB0008487F801848595850F90DF91CF911F91EE
:100CC0000F9108958FEF9FEFF1CFFC0184859585FB
:100CD00097FD0BC09FB7F89482E08093E900809164
:100CE000F2009FBF90E0019608959FB7F89482E0CC
:100CF0008093E9008091F2009FBF90E008952E98C4
:100D0000269A2D98259A2A98229A2998219A2F98DE
:100D1000279A8AEA8093800089E18093810084EA9F
:100D200091E0909387008093860010928900109242
:100D3000880010928B0010928A0010928D00109201
:100D40008C0008950F931F93CF93DF938C01EB01D9
:100D500080915C03811105C081E080935C030E9457
:100D60007F0680E017FF04C011950195110981E00D
:100D70000D3291E0190714F00CE211E010938B0092
:100D800000938A00882329F12A9A229A80915C0391
:100D9000811105C081E080935C030E947F0680E0A2
:100DA000D7FF04C0D195C195D10981E0CD3291E042
:100DB000D90714F0CCE2D1E0D0938900C093880029
:100DC000882349F0299A219ADF91CF911F910F91A1
:100DD00008952A98DACF2998F6CF8CB1282F30E0E1
:100DE0003595279535952795422F417083B190E031
:100DF00054E0959587955A95E1F782278170209167
:100E00005A0390915B036091580370915903242712
:100E10009827291B330B260F371F30935903209334
:100E2000580320915A0390915B03281729F09417D7
:100E300019F091E09093570380935A0340935B031A
:100E400008959FB191708CB186FB882780F989271E
:100E50002091550330915603409153035091540310
:100E600029273827231B330B240F351F30935403B6
:100E7000209353033091550320915603381729F0DE
:100E8000291719F021E02093520380935503909382
:100E90005603089524982C9A6A98729A6E98769AB6
:100EA0008098889AF89491E090936800EBE6F0E0DF
:100EB0008081806180832DEE36E03093660320933D
:100EC00065039BBB809181068F7E8093810683B1F1
:100ED000909181068071892B80938106789481E2BC
:100EE00097E09093160180931501EAE6F0E0808187
:100EF0008F7C80618083EE9A8CB182FB882780F999
:100F000080935B0393B180915B03929591708927E5
:100F100080935A031092590310925803109257036A
:100F20008FB18170809356039CB18091560396FBDC
:100F3000992790F9892780935503109254031092B2
:100F400053031092520308950F931F93CF93DF938F
:100F5000EC01888581110EC0898591E098879A857A
:100F600062E0911101C060E00E94E3028FE090E036
:100F70000197F1F7298530E0F901EA54FD4F84919A
:100F8000F901E956FD4F0491F901E858FD4F14911C
:100F90001123C9F081110E946902E12FF0E0EE0FE8
:100FA000FF1FEC53FE4FA591B491EC910E2331E05D
:100FB00009F430E0832F2B8582278170DF91CF9158
:100FC0001F910F91089580E0F6CF0F931F93CF9359
:100FD000DF93EC01E881F9810190F081E02D099522
:100FE00001E0182F10270E949A032D81213091F0E3
:100FF00030F02230E9F0233009F110E005C0111182
:10100000FCCF7F836E830D83812FDF91CF911F9162
:101010000F910895112311F01D82EFCF2E813F8192
:10102000621B730B6F30710578F382E08D83E5CF1F
:10103000112351F37F836E8383E0F8CF1123A9F34B
:101040002E813F81621B730B6F307105B0F21D82E0
:10105000DBCF20912F03260F3327331F2132310599
:10106000ECF42091DA03FC0190E080E0243069F098
:1010700082E00895A0912F032191AC01415F5C4F64
:10108000A40FB52FB11D2C930196861798F380916C
:101090002F03680F60932F0380E0089581E0089587
:1010A0001092DA0381E08093B9031092B40361E0F7
:1010B00082E00E94B50261E083E00E94B502E9EBA4
:1010C000F0E080818E7F808380818D7F808388E4C3
:1010D0008093B80085E48093BC000895CF93DF939C
:1010E00091E090930E038823B9F0C091B800D0919D
:1010F000BA008091BC008A7B8093BC0060E082E0F3
:101100000E94B50260E083E00E94B5020E94500890
:10111000D093BA00C093B800DF91CF9108958F9219
:101120009F92AF92BF92CF92DF92EF92FF920F9376
:101130001F93CF93DF93D82FC62F142F613208F05F
:101140009CC00E9443036B017C018091DA038111F2
:101150006FC081E08093DA031093B9039FEF9093FF
:10116000B8031092B7039C0F9093B6038093B50316
:101170008091B503DD0FD82BD093B5038091B403D4
:10118000813009F07CC01092B4030E9443036B01CC
:101190007C018091B5038093BB008091DC0390912A
:1011A000DD03A091DE03B091DF03892B8A2B8B2B0B
:1011B000A1F00E9443030091DC031091DD03209114
:1011C000DE033091DF036C197D098E099F09061734
:1011D00017072807390708F44CC08091BC0083FD2D
:1011E000D8CF85EC8093BC000E9443036B017C0147
:1011F0008091DA03813009F444C08091B7038C17E1
:1012000010F4C091B703E4E9F3E0AAEBB3E080E0A7
:101210008C1359C08C2FDF91CF911F910F91FF90AC
:10122000EF90DF90CF90BF90AF909F908F900895F8
:101230008091DC039091DD03A091DE03B091DF0388
:10124000892B8A2B8B2B09F480CF0E94430380903B
:10125000DC039090DD03A090DE03B090DF036C19F7
:101260007D098E099F0986169706A806B90608F01B
:101270006CCF8091DB030E946E08C0E0CBCF85EE7F
:10128000B1CF8091DC039091DD03A091DE03B0919A
:10129000DF03892B8A2B8B2B09F4AACF0E944303EF
:1012A0000091DC031091DD032091DE033091DF0318
:1012B0006C197D098E099F0906171707280739073A
:1012C00008F096CFD6CF91919D938F5FA1CF0895CF
:1012D000E091930380919203E81730F4F0E0E65434
:1012E000FC4F808190E008958FEF9FEF08959091DB
:1012F0009303809192032FEF3FEF981748F4E92F63
:10130000F0E0E654FC4F208130E09F5F9093930320
:10131000C90108958091920390919303891B990BC1
:101320000895CF93DF93CB01EA01642F0E9429082F
:10133000CE01DF91CF910895CF93DF931F92CDB768
:10134000DEB7698361E0CE0101960E94290881E041
:1013500090E00F90DF91CF91089590E080E00895A4
:10136000FC0180810E941F03BC01990F880B990B1F
:101370000E948D2520E030EC4FE754E40E947B274B
:1013800020E030E040EA50E40E94EC2521E73DE314
:101390004AE05FE30E94092727ED33EA46E851E47B
:1013A0000E947B279B01AC0160E070E080E89FE336
:1013B0000E947B270895CF92DF92EF92FF92CF9306
:1013C000DF93EC010E949A036B017C01809105037D
:1013D00090910603A0910703B0910803B701A601FD
:1013E000481B590B6A0B7B0B8C859D85092E000CC5
:1013F000AA0BBB0B481759076A077B0708F448C0BC
:101400008091E0039091E1039093040380930303A0
:101410008091010390910203909300038093FF0257
:101420008091FE02811105C081E08093FE020E943E
:101430004A07F894809158039091590378949093B7
:10144000E1038093E0038091FE02811105C081E0F9
:101450008093FE020E944A07F89480915303909172
:101460005403789490930203809301030E949A039B
:10147000C0920503D0920603E0920703F09208039E
:1014800081E0DF91CF91FF90EF90DF90CF900895B2
:1014900080E0F7CFCF92DF92EF92FF92CF93DF936E
:1014A000EC01288139814A815B81688579858A854B
:1014B0009B850E947B276B017C01609101037091E9
:1014C00002038091FF0290910003681B790B072EA5
:1014D000000C880B990B0E948D259B01AC01C70164
:1014E000B6010E94EC256B017C016C857D85072E81
:1014F000000C880B990B0E948D2520E030E04AE714
:1015000054E40E947B279B01AC01C701B6010E94F5
:101510007B27DF91CF91FF90EF90DF90CF900895E0
:10152000CF92DF92EF92FF92CF93DF93EC0128816D
:1015300039814A815B81688579858A859B850E948E
:101540007B276B017C016091E0037091E103809146
:10155000030390910403681B790B072E000C880B82
:10156000990B0E948D259B01AC01C701B6010E9419
:10157000EC256B017C016C857D85072E000C880BAA
:10158000990B0E948D2520E030E04AE754E40E9448
:101590007B279B01AC01C701B6010E947B27DF912D
:1015A000CF91FF90EF90DF90CF9008958BE891E07E
:1015B0000197F1F741E061E082E10E948F0810920B
:1015C000930380939203813029F482E896E00E948D
:1015D0007709089580E00895CF93DF93EC01888127
:1015E0009981009711F00E945929198218821D8251
:1015F0001C821B821A82DF91CF910895FC018081A9
:101600009181009711F00C9459290895FB010190E4
:101610000020E9F73197AF01461B570BDC01ED9134
:10162000FC910280F381E02D09948F929F92AF92FA
:10163000BF920F931F93CF93DF93CDB7DEB7A197E0
:101640000FB6F894DEBF0FBECDBF19A2423008F42A
:101650004AE08E010F5D1F4F842E912CB12CA12CDE
:10166000A50194010E94E126E62FB901CA01EA30E2
:1016700004F5E05DD801EE938D01232B242B252B5F
:1016800079F790E080E0109729F0BD0181E396E0C2
:101690000E94060BA1960FB6F894DEBF0FBECDBF19
:1016A000DF91CF911F910F91BF90AF909F908F903E
:1016B0000895E95CDFCF4F925F926F927F928F9295
:1016C0009F92AF92BF92CF92DF92EF92FF920F93D1
:1016D0001F93CF936B017C01742EAC019B010E9480
:1016E0006F2861E771E0811126C046015701E89437
:1016F000B7F82FEF3FEF4FE75FE7C501B4010E9456
:101700006F2881110CC02FEF3FEF4FE75FE7C50156
:10171000B4010E94862565E771E0181664F02FEF8A
:101720003FEF4FE75FE4C701B6010E946228181639
:10173000ACF469E771E081E396E0CF911F910F91DE
:10174000FF90EF90DF90CF90BF90AF909F908F90E1
:101750007F906F905F904F900C94060B2FEF3FEFB0
:101760004FE75FECC701B6010E94862587FDE1CFF8
:1017700020E030E0A901C701B6010E94862510E0F3
:1017800000E087FF0AC06DE281E396E00E94FE055B
:101790008C01F7FAF094F7F8F094C0E060E070E0A4
:1017A00080E09FE37C1641F020E030E040E251E42D
:1017B0000E947B27CF5FF6CFA70196010E940A27E0
:1017C0002B013C010E94F4274B015C014AE00E947E
:1017D000150B7C01E00EF11ECC23C1F1C501B40153
:1017E0000E948B259B01AC01C301B2010E94092715
:1017F0004B015C016EE281E396E00E94FE05E80E7B
:10180000F91EC15018F120E030E040E251E4C5017A
:10181000B4010E94EC252B013C010E94F4274B01EE
:10182000B12CA12C4AE0C501B4010E94150BE80EB1
:10183000F91EC501B4010E948B259B01AC01C301B7
:10184000B2010E9409274B015C01DBCFC701CF9198
:101850001F910F91FF90EF90DF90CF90BF90AF90CE
:101860009F908F907F906F905F904F900895CF934F
:10187000DF9342E00E945B0BEC016DE771E081E3D6
:1018800096E00E94060B8C0F9D1FDF91CF9108956B
:10189000BC0181E396E00C94060B0F931F93CF934A
:1018A000DF9360E871E081E396E00E94060B6DE74C
:1018B00071E081E396E00E94060B02EE13E0D0E0B7
:1018C000C0E08091920590919305C817D907C4F4A0
:1018D000F80161917191819191918F0142E00E9493
:1018E0005B0B82E991E00E94480CF801EC52FF4F3B
:1018F00060817181828193810E94370C2196E1CFB2
:10190000DF91CF911F910F910895CF92DF92EF92C7
:10191000FF92CF93DF936C01990FEE08FF08F7FE5B
:1019200021C06DE281E396E00E94FE05EC0166278E
:101930007727CB016C197D098E099F094AE00E9427
:10194000150BC80FD91F6DE771E081E396E00E9487
:10195000060B8C0F9D1FDF91CF91FF90EF90DF90D2
:10196000CF9008954AE0C701B6010E94150BEC0123
:10197000EACF0F931F93CF93DF93EC01FB014481D8
:10198000558160817181E881F9810280F381E02DC8
:1019900009958C016DE771E0CE010E94060B800F66
:1019A000911FDF91CF911F910F9108950E949F2A5F
:1019B0000F931F93CF93DF93EC0188819981009758
:1019C00059F02A813B812617370730F081E0DF91FB
:1019D000CF911F910F9108958B016F5F7F4F0E94F0
:1019E000E229009759F0998388831B830A832C810D
:1019F0003D81232B59F7FC011082E8CF80E0E7CF2F
:101A0000EF92FF920F931F93CF93DF9361157105B0
:101A100041F480E0DF91CF911F910F91FF90EF9003
:101A2000089541155105B1F07B01EC010C811D8138
:101A3000040F151FB8010E94D80C882351F3288188
:101A400039818C819D81B701820F931F0E94AD2A3D
:101A50001D830C8381E0DECFCF93DF93EC01FB018C
:101A600044815581608171810E94000D811103C004
:101A7000CE010E94EC0ACE01DF91CF910895EF9242
:101A8000FF920F931F93CF93DF93EC017B018A01A9
:101A9000BA010E94D80C81110BC0CE010E94EC0A41
:101AA000CE01DF91CF911F910F91FF90EF9008959C
:101AB0001D830C83B701888199810E94AD2AF0CFE4
:101AC000FB0101900020E9F73197AF01461B570B4E
:101AD0000C943F0DEF92FF920F931F93CF93DF93E0
:101AE000CDB7DEB72C970FB6F894DEBF0FBECDBFD3
:101AF0008C017B011A8219821C821B821E821D822C
:101B00008AE38F831886BE01695F7F4FCE010196FD
:101B10000E94600D18861F821A8619861C861B86F5
:101B2000F801608171816115710531F04481558141
:101B3000CE0107960E943F0DBE016F5F7F4FCE0121
:101B400007960E942C0DB7010E942C0DBC0184E960
:101B500095E00E94B90CCE0107960E94FE0ACE01C4
:101B600001960E94FE0A2C960FB6F894DEBF0FBEB7
:101B7000CDBFDF91CF911F910F91FF90EF9008950E
:101B80000F931F93CF93DF93CDB7DEB762970FB656
:101B9000F894DEBF0FBECDBF8C01CB01F8011182DE
:101BA000108213821282158214824AE0BE016F5F96
:101BB0007F4F0E941A23BE016F5F7F4FC8010E94B2
:101BC000600D62960FB6F894DEBF0FBECDBFDF91F9
:101BD000CF911F910F910895EF92FF920F931F9352
:101BE000CF93DF93CDB7DEB7A1970FB6F894DEBFE2
:101BF0000FBECDBF7C01CB01BA01F701118210826B
:101C000013821282158214828E010F5F1F4F22E011
:101C100044E00E94FC22009789F0BC01C7010E94A9
:101C2000600DA1960FB6F894DEBF0FBECDBFDF9159
:101C3000CF911F910F91FF90EF900895C7010E94DF
:101C4000EC0AEFCFFC0111821082138212821582FE
:101C50001482FB0101900020E9F73197AF01461B88
:101C6000570B0C943F0D85ED8093BC008091DC03F5
:101C70009091DD03A091DE03B091DF030796A11DD3
:101C8000B11D23E0B695A795979587952A95D1F72D
:101C90002091BC0024FD03C01092DA030895409106
:101CA000DC035091DD036091DE037091DF03452B6F
:101CB000462B472B69F30097A105B10541F02AE2B5
:101CC0002A95F1F700C00197A109B109E1CF8091F0
:101CD000DB030C946E08CF93DF93A2EEB0E09C91EF
:101CE0001C92E9EEF0E020811082C0EFD0E0388154
:101CF000188240E028994160209942602098289AF3
:101D000080E18A95F1F783B141FB0EF0209840FB0A
:101D10000EF028980EF4289A41FB0EF4209A1082B7
:101D2000388320839C9380958170DF91CF910895B3
:101D3000CF93DF93A2EEB0E09C911C92E9EEF0E02D
:101D400020811082C0EFD0E03881188240E05D9998
:101D500041605599426055985D9A80E18A95F1F706
:101D600089B141FB0EF0559840FB0EF05D980EF4E2
:101D70005D9A41FB0EF4559A1082388320839C9320
:101D800090E025E0959587952A95E1F780959095C7
:101D90008170DF91CF910895AF92BF92CF92DF9281
:101DA000FF920F931F93CF93DF93CDB7DEB7679763
:101DB0000FB6F894DEBF0FBECDBF83EE93E0019760
:101DC000F1F741E060E182E10E948F0810929303F5
:101DD00080939203803189F080E067960FB6F89483
:101DE000DEBF0FBECDBFDF91CF911F910F91FF904E
:101DF000DF90CF90BF90AF900895CE0101966C0117
:101E00005E0191E1A90EB11CFC2C0D2D82E896E03B
:101E10000E947709F60181936F01EA15FB05B1F77E
:101E20001D819E811B8A1A8A1D8A1C8A1F8A1E8A0E
:101E30004AE06F2D702F812F0E9425236F2D702F68
:101E4000CE0142960E94600D65E971E08F2D902FC2
:101E50000E94220EBE016E5E7F4F8F2D902F0E943A
:101E60006A0D8F2D902F0E94FE0ACE0142960E948D
:101E7000FE0A812FB2CFEF92FF920F931F93CF9361
:101E8000DF93CDB7DEB762970FB6F894DEBF0FBE13
:101E9000CDBF0E94D60A882309F49AC00E94CC0EB6
:101EA000813009F095C080930B0380910A03811162
:101EB0008DC00E94970160919205709193056150C9
:101EC0007109CE0107960E94C00D65EE72E0CE0149
:101ED00001960E94220EBE01695F7F4FCE010196DE
:101EE0000E946A0DCE0101960E94FE0ACE0107965D
:101EF0000E94FE0A82EEE82E83E0F82E10E000E059
:101F00008091920590919305081719070CF060C015
:101F1000F70141915191619171917F01CE010D962F
:101F20000E94EC0DB801CE0107960E94C00D6CEE28
:101F300072E0CE0101960E94220EBE01695F7F4FC2
:101F4000CE0101960E942C0DBE01635F7F4F0E945F
:101F50006A0DCE0101960E94FE0ACE0107960E94EC
:101F6000FE0ACE010D960E94FE0AF701EC52FF4FC9
:101F70004081518162817381CE010D960E94EC0DEA
:101F8000B801CE0107960E94C00D62EF72E0CE014B
:101F900001960E94220EBE01695F7F4FCE0101961D
:101FA0000E942C0DBE01635F7F4F0E946A0DCE011F
:101FB00001960E94FE0ACE0107960E94FE0ACE01FB
:101FC0000D960E94FE0A0F5F1F4F9ACF10920903D1
:101FD00062960FB6F894DEBF0FBECDBFDF91CF91F2
:101FE0001F910F91FF90EF9008950E94D60A8823C9
:101FF00071F00E94CC0E833051F480910B03882342
:1020000019F081E08093090381E080930A03089529
:102010004F925F926F927F928F929F92AF92BF92F8
:10202000CF92DF92EF92FF920F931F93CF93DF93A4
:10203000CDB7DEB76A970FB6F894DEBF0FBECDBF3F
:102040009A8F898F4A015B01280139010E949A0306
:10205000A98DBA8D96966D937D938D939C93999748
:10206000A5019401C301B8010E9409276B017C01FD
:1020700020E030E0A9010E94622818160CF032C15D
:1020800011E020E030E040E85EE3C701B6010E94C5
:10209000622818160CF010E0A5019401C301B201EA
:1020A0000E940A274B015C01A98DBA8D1E968D9165
:1020B0009D910D90BC91A02D8D839E83AF83B88799
:1020C000E98DFA8D46885788608C718CC301B20106
:1020D0000E94762769877A878B879C87A98DBA8D1E
:1020E00052968D919D910D90BC91A02D8D879E87CC
:1020F000AF87B88BC301B2010E946728698B7A8BC6
:102100008B8B9C8B112309F4FAC0A98DBA8D9E96F6
:102110008D919D910D90BC91A02D89839A83AB8365
:10212000BC8320E030E040E05FE3BC01CD010E94D1
:10213000EC256D8B7E8B8F8B988FA7019601C50147
:10214000B4010E947B279B01AC016D897E898F8938
:10215000988D0E94EC254B015C0129813A814B81CD
:102160005C81C701B6010E947B272DEC3CEC4CE45E
:102170005DE30E94EC25A30192010E940A276B01F6
:102180007C010E9467282B013C0129893A894B89EF
:102190005C89C501B4010E94EC259B01AC016D81F5
:1021A0007E818F8198850E94092769837A838B833A
:1021B0009C83A5019401C301B2010E94EC259B01FF
:1021C000AC0169817A818B819C810E940A27E98D0B
:1021D000FA8D66877787808B918BC701B6010E9445
:1021E00076272B013C0129853A854B855C85C50105
:1021F000B4010E94EC2569837A838B839C83A501BB
:102200009401C301B2010E94EC259B01AC016981DC
:102210007A818B819C810E9409272D853E854F857F
:1022200058890E940A27A98DBA8D52966D937D9385
:102230008D939C935597FD01C68AD78AE08EF18EC7
:10224000A98DBA8D5696CD90DD90ED90FC90599762
:102250002BED3FE049EC50E4C701B6010E94622833
:1022600018160CF08BC02BED3FE049EC50E4C70191
:10227000B6010E940927E98DFA8D668B778B808FD6
:10228000918FE98DFA8D86859785A089B18982AB7A
:1022900093ABA4ABB5AB82899389A489B58986AB8E
:1022A00097ABA0AFB1AF86899789A08DB18D82AF72
:1022B00093AFA4AFB5AF6A960FB6F894DEBF0FBE6A
:1022C000CDBFDF91CF911F910F91FF90EF90DF90E5
:1022D000CF90BF90AF909F908F907F906F905F90C6
:1022E0004F90089520E030E040E85EEBC701B60172
:1022F0000E948625182F111F1127111FCDCE20E017
:1023000030E040E05FE3C501B4010E94EC256B01C1
:102310007C0129853A854B855C850E94EC252DEC56
:102320003CEC4CE45DE30E94EC252D813E814F8125
:1023300058850E940A27A98DBA8D1E966D937D93AC
:102340008D939C93519729893A894B895C89C70160
:10235000B6010E94EC252DEC3CEC4CE45DE30E94C0
:10236000EC252D853E854F8558890E940A27E98DE9
:10237000FA8D628B738B848B958B62CF20E030E07B
:10238000A901C701B6010E94862587FF7ACF2BEDF0
:102390003FE049EC50E4C701B6010E940A27A98D2D
:1023A000BA8D56966D937D938D939C93599769CF73
:1023B0002F923F924F925F926F927F928F929F9255
:1023C000AF92BF92CF92DF92EF92FF920F931F9343
:1023D000CF93DF93CDB7DEB72C970FB6F894DEBF5F
:1023E0000FBECDBF6B017C012B013C0177FA7094CD
:1023F00077F8709480911B01882309F49CC020E039
:1024000030E0A901C7010E94622818160CF086C0AE
:102410007C2D6D2D9E2D8F2D272F362F492F582F38
:10242000C701B6010E947B270E94ED275B0170E087
:1024300060E090E080E00E94A20680917A0790918F
:102440007B072EE1289FA001299F500D11245A835C
:1024500049838091E0039091E1039C878B871C0165
:102460003194219431089501BB0C440B550B2F83FB
:10247000388749875A874B855C8557FDA101809134
:10248000E0039091E10397FF03C091958195910935
:102490009A01281B390B121613061CF09C01241BF1
:1024A000350B49815A8142175307ECF16F817885CA
:1024B00089859A850E948D2520E030E046E952E426
:1024C0000E94EC254B015C010E94ED276B837C830D
:1024D0008D839E83C501B40190580E94ED27CB01E6
:1024E0006B817C810E94A2068AE996E00E94DB094A
:1024F000882309F4C0CF8AE996E00E944A0A4B017A
:102500005C018AE996E00E94900AAB01BC0195014A
:1025100084018AE996E00E940810ADCF742D652DE4
:10252000962D872D79CF70E060E090E080E00E94EA
:10253000A20610921B01C701B6010E94ED276B0194
:10254000C301B2010E94ED27CB01B6010E94A20691
:1025500080917C070E941F039A83898380917E0764
:102560000E941F03C0908407D0908507E0908607E3
:10257000F0908707BC01990F880B990B0E948D255D
:10258000A70196010E94862587FD10C0A981BA8106
:10259000BD01BB0F880B990B0E948D259B01AC01DF
:1025A000C701B6010E946228181614F570E060E0B9
:1025B00090E080E00E94A20681E080931B012C96AF
:1025C0000FB6F894DEBF0FBECDBFDF91CF911F9144
:1025D0000F91FF90EF90DF90CF90BF90AF909F90C2
:1025E0008F907F906F905F904F903F902F900895C5
:1025F00080E0E5CF4F925F926F927F928F929F9291
:10260000AF92BF92CF92DF92EF92FF920F931F9300
:10261000CF93DF93CDB7DEB7A2970FB6F894DEBFA6
:102620000FBECDBF80910001882309F477C064E01C
:1026300070E0CE0107960E94C00D65EE72E0CE01FB
:1026400001960E94220EBE01695F7F4FCE01019666
:102650000E946A0DCE0101960E94FE0ACE010796E5
:102660000E94FE0AF12CE12CB701CE010D960E94CA
:10267000C00DB701CE0107960E94C00D6CEE72E04E
:10268000CE0101960E94220EBE01695F7F4FCE01EE
:1026900001960E942C0DBE01635F7F4F0E946A0D60
:1026A000CE0101960E94FE0ACE0107960E94FE0A04
:1026B000CE010D960E94FE0AB701CE010D960E9432
:1026C000C00DB701CE0107960E94C00D62EF72E007
:1026D000CE0101960E94220EBE01695F7F4FCE019E
:1026E00001960E942C0DBE01635F7F4F0E946A0D10
:1026F000CE0101960E94FE0ACE0107960E94FE0AB4
:10270000CE010D960E94FE0A2FEFE21AF20A35E082
:10271000E316F10409F0A8CF109200018AE996E0CF
:102720000E94DB09882309F457C08AE996E00E94D9
:102730004A0A6B017C018AE996E00E94900AAB018B
:10274000BC01970186018AE996E00E940810E09199
:102750000C03F0910D03E930F10508F03DC0ED5494
:10276000FC4E0C940327BC1303146E1812192A197B
:102770008219A919C519751A88E997E00E94E50719
:10278000882319F06EE971E031C58CE897E00E946A
:10279000E507882309F16CEA71E0CE0107960E94F3
:1027A000220E69EA71E0CE0101960E94220EBE015E
:1027B000695F7F4FCE0101960E946A0DCE0101969E
:1027C0000E94FE0ACE0107960E94FE0A88E090E071
:1027D00090930D0380930C03A2960FB6F894DEBF7E
:1027E0000FBECDBFDF91CF911F910F91FF90EF9062
:1027F000DF90CF90BF90AF909F908F907F906F9021
:102800005F904F90089580917C070E941F037C0188
:1028100080917E070E941F038C01B701FF0C880B7B
:10282000990B012E000C220B330B600F711F821FBE
:10283000931F0E948D252091840730918507409138
:102840008607509187070E94862587FFC4C070E0E5
:1028500060E090E080E00E94A20668EE73E080E015
:1028600090E00E9468030E949A036F8F78A389A367
:102870009AA30E949A032F8D38A149A15AA1621BE5
:10288000730B840B950B693B7B408105910508F028
:10289000E9C08AE996E00E94DB09882351F38AE9BE
:1028A00096E00E94900A9B01AC0160E070E084E039
:1028B00092E40E9409276B017C018AE996E00E945C
:1028C0004A0A9B01AC0160E070E084E092E40E945F
:1028D00009272B013C012091720730917307409129
:1028E000740750917507C701B6010E940A276B8FC4
:1028F0007C8F8D8F9E8F6093720770937307809388
:10290000740790937507209176073091770740916F
:10291000780750917907C301B2010E940A274B0141
:102920005C018092760790927707A0927807B09228
:10293000790780916A0790916B07A0916C07B0911D
:102940006D078B8B9C8BAD8BBE8B20916E0730916E
:102950006F0740917007509171072F8B388F498F07
:102960005A8F9C01AD01C301B2010E94EC252B01DD
:102970003C012F89388D498D5A8DC501B4010E94C3
:10298000EC259B01AC01C301B2010E940A270E9401
:10299000ED274B012B893C894D895E89C701B60122
:1029A0000E94EC256B017C012F89388D498D5A8D51
:1029B0006B8D7C8D8D8D9E8D0E94EC259B01AC01D5
:1029C000C701B6010E940A270E94ED27CB01B4017E
:1029D0000E94A2064ECF80917C070E941F037C01BB
:1029E00080917E070E941F03B701681B790B072E99
:1029F000000C880B990B0E948D2520918007309147
:102A0000810740918207509183070E94EC256B015A
:102A10007C0120E030E040E252E40E940A270E945C
:102A2000ED274B01A701960160E070E080E292E49F
:102A30000E9409270E94ED27CB01B4010E94A20643
:102A40000E949A0324EF31E040E050E00E94E1262A
:102A5000672B682B692B09F4BFCE0E943B0F0E94A5
:102A6000F50FBACE70E060E090E080E00E94A20630
:102A700020EE3EE245E652E46091D4067091D50620
:102A80008091D6069091D7060E94EC256B017C01BF
:102A900084EB91E00E94480CC701B6010E94370CFC
:102AA00020E030E84DE953E4C701B6010E946228F6
:102AB000181654F020E030E044E352E4C701B601B8
:102AC0000E94862587FFCDC083E192E00E94480CDA
:102AD0008CEB91E00E94480C8091920590919305B7
:102AE0000E94850C81ED91E00E94480CE0919205D6
:102AF000F0919305EE0FFF1FEE0FFF1FEE51FC4FFD
:102B0000608171818281938142E00E945B0B82E946
:102B100091E00E94480CE0919205F0919305EE0F30
:102B2000FF1FEE0FFF1FE654FB4F60817181828112
:102B300093810E94370CE0909205F09093058701F5
:102B4000000F111F000F111F0E511C4FF701EE0F48
:102B5000FF1FEE0FFF1FE252FC4F20E030E040E885
:102B60005FE360817181828193810E940A27D8018D
:102B70006D937D938D939C931397F701EE0FFF1F39
:102B8000EE0FFF1FEA54FB4F80819181A281B38138
:102B9000F701EE0FFF1FEE0FFF1FE654FB4F808380
:102BA0009183A283B3838CEB91E00E94480C8091C7
:102BB0009205909193050E94850C89EE91E00E9408
:102BC000480CE0919205F0919305EE0FFF1FEE0F78
:102BD000FF1FEE51FC4F608171818281938142E041
:102BE0000E945B0B82E991E00E94480CE091920503
:102BF000F0919305EE0FFF1FEE0FFF1FE654FB4F02
:102C000060817181828193810E94370C809192054D
:102C100090919305019690939305809392050E945D
:102C20009A030E948B256B017C010E949A030E94EB
:102C30008B254B015C0120E030E84BE355E4C701F4
:102C4000B6010E940A279B01AC01C501B4010E9494
:102C5000862518160CF4F9C10E943B0F0E94F50F4F
:102C6000E4CF20E030E044E352E4C701B6010E9423
:102C7000622818160CF075C020E030E047E053E4FD
:102C8000C701B6010E94862587FF6BC08CEB91E0DF
:102C90000E94480C80919205909193050E94850CAA
:102CA00081ED91E00E94480CE0919205F09193052E
:102CB000EE0FFF1FEE0FFF1FEE51FC4F6081718181
:102CC0008281938142E00E945B0B82E991E00E9445
:102CD000480CE0919205F0919305EE0FFF1FEE0F67
:102CE000FF1FE654FB4F60817181828193810E94B6
:102CF000370CE0909205F09093056701B1E0CB1A94
:102D0000D1088701000F111F000F111F06541B4F20
:102D1000F701EE0FFF1FEE0FFF1FEA54FB4F20E0FD
:102D200030E040E85FE360817181828193810E949D
:102D30000A27F8016083718382839383F601EE0F83
:102D4000FF1FEE0FFF1FEE51FC4F80819181A2818A
:102D5000B381F701EE0FFF1FEE0FFF1FEE51FC4F87
:102D60001ECF20E030E047E053E4C701B6010E94E7
:102D7000622818160CF0ADC020E030E041E653E4C4
:102D8000C701B6010E94862587FFA3C08CEB91E0A6
:102D90000E94480C80919205909193050E94850CA9
:102DA00081ED91E00E94480CE0919205F09193052D
:102DB000EE0FFF1FEE0FFF1FEE51FC4F6081718180
:102DC0008281938142E00E945B0B82E991E00E9444
:102DD000480CE0919205F0919305EE0FFF1FEE0F66
:102DE000FF1FE654FB4F60817181828193810E94B5
:102DF000370CE0909205F09093058701000F111FAA
:102E0000000F111F0E511C4FF701EE0FFF1FEE0FA9
:102E1000FF1FE252FC4F20E030E040E85FE36081BA
:102E20007181828193810E940927D8016D937D93DE
:102E30008D939C931397F701EE0FFF1FEE0FFF1F6B
:102E4000EA54FB4F80819181A281B381F701EE0F9B
:102E5000FF1FEE0FFF1FE654FB4F80839183A28379
:102E6000B3838CEB91E00E94480C80919205909185
:102E700093050E94850C89EE91E00E94480CE09138
:102E80009205F0919305EE0FFF1FEE0FFF1FEE511D
:102E9000FC4F608171818281938142E00E945B0BD3
:102EA00082E991E00E94480CE0919205F09193052F
:102EB000EE0FFF1FEE0FFF1FE654FB4F6081718185
:102EC000828193810E94370C81E092E00E94480C3D
:102ED0009DCE20E030E041E653E4C701B6010E94F8
:102EE000622818160CF0AEC020E030E84DE953E43B
:102EF000C701B6010E94862587FFA4C08CEB91E034
:102F00000E94480C80919205909193050E94850C37
:102F100081ED91E00E94480CE0919205F0919305BB
:102F2000EE0FFF1FEE0FFF1FEE51FC4F608171810E
:102F30008281938142E00E945B0B82E991E00E94D2
:102F4000480CE0919205F0919305EE0FFF1FEE0FF4
:102F5000FF1FE654FB4F60817181828193810E9443
:102F6000370CE0909205F09093056701B1E0CB1A21
:102F7000D1088701000F111F000F111F06541B4FAE
:102F8000F701EE0FFF1FEE0FFF1FEA54FB4F20E08B
:102F900030E040E85FE360817181828193810E942B
:102FA0000927F8016083718382839383F601EE0F12
:102FB000FF1FEE0FFF1FEE51FC4F80819181A28118
:102FC000B381F701EE0FFF1FEE0FFF1FEE51FC4F15
:102FD00080839183A283B3838CEB91E00E94480CA1
:102FE00080919205909193050E94850C89EE91E065
:102FF0000E94480CE0919205F0919305EE0FFF1F9F
:10300000EE0FFF1FEE51FC4F608171818281938131
:1030100042E00E945B0B82E991E00E94480CE09143
:103020009205F0919305EE0FFF1FEE0FFF1FE65480
:10303000FB4F60817181828193810E94370C81E115
:1030400092E044CF81E292E041CF80910B0388234C
:1030500039F180910A03882319F1809109038823AB
:1030600009F459C166E872E0CE0107960E94220E6B
:1030700069EA71E0CE0101960E94220EBE01695FED
:103080007F4FCE0101960E946A0DCE0101960E94EB
:10309000FE0ACE0107960E94FE0A86E090E098CBD9
:1030A0006EE972E0CE0107960E94220E69EA71E095
:1030B000CE0101960E94220EBE01695F7F4FCE01B4
:1030C00001960E946A0DCE0101960E94FE0ACE0171
:1030D00007960E94FE0A82E090E07ACB87E191E0B9
:1030E0000E94B00920E030E0A9010E946228181671
:1030F0000CF043C087E191E00E94B00920E030E08D
:1031000040EF51E40E94622887FF44C089E191E0CA
:103110000E94B00920E030E0A9010E946228181640
:103120000CF056C089E191E00E94B00920E030E047
:1031300040EF51E40E94862518160CF455C06DEA44
:1031400072E0CE0107960E94220E69EA71E0CE017C
:1031500001960E94220EBE01695F7F4FCE0101964B
:103160000E946A0DCE0101960E94FE0ACE010796CA
:103170000E94FE0A84E090E02BCB87E191E00E9460
:10318000B00920E030E040EF51EC0E94862518168F
:103190000CF4BCCF63EA72E0CE0107960E94220EC7
:1031A00069EA71E0CE0101960E94220EBE01695FBC
:1031B0007F4FCE0101960E946A0DCE0101960E94BA
:1031C000FE0ACE0107960E94FE0A83E090E000CB43
:1031D00089E191E00E94B00920E030E040EF51EC3D
:1031E0000E94622887FFABCF69EB72E0CE010796A1
:1031F0000E94220E69EA71E0CE0101960E94220E21
:10320000BE01695F7F4FCE0101960E946A0DCE011B
:1032100001960E94FE0ACE0107960E94FE0A81E0F6
:1032200090E0D6CA0E943B0F0E94F50F60E070E06C
:1032300080E292E40E94D811882309F4CDCA8091DB
:103240000B03882309F49ECA80910A03882309F49A
:1032500099CA03CF0E943B0F0E94F50F60E070E017
:1032600080E292EC0E94D811882309F4B5CA8091BB
:103270000B03882321F080910A038111EECE89E1AE
:1032800091E00E94B00920E030E0A9010E9462288C
:1032900018165CF589E191E00E94B00920E030E069
:1032A00040EF51E40E94862518160CF46BCA64ECBA
:1032B00072E0CE0107960E94220E69EA71E0CE010B
:1032C00001960E94220EBE01695F7F4FCE010196DA
:1032D0000E946A0DCE0101960E94FE0ACE01079659
:1032E0000E94FE0A85E090E073CA89E191E00E94A5
:1032F000B00920E030E040EF51EC0E94622887FDE9
:1033000041CAD5CF0E943B0F0E94F50F60E070E0EC
:1033100080E292EC8FCF61E972E0CE0107960E94C5
:10332000220E69EA71E0CE0101960E94220EBE01D2
:10333000695F7F4FCE0101960E946A0DCE01019612
:103340000E94FE0ACE0107960E94FE0A87E090E0E6
:103350003FCA61ED72E0CE0107960E94220E66ED33
:1033600072E0CE0101960E94220EBE01695F7F4F7E
:10337000CE0101960E946A0DCE0101960E94FE0ABE
:10338000CE0107960E94FE0A27CA0E944D0C0E9499
:1033900097010E944D0C60919205709193056150C8
:1033A0007109CE0107960E94C00D61EE72E0CE0158
:1033B00001960E94220EBE01695F7F4FCE010196E9
:1033C0000E946A0DCE0101960E94FE0ACE01079668
:1033D0000E94FE0A02EE13E0F12CE12C809192058E
:1033E00090919305E816F9060CF05FC0D8014D9155
:1033F0005D916D917D918D01CE010D960E94EC0D38
:10340000B701CE0107960E94C00D68EE72E0CE01B2
:1034100001960E94220EBE01695F7F4FCE01019688
:103420000E942C0DBE01635F7F4F0E946A0DCE018A
:1034300001960E94FE0ACE0107960E94FE0ACE0166
:103440000D960E94FE0AF801EC52FF4F4081518117
:1034500062817381CE010D960E94EC0DB701CE0101
:1034600007960E94C00D6EEE72E0CE0101960E949A
:10347000220EBE01695F7F4FCE0101960E942C0D86
:10348000BE01635F7F4F0E946A0DCE0101960E94CC
:10349000FE0ACE0107960E94FE0ACE010D960E94FA
:1034A000FE0ABFEFEB1AFB0A99CF64EF72E0CE0180
:1034B00007960E94220E69EA71E0CE0101960E94F1
:1034C000220EBE01695F7F4FCE0101960E946A0DF8
:1034D000CE0101960E94FE0ACE0107960E94FE0AC6
:1034E00010920D0310920C0377C984E995E00E94B5
:1034F000CC04892B09F470C984E995E00E94AA04E0
:10350000182F89831A8241E050E0BE016F5F7F4F20
:1035100084E996E00E94000D1A3039F764E976E0FC
:1035200081E396E00E94B90C6FE771E084E996E0D0
:103530000E94600D51C91F920F920FB60F92112475
:103540002F933F938F939F93AF93BF9380917C036F
:1035500090917D03A0917E03B0917F0330917B0316
:1035600023E0230F2D3758F50196A11DB11D20939F
:103570007B0380937C0390937D03A0937E03B093A1
:103580007F038091800390918103A0918203B09189
:1035900083030196A11DB11D809380039093810345
:1035A000A0938203B0938303BF91AF919F918F91BA
:1035B0003F912F910F900FBE0F901F90189526E806
:1035C000230F0296A11DB11DD2CF1F920F920FB6ED
:1035D0000F9211242F933F934F935F936F937F9399
:1035E0008F939F93AF93BF93EF93FF93E091150158
:1035F000F09116010995FF91EF91BF91AF919F91C5
:103600008F917F916F915F914F913F912F910F908B
:103610000FBE0F901F9018951F920F920FB60F922A
:1036200011242F933F934F935F936F937F938F93C7
:103630009F93AF93BF93EF93FF93E0911301F091AA
:1036400014010995FF91EF91BF91AF919F918F91D7
:103650007F916F915F914F913F912F910F900FBE8E
:103660000F901F9018951F920F920FB60F92112472
:103670002F933F934F935F936F937F938F939F937A
:10368000AF93BF93EF93FF93E0911101F09112017B
:103690000995FF91EF91BF91AF919F918F917F918C
:1036A0006F915F914F913F912F910F900FBE0F90AF
:1036B0001F9018951F920F920FB60F9211242F93FF
:1036C0003F934F935F936F937F938F939F93AF93AA
:1036D000BF93EF93FF93E0910F01F09110010995D3
:1036E000FF91EF91BF91AF919F918F917F916F91DA
:1036F0005F914F913F912F910F900FBE0F901F90B0
:1037000018951F920F920FB60F9211242F933F938B
:103710004F935F936F937F938F939F93AF93BF93D9
:10372000EF93FF93E0910D01F0910E010995FF9148
:10373000EF91BF91AF919F918F917F916F915F9129
:103740004F913F912F910F900FBE0F901F901895A2
:103750001F920F920FB60F9211248F939F93809117
:10376000E1009091E100937F9093E10083FF0FC00F
:103770001092E90091E09093EB001092EC0092E33C
:103780009093ED001092910398E09093F00082FFE7
:1037900022C093E09093E9009091F200992319F0F0
:1037A0009AE39093E80090917203992341F09091ED
:1037B0007203915090937203911101C05D9A9091A0
:1037C0009003992341F0909190039150909390032E
:1037D000911101C0289A84FF18C08091E2008E7E6A
:1037E00081608093E2008091E1008F7E8093E10010
:1037F000809173038E7E8061809373039F918F917C
:103800000F900FBE0F901F90189580FFF7CF8091FB
:10381000E2008E7E80618093E2008091E1008E7EE6
:103820008093E100809173038E7E8160E5CF1F92CB
:103830000F920FB60F921124CF92DF92EF92FF9268
:103840000F931F932F933F934F935F936F937F93A8
:103850008F939F93AF93BF93EF93FF93CF93DF9398
:10386000CDB7DEB76C97DEBFCDBF1092E900809177
:10387000E80083FF25C068E0CE0145960E94610400
:1038800082EF8093E8008D8987FF39C09091E8002E
:1038900090FFFCCF982F907609F034C19E894F8914
:1038A000588D2F89F88C911131C0803861F5809145
:1038B00074038093F1001092F1008EEF8093E80082
:1038C0006C960FB6F894DEBF0FBECDBFDF91CF91DF
:1038D000FF91EF91BF91AF919F918F917F916F91E8
:1038E0005F914F913F912F911F910F91FF90EF901A
:1038F000DF90CF900F900FBE0F901F9018959EEF06
:103900009093E800C7CF1092F100D5CF913059F4D1
:103910008111D3CF4130510581F6809174038D7FA1
:1039200080937403CACF933049F48111C6CF4130DC
:10393000510519F6809174038260F2CF953041F4FD
:103940008091E80080FFFCCF20682093E300B5CF92
:10395000963009F0A9C00B8D1C8D22E01092E90071
:103960001092700310926F03F2122EC010926E0329
:1039700010926D030E9430041F8299E09983FA82AD
:1039800091E09E8390EA98879AEF998720916F0340
:1039900030917003275F3F4F3C832B838D831092C0
:1039A000E9001092700310926F0310936E0300935E
:1039B0006D0349E050E0BE016F5F7F4F80E00E94E1
:1039C0000A040E94300479CF10936E0300936D03B4
:1039D0000E945502DC0112960D911C9101151105F2
:1039E00009F451C1D801ED91FC910480F581E02DDD
:1039F000BE016B5E7F4FC8010995009709F03EC17B
:103A0000F80100851185EACFF3E0FF120EC08F891F
:103A1000882309F440C0823061F440E862E18DE31C
:103A200092E00E94D703811148CF81E28093EB009E
:103A300047CF813029F440E862E18AE292E0F1CF99
:103A4000833099F70E945502DC011296ED90FC90AC
:103A50008E010F5F1F4F6801E114F10479F0D70167
:103A6000ED91FC910680F781E02DB801C701099521
:103A7000080F111DF701E084F184EECFD8011C92EC
:103A8000F60101900020E9F73197BF016C197D091B
:103A900040E0C601C6CF64E172E0FB01449150E012
:103AA00080E80E940A0409CF973009F4BECF98300D
:103AB00021F481E08093F10000CF993009F0FDCE30
:103AC000837009F0B2CFE3E2F1E081E031E096E308
:103AD0002191222371F08093E9003093EB00DF0104
:103AE00011972C912093EC009093ED008F5F87301D
:103AF00079F78EE78093EA001092EA008F8980932D
:103B00009103DBCE8B8D9C8D1092E9001092700397
:103B100010926F0390936E0380936D03898D8111D2
:103B200092C08E899D89913A49F4813209F07DCF06
:103B300047E050E065E071E080E0B3CF913209F0FA
:103B400074CF833269F48F89988DB0E0A0E08093C0
:103B5000010190930201A0930301B0930401ADCE43
:103B6000803269F48091E80082FFFCCF67E085E055
:103B700091E00E9461048BEF8093E8009ECE823238
:103B800009F09BCE8F8980930C01EEEFFFE78591C2
:103B900094918B3F9C4D51F1E0E0F8E0809105015C
:103BA00090910601A0910701B0910801803B9440DB
:103BB000A105B105F1F480910C0180FD1AC0EE3F22
:103BC0008AE0F80789F587E797E7918380838091FA
:103BD00060008093710388E19BE00FB6F894A8958C
:103BE000809360000FBE9093600067CEEEEFFAE026
:103BF000D5CF808191818737974709F05ECEA89510
:103C0000809160008861809360008091710380934F
:103C10006000EE3F2AE0F20789F08091FE0A909161
:103C2000FF0A9183808349CE8081918187379807ED
:103C300051F29093FF0A8093FE0AC5CF1092FF0ABB
:103C40001092FE0A3ACE0E945502DC0112960D91A6
:103C50001C910115110509F4E8CED801ED91FC91F4
:103C60000190F081E02DBE016B5E7F4FC801099588
:103C7000811123CEF80100851185EBCF18161906A6
:103C80000CF41BCED2CEF1E0FF12BECE68E172E0A2
:103C900004CF1F920F920FB60F9211242F933F93D0
:103CA0004F935F936F937F938F939F93AF93BF9344
:103CB000EF93FF9384E995E00E94EC04FF91EF916C
:103CC000BF91AF919F918F917F916F915F914F9134
:103CD0003F912F910F900FBE0F901F9018951F923C
:103CE0000F920FB60F9211242F938F939F93EF9300
:103CF000FF93E091A405F091A5058081E091AA05CC
:103D0000F091AB0582FD1BC090818091AD058F5F66
:103D10008F732091AE05821741F0E091AD05F0E080
:103D2000EC56FA4F958F8093AD05FF91EF919F91DF
:103D30008F912F910F900FBE0F901F90189580813B
:103D4000F4CF1F920F920FB60F9211242F933F932F
:103D50004F935F936F937F938F939F93AF93BF9393
:103D6000EF93FF93CF93DF9300D01F92CDB7DEB7D1
:103D700083B1898389819091810689278A83809183
:103D80006B009A8189238B838B8180FF05C0E09132
:103D90005D03F0915E0309958B8181FF05C0E09181
:103DA0005F03F091600309958B8182FF05C0E0916C
:103DB0006103F091620309958B8183FF05C0E09157
:103DC0006303F091640309958B8184FF05C0E09142
:103DD0006503F091660309958B8185FF05C0E0912D
:103DE0006703F091680309958B8186FF05C0E09118
:103DF0006903F0916A0309958B8187FF05C0E09103
:103E00006B03F0916C0309958981809381060F9073
:103E10000F900F90DF91CF91FF91EF91BF91AF91F4
:103E20009F918F917F916F915F914F913F912F91D2
:103E30000F900FBE0F901F9018951F920F920FB604
:103E40000F9211242F933F934F935F936F937F9320
:103E50008F939F93AF93BF93EF93FF938091B9009C
:103E6000887F803609F44AC0F0F5883209F4A7C08B
:103E700018F5803109F49BC0B8F4882309F4F9C01F
:103E8000883009F494C0FF91EF91BF91AF919F9159
:103E90008F917F916F915F914F913F912F910F90F3
:103EA0000FBE0F901F901895883109F488C080329A
:103EB00051F78093B80314C0803409F49DC040F4D6
:103EC0008033B9F38833F9F68093B80385ECB0C03A
:103ED000803509F485C0883509F496C0883499F690
:103EE0000E94330ED0CF883909F48CC038F588375A
:103EF00029F050F4883611F0803729F683E080935A
:103F0000DA031092510357C0883809F47BC0803916
:103F100019F0803809F0B7CF80915103803208F052
:103F200071C0E091510381E08E0F80935103809125
:103F3000BB00F0E0EF5CFC4F80833DC0803B39F07C
:103F4000E0F4803A09F479C0883A09F09CCF84E023
:103F50008093DA031092300310922F03E0917703DD
:103F6000F0917803099580912F0381110FC081E0B2
:103F700080932F0310920F0309C0803C09F4A6CF51
:103F8000883C09F4A3CF883B09F07DCFE091300352
:103F900081E08E0F80933003F0E0E15FFC4F808181
:103FA0008093BB009091300380912F0329C08091B2
:103FB000B5038093BB0085EC8093BC0064CF9091E7
:103FC000B7038091B603981758F5E091B70381E0E5
:103FD0008E0F8093B703F0E0EC56FC4F8081E9CF61
:103FE000E091B70381E08E0F8093B7038091BB000F
:103FF000F0E0EC56FC4F80839091B7038091B603BC
:104000009817C8F285E8D8CFE091B70381E08E0F0A
:104010008093B7038091BB00F0E0EC56FC4F8083A7
:104020008091B90381115CCF81E08093B40384EA6D
:104030008093BC001092DA0326CF85EC8093BC00FD
:104040001092DA0380915103803230F4E0915103F1
:10405000F0E0EF5CFC4F10826091510370E0E09162
:104060007503F091760381E393E009951092510373
:104070000ACF1092B80334CFE4E9F5E0138212823C
:1040800088EE93E0A0E0B0E084839583A683B783B5
:104090002DE231E0318320832DEC30E03587248719
:1040A0002CEC30E03787268728EC30E0318B208BF2
:1040B00029EC30E0338B228B2AEC30E0358B248BDB
:1040C0002EEC30E0378B268B118E128E138E148ED1
:1040D000E1E3F6E01382128284839583A683B7839B
:1040E0002FE331E0318320832FEF3FEF35872487A3
:1040F00023B120938106E2E8F6E0138212828483E2
:104100009583A683B78381E591E0918380831092A4
:10411000B807E0EAF7E0128215828FE691E091831A
:104120008083E8E9F7E01282158289E691E09183C5
:104130008083ECE8F7E01282158210868EE081879A
:1041400081E08287838783E691E091838083EAE937
:10415000F6E080E090E0A4EBB4E480839183A28356
:10416000B38380E090E0ACE0B2E484839583A683DF
:10417000B78388E599EEABE5B3E480879187A287A2
:10418000B38782E390E09587848716861786108A26
:10419000118A128A138A148A158A168A178A108E2F
:1041A000118E128E138E148E158E168E178E10A2EF
:1041B00011A212A213A214A215A280E090EEAEE00A
:1041C000B3E486A797A7A0ABB1AB12AA13AA14AA0F
:1041D00015AA16AA17AA10AE11AE12AE13AE14AEDF
:1041E00015AE80E090E0A0E0BFE380936A07909373
:1041F0006B07A0936C07B0936D078DEC9CECACE45F
:10420000BEE380936E0790936F07A0937007B093FF
:104210007107109272071092730710927407109230
:104220007507109276071092770710927807109210
:10423000790788E090E090937B0780937A0785E187
:1042400090E090937D0780937C0786E190E09093C7
:104250007F0780937E078DEC9CECACECBCE38093F5
:10426000800790938107A0938207B093830780E033
:1042700090E0A8E4B3E48093840790938507A0932B
:104280008607B093870780E090E0A8ECB2E48093C3
:10429000880790938907A0938A07B0938B076FE7ED
:1042A00071E084E996E00E94220E6FE771E08EE8EB
:1042B00096E00E94220E0C949A03CF93DF93CDB721
:1042C000DEB72C970FB6F894DEBF0FBECDBF789443
:1042D00084B5826084BD84B5816084BD85B582600B
:1042E00085BD85B5816085BD80916E0081608093BC
:1042F0006E00109281008091810082608093810025
:104300008091810081608093810080918000816034
:1043100080938000809191008260809391008091D1
:1043200091008160809391008091900081608093E2
:1043300090008091C10084608093C1008091C10091
:1043400082608093C1008091C10081608093C10030
:104350008091C30081608093C3008091C00082601F
:104360008093C0008091C20081608093C2008091E0
:104370007A00846080937A0080917A0082608093D2
:104380007A0080917A00816080937A0080917A002F
:10439000806880937A0010929103109274031092B7
:1043A00073038091D70081608093D70080EA809367
:1043B000D80089B5806189BD89B5826089BD09B49D
:1043C00000FEFDCF61E070E080E090E00E946803B5
:1043D0008091D8008F7C80618093D8008091E0002C
:1043E000807F8093E0008091E1008E7E8093E100E9
:1043F0008DE08093E200559A209A8FEF9FEF909383
:104400003E0680933D061092930310929203109201
:104410007A03109279030E94500886EA93E0909301
:1044200078038093770387EA93E0909376038093F1
:10443000750388E48093B8000E949A036093C406D1
:104440007093C5068093C6069093C7061092CC065B
:104450001092CD061092CE061092CF061092D00682
:104460001092D1061092D2061092D3061092D40662
:104470001092D5061092D6061092D706809192051A
:1044800090919305FC01EE0FFF1FEE0FFF1FEE5101
:10449000FC4F1082118212821382FC01EE0FFF1F6B
:1044A000EE0FFF1FE654FB4F10821182128213821F
:1044B0000196909393058093920560E08DE10E94B0
:1044C000E3028DE190E090931A018093190160E07E
:1044D00082E10E94E30282E190E0909318018093D0
:1044E0001701E091A405F091A50582E08083E09199
:1044F000A005F091A1051082E091A205F091A3051D
:1045000080E180831092AC05E091A805F091A905A7
:1045100086E08083E091A605F091A7058081806107
:104520008083E091A605F091A70580818860808353
:10453000E091A605F091A705808180688083E091D5
:10454000A605F091A70580818F7D808361E080E0E2
:104550000E94B50264E670E080E090E00E9468038B
:104560001A8219821C821B821E821D828AE38F831B
:104570001886BE01695F7F4FCE0101960E94600DD3
:1045800069EF72E0CE0107960E94220EBE016F5FB6
:104590007F4FCE0107960E942C0D8C0144E050E025
:1045A00069EF72E00E94000D811103C0C8010E94F2
:1045B000EC0AB80184E995E00E94B90CCE01079697
:1045C0000E94FE0ACE0101960E94FE0A00E010E061
:1045D0000E94FA1201151105D9F30E94D80488230C
:1045E000B9F30E940000F4CF8EE896E00E94FE0A24
:1045F00084E996E00C94FE0AEF920F931F93CF93F9
:10460000DF93E80134E047FD34E1042E000C550B44
:1046100057FF03C0519541955109E32E022F242FD6
:10462000AE010E943F23CE01DF91CF911F910F91E8
:10463000EF900895BB274A3031F4992322F4BDE26C
:10464000909581959F4F0C942623BB27FB015527FE
:10465000AA27880F991FAA1FA41710F0A41B8395DF
:104660005051B9F7A05DAA3308F0A95DA193009756
:1046700079F7B111B1931192CB010C947625A9E091
:10468000B0E0E5E4F3E20C94B0266A01F22EB02E1D
:10469000102FFBE3AF2EA01608F41BE31F5F012FC2
:1046A00027E0AE014F5F5F4F0E949E24BC018981CD
:1046B000982F9970913009F43FC09BE2E1FC04C04F
:1046C0009E2D9170E0FC3AC05E2D5071E82FE8708D
:1046D00083FF46C084E0911101C083E0EF2DE81B09
:1046E0008F1508F0E0E0D6018E2F20E2552351F11E
:1046F000992329F0D6019C93C60101966C0196017D
:104700002D5F3F4FE2FE24C08EE4D6018C9391E4EE
:1047100011969C93119712968C93D9018E2F90E24B
:1047200081111BC0E20FF32FF11D10828EEF9FEF5E
:104730002996ECE00C94CC269DE2C6CF90E2C4CF43
:104740002D9381508111FCCFCE0ED11CE0E0D0CF53
:104750008EE6D6018C9391E6DBCF9D938150E0CF1E
:10476000482F447082FF3DC084E0911101C083E076
:104770008F1510F4EF2DE81BD6018E2F20E2552364
:1047800009F1992329F0D6019C93C60101966C0189
:1047900096012D5F3F4FE2FE1BC089E4D6018C934A
:1047A0008EE411968C93119786E412968C93D9011E
:1047B0008E2F90E2882309F4B5CF9D938150FACFD4
:1047C0002D9381508111FCCFCE0ED11CE0E0D9CFCA
:1047D00089E6D6018C938EE611968C93119786E626
:1047E000E4CF9B0177FF02C030E020E0A1E0B0E021
:1047F000911102C0B0E0A0E0F9013196AE0FBF1FE9
:104800008B2C912CBB2009F461C05401EFEFAE1A40
:10481000BE0AAA0DBB1DFA161B0619F014F04F2D87
:104820004A1B511188C0E3FC59C07601A42FB0E2A5
:10483000A1114FC0C40ED11C992309F45BC040E004
:10484000D6011196F60190836D01552309F448C0F5
:10485000012F060F9A81582F507184FF03C09133A6
:1048600009F4015010160CF047C0093008F008E0B8
:10487000EEE2FE2E5B01A01AB108850191948194AD
:1048800091082F3F320729F4D601FC92F6013196A8
:104890006F016217730794F1021713077CF5DB01B0
:1048A000A21BB30BAA24A394B12CAC0EBD1EAA0D5F
:1048B000BB1D11968C9121503109D60111962815F6
:1048C0003905F4F0F60180836D01DBCFB12CA12C0A
:1048D000A0CFF701B1937F01A150AACF9111B0CF22
:1048E000D601942F50E302C05D9391509111FCCFFB
:1048F000C40ED11C40E0ACCF01E0BACF80E3DBCFE7
:104900006217730731F4963388F4953311F4552305
:1049100069F0F6018083FD01842F90E2811108C0C7
:10492000A40FB11D1C9290E080E002CF81E3F1CF93
:1049300091938150F3CF911183CF8ACF283008F023
:1049400027E03327DA01990F311D87FD916000962A
:104950006105710539F432602E5F3D9330E32A958D
:10496000E1F708959F3F30F080387105610509F047
:104970003C5F3C5F3D93913008F08068911DDF9370
:10498000CF931F930F93FF92EF92192F987F9695D5
:10499000E92F96959695E90FFF27EC5DFE4F992735
:1049A0003327EE24FF24A701E7010590089407941C
:1049B00028F4360FE71EF81E491F511D660F771F9A
:1049C000881F991F0694A1F70590079428F4E70E15
:1049D000F81E491F561FC11D770F881F991F661F9C
:1049E0000694A1F70590079428F4F80E491F561F66
:1049F000C71FD11D880F991F661F771F0694A1F747
:104A00000590079420F4490F561FC71FD81F990F10
:104A1000661F771F881F0694A9F784911095177059
:104A200041F0D695C79557954795F794E7941A9511
:104A3000C1F7EAECF0E06894159015913591659115
:104A4000959105907FE27395E118F10A430B560B9F
:104A5000C90BD009C0F7E10CF11E431F561FC91F37
:104A6000D01D7EF4703311F48A95E6CFE89401509E
:104A700030F0080F0AF40027021708F4202F2395BE
:104A8000022F7A3328F079E37D932A95E9F710C055
:104A90007D932A9589F6069497956795379517958E
:104AA0001794E118F10A430B560BC90BD00998F083
:104AB00023957E9173957A3308F070E37C932013ED
:104AC000B8F77E9170617D9330F0839571E37D93AB
:104AD00070E32A95E1F71124EF90FF900F911F9159
:104AE000CF91DF91992787FD90950895DC01FC0116
:104AF000672F71917723E1F7329704C07C916D9312
:104B000070836291AE17BF07C8F308950E94C8254D
:104B100008F481E00895E89409C097FB3EF490956D
:104B20008095709561957F4F8F4F9F4F9923A9F086
:104B3000F92F96E9BB279395F69587957795679515
:104B4000B795F111F8CFFAF4BB0F11F460FF1BC059
:104B50006F5F7F4F8F4F9F4F16C0882311F096E9EC
:104B600011C0772321F09EE8872F762F05C066239A
:104B700071F096E8862F70E060E02AF09A95660F53
:104B8000771F881FDAF7880F9695879597F908950C
:104B9000990F0008550FAA0BE0E8FEEF161617064E
:104BA000E807F907C0F012161306E407F50798F0B6
:104BB000621B730B840B950B39F40A2661F0232BCF
:104BC000242B252B21F408950A2609F4A140A6954B
:104BD0008FEF811D811D08950E94FF250C94702682
:104BE0000E94622638F00E94692620F0952311F079
:104BF0000C9459260C945F2611240C94A4260E9430
:104C0000812670F3959FC1F3950F50E0551F629F69
:104C1000F001729FBB27F00DB11D639FAA27F00D15
:104C2000B11DAA1F649F6627B00DA11D661F829F3C
:104C30002227B00DA11D621F739FB00DA11D621F21
:104C4000839FA00D611D221F749F3327A00D611D3E
:104C5000231F849F600D211D822F762F6A2F112420
:104C60009F5750409AF0F1F088234AF0EE0FFF1F53
:104C7000BB1F661F771F881F91505040A9F79E3FAA
:104C8000510580F00C9459260C94A4265F3FE4F360
:104C9000983ED4F3869577956795B795F795E79500
:104CA0009F5FC1F7FE2B880F911D9695879597F909
:104CB000089597F99F6780E870E060E008959FEF9E
:104CC00080EC089500240A941616170618060906A3
:104CD000089500240A941216130614060506089572
:104CE000092E0394000C11F4882352F0BB0F40F4FA
:104CF000BF2B11F460FF04C06F5F7F4F8F4F9F4F3A
:104D0000089557FD9058440F551F59F05F3F71F0BB
:104D10004795880F97FB991F61F09F3F79F0879522
:104D20000895121613061406551FF2CF4695F1DFAB
:104D300008C0161617061806991FF1CF869571053B
:104D4000610508940895E894BB2766277727CB016F
:104D500097F908952F923F924F925F926F927F92B0
:104D60008F929F92AF92BF92CF92DF92EF92FF927B
:104D70000F931F93CF93DF93CDB7DEB7CA1BDB0B27
:104D80000FB6F894DEBF0FBECDBF09942A883988CC
:104D900048885F846E847D848C849B84AA84B984D3
:104DA000C884DF80EE80FD800C811B81AA81B981DF
:104DB000CE0FD11D0FB6F894DEBF0FBECDBFED01F3
:104DC0000895A1E21A2EAA1BBB1BFD010DC0AA1F4C
:104DD000BB1FEE1FFF1FA217B307E407F50720F064
:104DE000A21BB30BE40BF50B661F771F881F991FDF
:104DF0001A9469F760957095809590959B01AC0128
:104E0000BD01CF010895EE0FFF1F0590F491E02D35
:104E100009945058BB27AA270E9421270C9470267A
:104E20000E94622638F00E94692620F039F49F3FE4
:104E300019F426F40C945F260EF4E095E7FB0C942D
:104E40005926E92F0E94812658F3BA176207730783
:104E50008407950720F079F4A6F50C94A3260EF4A8
:104E6000E0950B2EBA2FA02D0B01B90190010C017A
:104E7000CA01A0011124FF27591B99F0593F50F492
:104E8000503E68F11A16F040A22F232F342F4427EA
:104E9000585FF3CF469537952795A795F0405395E2
:104EA000C9F77EF41F16BA0B620B730B840BBAF0B2
:104EB0009150A1F0FF0FBB1F661F771F881FC2F71D
:104EC0000EC0BA0F621F731F841F48F48795779531
:104ED0006795B795F7959E3F08F0B0CF9395880FEB
:104EE00008F09927EE0F9795879508950E94252839
:104EF000E3950C944E280E948F270C9470260E94F4
:104F0000692658F00E94622640F029F45F3F29F09C
:104F10000C94592651110C94A4260C945F260E94DF
:104F2000812668F39923B1F3552391F3951B550B13
:104F3000BB27AA2762177307840738F09F5F5F4F6C
:104F4000220F331F441FAA1FA9F335D00E2E3AF0AB
:104F5000E0E832D091505040E695001CCAF72BD0C3
:104F6000FE2F29D0660F771F881FBB1F2617370714
:104F70004807AB07B0E809F0BB0B802DBF01FF2746
:104F800093585F4F3AF09E3F510578F00C945926A4
:104F90000C94A4265F3FE4F3983ED4F3869577956E
:104FA0006795B795F7959F5FC9F7880F911D9695FF
:104FB000879597F90895E1E0660F771F881FBB1F5B
:104FC000621773078407BA0720F0621B730B840B08
:104FD000BA0BEE1F88F7E09508950E94F4276894B5
:104FE000B1110C94A42608950E94892688F09F5739
:104FF00098F0B92F9927B751B0F0E1F0660F771FFD
:10500000881F991F1AF0BA95C9F714C0B13091F0F2
:105010000E94A326B1E008950C94A326672F782F51
:105020008827B85F39F0B93FCCF3869577956795B7
:10503000B395D9F73EF490958095709561957F4F23
:105040008F4F9F4F08950C945F260E948926D8F3B6
:10505000E894E0E0BB279F57F0F02AED3FE049ECF1
:1050600006C0EE0FBB0F661F771F881F28F0B23AED
:1050700062077307840728F0B25A620B730B840B24
:10508000E3959A9572F7803830F49A95BB0F661FB6
:10509000771F881FD2F790480C947628EF93E0FF93
:1050A00007C0A2EA2AED3FE049EC5FEB0E9421270E
:1050B0000E9470260F90039401FC9058ECEAF0E0F7
:1050C0000C9482280E94C82508F48FEF08959F93BE
:1050D0000E9425280F9007FCEE5F0C944E280E943A
:1050E000C825880B990B08959F3F31F0915020F40B
:1050F000879577956795B795880F911D96958795B4
:1051000097F908959F938F937F936F93FF93EF93F6
:105110009B01AC010E94EC25EF91FF910E94962823
:105120002F913F914F915F910C94EC25DF93CF939A
:105130001F930F93FF92EF92DF927B018C01689493
:1051400006C0DA2EEF010E94FF25FE01E894A5912A
:105150002591359145915591A6F3EF010E942127A4
:10516000FE019701A801DA9469F7DF90EF90FF90B4
:105170000F911F91CF91DF9108950F931F93CF93BC
:10518000DF938230910510F482E090E0E091BB075C
:10519000F091BC0730E020E0B0E0A0E0309799F457
:1051A0002115310509F44AC0281B390B243031057B
:1051B000D8F58A819B816115710589F1FB01938383
:1051C0008283FE0111C04081518102811381481701
:1051D0005907E0F04817590799F4109761F01296B3
:1051E0000C93129713961C933296CF01DF91CF91B7
:1051F0001F910F9108950093BB071093BC07F4CF44
:105200002115310551F04217530738F0A901DB0190
:105210009A01BD01DF01F801C1CFEF01F9CF9093F1
:10522000BC078093BB07CDCFFE01E20FF31F819334
:1052300091932250310939832883D7CF2091B90720
:105240003091BA07232B41F420911E0130911F01A8
:105250003093BA072093B90720911C0130911D01AA
:105260002115310541F42DB73EB7409120015091F1
:105270002101241B350BE091B907F091BA07E21721
:10528000F307A0F42E1B3F0B2817390778F0AC0169
:105290004E5F5F4F2417350748F04E0F5F1F509346
:1052A000BA074093B907819391939FCFF0E0E0E074
:1052B0009CCFCF93DF930097E9F0FC0132971382E4
:1052C0001282A091BB07B091BC07ED0130E020E055
:1052D0001097A1F420813181820F931F2091B9078B
:1052E0003091BA072817390709F061C0F093BA075F
:1052F000E093B907DF91CF910895EA01CE17DF0758
:10530000E8F54A815B819E0141155105B1F7E9013C
:10531000FB83EA8349915991C40FD51FEC17FD0710
:1053200061F4808191810296840F951FE901998330
:105330008883828193819B838A83F0E0E0E01296E8
:105340008D919C9113970097B9F52D913C911197F0
:10535000CD010296820F931F2091B9073091BA07B1
:105360002817390739F6309751F51092BC0710927B
:10537000BB07B093BA07A093B907BCCFD383C2834E
:1053800040815181840F951FC817D90761F44E5F82
:105390005F4F88819981480F591F518340838A81CB
:1053A0009B81938382832115310509F0B0CFF0935F
:1053B000BC07E093BB079ECFFD01DC01C0CF138289
:1053C0001282D7CFB0E0A0E0E8EEF9E20C94AC2670
:1053D0008C01009751F4CB010E94BD288C01C801BB
:1053E000CDB7DEB7E0E10C94C826FC01E60FF71F4D
:1053F0009C0122503109E217F30708F49DC0D9013E
:10540000CD91DC911197C617D70798F0C530D1051B
:1054100030F3CE0104978617970708F3C61BD70B06
:105420002297C193D1936D937C93CF010E94592908
:10543000D6CF5B01AC1ABD0A4C018C0E9D1EA0910B
:10544000BB07B091BC07512C412CF12CE12C1097DB
:1054500031F58091B9079091BA078815990509F03F
:105460005CC04616570608F058C080911C01909108
:105470001D01009741F48DB79EB7409120015091D6
:105480002101841B950BE817F90708F055C0F0932C
:10549000BA07E093B907F90171836083A0CF8D91BA
:1054A0009C91119712966C90129713967C9013977B
:1054B000A815B90559F56C0142E0C40ED11CCA14F7
:1054C000DB0420F1AC014A195B09DA011296159749
:1054D00080F06282738251834083D9016D937C9303
:1054E000E114F10471F0D7011396FC93EE93129737
:1054F00076CF22968C0F9D1FF90191838083F30153
:10550000EFCFF093BC07E093BB0769CF481659066D
:1055100008F42C017D01D3019ACFCB010E94BD2854
:105520007C01009749F0AE01B8010E94A42AC8018D
:105530000E945929870153CF10E000E050CF81E04D
:1055400090E0F8940C94B42AFB01DC0102C00190B5
:105550000D9241505040D8F70895FB01DC010190B5
:105560000D920020E1F7089511E0CCE6D1E004C0EF
:10557000FE010E9403272196CD36D107C9F7F89482
:02558000FFCF5B
:1055820001FFFFFFFF00E1000000000000A803A8E8
:1055920003A803A803A80312001200010000BD071C
:1055A200800000C18081000000000000000D056E37
:1055B200049B045905CC04AA04BE0400000000FEAA
:1055C2000579051F0614066506230641060000003C
:1055D200009C099109AD0967098A097709680900E0
:1055E200000000A40700000000980E000000006BFD
:1055F2000E6E616E00696E66006F7666000D0A00BF
:10560200544845204D4150204F48204D5920474F86
:1056120044002020005461672049443A200044524B
:10562200495645204C494E45005253005245435F6E
:105632004D41500068656164696E6700437572721E
:10564200656E7420436F6F7264696E6174653A208F
:10565200004F6C6420436F6F7264696E617465738E
:105662003A2028782C792920004E657720436F6FE5
:105672007264696E617465733A2028782C792920E6
:105682000031383020646567726565206361736537
:105692000032373020646567726565206361736527
:1056A200003C3C3C3C3C3C3C3C3C3C3C3C3C3C3C74
:1056B2003C3C3C3C3C3C3C3C3C3C3C3C3C3C3C5F05
:1056C2005F5F5F5F5F5F5F5F5F5F5F5F5F5F5F5FE8
:1056D2005F5F6572726F725F5F5F5F5F5F5F5F5F89
:1056E2005F5F5F5F5F5F5F5F3E3E3E3E3E3E3E3ED0
:1056F2003E3E3E3E3E3E3E3E3E3E3E3E3E3E3E3EC8
:105702003E3E3E3E3E00454E445052494D41525966
:1057120000454E445345434F4E444152590054555F
:10572200524E004F50454E5F4C45465400434C4F3D
:105732005345445F4C4546540044524956455F4CDC
:10574200494E4500434C4F5345445F46524F4E54D9
:105752000054525545004B657920466F756E6420A2
:10576200006D61702F4343006D61702F58006D61B1
:0E577200702F590049444C4500746573740053
:00000001FF
