:100000000C946D010C94B30F0C948C0F0C94650F31
:100010000C943E0F0C9495010C9495010C94170FC1
:100020000C9495010C94D3120C94DA0F0C94491093
:100030000C9495010C9495010C9495010C949501E8
:100040000C9495010C9495010C9495010C949501D8
:100050000C9495010C9495010C9495010C94CD0E83
:100060000C9495010C94A1120C947B120C949501A4
:100070000C9495010C9495010C9495010C949501A8
:100080000C9495010C9495010C9495010C94950198
:100090000C9495010C9495010C9495010C94950188
:1000A0000C9495010C9495010C94950105A84CCDE8
:1000B000B2D44EB93836A9020C50B9918688083CA2
:1000C000A6AAAA2ABE000000803F00407A10F35A78
:1000D00000A0724E18090010A5D4E80000E8764888
:1000E000170000E40B54020000CA9A3B000000E134
:1000F000F505000080969800000040420F000000C7
:10010000A08601000000102700000000E8030000A6
:1001100000006400000000000A0000000000010070
:10012000000000002C76D888DC674F0823DFC1DF91
:10013000AE59E1B1B796E5E3E453C63AE651997694
:1001400096E8E6C28426EB898C9B62ED407C6FFCCE
:10015000EFBC9C9F40F2BAA56FA5F490055A2AF710
:100160005C936B6CF9676DC11BFCE0E40D47FEF519
:1001700020E6B500D0ED902E030094357705008081
:10018000841E080000204E0A000000C80C333333E0
:10019000330F986E12831141EF8D2114893BE65580
:1001A00016CFFEE6DB18D1844B381BF77C1D901D63
:1001B000A4BBE424203284725E228100C9F124ECC5
:1001C000A1E53D27000000002300260029002C00A7
:1001D0002F000000000200090F0000030401000CC2
:1001E000000000000000000000000000000000000F
:1001F00000080B00020202000009040000010202D4
:100200000000052400100105240101010424020658
:1002100005240600010705810310004009040100C0
:10022000020A0000000705020240000007058302E1
:100230004000000403090412010002EF020140FB28
:100240001F0023000101020301506F6C6F6C7520C9
:10025000436F72706F726174696F6E00506F6C6F74
:100260006C7520412D537461722033325534000770
:100270000605040100080A0B0C0D0900000000250A
:100280000028002B002E0031000000000024002771
:10029000002A002D003000040404040403040502B5
:1002A0000202020403020202020606060606060411
:1002B00004020202040404080201104080401020DD
:1002C000408040800802040180402010020110801C
:1002D0001020404020004F137A1B11241FBECFEF87
:1002E000DAE0DEBFCDBF26E0AEE8B2E001C01D928D
:1002F000A938B207E1F712E0A0E0B1E0E6E8F6E4E1
:1003000002C005900D92AE38B107D9F711E0CCE6E6
:10031000D1E004C02197FE010E94851FCB36D10792
:10032000C9F70E945D140C9436230C940000FC0164
:100330008091D602882311F13FB7F89482E0809330
:10034000E9002091F200822F90E01816190614F4AB
:1003500081E090E0882339F0289844E64093D50264
:100360004091F1004083222339F02091F2002111C5
:1003700003C02BE62093E8003FBF08958FEF9FEF67
:1003800008952FB7F89483E08093E9009091E800F6
:10039000892F807295FF04C09091F20080E4891B40
:1003A0002FBF08958091CD0281110DC082E080930E
:1003B000C90284E08093CA021092CC021092CB0250
:1003C00081E08093CD0289EC92E00895CF93DF9392
:1003D00090E0FC01EA54FD4F249189569D4FFC01A9
:1003E00084918823C9F090E0880F991FFC01E7579A
:1003F000FD4FA591B491FC01E558FD4FC591D491F5
:1004000061110DC09FB7F8948C91209582238C9335
:100410008881282328839FBFDF91CF910895623080
:1004200051F49FB7F8943C91822F809583238C934D
:10043000E8812E2BEFCF8FB7F894EC912E2B2C93D5
:100440008FBFEACF823108F08251E82FF0E0E15906
:10045000FD4FE49190917B008E2F880F880F807262
:100460009F7D892B80937B00E770E064E0937C00A4
:1004700080917A00806480937A0080917A0086FD72
:10048000FCCF809178009091790008953FB7F8945F
:100490008091C5029091C602A091C702B091C80296
:1004A00026B5A89B05C02F3F19F00196A11DB11DCF
:1004B0003FBFBA2FA92F982F8827BC01CD01620F0B
:1004C000711D811D911D42E0660F771F881F991FC6
:1004D0004A95D1F708958F929F92AF92BF92CF9293
:1004E000DF92EF92FF924B015C010E9446026B018A
:1004F0007C010E9446026C197D098E099F09683EA5
:10050000734081059105A8F321E0821A9108A108A2
:10051000B10888EEC80E83E0D81EE11CF11C8114DE
:100520009104A104B10429F7FF90EF90DF90CF90E0
:10053000BF90AF909F908F9008952FB7F8946091DF
:10054000C1027091C2028091C3029091C4022FBF78
:10055000089508954091B6025091B7022091B402D7
:100560003091B50242175307B4F49091E8009570AA
:10057000E1F39091E80092FD19C08093F100809121
:10058000B6029091B70201968F739927892B19F4BF
:100590008EEF8093E8008091B6029091B7020196A9
:1005A0009093B7028093B60281E0089580E00895A9
:1005B000EF92FF920F931F93CF93DF93F82E192F93
:1005C000E62E042F81E0860F880F0E94AA0283E0A6
:1005D0000E94AA02CF2DD12FEC0EFD2EF11CCE15BC
:1005E000DF05B9F007FF13C0FE0184910E94AA0243
:1005F000182F80E00E94AA02812321968111EFCF5B
:10060000DF91CF911F910F91FF90EF900895888116
:10061000EDCF81E0F5CFDF92EF92FF920F931F9322
:10062000CF93DF93D82E8A01EB017B01E40EF51EF8
:10063000CE15DF0559F0D7FE12C0FE0184910E944D
:10064000AA0221968111F4CF0FEF1FEFC801DF91AD
:10065000CF911F910F91FF90EF90DF9008958881C7
:10066000EECF0F931F93CF93DF931F92CDB7DEB7DB
:1006700082E0898342E450E061EF71E080E80E940B
:100680000B030E94D201DC0112960D911C91011501
:10069000110589F0D801ED91FC910280F381E02DE4
:1006A000BE016F5F7F4FC801099597FD04C0F80137
:1006B00000851185ECCF89810F90DF91CF911F913B
:1006C0000F910895615030F02091F100FC012083DA
:1006D0000196F8CF289884E68093D5020895AF92CA
:1006E000BF92CF92DF92EF92FF920F931F93CF931F
:1006F000DF936C017B018B01040F151FEB015E0181
:10070000AE18BF08C017D10759F06991D601ED9115
:10071000FC910190F081E02DC6010995892B79F7B4
:10072000C501DF91CF911F910F91FF90EF90DF9066
:10073000CF90BF90AF900895FC01538D448D252F2D
:1007400030E0842F90E0821B930B541710F0CF966B
:10075000089501970895FC01918D828D981761F09D
:10076000A28DAE0FBF2FB11D5D968C91928D9F5FB4
:100770009F73928F90E008958FEF9FEF0895FC0193
:10078000918D828D981731F0828DE80FF11D858D46
:1007900090E008958FEF9FEF0895FC01918D228DD9
:1007A000892F90E0805C9F4F821B91098F7399275E
:1007B00008958BE894E00E94CD0321E0892B09F491
:1007C00020E0822F089580E090E0892B29F00E949C
:1007D000D90381110C9400000895FC01A48DA80F89
:1007E000B92FB11DA35ABF4F2C91848D90E0019673
:1007F0008F739927848FA689B7892C93A089B18993
:100800008C9182748C93938D848D981306C002888A
:10081000F389E02D80818F7D80830895EF92FF9290
:100820000F931F93CF93DF93EC0181E0888F9B8D13
:100830008C8D981319C0E889F989808185FF14C0CF
:100840009FB7F894EE89FF896083E889F9898081F0
:10085000827480839FBF81E090E0DF91CF911F91F0
:100860000F91FF90EF900895F62E0B8D10E00F5F23
:100870001F4F0F731127E02E8C8D8E110CC00FB6F9
:1008800007FCFACFE889F989808185FFF5CFCE0191
:100890000E94ED03F1CFEB8DEC0FFD2FF11DE35A1C
:1008A000FF4FF0829FB7F8940B8FEA89FB89808114
:1008B0008062CFCFCF93DF93EC01888D8823B9F08E
:1008C000AA89BB89E889F9898C9185FD03C080815B
:1008D00086FD0DC00FB607FCF7CF8C9185FFF2CFD8
:1008E000808185FFEDCFCE010E94ED03E9CFDF913E
:1008F000CF9108958F929F92AF92BF92CF92DF9245
:10090000EF92FF920F931F93CF93DF936C017B01C4
:100910008A0180910B01882309F45CC08091D60282
:10092000882309F457C08091BA0280FF05C08091E6
:10093000E00082608093E000E801B12C8AEFA82EED
:1009400093E0892E2AE3922E209711F4BB20D9F14F
:100950000E94C10181110AC0AA94AA20D9F161E0C4
:1009600070E080E090E00E946B02EECF8C171D06D5
:1009700011F00CF08C2F9FB7F8948092E900209131
:10098000E80025FD02C09FBFDFCF282F30E0C21B4B
:10099000D30BF701815020F041914093F100FACF41
:1009A000E20EF31EBB2021F09092E800B12CEBCFB9
:1009B0008091E80085FDE7CF9092E800BB24B394D6
:1009C000209709F3F3CF5D9884E68093B90210165F
:1009D00011063CF081E090E0F6019383828310E001
:1009E00000E0C801DF91CF911F910F91FF90EF9030
:1009F000DF90CF90BF90AF909F908F900895CF934E
:100A0000DF931F92CDB7DEB76983DC01ED91FC91D6
:100A10000280F381E02D41E050E0BE016F5F7F4F27
:100A200009950F90DF91CF91089583E08093E900BD
:100A30008091F200882319F08AE38093E8000895FA
:100A40000E94C10190E00895CF93DF931F92CDB72C
:100A5000DEB7FC018485958597FD08C02FEF3FEF39
:100A6000358724870F90DF91CF910895CE010196AD
:100A70000E949701019719F4898190E0F3CF8FEFDD
:100A80009FEFF0CF0F931F93CF93DF931F92CDB7BC
:100A9000DEB78C01FC018485958597FF0BC0CE01E4
:100AA00001960E949701019771F4898190E0F80105
:100AB00095878487F801848595850F90DF91CF9184
:100AC0001F910F9108958FEF9FEFF1CFFC01848567
:100AD000958597FD0BC09FB7F89482E08093E9005D
:100AE0008091F2009FBF90E0019608959FB7F8941F
:100AF00082E08093E9008091F2009FBF90E008952A
:100B00002E98269A2D98259A2A98229A2998219AE1
:100B10002F98279A8AEA8093800089E18093810048
:100B200084EA91E090938700809386001092890078
:100B30001092880010928B0010928A0010928D0003
:100B400010928C0008950F931F93CF93DF938C0125
:100B5000EB018091A302811105C081E08093A30283
:100B60000E94800580E017FF04C0119501951109CE
:100B700081E00D3291E0190714F00CE211E01093BE
:100B80008B0000938A00882329F12A9A229A809167
:100B9000A302811105C081E08093A3020E94800519
:100BA00080E0D7FF04C0D195C195D10981E0CD3255
:100BB00091E0D90714F0CCE2D1E0D0938900C09342
:100BC0008800882349F0299A219ADF91CF911F91BB
:100BD0000F9108952A98DACF2998F6CF8CB1282F53
:100BE00030E03595279535952795422F417083B193
:100BF00090E054E0959587955A95E1F782278170AA
:100C00002091A1029091A20260919F027091A00296
:100C100024279827291B330B260F371F3093A00258
:100C200020939F022091A1029091A202281729F0FF
:100C3000941719F091E090939E028093A102409343
:100C4000A20208959FB191708CB186FB882780F92C
:100C5000892720919C0230919D0240919A025091E7
:100C60009B0229273827231B330B240F351F309372
:100C70009B0220939A0230919C0220919D0238178A
:100C800029F0291719F021E02093990280939C0202
:100C900090939D02089524982C9A6A98729A6E985F
:100CA000769A8098889AF89491E090936800EBE6A1
:100CB000F0E08081806180832EEE35E03093AD02DC
:100CC0002093AC029BBB809178058F7E8093780542
:100CD00083B1909178058071892B80937805789401
:100CE00082E296E09093150180931401EAE6F0E029
:100CF00080818F7C80618083EE9A8CB182FB882713
:100D000080F98093A20293B18091A2029295917092
:100D100089278093A1021092A00210929F02109244
:100D20009E028FB1817080939D029CB180919D0243
:100D300096FB992790F9892780939C0210929B0239
:100D400010929A02109299020895CF93DF93EC01CA
:100D5000888581110EC0898591E098879A8562E027
:100D6000911101C060E00E94E6018FE090E00197E0
:100D7000F1F7298530E0F901EE52FE4F8491F90137
:100D8000EA54FD4F949129563D4FF90124912223B5
:100D900009F460C08823E9F081508F30D0F4E82F47
:100DA000F0E0EB52F94F0C94851F05070907E406A4
:100DB000FD060107E906E906E9060C071207160712
:100DC0001A072007E9062407809180008F77809317
:100DD0008000E22FF0E0EE0FFF1FEC53FE4FA591D5
:100DE000B491EC919E2331E009F430E0832F2B8500
:100DF00082278170DF91CF910895809180008F7D4F
:100E0000E6CF80918000877FE2CF84B58F7784BD65
:100E1000E0CF84B58F7DFBCF809190008F7780935A
:100E20009000D7CF809190008F7DF9CF8091900076
:100E3000877FF5CF8091C0008F778093C000C9CFA6
:100E40008091C0008F7DF9CF8091C200877F809311
:100E5000C200BFCF80E0CBCFFC0180810E94220284
:100E6000BC01990F880B990B0E940F1E20E030ECFB
:100E70004FE754E40E94FD1F20E030E040EA50E4D8
:100E80000E946E1E21E73DE34AE05FE30E948B1F54
:100E900027ED33EA46E851E40E94FD1F9B01AC01B7
:100EA00060E070E080E89FE30E94FD1F0895CF920C
:100EB000DF92EF92FF92CF93DF93EC010E949D02AD
:100EC0006B017C018091950290919602A09197020E
:100ED000B0919802B701A601481B590B6A0B7B0B16
:100EE0008C859D85092E000CAA0BBB0B4817590752
:100EF0006A077B0708F448C08091D7029091D80216
:100F00009093940280939302809191029091920227
:100F10009093900280938F0280918E02811105C080
:100F200081E080938E020E944B06F89480919F028C
:100F30009091A00278949093D8028093D7028091E8
:100F40008E02811105C081E080938E020E944B06C3
:100F5000F89480919A0290919B02789490939202D7
:100F6000809391020E949D02C0929502D0929602B7
:100F7000E0929702F092980281E0DF91CF91FF908A
:100F8000EF90DF90CF90089580E0F7CFCF92DF927F
:100F9000EF92FF92CF93DF93EC01288139814A8150
:100FA0005B81688579858A859B850E94FD1F6B0121
:100FB0007C01609191027091920280918F029091D8
:100FC0009002681B790B072E000C880B990B0E946E
:100FD0000F1E9B01AC01C701B6010E946E1E6B0182
:100FE0007C016C857D85072E000C880B990B0E9477
:100FF0000F1E20E030E04AE754E40E94FD1F9B01F1
:10100000AC01C701B6010E94FD1FDF91CF91FF9097
:10101000EF90DF90CF900895CF92DF92EF92FF9202
:10102000CF93DF93EC01288139814A815B81688508
:1010300079858A859B850E94FD1F6B017C016091EB
:10104000D7027091D8028091930290919402681B0C
:10105000790B072E000C880B990B0E940F1E9B0129
:10106000AC01C701B6010E946E1E6B017C016C854C
:101070007D85072E000C880B990B0E940F1E20E027
:1010800030E04AE754E40E94FD1F9B01AC01C70118
:10109000B6010E94FD1FDF91CF91FF90EF90DF908E
:1010A000CF900895FB0101900020E9F73197AF013F
:1010B000461B570BDC01ED91FC910280F381E02D82
:1010C00009948F929F92AF92BF920F931F93CF93E9
:1010D000DF93CDB7DEB7A1970FB6F894DEBF0FBE92
:1010E000CDBF19A2423008F44AE08E010F5D1F4FB8
:1010F000842E912CB12CA12CA50194010E94631F78
:10110000E62FB901CA01EA3004F5E05DD801EE939B
:101110008D01232B242B252B79F790E080E010976D
:1011200029F0BD0188E295E00E945208A1960FB611
:10113000F894DEBF0FBECDBFDF91CF911F910F910D
:10114000BF90AF909F908F900895E95CDFCF4F9252
:101150005F926F927F928F929F92AF92BF92CF9247
:10116000DF92EF92FF920F931F93CF936B017C015D
:10117000742EAC019B010E94F12068E571E08111A1
:1011800026C046015701E894B7F82FEF3FEF4FE72D
:101190005FE7C501B4010E94F12081110CC02FEF5F
:1011A0003FEF4FE75FE7C501B4010E94081E6CE501
:1011B00071E0181664F02FEF3FEF4FE75FE4C701CF
:1011C000B6010E94E4201816ACF460E671E088E2F3
:1011D00095E0CF911F910F91FF90EF90DF90CF900E
:1011E000BF90AF909F908F907F906F905F904F9047
:1011F0000C9452082FEF3FEF4FE75FECC701B601A9
:101200000E94081E87FDE1CF20E030E0A901C70160
:10121000B6010E94081E10E000E087FF0AC06DE2E0
:1012200088E295E00E94FF048C01F7FAF094F7F849
:10123000F094C0E060E070E080E09FE37C1641F055
:1012400020E030E040E251E40E94FD1FCF5FF6CF86
:10125000A70196010E948C1F2B013C010E94762061
:101260004B015C014AE00E9461087C01E00EF11E26
:10127000CC23C1F1C501B4010E940D1E9B01AC013C
:10128000C301B2010E948B1F4B015C016EE288E238
:1012900095E00E94FF04E80EF91EC15018F120E00D
:1012A00030E040E251E4C501B4010E946E1E2B0102
:1012B0003C010E9476204B01B12CA12C4AE0C501D3
:1012C000B4010E946108E80EF91EC501B4010E9434
:1012D0000D1E9B01AC01C301B2010E948B1F4B018B
:1012E0005C01DBCFC701CF911F910F91FF90EF9071
:1012F000DF90CF90BF90AF909F908F907F906F9036
:101300005F904F90089542E00C94A708CF93DF932D
:1013100042E00E94A708EC0164E671E088E295E0F3
:101320000E9452088C0F9D1FDF91CF910895BC0140
:1013300088E295E00C945208CF93DF93BC0188E2D9
:1013400095E00E945208EC0164E671E088E295E0C5
:101350000E9452088C0F9D1FDF91CF9108950F932B
:101360001F93CF93DF9387E691E00E949C0909EDDC
:1013700012E0D0E0C0E08091890490918A04C817FF
:10138000D907BCF4F80161917191819191918F011C
:101390000E94830989E791E00E949709F801EC52C5
:1013A000FF4F60817181828193810E94860921961D
:1013B000E2CFDF91CF911F910F910895CF92DF92ED
:1013C000EF92FF92CF93DF936C01990FEE08FF0825
:1013D000F7FE21C06DE288E295E00E94FF04EC0177
:1013E00066277727CB016C197D098E099F094AE092
:1013F0000E946108C80FD91F64E671E088E295E099
:101400000E9452088C0F9D1FDF91CF91FF90EF90AB
:10141000DF90CF9008954AE0C701B6010E946108AD
:10142000EC01EACFCF93DF93EC018881998100979B
:1014300011F00E94DB21198218821D821C821B82FE
:101440001A82DF91CF910895FC01808191810097EC
:1014500011F00C94DB2108950E9421230F931F9318
:10146000CF93DF93EC0188819981009759F02A810D
:101470003B812617370730F081E0DF91CF911F9134
:101480000F9108958B016F5F7F4F0E946422009738
:1014900059F0998388831B830A832C813D81232BF8
:1014A00059F7FC011082E8CF80E0E7CFEF92FF927E
:1014B0000F931F93CF93DF93EC01FB01E080F1804A
:1014C000E114F10411F10481158101151105A9F050
:1014D0008C819D81080F191FB801CE010E942E0A30
:1014E000882399F0288139818C819D81B701820FF1
:1014F000931F0E942F231D830C83CE01DF91CF9178
:101500001F910F91FF90EF900895CE010E94120A53
:10151000F4CFEF92FF920F931F93CF93DF93EC01E1
:101520007B018A01BA010E942E0A81110BC0CE01F3
:101530000E94120ACE01DF91CF911F910F91FF906F
:10154000EF9008951D830C83B701888199810E94D3
:101550002F23F0CFFB0101900020E9F73197AF0175
:10156000461B570B0C94890AEF92FF920F931F931F
:10157000CF93DF93CDB7DEB72C970FB6F894DEBFCD
:101580000FBECDBF8C017B011A8219821C821B8287
:101590001E821D828AE38F831886BE01695F7F4F9A
:1015A000CE0101960E94AA0A18861F821A86198601
:1015B0001C861B86F801608171816115710531F00F
:1015C00044815581CE0107960E94890ABE016F5F52
:1015D0007F4FCE0107960E94560AB7010E94560A15
:1015E000FC0144815581608171818BE894E00E9407
:1015F0006F0364E671E08BE894E00E945208CE012C
:1016000007960E94240ACE0101960E94240A2C9675
:101610000FB6F894DEBF0FBECDBFDF91CF911F9103
:101620000F91FF90EF900895EF92FF920F931F9309
:10163000CF93DF93CDB7DEB7A1970FB6F894DEBF97
:101640000FBECDBF7C01CB01BA01F7011182108220
:1016500013821282158214828E010F5F1F4F22E0C7
:1016600044E00E947E1B009789F0BC01C7010E94E4
:10167000AA0AA1960FB6F894DEBF0FBECDBFDF91C8
:10168000CF911F910F91FF90EF900895C7010E9495
:10169000120AEFCF0F931F93CF93DF93CDB7DEB72F
:1016A00062970FB6F894DEBF0FBECDBF8C01CB01A1
:1016B000F8011182108213821282158214824AE08C
:1016C000BE016F5F7F4F0E949C1BBE016F5F7F4F0B
:1016D000C8010E94AA0A62960FB6F894DEBF0FBE38
:1016E000CDBFDF91CF911F910F910895CF93DF93DD
:1016F000A2EEB0E09C911C92E9EEF0E02081108215
:10170000C0EFD0E03881188240E05D994160559982
:10171000426055985D9A80E18A95F1F789B141FB65
:101720000EF0559840FB0EF05D980EF45D9A41FB6B
:101730000EF4559A1082388320839C9390E025E024
:10174000959587952A95E1F7809590958170DF9121
:10175000CF910895CF93DF938DE796E00E94760BAB
:10176000D1E0C82FCD270E949D0220918206213012
:1017700099F030F0223011F1233041F1C0E008C07F
:10178000C111FCCF7093840660938306D0938206C8
:101790008C2FDF91CF910895CC2319F010928206FF
:1017A000EDCF2091830630918406621B730B6F305E
:1017B000710570F382E080938206E0CFCC2341F381
:1017C000709384066093830683E0F5CFCC2391F376
:1017D0002091830630918406621B730B6F30710574
:1017E00068F210928206D4CF4F925F926F927F92EE
:1017F0008F929F92AF92BF92CF92DF92EF92FF9221
:101800000F931F93CF93DF93CDB7DEB76A970FB6D1
:10181000F894DEBF0FBECDBF9A8F898F4A015B015E
:10182000280139010E949D02A98DBA8D96966D936B
:101830007D938D939C939997A5019401C301B80161
:101840000E948B1F6B017C0120E030E0A9010E9407
:10185000E42018160CF032C111E020E030E040E83E
:101860005EE3C701B6010E94E42018160CF010E0F8
:10187000A5019401C301B2010E948C1F4B015C01C0
:10188000A98DBA8D1E968D919D910D90BC91A02D24
:101890008D839E83AF83B887E98DFA8D46885788FC
:1018A000608C718CC301B2010E94F81F69877A872E
:1018B0008B879C87A98DBA8D52968D919D910D90A5
:1018C000BC91A02D8D879E87AF87B88BC301B201D5
:1018D0000E94E920698B7A8B8B8B9C8B112309F4F6
:1018E000FAC0A98DBA8D9E968D919D910D90BC9157
:1018F000A02D89839A83AB83BC8320E030E040E055
:101900005FE3BC01CD010E946E1E6D8B7E8B8F8BC1
:10191000988FA7019601C501B4010E94FD1F9B018C
:10192000AC016D897E898F89988D0E946E1E4B0156
:101930005C0129813A814B815C81C701B6010E941B
:10194000FD1F2DEC3CEC4CE45DE30E946E1EA301F8
:1019500092010E948C1F6B017C010E94E9202B01E7
:101960003C0129893A894B895C89C501B4010E94EF
:101970006E1E9B01AC016D817E818F8198850E94D6
:101980008B1F69837A838B839C83A5019401C30198
:10199000B2010E946E1E9B01AC0169817A818B812C
:1019A0009C810E948C1FE98DFA8D66877787808BDA
:1019B000918BC701B6010E94F81F2B013C012985BC
:1019C0003A854B855C85C501B4010E946E1E698312
:1019D0007A838B839C83A5019401C301B2010E9489
:1019E0006E1E9B01AC0169817A818B819C810E9472
:1019F0008B1F2D853E854F8558890E948C1FA98D90
:101A0000BA8D52966D937D938D939C935597FD015E
:101A1000C68AD78AE08EF18EA98DBA8D5696CD9062
:101A2000DD90ED90FC9059972BED3FE049EC50E4B0
:101A3000C701B6010E94E42018160CF08BC02BEDF4
:101A40003FE049EC50E4C701B6010E948B1FE98DCD
:101A5000FA8D668B778B808F918FE98DFA8D8685D5
:101A60009785A089B18982AB93ABA4ABB5AB8289D2
:101A70009389A489B58986AB97ABA0AFB1AF8689AE
:101A80009789A08DB18D82AF93AFA4AFB5AF6A96A1
:101A90000FB6F894DEBF0FBECDBFDF91CF911F917F
:101AA0000F91FF90EF90DF90CF90BF90AF909F90FD
:101AB0008F907F906F905F904F90089520E030E07E
:101AC00040E85EEBC701B6010E94081E182F111FE7
:101AD0001127111FCDCE20E030E040E05FE3C501CB
:101AE000B4010E946E1E6B017C0129853A854B85ED
:101AF0005C850E946E1E2DEC3CEC4CE45DE30E9484
:101B00006E1E2D813E814F8158850E948C1FA98DAC
:101B1000BA8D1E966D937D938D939C9351972989D1
:101B20003A894B895C89C701B6010E946E1E2DEC73
:101B30003CEC4CE45DE30E946E1E2D853E854F8596
:101B400058890E948C1FE98DFA8D628B738B848B70
:101B5000958B62CF20E030E0A901C701B6010E9459
:101B6000081E87FF7ACF2BED3FE049EC50E4C70118
:101B7000B6010E948C1FA98DBA8D56966D937D93E8
:101B80008D939C93599769CF2F923F924F925F927A
:101B90006F927F928F929F92AF92BF92CF92DF927D
:101BA000EF92FF920F931F93CF93DF93CDB7DEB7E2
:101BB00028970FB6F894DEBF0FBECDBF6B017C0136
:101BC0002B013C0177FA709477F8709480911A0198
:101BD000882309F483C020E030E0A901C7010E94F6
:101BE000E42046015701181614F04201530170E039
:101BF00060E090E080E00E94A30580915F069091F4
:101C000060062EE1289FA001299F500D11245A83C0
:101C100049838091D7029091D80298878F8394014D
:101C2000A501C701B6010E94FD1F0E946F2022E39B
:101C3000269FA001279F500D11245C834B832EEC1F
:101C40002603A001279F500D11245E834D832F8012
:101C500038843194219431084F81588557FDA10172
:101C60008091D7029091D80297FF03C091958195FA
:101C700091099A01281B390B121613061CF09C01BE
:101C8000241B350B89819A8182179307FCF06B81A5
:101C90007C818D819E810E94A3058FE795E00E9443
:101CA00057078823C9F28FE795E00E94C6074B01CA
:101CB0005C018FE795E00E940C08AB01BC01950127
:101CC00084018FE795E00E94F40BC6CF70E060E0DE
:101CD00090E080E00E94A30510921A01C701B601AE
:101CE0000E946F206B01C301B2010E946F20CB01E3
:101CF000B6010E94A305809161060E9422029A8388
:101D00008983809163060E942202C0906906D09068
:101D10006A06E0906B06F0906C06BC01990F880B88
:101D2000990B0E940F1EA70196010E94081E87FDB5
:101D300010C029813A81B901330F880B990B0E9499
:101D40000F1E9B01AC01C701B6010E94E4201816CA
:101D500014F570E060E090E080E00E94A30581E06F
:101D600080931A0128960FB6F894DEBF0FBECDBF40
:101D7000DF91CF911F910F91FF90EF90DF90CF9067
:101D8000BF90AF909F908F907F906F905F904F909B
:101D90003F902F90089580E0E5CF1F920F920FB6ED
:101DA0000F9211242F933F938F939F93AF93BF93E1
:101DB0008091C1029091C202A091C302B091C4026D
:101DC0003091C00223E0230F2D3758F50196A11D55
:101DD000B11D2093C0028093C1029093C202A093D0
:101DE000C302B093C4028091C5029091C602A09133
:101DF000C702B091C8020196A11DB11D8093C50212
:101E00009093C602A093C702B093C802BF91AF914E
:101E10009F918F913F912F910F900FBE0F901F9028
:101E2000189526E8230F0296A11DB11DD2CF1F924F
:101E30000F920FB60F9211242F933F934F935F93FE
:101E40006F937F938F939F93AF93BF93EF93FF9382
:101E5000E0911401F09115010995FF91EF91BF9167
:101E6000AF919F918F917F916F915F914F913F9132
:101E70002F910F900FBE0F901F9018951F920F92E9
:101E80000FB60F9211242F933F934F935F936F934D
:101E90007F938F939F93AF93BF93EF93FF93E091C3
:101EA0001201F09113010995FF91EF91BF91AF914C
:101EB0009F918F917F916F915F914F913F912F9162
:101EC0000F900FBE0F901F9018951F920F920FB694
:101ED0000F9211242F933F934F935F936F937F93B0
:101EE0008F939F93AF93BF93EF93FF93E091100174
:101EF000F09111010995FF91EF91BF91AF919F91E1
:101F00008F917F916F915F914F913F912F910F90A2
:101F10000FBE0F901F9018951F920F920FB60F9241
:101F200011242F933F934F935F936F937F938F93DE
:101F30009F93AF93BF93EF93FF93E0910E01F091C6
:101F40000F010995FF91EF91BF91AF919F918F91F3
:101F50007F916F915F914F913F912F910F900FBEA5
:101F60000F901F9018951F920F920FB60F92112489
:101F70002F933F934F935F936F937F938F939F9391
:101F8000AF93BF93EF93FF93E0910C01F0910D019C
:101F90000995FF91EF91BF91AF919F918F917F91A3
:101FA0006F915F914F913F912F910F900FBE0F90C6
:101FB0001F9018951F920F920FB60F9211248F93B6
:101FC0009F938091E1009091E100937F9093E100D5
:101FD00083FF0FC01092E90091E09093EB00109204
:101FE000EC0092E39093ED001092D60298E090936B
:101FF000F00082FF22C093E09093E9009091F200FC
:10200000992319F09AE39093E8009091B9029923EB
:1020100041F09091B90291509093B902911101C091
:102020005D9A9091D502992341F09091D5029150FB
:102030009093D502911101C0289A84FF18C0809115
:10204000E2008E7E81608093E2008091E1008F7ECD
:102050008093E1008091BA028E7E80618093BA0203
:102060009F918F910F900FBE0F901F90189580FF3A
:10207000F7CF8091E2008E7E80618093E2008091B4
:10208000E1008E7E8093E1008091BA028E7E8160B5
:10209000E5CF1F920F920FB60F921124CF92DF92CD
:1020A000EF92FF920F931F932F933F934F935F9362
:1020B0006F937F938F939F93AF93BF93EF93FF9310
:1020C000CF93DF93CDB7DEB76C97DEBFCDBF109255
:1020D000E9008091E80083FF25C068E0CE014596C5
:1020E0000E94620382EF8093E8008D8987FF39C0E8
:1020F0009091E80090FFFCCF982F907609F034C1C2
:102100009E894F89588D2F89F88C911131C0803864
:1021100061F58091BB028093F1001092F1008EEF87
:102120008093E8006C960FB6F894DEBF0FBECDBF6B
:10213000DF91CF91FF91EF91BF91AF919F918F91DF
:102140007F916F915F914F913F912F911F910F91CF
:10215000FF90EF90DF90CF900F900FBE0F901F90E9
:1021600018959EEF9093E800C7CF1092F100D5CF5D
:10217000913059F48111D3CF4130510581F68091CE
:10218000BB028D7F8093BB02CACF933049F481118B
:10219000C6CF4130510519F68091BB028260F2CF63
:1021A000953041F48091E80080FFFCCF20682093B7
:1021B000E300B5CF963009F0A9C00B8D1C8D22E04D
:1021C0001092E9001092B7021092B602F2122EC0DD
:1021D0001092B5021092B4020E9431031F8299E05E
:1021E0009983FA8291E09E8390EA98879AEF998783
:1021F0002091B6023091B702275F3F4F3C832B837B
:102200008D831092E9001092B7021092B6021093DB
:10221000B5020093B40249E050E0BE016F5F7F4F0A
:1022200080E00E940B030E94310379CF1093B50226
:102230000093B4020E94D201DC0112960D911C9110
:102240000115110509F451C1D801ED91FC910480EB
:10225000F581E02DBE016B5E7F4FC80109950097A7
:1022600009F03EC1F80100851185EACFF3E0FF12C5
:102270000EC08F89882309F440C0823061F440E8A1
:1022800062E18CE592E00E94D802811148CF81E2A0
:102290008093EB0047CF813029F440E862E189E484
:1022A00092E0F1CF833099F70E94D201DC011296BF
:1022B000ED90FC908E010F5F1F4F6801E114F10457
:1022C00079F0D701ED91FC910680F781E02DB801FE
:1022D000C7010995080F111DF701E084F184EECFC5
:1022E000D8011C92F60101900020E9F73197BF0157
:1022F0006C197D0940E0C601C6CF63E372E0FB01C3
:10230000449150E080E80E940B0309CF973009F414
:10231000BECF983021F481E08093F10000CF993056
:1023200009F0FDCE837009F0B2CFE2E2F1E081E086
:1023300031E096E32191222371F08093E9003093FC
:10234000EB00DF0111972C912093EC009093ED00AE
:102350008F5F873079F78EE78093EA001092EA006A
:102360008F898093D602DBCE8B8D9C8D1092E900F5
:102370001092B7021092B6029093B5028093B40205
:10238000898D811192C08E899D89913A49F481325B
:1023900009F07DCF47E050E064E071E080E0B3CF2A
:1023A000913209F074CF833269F48F89988DB0E04F
:1023B000A0E08093000190930101A0930201B093EB
:1023C0000301ADCE803269F48091E80082FFFCCF3A
:1023D00067E084E091E00E9462038BEF8093E80065
:1023E0009ECE823209F09BCE8F8980930B01EEEF57
:1023F000FFE7859194918B3F9C4D51F1E0E0F8E02F
:102400008091040190910501A0910601B09107010E
:10241000803B9440A105B105F1F480910B0180FD52
:102420001AC0EE3F8AE0F80789F587E797E79183BE
:102430008083809160008093B80288E19BE00FB6B2
:10244000F894A895809360000FBE9093600067CECB
:10245000EEEFFAE0D5CF808191818737974709F079
:102460005ECEA89580916000886180936000809125
:10247000B80280936000EE3F2AE0F20789F0809175
:10248000FE0A9091FF0A9183808349CE80819181D9
:102490008737980751F29093FF0A8093FE0AC5CFC1
:1024A0001092FF0A1092FE0A3ACE0E94D201DC017D
:1024B00012960D911C910115110509F4E8CED80171
:1024C000ED91FC910190F081E02DBE016B5E7F4F9C
:1024D000C8010995811123CEF80100851185EBCF44
:1024E000181619060CF41BCED2CEF1E0FF12BECEA8
:1024F00067E372E004CF1F920F920FB60F92112480
:102500002F933F934F935F936F937F938F939F93FB
:10251000AF93BF93EF93FF938BE894E00E94ED039A
:10252000FF91EF91BF91AF919F918F917F916F91AB
:102530005F914F913F912F910F900FBE0F901F9081
:1025400018951F920F920FB60F9211242F938F930D
:102550009F93EF93FF93E0919B04F0919C04808103
:10256000E091A104F091A20482FD1BC090818091B2
:10257000A4048F5F8F732091A504821741F0E0912E
:10258000A404F0E0E557FB4F958F8093A404FF91DE
:10259000EF919F918F912F910F900FBE0F901F90F1
:1025A00018958081F4CF1F920F920FB60F921124CD
:1025B0002F933F934F935F936F937F938F939F934B
:1025C000AF93BF93EF93FF93CF93DF9300D01F920E
:1025D000CDB7DEB783B1898389819091780589274A
:1025E0008A8380916B009A8189238B838B8180FF02
:1025F00005C0E091A402F091A50209958B8181FFAD
:1026000005C0E091A602F091A70209958B8182FF97
:1026100005C0E091A802F091A90209958B8183FF82
:1026200005C0E091AA02F091AB0209958B8184FF6D
:1026300005C0E091AC02F091AD0209958B8185FF58
:1026400005C0E091AE02F091AF0209958B8186FF43
:1026500005C0E091B002F091B10209958B8187FF2E
:1026600005C0E091B202F091B3020995898180938F
:1026700078050F900F900F90DF91CF91FF91EF9120
:10268000BF91AF919F918F917F916F915F914F918A
:102690003F912F910F900FBE0F901F901895EBE870
:1026A000F4E01382128288EE93E0A0E0B0E084832D
:1026B0009583A683B7832CE231E0318320832DEC10
:1026C00030E0358724872CEC30E03787268728ECEC
:1026D00030E0318B208B29EC30E0338B228B2AECDD
:1026E00030E0358B248B2EEC30E0378B268B118E2F
:1026F000128E138E148EE8E2F5E013821282848328
:102700009583A683B7838EE391E0918380838FEFD7
:102710009FEF9587848783B180937805EDE7F6E096
:102720001282158286E591E091838083E1E7F6E0ED
:102730001282158210868EE0818781E082878387EE
:1027400080E591E091838083EFE7F5E080E090E021
:10275000A4EBB4E480839183A283B38380E090E010
:10276000ACE0B2E484839583A683B78388E599EED1
:10277000ABE5B3E480879187A287B38782E390E0DB
:102780009587848716861786108A118A128A138A7B
:10279000148A158A168A178A108E118E128E138E3D
:1027A000148E158E168E178E10A211A212A213A2CD
:1027B00014A215A280E090EEAEE0B3E486A797A73E
:1027C000A0ABB1AB12AA13AA14AA15AA16AA17AAEB
:1027D00010AE11AE12AE13AE14AE15AE80E090E0A6
:1027E000A0E0BFE380934F0690935006A09351065C
:1027F000B09352068DEC9CECACE4BEE380935306A0
:1028000090935406A0935506B0935606109257061F
:10281000109258061092590610925A0610925B06B2
:1028200010925C0610925D0610925E0688E090E0C1
:102830009093600680935F0685E190E09093620636
:102840008093610686E190E090936406809363062E
:102850008DEC9CECACECBCE3809365069093660633
:10286000A0936706B093680680E090E0A8E4B3E424
:102870008093690690936A06A0936B06B0936C06EA
:1028800080E090E0A8ECB2E480936D0690936E0631
:10289000A0936F06B0937006E9E7F5E0118210820D
:1028A000138212821582148250E040E066E671E0E5
:1028B000CF010E94890A0C949D02CF93DF93CDB77C
:1028C000DEB7A2970FB6F894DEBF0FBECDBF7894E7
:1028D00084B5826084BD84B5816084BD85B5826025
:1028E00085BD85B5816085BD80916E0081608093D6
:1028F0006E0010928100809181008260809381003F
:10290000809181008160809381008091800081604E
:1029100080938000809191008260809391008091EB
:1029200091008160809391008091900081608093FC
:1029300090008091C10084608093C1008091C100AB
:1029400082608093C1008091C10081608093C1004A
:102950008091C30081608093C3008091C000826039
:102960008093C0008091C20081608093C2008091FA
:102970007A00846080937A0080917A0082608093EC
:102980007A0080917A00816080937A0080917A0049
:10299000806880937A001092D6021092BB02109247
:1029A000BA028091D70081608093D70080EA80933B
:1029B000D80089B5806189BD89B5826089BD09B4B7
:1029C00000FEFDCF61E070E080E090E00E946B02CD
:1029D0008091D8008F7C80618093D8008091E00046
:1029E000807F8093E0008091E1008E7E8093E10003
:1029F0008DE08093E200559A209A0E949D02609398
:102A0000A9057093AA058093AB059093AC0510922D
:102A1000B1051092B2051092B3051092B405109250
:102A2000B5051092B6051092B7051092B805109230
:102A3000B9051092BA051092BB051092BC058091A1
:102A4000890490918A04FC01EE0FFF1FEE0FFF1F17
:102A5000E752FD4F1082118212821382FC01EE0FA9
:102A6000FF1FEE0FFF1FEF54FC4F108211821282E6
:102A70001382019690938A048093890460E08DE12B
:102A80000E94E6018DE190E090931701809316017A
:102A900060E082E10E94E60182E190E090931901FA
:102AA00080931801E0919B04F0919C0482E0808364
:102AB000E0919704F09198041082E0919904F091CC
:102AC0009A0480E180831092A304E0919F04F09126
:102AD000A00486E08083E0919D04F0919E048081B3
:102AE00080618083E0919D04F0919E0480818860E4
:102AF0008083E0919D04F0919E04808180688083B2
:102B0000E0919D04F0919E0480818F7D8083E09010
:102B1000BE02F090BF022BE1E216F10434F047E070
:102B200050E05093BD024093BC028FE795E00E94B5
:102B30005707882309F451C18FE795E00E94C60723
:102B40004B015C018FE795E00E940C08AB01BC01D2
:102B5000950184018FE795E00E94F40BE091BC029F
:102B6000F091BD02E830F10508F037C1E654FA4EA5
:102B70000C94851FDF16ED16C215D2192C1A331AC4
:102B80006A1A6F1A809161060E9422028C0180915C
:102B900063060E9422029C01B801110F880B990B59
:102BA0008901330F220B330B600F711F821F931F9C
:102BB0000E940F1E2091690630916A0640916B06B3
:102BC00050916C060E94081E87FFC4C070E060E050
:102BD00090E080E00E94A30568EE73E080E090E062
:102BE0000E946B020E949D026F8F78A389A39AA313
:102BF0000E949D022F8D38A149A15AA1621B730B1F
:102C0000840B950B693B7B408105910508F0F2C070
:102C10008FE795E00E945707882351F38FE795E0EF
:102C20000E940C089B01AC0160E070E084E092E43B
:102C30000E948B1F6B017C018FE795E00E94C60705
:102C40009B01AC0160E070E084E092E40E948B1F85
:102C50002B013C01209157063091580640915906AE
:102C600050915A06C701B6010E948C1F6B8F7C8F52
:102C70008D8F9E8F609357067093580680935906E8
:102C800090935A0620915B0630915C0640915D0658
:102C900050915E06C301B2010E948C1F4B015C0182
:102CA00080925B0690925C06A0925D06B0925E06F2
:102CB00080914F0690915006A0915106B091520616
:102CC0008B8B9C8BAD8BBE8B209153063091540621
:102CD00040915506509156062F8B388F498F5A8F49
:102CE0009C01AD01C301B2010E946E1E2B013C018B
:102CF0002F89388D498D5A8DC501B4010E946E1EF1
:102D00009B01AC01C301B2010E948C1F0E946F2085
:102D10004B012B893C894D895E89C701B6010E9410
:102D20006E1E6B017C012F89388D498D5A8D6B8DFC
:102D30007C8D8D8D9E8D0E946E1E9B01AC01C70106
:102D4000B6010E948C1F0E946F20CB01B4010E942B
:102D5000A3054ECF809161060E9422028C018091D2
:102D600063060E942202B801681B790B072E000C33
:102D7000880B990B0E940F1E209165063091660604
:102D800040916706509168060E946E1E6B017C019F
:102D900020E030E044E352E40E948C1F0E946F2048
:102DA0004B01A701960160E070E084E392E40E9489
:102DB0008B1F0E946F20CB01B4010E94A3050E94CB
:102DC000AA0B882351F082E090E09093BD0280939B
:102DD000BC028CE791E00E949C0920E030E0232BAC
:102DE00009F495CE0E94D903882309F490CE0E945D
:102DF00000008DCE70E060E090E080E00E94A305CE
:102E000020EE3EE245E652E46091B9057091BA05C4
:102E10008091BB059091BC050E946E1E6B017C01E8
:102E200087E891E00E949709C701B6010E948609D0
:102E300020E030E84DE953E4C701B6010E94E420E8
:102E4000181654F020E030E044E352E4C701B60124
:102E50000E94081E87FFBBC086EE91E00E94970982
:102E60008FE891E00E9497098091890490918A04EB
:102E70000E94DE0984EA91E00E949709E0918904AA
:102E8000F0918A04EE0FFF1FEE0FFF1FE752FD4F78
:102E900060817181828193810E94830989E791E039
:102EA0000E949709E0918904F0918A04EE0FFF1FB8
:102EB000EE0FFF1FEF54FC4F60817181828193817F
:102EC0000E9486090091890410918A04C801880F24
:102ED000991F880F991FAC0147525D4F7A01FC0181
:102EE000EB52FD4F20E030E040E85FE3608171810C
:102EF000828193810E948C1FD7016D937D938D9366
:102F00009C931397F801EE0FFF1FEE0FFF1FE35581
:102F1000FC4F80819181A281B381000F111F000FAE
:102F2000111FF801EF54FC4F80839183A283B38378
:102F30008FE891E00E9497098091890490918A041A
:102F40000E94DE098CEB91E00E949709E0918904D0
:102F5000F0918A04EE0FFF1FEE0FFF1FE752FD4FA7
:102F600060817181828193810E94830989E791E068
:102F70000E949709E0918904F0918A04EE0FFF1FE7
:102F8000EE0FFF1FEF54FC4F6081718182819381AE
:102F90000E9486098091890490918A0401969093F9
:102FA0008A0480938904E3E0F0E0F093BD02E093AB
:102FB000BC028091BE029091BF0201969093BF0225
:102FC0008093BE0289E592E00E949C09F8CE20E041
:102FD00030E044E352E4C701B6010E94E420181631
:102FE0000CF073C020E030E047E053E4C701B601C5
:102FF0000E94081E87FF69C08FE891E00E94970930
:103000008091890490918A040E94DE0984EA91E00B
:103010000E949709E0918904F0918A04EE0FFF1F46
:10302000EE0FFF1FE752FD4F608171818281938116
:103030000E94830989E791E00E949709E091890441
:10304000F0918A04EE0FFF1FEE0FFF1FEF54FC4FAD
:1030500060817181828193810E9486090091890437
:1030600010918A047801B1E0EB1AF108C801880FC9
:10307000991F880F991FFC01EF54FC4F6F01FC0151
:10308000E355FC4F20E030E040E85FE36081718170
:10309000828193810E948C1FD6016D937D938D93C5
:1030A0009C931397F701EE0FFF1FEE0FFF1FE752E0
:1030B000FD4F80819181A281B381000F111F000F0C
:1030C000111FF801E752FD4F2FCF20E030E047E01D
:1030D00053E4C701B6010E94E42018160CF0A9C001
:1030E00020E030E041E653E4C701B6010E94081E2B
:1030F00087FF9FC08FE891E00E9497098091890423
:1031000090918A040E94DE0984EA91E00E94970966
:10311000E0918904F0918A04EE0FFF1FEE0FFF1F6C
:10312000E752FD4F60817181828193810E94830902
:1031300089E791E00E949709E0918904F0918A045F
:10314000EE0FFF1FEE0FFF1FEF54FC4F60817181E8
:10315000828193810E9486090091890410918A04DA
:10316000C801880F991F880F991FFC01E752FD4F76
:103170007F01FC01EB52FD4F20E030E040E85FE3CF
:1031800060817181828193810E948B1FD7016D9331
:103190007D938D939C931397F801EE0FFF1FEE0F15
:1031A000FF1FE355FC4F80819181A281B381000F05
:1031B000111F000F111FF801EF54FC4F8083918302
:1031C000A283B3838FE891E00E94970980918904DC
:1031D00090918A040E94DE098CEB91E00E9497098D
:1031E000E0918904F0918A04EE0FFF1FEE0FFF1F9C
:1031F000E752FD4F60817181828193810E94830932
:1032000089E791E00E949709E0918904F0918A048E
:10321000EE0FFF1FEE0FFF1FEF54FC4F6081718117
:10322000828193810E94860984ED91E00E94970932
:10323000B1CE20E030E041E653E4C701B6010E9480
:10324000E42018160CF0ABC020E030E84DE953E460
:10325000C701B6010E94081E87FFA1C08FE891E058
:103260000E9497098091890490918A040E94DE0946
:1032700084EA91E00E949709E0918904F0918A0420
:10328000EE0FFF1FEE0FFF1FE752FD4F60817181B0
:10329000828193810E94830989E791E00E949709C6
:1032A000E0918904F0918A04EE0FFF1FEE0FFF1FDB
:1032B000EF54FC4F60817181828193810E94860965
:1032C0000091890410918A047801B1E0EB1AF108A9
:1032D000C801880F991F880F991FFC01EF54FC4FFC
:1032E0006F01FC01E355FC4F20E030E040E85FE374
:1032F00060817181828193810E948B1FD6016D93C1
:103300007D938D939C931397F701EE0FFF1FEE0FA4
:10331000FF1FE752FD4F80819181A281B381000F91
:10332000111F000F111FF801E752FD4F8083918399
:10333000A283B3838FE891E00E949709809189046A
:1033400090918A040E94DE098CEB91E00E9497091B
:10335000E0918904F0918A04EE0FFF1FEE0FFF1F2A
:10336000E752FD4F60817181828193810E948309C0
:1033700089E791E00E949709E0918904F0918A041D
:10338000EE0FFF1FEE0FFF1FEF54FC4F60817181A6
:10339000828193810E94860984EE91E047CF84EF79
:1033A00091E044CF88E191E00E942C0720E030E0DA
:1033B000A9010E94E42018166CF588E191E00E94B2
:1033C0002C0720E030E044E352E40E94E42087FF31
:1033D0002DC086E191E00E942C0720E030E0A90199
:1033E0000E94E42018165CF586E191E00E942C070B
:1033F00020E030E044E352E40E94081E18160CF46A
:10340000E2CC45E050E05093BD024093BC0288E618
:1034100092E0E1CC88E191E00E942C0720E030E0CE
:1034200044E352EC0E94081E18169CF224E030E09F
:103430003093BD022093BC028EE592E0CCCC86E1B5
:1034400091E00E942C0720E030E044E352EC0E941F
:10345000E42087FDB8CCD5CF60E070E086E992E447
:103460000E94C40DAECC60E070E086E992EC0E9450
:10347000C40D882309F4B1CC86E191E00E942C07A9
:1034800020E030E0A9010E94E4201816B4F486E19F
:1034900091E00E942C0720E030E044E352E40E94D7
:1034A000081E18160CF48FCC86E090E09093BD02B5
:1034B0008093BC0284E792E08ECC86E191E00E948A
:1034C0002C0720E030E044E352EC0E94E42087FD2A
:1034D0007ACCEACF60E070E086E992ECC1CFEF28C9
:1034E00009F47BCC0E94AF096090890470908A0433
:1034F000130191E0291A310899ED492E92E0592ED5
:1035000025EBC22E23E0D22E8201F12CE12CE21415
:10351000F3040CF05AC05701AFEFAA1ABA0A4801D7
:10352000B4E08B0E911C6A147B0409F445C0F401CD
:1035300021913191419151914F01D80114966D9192
:103540007D918D919C9117970E94081E811130C02A
:10355000F401EC52FF4F2081318142815381F60109
:1035600060817181828193810E94081E811120C037
:10357000F801C701019634968A159B05CCF4D80151
:1035800014964D915D916D917C9117974083518375
:1035900062837383D6014D915D916D917C91DF01C2
:1035A000A852BF4F4D935D936D937C931397E2CFD9
:1035B000BFEFAB1ABB0AB7CFE2E0EE0EF11C085F1B
:1035C0001F4FF8E0CF0ED11CA2CF0E94AF0981EBB4
:1035D000E82E83E0F82E10E000E081E892E00E94FF
:1035E00097096201D2016D917D918D919D912D017F
:1035F0000E948309F6014081518162817381CE016D
:103600000D960E94140BB801CE0107960E944A0B3A
:103610001A8219821C821B821E821D8241E050E0A8
:1036200065E872E0CE0101960E94890ABE01695FD9
:103630007F4FCE0101960E94560ABE01635F7F4F05
:103640000E94B40ACE0101960E94240ACE01079678
:103650000E94240ACE010D960E94240A87E892E077
:103660000E9497096701D7016D917D918D919D9180
:103670007D010E948609F60140815181628173813A
:10368000CE010D960E94140BB801CE0107960E9440
:103690004A0B1A8219821C821B821E821D8241E003
:1036A00050E06CE872E0CE0101960E94890ABE01EA
:1036B000695F7F4FCE0101960E94560ABE01635F8B
:1036C0007F4F0E94B40ACE0101960E94240ACE01C7
:1036D00007960E94240ACE010D960E94240A0F5FCD
:1036E0001F4F0633110509F078CF1092BF021092D8
:1036F000BE0273CB89E795E00C94240AEF920F93F6
:103700001F93CF93DF93E80134E047FD34E1042EAB
:10371000000C550B57FF03C0519541955109E32EFD
:10372000022F242FAE010E94C11BCE01DF91CF9149
:103730001F910F91EF900895BB274A3031F49923E0
:1037400022F4BDE2909581959F4F0C94A81BBB2756
:10375000FB015527AA27880F991FAA1FA41710F04D
:10376000A41B83955051B9F7A05DAA3308F0A95D59
:10377000A193009779F7B111B1931192CB010C94F9
:10378000F81DA9E0B0E0E7ECFBE10C94321F6A0100
:10379000F22EB02E102FFBE3AF2EA01608F41BE381
:1037A0001F5F012F27E0AE014F5F5F4F0E94201D7A
:1037B000BC018981982F9970913009F43FC09BE238
:1037C000E1FC04C09E2D9170E0FC3AC05E2D50716A
:1037D000E82FE87083FF46C084E0911101C083E0C8
:1037E000EF2DE81B8F1508F0E0E0D6018E2F20E2C8
:1037F000552351F1992329F0D6019C93C6010196D6
:103800006C0196012D5F3F4FE2FE24C08EE4D6018D
:103810008C9391E411969C93119712968C93D901F5
:103820008E2F90E281111BC0E20FF32FF11D108249
:103830008EEF9FEF2996ECE00C944E1F9DE2C6CFD1
:1038400090E2C4CF2D9381508111FCCFCE0ED11CBC
:10385000E0E0D0CF8EE6D6018C9391E6DBCF9D934E
:103860008150E0CF482F447082FF3DC084E0911129
:1038700001C083E08F1510F4EF2DE81BD6018E2FC9
:1038800020E2552309F1992329F0D6019C93C60122
:1038900001966C0196012D5F3F4FE2FE1BC089E44B
:1038A000D6018C938EE411968C93119786E4129630
:1038B0008C93D9018E2F90E2882309F4B5CF9D9384
:1038C0008150FACF2D9381508111FCCFCE0ED11CA7
:1038D000E0E0D9CF89E6D6018C938EE611968C93E1
:1038E000119786E6E4CF9B0177FF02C030E020E02D
:1038F000A1E0B0E0911102C0B0E0A0E0F901319682
:10390000AE0FBF1F8B2C912CBB2009F461C054015A
:10391000EFEFAE1ABE0AAA0DBB1DFA161B0619F070
:1039200014F04F2D4A1B511188C0E3FC59C0760199
:10393000A42FB0E2A1114FC0C40ED11C992309F4E9
:103940005BC040E0D6011196F60190836D015523CE
:1039500009F448C0012F060F9A81582F507184FF37
:1039600003C0913309F4015010160CF047C0093020
:1039700008F008E0EEE2FE2E5B01A01AB108850116
:103980009194819491082F3F320729F4D601FC923B
:10399000F60131966F016217730794F1021713074E
:1039A0007CF5DB01A21BB30BAA24A394B12CAC0EB3
:1039B000BD1EAA0DBB1D11968C9121503109D60157
:1039C000119628153905F4F0F60180836D01DBCFDF
:1039D000B12CA12CA0CFF701B1937F01A150AACFA8
:1039E0009111B0CFD601942F50E302C05D93915056
:1039F0009111FCCFC40ED11C40E0ACCF01E0BACF96
:103A000080E3DBCF6217730731F4963388F4953384
:103A100011F4552369F0F6018083FD01842F90E2B3
:103A2000811108C0A40FB11D1C9290E080E002CF6C
:103A300081E3F1CF91938150F3CF911183CF8ACF5E
:103A4000283008F027E03327DA01990F311D87FD70
:103A5000916000966105710539F432602E5F3D93E7
:103A600030E32A95E1F708959F3F30F080387105E3
:103A7000610509F03C5F3C5F3D93913008F0806840
:103A8000911DDF93CF931F930F93FF92EF92192F06
:103A9000987F9695E92F96959695E90FFF27EC5D0F
:103AA000FE4F99273327EE24FF24A701E701059055
:103AB0000894079428F4360FE71EF81E491F511D7D
:103AC000660F771F881F991F0694A1F7059007942A
:103AD00028F4E70EF81E491F561FC11D770F881FD7
:103AE000991F661F0694A1F70590079428F4F80E15
:103AF000491F561FC71FD11D880F991F661F771FAB
:103B00000694A1F70590079420F4490F561FC71F8C
:103B1000D81F990F661F771F881F0694A9F78491F5
:103B20001095177041F0D695C79557954795F7941E
:103B3000E7941A95C1F7EAECF0E0689415901591B6
:103B400035916591959105907FE27395E118F10AA1
:103B5000430B560BC90BD009C0F7E10CF11E431FF4
:103B6000561FC91FD01D7EF4703311F48A95E6CF1D
:103B7000E894015030F0080F0AF40027021708F407
:103B8000202F2395022F7A3328F079E37D932A950D
:103B9000E9F710C07D932A9589F606949795679565
:103BA000379517951794E118F10A430B560BC90B7B
:103BB000D00998F023957E9173957A3308F070E3DD
:103BC0007C932013B8F77E9170617D9330F08395DC
:103BD00071E37D9370E32A95E1F71124EF90FF9054
:103BE0000F911F91CF91DF91992787FD90950895AF
:103BF000DC01FC01672F71917723E1F7329704C054
:103C00007C916D9370836291AE17BF07C8F30895DE
:103C10000E944A1E08F481E00895E89409C097FBC9
:103C20003EF490958095709561957F4F8F4F9F4F93
:103C30009923A9F0F92F96E9BB279395F6958795D7
:103C400077956795B795F111F8CFFAF4BB0F11F49A
:103C500060FF1BC06F5F7F4F8F4F9F4F16C0882341
:103C600011F096E911C0772321F09EE8872F762F77
:103C700005C0662371F096E8862F70E060E02AF0B8
:103C80009A95660F771F881FDAF7880F96958795A4
:103C900097F90895990F0008550FAA0BE0E8FEEF79
:103CA00016161706E807F907C0F012161306E40700
:103CB000F50798F0621B730B840B950B39F40A26F9
:103CC00061F0232B242B252B21F408950A2609F4D7
:103CD000A140A6958FEF811D811D08950E94811E30
:103CE0000C94F21E0E94E41E38F00E94EB1E20F09D
:103CF000952311F00C94DB1E0C94E11E11240C94FE
:103D0000261F0E94031F70F3959FC1F3950F50E08B
:103D1000551F629FF001729FBB27F00DB11D639F7D
:103D2000AA27F00DB11DAA1F649F6627B00DA11D23
:103D3000661F829F2227B00DA11D621F739FB00DC9
:103D4000A11D621F839FA00D611D221F749F332739
:103D5000A00D611D231F849F600D211D822F762FD2
:103D60006A2F11249F5750409AF0F1F088234AF0AF
:103D7000EE0FFF1FBB1F661F771F881F915050401B
:103D8000A9F79E3F510580F00C94DB1E0C94261F72
:103D90005F3FE4F3983ED4F3869577956795B795A2
:103DA000F795E7959F5FC1F7FE2B880F911D9695BC
:103DB000879597F9089597F99F6780E870E060E02C
:103DC00008959FEF80EC089500240A9416161706B4
:103DD00018060906089500240A94121613061406FC
:103DE00005060895092E0394000C11F4882352F05F
:103DF000BB0F40F4BF2B11F460FF04C06F5F7F4F17
:103E00008F4F9F4F089557FD9058440F551F59F0FD
:103E10005F3F71F04795880F97FB991F61F09F3FB7
:103E200079F087950895121613061406551FF2CFE0
:103E30004695F1DF08C0161617061806991FF1CF30
:103E400086957105610508940895E894BB27662757
:103E50007727CB0197F908952F923F924F925F9267
:103E60006F927F928F929F92AF92BF92CF92DF928A
:103E7000EF92FF920F931F93CF93DF93CDB7DEB7EF
:103E8000CA1BDB0B0FB6F894DEBF0FBECDBF099483
:103E90002A88398848885F846E847D848C849B84DA
:103EA000AA84B984C884DF80EE80FD800C811B81E8
:103EB000AA81B981CE0FD11D0FB6F894DEBF0FBE17
:103EC000CDBFED010895A1E21A2EAA1BBB1BFD0177
:103ED0000DC0AA1FBB1FEE1FFF1FA217B307E407E9
:103EE000F50720F0A21BB30BE40BF50B661F771F41
:103EF000881F991F1A9469F7609570958095909521
:103F00009B01AC01BD01CF010895EE0FFF1F05908D
:103F1000F491E02D09945058BB27AA270E94A31FB3
:103F20000C94F21E0E94E41E38F00E94EB1E20F05A
:103F300039F49F3F19F426F40C94E11E0EF4E09539
:103F4000E7FB0C94DB1EE92F0E94031F58F3BA17FE
:103F5000620773078407950720F079F4A6F50C949F
:103F6000251F0EF4E0950B2EBA2FA02D0B01B901E1
:103F700090010C01CA01A0011124FF27591B99F0DF
:103F8000593F50F4503E68F11A16F040A22F232FEB
:103F9000342F4427585FF3CF469537952795A7953B
:103FA000F0405395C9F77EF41F16BA0B620B730BE2
:103FB000840BBAF09150A1F0FF0FBB1F661F771F53
:103FC000881FC2F70EC0BA0F621F731F841F48F408
:103FD000879577956795B795F7959E3F08F0B0CF91
:103FE0009395880F08F09927EE0F97958795089578
:103FF0000E94A720E3950C94D0200E9411200C94DD
:10400000F21E0E94EB1E58F00E94E41E40F029F4BC
:104010005F3F29F00C94DB1E51110C94261F0C9469
:10402000E11E0E94031F68F39923B1F3552391F316
:10403000951B550BBB27AA2762177307840738F017
:104040009F5F5F4F220F331F441FAA1FA9F335D074
:104050000E2E3AF0E0E832D091505040E695001C28
:10406000CAF72BD0FE2F29D0660F771F881FBB1FE2
:10407000261737074807AB07B0E809F0BB0B802DC0
:10408000BF01FF2793585F4F3AF09E3F510578F0EC
:104090000C94DB1E0C94261F5F3FE4F3983ED4F390
:1040A000869577956795B795F7959F5FC9F7880FC0
:1040B000911D9695879597F90895E1E0660F771F12
:1040C000881FBB1F621773078407BA0720F0621BA3
:1040D000730B840BBA0BEE1F88F7E09508950E94CE
:1040E00076206894B1110C94261F08950E940B1F2E
:1040F00088F09F5798F0B92F9927B751B0F0E1F0A9
:10410000660F771F881F991F1AF0BA95C9F714C058
:10411000B13091F00E94251FB1E008950C94251F45
:10412000672F782F8827B85F39F0B93FCCF3869591
:1041300077956795B395D9F73EF4909580957095EE
:1041400061957F4F8F4F9F4F08950C94E11E0E9401
:104150000B1FD8F3E894E0E0BB279F57F0F02AED5F
:104160003FE049EC06C0EE0FBB0F661F771F881FAC
:1041700028F0B23A62077307840728F0B25A620B3C
:10418000730B840BE3959A9572F7803830F49A9507
:10419000BB0F661F771F881FD2F790480C94F8203A
:1041A000EF93E0FF07C0A2EA2AED3FE049EC5FEBA6
:1041B0000E94A31F0E94F21E0F90039401FC9058CE
:1041C000ECEAF0E00C9404210E944A1E08F48FEF00
:1041D00008959F930E94A7200F9007FCEE5F0C9418
:1041E000D0200E944A1E880B990B08959F3F31F002
:1041F000915020F4879577956795B795880F911D15
:104200009695879597F908959F938F937F936F93D2
:10421000FF93EF939B01AC010E946E1EEF91FF9103
:104220000E9418212F913F914F915F910C946E1E27
:10423000DF93CF931F930F93FF92EF92DF927B0157
:104240008C01689406C0DA2EEF010E94811EFE01E7
:10425000E894A5912591359145915591A6F3EF01EB
:104260000E94A31FFE019701A801DA9469F7DF906D
:10427000EF90FF900F911F91CF91DF9108950F93D1
:104280001F93CF93DF938230910510F482E090E08A
:10429000E0918706F091880630E020E0B0E0A0E0F1
:1042A000309799F42115310509F44AC0281B390BC0
:1042B00024303105D8F58A819B816115710589F11A
:1042C000FB0193838283FE0111C0408151810281F1
:1042D000138148175907E0F04817590799F41097C8
:1042E00061F012960C93129713961C933296CF019D
:1042F000DF91CF911F910F9108950093870610933E
:104300008806F4CF2115310551F04217530738F0D4
:10431000A901DB019A01BD01DF01F801C1CFEF0165
:10432000F9CF9093880680938706CDCFFE01E20FE8
:10433000F31F819391932250310939832883D7CF7A
:104340002091850630918606232B41F420911D0192
:1043500030911E01309386062093850620911B0123
:1043600030911C012115310541F42DB73EB7409124
:104370001F0150912001241B350BE0918506F0911F
:104380008606E217F307A0F42E1B3F0B2817390708
:1043900078F0AC014E5F5F4F2417350748F04E0FA1
:1043A0005F1F5093860640938506819391939FCF1C
:1043B000F0E0E0E09CCFCF93DF930097E9F0FC01C1
:1043C000329713821282A0918706B0918806ED0180
:1043D00030E020E01097A1F420813181820F931FFB
:1043E00020918506309186062817390709F061C0AB
:1043F000F0938606E0938506DF91CF910895EA0158
:10440000CE17DF07E8F54A815B819E014115510512
:10441000B1F7E901FB83EA8349915991C40FD51F94
:10442000EC17FD0761F4808191810296840F951F3E
:10443000E90199838883828193819B838A83F0E059
:10444000E0E012968D919C9113970097B9F52D910C
:104450003C911197CD010296820F931F2091850602
:10446000309186062817390739F6309751F51092A2
:10447000880610928706B0938606A0938506BCCF67
:10448000D383C28340815181840F951FC817D907F8
:1044900061F44E5F5F4F88819981480F591F5183A6
:1044A00040838A819B81938382832115310509F0A2
:1044B000B0CFF0938806E09387069ECFFD01DC0124
:1044C000C0CF13821282D7CFB0E0A0E0EAE6F2E2DA
:1044D0000C942E1F8C01009751F4CB010E943F21B8
:1044E0008C01C801CDB7DEB7E0E10C944A1FFC0196
:1044F000E60FF71F9C0122503109E217F30708F479
:104500009DC0D901CD91DC911197C617D70798F0BE
:10451000C530D10530F3CE0104978617970708F30D
:10452000C61BD70B2297C193D1936D937C93CF0178
:104530000E94DB21D6CF5B01AC1ABD0A4C018C0E68
:104540009D1EA0918706B0918806512C412CF12C1C
:10455000E12C109731F5809185069091860688159B
:10456000990509F05CC04616570608F058C08091BE
:104570001B0190911C01009741F48DB79EB74091AB
:104580001F0150912001841B950BE817F90708F0D3
:1045900055C0F0938606E0938506F9017183608328
:1045A000A0CF8D919C91119712966C9012971396B3
:1045B0007C901397A815B90559F56C0142E0C40E1B
:1045C000D11CCA14DB0420F1AC014A195B09DA01E1
:1045D0001296159780F06282738251834083D901CD
:1045E0006D937C93E114F10471F0D7011396FC9361
:1045F000EE93129776CF22968C0F9D1FF90191832F
:104600008083F301EFCFF0938806E093870669CFAC
:104610004816590608F42C017D01D3019ACFCB012D
:104620000E943F217C01009749F0AE01B8010E9431
:104630002623C8010E94DB21870153CF10E000E050
:1046400050CF81E090E0F8940C943623FB01DC011C
:1046500002C001900D9241505040D8F70895FB01DF
:10466000DC0101900D920020E1F7089511E0CCE605
:10467000D1E004C0FE010E94851F2196CD36D107EE
:06468000C9F7F894FFCF1A
:10468600FFFFFFFF00E1000000000000A902A902F1
:10469600A902A902A90212001200010000890680DF
:1046A6000000C18081000000000000000E046F03BE
:1046B6009C035A04CD03AB03BF0300000000FF04B4
:1046C6007A0420051505660524054205000000004C
:1046D600A50600000000760B6E616E00696E66002E
:1046E6006F7666000D0A00544845204D4150204F14
:1046F60048204D5920474F44002020004452495637
:10470600455F4C494E450068656164696E670043C4
:10471600757272656E7420436F6F7264696E617430
:10472600653A20004F6C6420436F6F7264696E6156
:104736007465733A2028782C792920004E657720F5
:10474600436F6F7264696E617465733A2028782CC2
:1047560079292000313830206465677265652063E9
:104766006173650032373020646567726565206362
:10477600617365003C3C3C3C3C3C3C3C3C3C3C3C2A
:104786003C3C3C3C3C3C3C3C3C3C3C3C3C3C3C3C63
:104796003C3C5F5F5F5F5F5F5F5F5F5F5F5F5F5F69
:1047A6005F5F5F5F5F6572726F725F5F5F5F5F5FC4
:1047B6005F5F5F5F5F5F5F5F5F5F5F3E3E3E3E3EA8
:1047C6003E3E3E3E3E3E3E3E3E3E3E3E3E3E3E3E03
:1047D6003E3E3E3E3E3E3E3E005455524E004F50FB
:1047E600454E5F4C45465400434C4F5345445F4C41
:1047F60045465400434C4F5345445F46524F4E5432
:0E48060000583A2000580020593A200059006E
:00000001FF
