:100000000C946D010C94D4140C94AD140C948614BF
:100010000C945F140C9495010C9495010C94381475
:100020000C9495010C94F4170C94FB140C946A1521
:100030000C9495010C9495010C9495010C949501E8
:100040000C9495010C9495010C9495010C949501D8
:100050000C9495010C9495010C9495010C94EE135D
:100060000C9495010C94C2170C949C170C94950158
:100070000C9495010C9495010C9495010C949501A8
:100080000C9495010C9495010C9495010C94950198
:100090000C94D3120C9495010C9495010C94950139
:1000A0000C9495010C9495010C94950105A84CCDE8
:1000B000B2D44EB93836A9020C50B9918688083CA2
:1000C000A6AAAA2ABE000000803F00407A10F35A78
:1000D00000A0724E18090010A5D4E80000E8764888
:1000E000170000E40B54020000CA9A3B000000E134
:1000F000F505000080969800000040420F000000C7
:10010000A08601000000102700000000E8030000A6
:1001100000006400000000000A0000000000010070
:10012000000000002C76D888DC674F0823DFC1DF91
:10013000AE59E1B1B796E5E3E453C63AE651997694
:1001400096E8E6C28426EB898C9B62ED407C6FFCCE
:10015000EFBC9C9F40F2BAA56FA5F490055A2AF710
:100160005C936B6CF9676DC11BFCE0E40D47FEF519
:1001700020E6B500D0ED902E030094357705008081
:10018000841E080000204E0A000000C80C333333E0
:10019000330F986E12831141EF8D2114893BE65580
:1001A00016CFFEE6DB18D1844B381BF77C1D901D63
:1001B000A4BBE424203284725E228100C9F124ECC5
:1001C000A1E53D27000000002300260029002C00A7
:1001D0002F00080B000202020000090400000102C7
:1001E000020000052400100105240101010424027D
:1001F00006052406000107058103100040090401DB
:1002000000020A0000000705020240000007058303
:10021000024000000403090412010002EF02014041
:10022000FB1F0023000101020301506F6C6F6C750E
:1002300020436F72706F726174696F6E00506F6CE3
:100240006F6C7520412D5374617220333255340028
:10025000070605040100080A0B0C0D090000000048
:10026000240027002A002D00300000000000250097
:1002700028002B002E0031000404040404030405AC
:100280000202020204030202020206060606060633
:100290000404020202040404080201104080401019
:1002A000204080408008020401804020100201109C
:1002B0008010204040200000000200090F000003D1
:1002C0000401000C0000000000000000000000001D
:1002D0000000000000007018812111241FBECFEF24
:1002E000DAE0DEBFCDBF27E0ACE1B3E001C01D9294
:1002F000A13DB207E1F713E0A0E0B1E0E4E9F2E5E7
:1003000002C005900D92AC31B107D9F711E0CCE6EF
:10031000D1E004C02197FE010E948C25CB36D10785
:10032000C9F70E948B190C943D290C9400006F9220
:100330007F928F929F92AF92BF92CF92DF92EF9275
:10034000FF920F931F93CF93DF938090AC05909013
:10035000AD05340181E0681A7108CCEFD3E088ED77
:10036000E82E84E0F82E10E000E0061517050CF0EA
:1003700052C06801AFEFCA1ADA0A5E01B4E0AB0EF0
:10038000B11C8C149D0409F43FC0F50121913191F9
:10039000419151915F016C817D818E819F810E948D
:1003A0000F2481112DC0F501EC52FF4F20813181C6
:1003B00042815381D7016D917D918D919C910E94D5
:1003C0000F2481111DC0FE01C801019634968C15C1
:1003D0009D05B4F44C815D816E817F8140835183A2
:1003E00062837383D7014D915D916D917C91DF01A3
:1003F000A852BF4F4D935D936D937C931397E5CFB8
:10040000BFEFCB1ADB0ABDCF0E5F1F4F2896E8E087
:10041000EE0EF11CAACFDF91CF911F910F91FF90AB
:10042000EF90DF90CF90BF90AF909F908F907F9094
:100430006F900895FC018091AD03882311F13FB7BF
:10044000F89482E08093E9002091F200822F90E0FE
:100450001816190614F481E090E0882339F02898E2
:1004600044E64093AC034091F1004083222339F0ED
:100470002091F200211103C02BE62093E8003FBF3A
:1004800008958FEF9FEF08952FB7F89483E080933E
:10049000E9009091E800892F807295FF04C0909147
:1004A000F20080E4891B2FBF089520918903260F55
:1004B0003327331F21323105ECF42091F403FC0182
:1004C00090E080E0243069F082E00895A0918903F3
:1004D0002191AC0147595C4FA40FB52FB11D2C934E
:1004E0000196861798F380918903680F60938903BA
:1004F00080E0089581E008950895E0916703809178
:100500006603E81730F4F0E0EC52FC4F808190E095
:1005100008958FEF9FEF0895909167038091660390
:100520002FEF3FEF981748F4E92FF0E0EC52FC4F23
:10053000208130E09F5F90936703C9010895809107
:10054000660390916703891B990B0895CF93DF93FE
:10055000CB01EA01642F0E945502CE01DF91CF91B9
:100560000895CF93DF931F92CDB7DEB7698361E023
:10057000CE0101960E94550281E090E00F90DF913C
:10058000CF91089580915E0381110DC082E0809328
:100590005A0384E080935B0310925D0310925C0326
:1005A00081E080935E038AE593E0089581508F3067
:1005B00008F047C0E82FF0E0E052FD4F0C948C2586
:1005C000FD020103EF02F502F902210321032103D9
:1005D00004030A030E031203180321031C03809172
:1005E00080008F77809380000895809180008F7DB8
:1005F000F9CF80918000877FF5CF84B58F7784BD58
:10060000089584B58F7DFBCF809190008F77809384
:1006100090000895809190008F7DF9CF8091900097
:10062000877FF5CF8091C0008F778093C0000895B9
:100630008091C0008F7DF9CF8091C200877F809329
:10064000C20008951F93CF93DF93282F30E0F90164
:10065000EA54FD4F8491F901E956FD4FD491F90117
:10066000E858FD4FC491CC23A9F0162F81110E94A8
:10067000D602EC2FF0E0EE0FFF1FE659FD4FA591DB
:10068000B4918FB7F894EC91111108C0D095DE2386
:10069000DC938FBFDF91CF911F910895DE2BF8CFB0
:1006A0001F93CF93DF93C1E0C0936803882399F130
:1006B000D091B8001091BA008091BC008A7B8093E1
:1006C000BC0060E082E00E94220360E083E00E94C0
:1006D00022031092F403C093D3031092CE0361E07F
:1006E00082E00E94220361E083E00E942203809165
:1006F000B9008E7F8093B9008091B9008D7F80937F
:10070000B90088E48093B80085E48093BC0010931E
:10071000BA00D093B800DF91CF911F910895CF9385
:10072000DF9390E0FC01E956FD4F249188589D4FDE
:10073000FC0184918823C9F090E0880F991FFC0187
:10074000E45AFD4FA591B491FC01E659FD4FC591C6
:10075000D49161110DC09FB7F8948C91209582239C
:100760008C938881282328839FBFDF91CF910895A0
:10077000623051F49FB7F8943C91822F8095832387
:100780008C93E8812E2BEFCF8FB7F894EC912E2B22
:100790002C938FBFEACF823108F08251E82FF0E02E
:1007A000E05BFD4FE49190917B008E2F880F880FC6
:1007B00080729F7D892B80937B00E770E064E093DB
:1007C0007C0080917A00806480937A0080917A0026
:1007D00086FDFCCF809178009091790008953FB715
:1007E000F8948091560390915703A0915803B091CB
:1007F000590326B5A89B05C02F3F19F00196A11DEE
:10080000B11D3FBFBA2FA92F982F8827BC01CD015A
:10081000620F711D811D911D42E0660F771F881FB9
:10082000991F4A95D1F708958F929F92AF92BF92E8
:10083000CF92DF92EF92FF920F931F93CF93DF93AC
:10084000D82FC62F142F613208F09CC00E94EF03EE
:100850006B017C018091F40381116FC081E0809372
:10086000F4031093D3039FEF9093D2031092D1031C
:100870009C0F9093D0038093CF038091CF03DD0F23
:10088000D82BD093CF038091CE03813009F07CC068
:100890001092CE030E94EF036B017C018091CF0385
:1008A0008093BB008091F6039091F703A091F80329
:1008B000B091F903892B8A2B8B2BA1F00E94EF03B7
:1008C0000091F6031091F7032091F8033091F9039A
:1008D0006C197D098E099F09061717072807390724
:1008E00008F44CC08091BC0083FDD8CF85EC809388
:1008F000BC000E94EF036B017C018091F403813006
:1009000009F444C08091D1038C1710F4C091D10335
:10091000EEEAF3E0A4EDB3E080E08C1359C08C2F35
:10092000DF91CF911F910F91FF90EF90DF90CF90CB
:10093000BF90AF909F908F9008958091F603909113
:10094000F703A091F803B091F903892B8A2B8B2B25
:1009500009F480CF0E94EF038090F6039090F70394
:10096000A090F803B090F9036C197D098E099F09D6
:1009700086169706A806B90608F06CCF8091F50395
:100980000E945003C0E0CBCF85EEB1CF8091F6033B
:100990009091F703A091F803B091F903892B8A2B6A
:1009A0008B2B09F4AACF0E94EF030091F60310915C
:1009B000F7032091F8033091F9036C197D098E0932
:1009C0009F09061717072807390708F096CFD6CFD3
:1009D00091919D938F5FA1CF8F929F92AF92BF9283
:1009E000CF92DF92EF92FF924B015C010E94EF03E6
:1009F0006B017C010E94EF036C197D098E099F0930
:100A0000683E734081059105A8F321E0821A9108A0
:100A1000A108B10888EEC80E83E0D81EE11CF11CC5
:100A200081149104A104B10429F7FF90EF90DF90A5
:100A3000CF90BF90AF909F908F9008952FB7F8946C
:100A40006091520370915303809154039091550328
:100A50002FBF089508954091460350914703209178
:100A600044033091450342175307B4F49091E800D2
:100A70009570E1F39091E80092FD19C08093F10028
:100A8000809146039091470301968F739927892B94
:100A900019F48EEF8093E80080914603909147030C
:100AA0000196909347038093460381E0089580E088
:100AB0000895EF92FF920F931F93CF93DF93F82E39
:100AC000192FE62E042F81E0860F880F0E942B0538
:100AD00083E00E942B05CF2DD12FEC0EFD2EF11CB3
:100AE000CE15DF05B9F007FF13C0FE0184910E9407
:100AF0002B05182F80E00E942B0581232196811160
:100B0000EFCFDF91CF911F910F91FF90EF9008955C
:100B10008881EDCF81E0F5CFDF92EF92FF920F93C6
:100B20001F93CF93DF93D82E8A01EB017B01E40E54
:100B3000F51ECE15DF0559F0D7FE12C0FE018491D7
:100B40000E942B0521968111F4CF0FEF1FEFC801F2
:100B5000DF91CF911F910F91FF90EF90DF9008955B
:100B60008881EECF0F931F93CF93DF931F92CDB762
:100B7000DEB782E0898342E450E062ED71E080E814
:100B80000E948C050E94C202DC0112960D911C91FC
:100B90000115110589F0D801ED91FC910280F381D6
:100BA000E02DBE016F5F7F4FC801099597FD04C01E
:100BB000F80100851185ECCF89810F90DF91CF91ED
:100BC0001F910F910895615030F02091F100FC01C8
:100BD00020830196F8CF289884E68093AC0308958B
:100BE000AF92BF92CF92DF92EF92FF920F931F933B
:100BF000CF93DF936C017B018B01040F151FEB0179
:100C00005E01AE18BF08C017D10759F06991D6012F
:100C1000ED91FC910190F081E02DC6010995892BA1
:100C200079F7C501DF91CF911F910F91FF90EF9060
:100C3000DF90CF90BF90AF90089590E080E008954E
:100C4000FC01538D448D252F30E0842F90E0821BD2
:100C5000930B541710F0CF96089501970895FC0157
:100C6000918D828D981761F0A28DAE0FBF2FB11DAF
:100C70005D968C91928D9F5F9F73928F90E0089507
:100C80008FEF9FEF0895FC01918D828D981731F0C1
:100C9000828DE80FF11D858D90E008958FEF9FEF15
:100CA0000895FC01918D228D892F90E0805C9F4FEB
:100CB000821B91098F73992708958AEB95E00E9412
:100CC000510621E0892B09F420E0822F089580E06D
:100CD00090E0892B29F00E945D0681110C940000A0
:100CE0000895FC01A48DA80FB92FB11DA35ABF4FC1
:100CF0002C91848D90E001968F739927848FA6891B
:100D0000B7892C93A089B1898C9182748C93938D2F
:100D1000848D981306C00288F389E02D80818F7D31
:100D200080830895EF92FF920F931F93CF93DF93E9
:100D3000EC0181E0888F9B8D8C8D981319C0E88918
:100D4000F989808185FF14C09FB7F894EE89FF89E7
:100D50006083E889F9898081827480839FBF81E004
:100D600090E0DF91CF911F910F91FF90EF90089548
:100D7000F62E0B8D10E00F5F1F4F0F731127E02E23
:100D80008C8D8E110CC00FB607FCFACFE889F9895B
:100D9000808185FFF5CFCE010E947106F1CFEB8DEA
:100DA000EC0FFD2FF11DE35AFF4FF0829FB7F8942F
:100DB0000B8FEA89FB8980818062CFCFCF93DF934D
:100DC000EC01888D8823B9F0AA89BB89E889F98963
:100DD0008C9185FD03C0808186FD0DC00FB607FC98
:100DE000F7CF8C9185FFF2CF808185FFEDCFCE01CB
:100DF0000E947106E9CFDF91CF9108958F929F9263
:100E0000AF92BF92CF92DF92EF92FF920F931F9318
:100E1000CF93DF936C017B018A0180910B018823C2
:100E200009F45CC08091AD03882309F457C0809118
:100E30004A0380FF05C08091E00082608093E0005B
:100E4000E801B12C8AEFA82E93E0892E2AE3922E96
:100E5000209711F4BB20D9F10E94440281110AC0ED
:100E6000AA94AA20D9F161E070E080E090E00E94AD
:100E7000EC04EECF8C171D0611F00CF08C2F9FB7F1
:100E8000F8948092E9002091E80025FD02C09FBF00
:100E9000DFCF282F30E0C21BD30BF701815020F0A9
:100EA00041914093F100FACFE20EF31EBB2021F0F6
:100EB0009092E800B12CEBCF8091E80085FDE7CF60
:100EC0009092E800BB24B394209709F3F3CF5D9888
:100ED00084E680934903101611063CF081E090E00F
:100EE000F6019383828310E000E0C801DF91CF9187
:100EF0001F910F91FF90EF90DF90CF90BF90AF9038
:100F00009F908F900895CF93DF931F92CDB7DEB758
:100F10006983DC01ED91FC910280F381E02D41E0D9
:100F200050E0BE016F5F7F4F09950F90DF91CF9129
:100F3000089583E08093E9008091F200882319F0FE
:100F40008AE38093E80008950E94440290E00895A7
:100F5000CF93DF931F92CDB7DEB7FC0184859585D3
:100F600097FD08C02FEF3FEF358724870F90DF9163
:100F7000CF910895CE0101960E941A02019719F4AB
:100F8000898190E0F3CF8FEF9FEFF0CF0F931F9306
:100F9000CF93DF931F92CDB7DEB78C01FC01848520
:100FA000958597FF0BC0CE0101960E941A0201970A
:100FB00071F4898190E0F80195878487F801848530
:100FC00095850F90DF91CF911F910F9108958FEF2D
:100FD0009FEFF1CFFC018485958597FD0BC09FB7EE
:100FE000F89482E08093E9008091F2009FBF90E046
:100FF000019608959FB7F89482E08093E90080916C
:10100000F2009FBF90E008952E98269A2D98259A79
:101010002A98229A2998219A2F98279A8AEA8093C7
:10102000800089E18093810084EA91E090938700B9
:1010300080938600109289001092880010928B0095
:1010400010928A0010928D0010928C0008950F93D8
:101050001F93CF93DF938C01EB01809133038111B8
:1010600005C081E0809333030E94040880E017FFED
:1010700004C011950195110981E00D3291E0190725
:1010800014F00CE211E010938B0000938A00882387
:1010900029F12A9A229A80913303811105C081E0B7
:1010A000809333030E94040880E0D7FF04C0D195E9
:1010B000C195D10981E0CD3291E0D90714F0CCE29D
:1010C000D1E0D0938900C0938800882349F0299A01
:1010D000219ADF91CF911F910F9108952A98DACF2D
:1010E0002998F6CF8CB1282F30E035952795359586
:1010F0002795422F417083B190E054E095958795F4
:101100005A95E1F782278170209131039091320343
:1011100060912F037091300324279827291B330BEC
:10112000260F371F3093300320932F032091310374
:1011300090913203281729F0941719F091E09093B9
:101140002E03809331034093320308959FB1917031
:101150008CB186FB882780F9892720912C03309158
:101160002D0340912A0350912B0329273827231B55
:10117000330B240F351F30932B0320932A03309118
:101180002C0320912D03381729F0291719F021E09D
:101190002093290380932C0390932D030895249882
:1011A0002C9A6A98729A6E98769A8098889AF8948F
:1011B00091E090936800EBE6F0E0808180618083AD
:1011C00022E738E030933D0320933C039BBB8091A2
:1011D000A7068F7E8093A70683B19091A7068071A2
:1011E000892B8093A706789486EA98E0909315015E
:1011F00080931401EAE6F0E080818F7C8061808337
:10120000EE9A8CB182FB882780F98093320393B1E8
:1012100080913203929591708927809331031092C7
:10122000300310922F0310922E038FB181708093A0
:101230002D039CB180912D0396FB992790F9892766
:1012400080932C0310922B0310922A0310922903EF
:1012500008950F931F93CF93DF93EC01888581113D
:101260000EC0898591E098879A8562E0911101C04E
:1012700060E00E948F038FE090E00197F1F72985ED
:1012800030E0F901EA54FD4F8491F901E956FD4F30
:101290000491F901E858FD4F14911123C9F081110F
:1012A0000E94D602E12FF0E0EE0FFF1FEC53FE4F3D
:1012B000A591B491EC910E2331E009F430E0832F35
:1012C0002B8582278170DF91CF911F910F91089517
:1012D00080E0F6CF0F931F93CF93DF93EC01E8816B
:1012E000F9810190F081E02D099501E0182F102778
:1012F0000E941E052D81213091F030F02230E9F05E
:10130000233009F110E005C01111FCCF7F836E83FB
:101310000D83812FDF91CF911F910F91089511239C
:1013200011F01D82EFCF2E813F81621B730B6F3056
:10133000710578F382E08D83E5CF112351F37F832C
:101340006E8383E0F8CF1123A9F32E813F81621BC6
:10135000730B6F307105B0F21D82DBCFFC01808111
:101360000E94CB03BC01990F880B990B0E94162495
:1013700020E030EC4FE754E40E94042620E030E007
:1013800040EA50E40E94752421E73DE34AE05FE330
:101390000E94922527ED33EA46E851E40E94042694
:1013A0009B01AC0160E070E080E89FE30E940426AE
:1013B0000895CF92DF92EF92FF92CF93DF93EC01EB
:1013C0000E941E056B017C018091230390912403F0
:1013D000A0912503B0912603B701A601481B590B24
:1013E0006A0B7B0B8C859D85092E000CAA0BBB0B11
:1013F000481759076A077B0708F448C08091FA0329
:101400009091FB03909322038093210380911F030B
:101410009091200390931E0380931D0380911C03E1
:10142000811105C081E080931C030E94CF08F894CD
:1014300080912F039091300378949093FB038093D5
:10144000FA0380911C03811105C081E080931C0385
:101450000E94CF08F89480912A0390912B037894EE
:101460009093200380931F030E941E05C0922303C4
:10147000D0922403E0922503F092260381E0DF91CD
:10148000CF91FF90EF90DF90CF90089580E0F7CF5D
:10149000CF92DF92EF92FF92CF93DF93EC012881FE
:1014A00039814A815B81688579858A859B850E941F
:1014B00004266B017C0160911F03709120038091D1
:1014C0001D0390911E03681B790B072E000C880BDF
:1014D000990B0E9416249B01AC01C701B6010E9422
:1014E00075246B017C016C857D85072E000C880BB3
:1014F000990B0E94162420E030E04AE754E40E9451
:1015000004269B01AC01C701B6010E940426DF91AD
:10151000CF91FF90EF90DF90CF900895CF92DF9220
:10152000EF92FF92CF93DF93EC01288139814A81BA
:101530005B81688579858A859B850E9404266B017D
:101540007C016091FA037091FB03809121039091DB
:101550002203681B790B072E000C880B990B0E9445
:1015600016249B01AC01C701B6010E9475246B01D2
:101570007C016C857D85072E000C880B990B0E94E1
:10158000162420E030E04AE754E40E9404269B0140
:10159000AC01C701B6010E940426DF91CF91FF90F4
:1015A000EF90DF90CF900895CF93DF93EC01888187
:1015B0009981009711F00E94E227198218821D82FA
:1015C0001C821B821A82DF91CF910895FC018081D9
:1015D0009181009711F00C94E227089585ED809396
:1015E000BC008091F6039091F703A091F803B091AD
:1015F000F9030796A11DB11D23E0B695A795979510
:1016000087952A95D1F72091BC0024FD03C0109244
:10161000F40308954091F6035091F7036091F803A5
:101620007091F903452B462B472B69F30097A105D1
:10163000B10541F02AE22A95F1F700C00197A1090E
:10164000B109E1CF8091F5030C945003CF93DF9360
:10165000A2EEB0E09C911C92E9EEF0E020811082B5
:10166000C0EFD0E03881188240E02899416020998D
:1016700042602098289A80E18A95F1F783B141FB76
:101680000EF0209840FB0EF028980EF4289A41FBAB
:101690000EF4209A1082388320839C938095817069
:1016A000DF91CF910895CF93DF93A2EEB0E09C91AC
:1016B0001C92E9EEF0E020811082C0EFD0E038818A
:1016C000188240E05D9941605599426055985D9A55
:1016D00080E18A95F1F789B141FB0EF0559840FB06
:1016E0000EF05D980EF45D9A41FB0EF4559A10824F
:1016F000388320839C9390E025E0959587952A95E3
:10170000E1F7809590958170DF91CF9108950E94C7
:101710002829FB0101900020E9F73197AF01461B12
:10172000570BDC01ED91FC910280F381E02D0994CF
:101730008F929F92AF92BF920F931F93CF93DF939D
:10174000CDB7DEB7A1970FB6F894DEBF0FBECDBF01
:1017500019A2423008F44AE08E010F5D1F4F842E1B
:10176000912CB12CA12CA50194010E946A25E62F91
:10177000B901CA01EA3004F5E05DD801EE938D01AC
:10178000232B242B252B79F790E080E0109729F06C
:10179000BD0187E596E00E94890BA1960FB6F894EB
:1017A000DEBF0FBECDBFDF91CF911F910F91BF90D4
:1017B000AF909F908F900895E95CDFCF4F925F923A
:1017C0006F927F928F929F92AF92BF92CF92DF9251
:1017D000EF92FF920F931F93CF936B017C01742EB6
:1017E000AC019B010E94F82660E771E0811126C0E0
:1017F00046015701E894B7F82FEF3FEF4FE75FE757
:10180000C501B4010E94F82681110CC02FEF3FEFF3
:101810004FE75FE7C501B4010E940F2464E771E060
:10182000181664F02FEF3FEF4FE75FE4C701B601F2
:101830000E94EB261816ACF468E771E087E596E0A5
:10184000CF911F910F91FF90EF90DF90CF90BF90BD
:10185000AF909F908F907F906F905F904F900C947F
:10186000890B2FEF3FEF4FE75FECC701B6010E94F6
:101870000F2487FDE1CF20E030E0A901C701B601C8
:101880000E940F2410E000E087FF0AC06DE287E5A8
:1018900096E00E9483078C01F7FAF094F7F8F09431
:1018A000C0E060E070E080E09FE37C1641F020E063
:1018B00030E040E251E40E940426CF5FF6CFA7015A
:1018C00096010E9493252B013C010E947D264B012D
:1018D0005C014AE00E94980B7C01E00EF11ECC23D3
:1018E000C1F1C501B4010E9414249B01AC01C301E4
:1018F000B2010E9492254B015C016EE287E596E001
:101900000E948307E80EF91EC15018F120E030E074
:1019100040E251E4C501B4010E9475242B013C0151
:101920000E947D264B01B12CA12C4AE0C501B401D7
:101930000E94980BE80EF91EC501B4010E94142400
:101940009B01AC01C301B2010E9492254B015C01D5
:10195000DBCFC701CF911F910F91FF90EF90DF90E8
:10196000CF90BF90AF909F908F907F906F905F903F
:101970004F90089542E00C94DE0BCF93DF9342E04A
:101980000E94DE0BEC016CE771E087E596E00E94B7
:10199000890B8C0F9D1FDF91CF910895BC0187E5C6
:1019A00096E00C94890BCF93DF93BC0187E596E01A
:1019B0000E94890BEC016CE771E087E596E00E94DC
:1019C000890B8C0F9D1FDF91CF9108950F931F936B
:1019D000CF93DF938FE791E00E94D30C0CEF13E0DD
:1019E000D0E0C0E08091AC059091AD05C817D90753
:1019F000BCF4F80161917191819191918F010E94E4
:101A0000BA0C81E991E00E94CE0CF801EC52FF4F34
:101A100060817181828193810E94BD0C2196E2CF09
:101A2000DF91CF911F910F910895CF92DF92EF92A6
:101A3000FF92CF93DF936C01990FEE08FF08F7FE3A
:101A400021C06DE287E596E00E948307EC016627DE
:101A50007727CB016C197D098E099F094AE00E9406
:101A6000980BC80FD91F6CE771E087E596E00E94DC
:101A7000890B8C0F9D1FDF91CF91FF90EF90DF902E
:101A8000CF9008954AE0C701B6010E94980BEC017F
:101A9000EACF0F931F93CF93DF93EC018881998155
:101AA000009759F02A813B812617370730F081E0F3
:101AB000DF91CF911F910F9108958B016F5F7F4F41
:101AC0000E946B28009759F0998388831B830A83AF
:101AD0002C813D81232B59F7FC011082E8CF80E057
:101AE000E7CFEF92FF920F931F93CF93DF93EC0119
:101AF000FB01E080F180E114F10411F10481158112
:101B000001151105A9F08C819D81080F191FB801DD
:101B1000CE010E94490D882399F0288139818C815A
:101B20009D81B701820F931F0E9436291D830C836C
:101B3000CE01DF91CF911F910F91FF90EF9008950B
:101B4000CE010E94D40AF4CFEF92FF920F931F931D
:101B5000CF93DF93EC017B018A01BA010E94490D0A
:101B600081110BC0CE010E94D40ACE01DF91CF912A
:101B70001F910F91FF90EF9008951D830C83B70183
:101B8000888199810E943629F0CFFB0101900020C5
:101B9000E9F73197AF01461B570B0C94A40DEF9258
:101BA000FF920F931F93CF93DF93CDB7DEB72C97A0
:101BB0000FB6F894DEBF0FBECDBF8C017B011A8239
:101BC00019821C821B821E821D828AE38F831886E3
:101BD000BE01695F7F4FCE0101960E94C50D188638
:101BE0001F821A8619861C861B86F8016081718106
:101BF0006115710531F044815581CE0107960E942F
:101C0000A40DBE016F5F7F4FCE0107960E94710D3C
:101C1000B7010E94710DFC01448155816081718181
:101C20008AEB95E00E94F0056CE771E08AEB95E0A5
:101C30000E94890BCE0107960E94E60ACE0101960A
:101C40000E94E60A2C960FB6F894DEBF0FBECDBFF9
:101C5000DF91CF911F910F91FF90EF900895EF9238
:101C6000FF920F931F93CF93DF93CDB7DEB7A1976A
:101C70000FB6F894DEBF0FBECDBF7C01CB01BA0119
:101C8000F7011182108213821282158214828E0152
:101C90000F5F1F4F22E044E00E948521009789F0EA
:101CA000BC01C7010E94C50DA1960FB6F894DEBF16
:101CB0000FBECDBFDF91CF911F910F91FF90EF909D
:101CC0000895C7010E94D40AEFCF0F931F93CF93BB
:101CD000DF93CDB7DEB762970FB6F894DEBF0FBEC5
:101CE000CDBF8C01CB01F8011182108213821282C8
:101CF000158214824AE0BE016F5F7F4F0E94A321CC
:101D0000BE016F5F7F4FC8010E94C50D62960FB67E
:101D1000F894DEBF0FBECDBFDF91CF911F910F9121
:101D20000895FC011182108213821282158214829E
:101D3000FB0101900020E9F73197AF01461B570BDB
:101D40000C94A40DCF92DF92EF92FF920F931F930A
:101D5000CF93DF93CDB7DEB767970FB6F894DEBFAA
:101D60000FBECDBF8BE891E00197F1F741E061E054
:101D700082E10E941404109267038093660310E0CE
:101D8000813029F48EEA95E00E948C02182F84E9B4
:101D900091E00E94D30C112309F462C083EE93E01A
:101DA0000197F1F741E060E182E10E941404109292
:101DB000670380936603803109F052C08E010F5F84
:101DC0001F4F6E0181E1C80ED11C78018EEA95E0AB
:101DD0000E948C02F80181938F01CE16DF06B1F7C5
:101DE0000D811E81B80190E080E04AE00E94980BCE
:101DF0006CE771E087E596E00E94890B1B8A1A8ADE
:101E00001D8A1C8A1F8A1E8A4AE0B701C8010E94E7
:101E1000AE21B701CE0142960E94C50D6BE971E07B
:101E2000C7010E94910EBE016E5E7F4FC7010E94E6
:101E3000CF0DC7010E94E60ACE0142960E94E60A33
:101E4000802F67960FB6F894DEBF0FBECDBFDF912F
:101E5000CF911F910F91FF90EF90DF90CF90089559
:101E6000F0CFEF92FF920F931F93CF93DF93CDB7F5
:101E7000DEB762970FB6F894DEBF0FBECDBF0E94EB
:101E8000A20E843009F083C084EA91E00E94CE0C57
:101E900081E08093280380912703882371F081E0FB
:101EA00062960FB6F894DEBF0FBECDBFDF91CF9123
:101EB0001F910F91FF90EF9008950E9497018CEF72
:101EC000E82E83E0F82E10E000E0F70141915191F7
:101ED000619171917F01CE010D960E942F0EB80184
:101EE000CE0107960E94650E62EB71E0CE0101966D
:101EF0000E94910EBE01695F7F4FCE0101960E9444
:101F0000710DBE01635F7F4F0E94CF0DCE01019620
:101F10000E94E60ACE0107960E94E60ACE010D96BF
:101F20000E94E60AF701EC52FF4F40815181628125
:101F30007381CE010D960E942F0EB801CE01079637
:101F40000E94650E63EE71E0CE0101960E94910E33
:101F5000BE01695F7F4FCE0101960E94710DBE01E7
:101F6000635F7F4F0E94CF0DCE0101960E94E60A6B
:101F7000CE0107960E94E60ACE010D960E94E60A5F
:101F80000F5F1F4F0633110509F09FCF88CF80E008
:101F900087CF0E94A20E833091F484EB91E00E94DF
:101FA000CE0C80912803882339F081E080934E0382
:101FB00081E080932703089510924E03F9CF80E0CB
:101FC00008954F925F926F927F928F929F92AF92FD
:101FD000BF92CF92DF92EF92FF920F931F93CF9316
:101FE000DF93CDB7DEB76A970FB6F894DEBF0FBEAA
:101FF000CDBF9A8F898F4A015B01280139010E9468
:102000001E05A98DBA8D96966D937D938D939C93A5
:102010009997A5019401C301B8010E9492256B0113
:102020007C0120E030E0A9010E94EB2618160CF09C
:1020300032C111E020E030E040E85EE3C701B601C4
:102040000E94EB2618160CF010E0A5019401C301C4
:10205000B2010E9493254B015C01A98DBA8D1E9699
:102060008D919D910D90BC91A02D8D839E83AF830A
:10207000B887E98DFA8D46885788608C718CC301CA
:10208000B2010E94FF2569877A878B879C87A98D7B
:10209000BA8D52968D919D910D90BC91A02D8D87FA
:1020A0009E87AF87B88BC301B2010E94F026698B6F
:1020B0007A8B8B8B9C8B112309F4FAC0A98DBA8D76
:1020C0009E968D919D910D90BC91A02D89839A83B0
:1020D000AB83BC8320E030E040E05FE3BC01CD0196
:1020E0000E9475246D8B7E8B8F8B988FA701960134
:1020F000C501B4010E9404269B01AC016D897E8953
:102100008F89988D0E9475244B015C0129813A8149
:102110004B815C81C701B6010E9404262DEC3CEC8A
:102120004CE45DE30E947524A30192010E94932573
:102130006B017C010E94F0262B013C0129893A8920
:102140004B895C89C501B4010E9475249B01AC01D7
:102150006D817E818F8198850E94922569837A8323
:102160008B839C83A5019401C301B2010E94752455
:102170009B01AC0169817A818B819C810E949325AE
:10218000E98DFA8D66877787808B918BC701B601C1
:102190000E94FF252B013C0129853A854B855C85F2
:1021A000C501B4010E94752469837A838B839C8363
:1021B000A5019401C301B2010E9475249B01AC01E9
:1021C00069817A818B819C810E9492252D853E8533
:1021D0004F8558890E949325A98DBA8D52966D938B
:1021E0007D938D939C935597FD01C68AD78AE08E87
:1021F000F18EA98DBA8D5696CD90DD90ED90FC9024
:1022000059972BED3FE049EC50E4C701B6010E941D
:10221000EB2618160CF08BC02BED3FE049EC50E498
:10222000C701B6010E949225E98DFA8D668B778BE6
:10223000808F918FE98DFA8D86859785A089B189E8
:1022400082AB93ABA4ABB5AB82899389A489B589E2
:1022500086AB97ABA0AFB1AF86899789A08DB18DC2
:1022600082AF93AFA4AFB5AF6A960FB6F894DEBF56
:102270000FBECDBFDF91CF911F910F91FF90EF90D7
:10228000DF90CF90BF90AF909F908F907F906F9096
:102290005F904F90089520E030E040E85EEBC7018A
:1022A000B6010E940F24182F111F1127111FCDCE28
:1022B00020E030E040E05FE3C501B4010E947524F6
:1022C0006B017C0129853A854B855C850E947524CC
:1022D0002DEC3CEC4CE45DE30E9475242D813E81A5
:1022E0004F8158850E949325A98DBA8D1E966D93B6
:1022F0007D938D939C93519729893A894B895C8969
:10230000C701B6010E9475242DEC3CEC4CE45DE362
:102310000E9475242D853E854F8558890E949325FE
:10232000E98DFA8D628B738B848B958B62CF20E065
:1023300030E0A901C701B6010E940F2487FF7ACFC0
:102340002BED3FE049EC50E4C701B6010E94932514
:10235000A98DBA8D56966D937D938D939C935997C5
:1023600069CF2F923F924F925F926F927F928F929E
:102370009F92AF92BF92CF92DF92EF92FF920F9314
:102380001F93CF93DF93CDB7DEB72C970FB6F8949A
:10239000DEBF0FBECDBF6B017C012B013C0177FA84
:1023A000709477F8709480911A01882309F49CC086
:1023B00020E030E0A901C7010E94EB2618160CF0BE
:1023C00086C07C2D6D2D9E2D8F2D272F362F492FCA
:1023D000582FC701B6010E9404260E9476265B0191
:1023E00070E060E090E080E00E94270880918E0716
:1023F00090918F072EE1289FA001299F500D112455
:102400005A8349838091FA039091FB039C878B87C1
:102410001C013194219431089501BB0C440B550BE0
:102420002F83388749875A874B855C8557FDA101E3
:102430008091FA039091FB0397FF03C091958195DA
:1024400091099A01281B390B121613061CF09C01E6
:10245000241B350B49815A8142175307ECF16F81D8
:10246000788589859A850E94162420E030E046E927
:1024700052E40E9475244B015C010E9476266B8316
:102480007C838D839E83C501B40190580E9476267B
:10249000CB016B817C810E9427088EEA96E00E9426
:1024A000D909882309F4C0CF8EEA96E00E94480A31
:1024B0004B015C018EEA96E00E948E0AAB01BC01E2
:1024C000950184018EEA96E00E94E10FADCF742D54
:1024D000652D962D872D79CF70E060E090E080E04B
:1024E0000E94270810921A01C701B6010E947626A1
:1024F0006B01C301B2010E947626CB01B6010E9496
:102500002708809190070E94CB039A83898380914A
:1025100092070E94CB03C0909807D0909907E09053
:102520009A07F0909B07BC01990F880B990B0E94AA
:102530001624A70196010E940F2487FD10C0A981CF
:10254000BA81BD01BB0F880B990B0E9416249B0119
:10255000AC01C701B6010E94EB26181614F570E015
:1025600060E090E080E00E94270881E080931A01FB
:102570002C960FB6F894DEBF0FBECDBFDF91CF9182
:102580001F910F91FF90EF90DF90CF90BF90AF9091
:102590009F908F907F906F905F904F903F902F9083
:1025A000089580E0E5CF1F920F920FB60F9211248D
:1025B0002F933F934F935F936F937F938F939F934B
:1025C000AF93BF93EF93FF938091B900887F8036DC
:1025D00009F44AC0F0F5883209F4A5C018F5803135
:1025E00009F499C0B8F4882309F4F5C0883009F4D7
:1025F00092C0FF91EF91BF91AF919F918F917F9189
:102600006F915F914F913F912F910F900FBE0F905F
:102610001F901895883109F486C0803251F7809355
:10262000D20314C0803409F49BC040F48033B9F362
:102630008833F9F68093D20385ECAEC0803509F477
:1026400083C0883509F494C0883499F60E94EE0A54
:10265000D0CF883909F48AC038F5883729F050F48A
:10266000883611F0803729F683E08093F4031092C6
:10267000AB0355C0883809F479C0803919F0803827
:1026800009F0B7CF8091AB03803208F06FC0E091C2
:10269000AB0381E08E0F8093AB038091BB00F0E031
:1026A000E557FC4F80833BC0803B39F0D0F4803A43
:1026B00009F477C0883A09F09CCF84E08093F40352
:1026C00010928A0310928903F0E0E0E0099580916E
:1026D000890381110FC081E08093890310926903FF
:1026E00009C0803C09F4A8CF883C09F4A5CF883BF9
:1026F00009F07FCFE0918A0381E08E0F80938A03F7
:10270000F0E0E759FC4F80818093BB0090918A03F1
:102710008091890329C08091CF038093BB0085EC11
:102720008093BC0066CF9091D1038091D00398171D
:1027300058F5E091D10381E08E0F8093D103F0E052
:10274000E255FC4F8081E9CFE091D10381E08E0F0B
:102750008093D1038091BB00F0E0E255FC4F808371
:102760009091D1038091D0039817C8F285E8D8CF13
:10277000E091D10381E08E0F8093D1038091BB0063
:10278000F0E0E255FC4F80838091D30381115ECF4E
:1027900081E08093CE0384EA8093BC001092F4031E
:1027A00028CF85EC8093BC001092F4038091AB039A
:1027B000803230F4E091AB03F0E0E557FC4F10823B
:1027C0006091AB0370E08BE893E0F0E0E0E0099506
:1027D0001092AB030ECF1092D20338CF1F920F92FC
:1027E0000FB60F9211242F933F938F939F93AF9324
:1027F000BF938091520390915303A0915403B091E1
:1028000055033091510323E0230F2D3758F50196DE
:10281000A11DB11D20935103809352039093530344
:10282000A0935403B093550380915603909157039E
:10283000A0915803B09159030196A11DB11D809339
:10284000560390935703A0935803B0935903BF9135
:10285000AF919F918F913F912F910F900FBE0F904D
:102860001F90189526E8230F0296A11DB11DD2CF07
:102870001F920F920FB60F9211242F933F934F93F5
:102880005F936F937F938F939F93AF93BF93EF93D8
:10289000FF93E0911401F09115010995FF91EF91DB
:1028A000BF91AF919F918F917F916F915F914F9168
:1028B0003F912F910F900FBE0F901F9018951F9270
:1028C0000F920FB60F9211242F933F934F935F9364
:1028D0006F937F938F939F93AF93BF93EF93FF93E8
:1028E000E0911201F09113010995FF91EF91BF91D1
:1028F000AF919F918F917F916F915F914F913F9198
:102900002F910F900FBE0F901F9018951F920F924E
:102910000FB60F9211242F933F934F935F936F93B2
:102920007F938F939F93AF93BF93EF93FF93E09128
:102930001001F09111010995FF91EF91BF91AF91B5
:102940009F918F917F916F915F914F913F912F91C7
:102950000F900FBE0F901F9018951F920F920FB6F9
:102960000F9211242F933F934F935F936F937F9315
:102970008F939F93AF93BF93EF93FF93E0910E01DB
:10298000F0910F010995FF91EF91BF91AF919F9148
:102990008F917F916F915F914F913F912F910F9008
:1029A0000FBE0F901F9018951F920F920FB60F92A7
:1029B00011242F933F934F935F936F937F938F9344
:1029C0009F93AF93BF93EF93FF93E0910C01F0912E
:1029D0000D010995FF91EF91BF91AF919F918F915B
:1029E0007F916F915F914F913F912F910F900FBE0B
:1029F0000F901F9018951F920F920FB60F921124EF
:102A00008F939F938091E1009091E100937F909349
:102A1000E10083FF0FC01092E90091E09093EB007A
:102A20001092EC0092E39093ED001092AD0398E0C9
:102A30009093F00082FF22C093E09093E900909180
:102A4000F200992319F09AE39093E80090914903DA
:102A5000992341F09091490391509093490391112A
:102A600001C05D9A9091AC03992341F09091AC0321
:102A700091509093AC03911101C0289A84FF18C023
:102A80008091E2008E7E81608093E2008091E1007F
:102A90008F7E8093E10080914A038E7E80618093D7
:102AA0004A039F918F910F900FBE0F901F90189522
:102AB00080FFF7CF8091E2008E7E80618093E200FC
:102AC0008091E1008E7E8093E10080914A038E7EAA
:102AD0008160E5CF1F920F920FB60F921124CF9213
:102AE000DF92EF92FF920F931F932F933F934F9399
:102AF0005F936F937F938F939F93AF93BF93EF9366
:102B0000FF93CF93DF93CDB7DEB76C97DEBFCDBF1A
:102B10001092E9008091E80083FF25C068E0CE01B3
:102B200045960E94E30582EF8093E8008D8987FF38
:102B300039C09091E80090FFFCCF982F907609F073
:102B400034C19E894F89588D2F89F88C911131C0DD
:102B5000803861F580914B038093F1001092F10071
:102B60008EEF8093E8006C960FB6F894DEBF0FBE30
:102B7000CDBFDF91CF91FF91EF91BF91AF919F9129
:102B80008F917F916F915F914F913F912F911F9105
:102B90000F91FF90EF90DF90CF900F900FBE0F90AE
:102BA0001F9018959EEF9093E800C7CF1092F10008
:102BB000D5CF913059F48111D3CF4130510581F6F1
:102BC00080914B038D7F80934B03CACF933049F4A0
:102BD0008111C6CF4130510519F680914B038260B7
:102BE000F2CF953041F48091E80080FFFCCF20685F
:102BF0002093E300B5CF963009F0A9C00B8D1C8D52
:102C000022E01092E9001092470310924603F2125C
:102C10002EC010924503109244030E94B2051F82F9
:102C200099E09983FA8291E09E8390EA98879AEFDF
:102C300099872091460330914703275F3F4F3C839C
:102C40002B838D831092E900109247031092460364
:102C5000109345030093440349E050E0BE016F5FC9
:102C60007F4F80E00E948C050E94B20579CF1093BF
:102C70004503009344030E94C202DC0112960D91A9
:102C80001C910115110509F451C1D801ED91FC9178
:102C90000480F581E02DBE016B5E7F4FC801099570
:102CA000009709F03EC1F80100851185EACFF3E0F5
:102CB000FF120EC08F89882309F440C0823061F46E
:102CC00040E862E18DE392E00E945905811148CF0E
:102CD00081E28093EB0047CF813029F440E862E144
:102CE0008AE292E0F1CF833099F70E94C202DC01C0
:102CF0001296ED90FC908E010F5F1F4F6801E1145A
:102D0000F10479F0D701ED91FC910680F781E02D77
:102D1000B801C7010995080F111DF701E084F1847E
:102D2000EECFD8011C92F60101900020E9F731970F
:102D3000BF016C197D0940E0C601C6CF64E172E0B5
:102D4000FB01449150E080E80E948C0509CF973048
:102D500009F4BECF983021F481E08093F10000CFD8
:102D6000993009F0FDCE837009F0B2CFE2E2F1E0D4
:102D700081E031E096E32191222371F08093E90014
:102D80003093EB00DF0111972C912093EC0090938E
:102D9000ED008F5F873079F78EE78093EA0010921D
:102DA000EA008F898093AD03DBCE8B8D9C8D1092D2
:102DB000E9001092470310924603909345038093D5
:102DC0004403898D811192C08E899D89913A49F47D
:102DD000813209F07DCF47E050E064E071E080E0AF
:102DE000B3CF913209F074CF833269F48F89988D13
:102DF000B0E0A0E08093000190930101A093020154
:102E0000B0930301ADCE803269F48091E80082FF77
:102E1000FCCF67E084E091E00E94E3058BEF8093B4
:102E2000E8009ECE823209F09BCE8F8980930B0101
:102E3000EEEFFFE7859194918B3F9C4D51F1E0E0DF
:102E4000F8E08091040190910501A0910601B091F4
:102E50000701803B9440A105B105F1F480910B017D
:102E600080FD1AC0EE3F8AE0F80789F587E797E70B
:102E700091838083809160008093480388E19BE088
:102E80000FB6F894A895809360000FBE90936000F1
:102E900067CEEEEFFAE0D5CF8081918187379747F3
:102EA00009F05ECEA89580916000886180936000F3
:102EB0008091480380936000EE3F2AE0F20789F09A
:102EC0008091FE0A9091FF0A9183808349CE808190
:102ED00091818737980751F29093FF0A8093FE0AF9
:102EE000C5CF1092FF0A1092FE0A3ACE0E94C2028B
:102EF000DC0112960D911C910115110509F4E8CE23
:102F0000D801ED91FC910190F081E02DBE016B5E46
:102F10007F4FC8010995811123CEF80100851185E5
:102F2000EBCF181619060CF41BCED2CEF1E0FF122F
:102F3000BECE68E172E004CF1F920F920FB60F92DF
:102F400011242F933F934F935F936F937F938F93AE
:102F50009F93AF93BF93EF93FF938AEB95E00E940B
:102F60007106FF91EF91BF91AF919F918F917F91EA
:102F70006F915F914F913F912F910F900FBE0F90E6
:102F80001F9018951F920F920FB60F9211242F9336
:102F90008F939F93EF93FF93E091CA05F091CB0538
:102FA0008081E091D005F091D10582FD1BC0908118
:102FB0008091D3058F5F8F732091D405821741F0E4
:102FC000E091D305F0E0E654FA4F958F8093D30556
:102FD000FF91EF919F918F912F910F900FBE0F90C6
:102FE0001F9018958081F4CF1F920F920FB60F9209
:102FF00011242F933F934F935F936F937F938F93FE
:103000009F93AF93BF93EF93FF93CF93DF9300D042
:103010001F92CDB7DEB783B1898389819091A706CE
:1030200089278A8380916B009A8189238B838B8186
:1030300080FF05C0E0913403F091350309958B8141
:1030400081FF05C0E0913603F091370309958B812C
:1030500082FF05C0E0913803F091390309958B8117
:1030600083FF05C0E0913A03F0913B0309958B8102
:1030700084FF05C0E0913C03F0913D0309958B81ED
:1030800085FF05C0E0913E03F0913F0309958B81D8
:1030900086FF05C0E0914003F091410309958B81C3
:1030A00087FF05C0E0914203F091430309958981B0
:1030B0008093A7060F900F900F90DF91CF91FF9113
:1030C000EF91BF91AF919F918F917F916F915F91A0
:1030D0004F913F912F910F900FBE0F901F90189519
:1030E000EEEAF5E01382128288EE93E0A0E0B0E011
:1030F00084839583A683B7832CE231E031832083D8
:10310000EAEBF5E01382128284839583A683B7836A
:103110002EE331E0318320832DEC30E035872487A6
:103120002CEC30E03787268728EC30E0318B208B81
:1031300029EC30E0338B228B2AEC30E0358B248B6A
:103140002EEC30E0378B268B118E128E138E148E60
:10315000E7E5F6E01382128284839583A683B78322
:1031600080E591E0918380838FEF9FEF958784873F
:1031700083B18093A7061092CC07E4EBF7E01282AC
:1031800015828EE691E091838083ECEAF7E012826B
:10319000158288E691E091838083E0EAF7E012826D
:1031A000158210868EE0818781E08287838782E6A0
:1031B00091E091838083EEEAF6E080E090E0A4EB7A
:1031C000B4E480839183A283B38380E090E0ACE099
:1031D000B2E484839583A683B78388E599EEABE553
:1031E000B3E480879187A287B38782E390E09587D5
:1031F000848716861786108A118A128A138A148A7F
:10320000158A168A178A108E118E128E138E148EBE
:10321000158E168E178E10A211A212A213A214A23E
:1032200015A280E090EEAEE0B3E486A797A7A0AB2E
:10323000B1AB12AA13AA14AA15AA16AA17AA10AEFD
:1032400011AE12AE13AE14AE15AE80E090E0A0E069
:10325000BFE380937E0790937F07A0938007B0938E
:1032600081078DEC9CECACE4BEE3809382079093E5
:103270008307A0938407B093850710928607109266
:103280008707109288071092890710928A07109278
:103290008B0710928C0710928D0788E090E0909336
:1032A0008F0780938E0785E190E09093910780933C
:1032B000900786E190E090939307809392078DECBE
:1032C0009CECACECBCE38093940790939507A0939F
:1032D0009607B093970780E090E0A8E4B3E480936A
:1032E000980790939907A0939A07B0939B0780E063
:1032F00090E0A8ECB2E480939C0790939D07A09384
:103300009E07B0939F076EE771E088EA96E00E94FF
:10331000910E0C941E05CF93DF93CDB7DEB7C85541
:10332000D1090FB6F894DEBF0FBECDBF789484B537
:10333000826084BD84B5816084BD85B5826085BDB1
:1033400085B5816085BD80916E00816080936E003F
:103350001092810080918100826080938100809131
:1033600081008160809381008091800081608093E2
:103370008000809191008260809391008091910003
:103380008160809391008091900081608093900093
:103390008091C10084608093C1008091C1008260EF
:1033A0008093C1008091C10081608093C1008091B1
:1033B000C30081608093C3008091C00082608093CD
:1033C000C0008091C20081608093C20080917A0029
:1033D000846080937A0080917A00826080937A0082
:1033E00080917A00816080937A0080917A00806871
:1033F00080937A001092AD0310924B0310924A030F
:103400008091D70081608093D70080EA8093D800B4
:1034100089B5806189BD89B5826089BD09B400FE26
:10342000FDCF61E070E080E090E00E94EC048091CC
:10343000D8008F7C80618093D8008091E000807FED
:103440008093E0008091E1008E7E8093E1008DE02A
:103450008093E200559A209A0E941E056093D80638
:103460007093D9068093DA069093DB061092E006FB
:103470001092E1061092E2061092E3061092E40622
:103480001092E5061092E6061092E7061092E80602
:103490001092E9061092EA061092EB068091AC05B4
:1034A0009091AD05FC01EE0FFF1FEE0FFF1FE450E2
:1034B000FC4F1082118212821382FC01EE0FFF1F5B
:1034C000EE0FFF1FEC52FB4F10821182128213820B
:1034D00001969093AD058093AC0560E08DE10E946C
:1034E0008F038DE190E0909319018093180160E0C3
:1034F00082E10E948F0382E190E090931701809314
:103500001601E091CA05F091CB0582E08083E0913D
:10351000C605F091C7051082E091C805F091C90574
:1035200080E180831092D205E091CE05F091CF0525
:1035300086E08083E091CC05F091CD0580818061AB
:103540008083E091CC05F091CD05808188608083F7
:10355000E091CC05F091CD05808180688083E09179
:10356000CC05F091CD0580818F7D80831E012DE3F8
:10357000220E311C0E941E0524E630E040E050E09F
:103580000E946A25672B682B692BE1F488E191E0A2
:103590000E94AE09AB01BC01CE0101960E942F0E24
:1035A0006FEB71E0C1010E94910EBE016F5F7F4F12
:1035B000C1010E94CF0DC1010E94E60ACE01019611
:1035C0000E94E60A8EEA96E00E94D909882309F44F
:1035D0004CC08EEA96E00E94480A6B017C018EEA9C
:1035E00096E00E948E0AAB01BC01970186018EEA2B
:1035F00096E00E94E10FE0914F03F0915003E93013
:10360000F10598F5EA5FF44E0C948C250F1B6F1BA7
:10361000A11FFB1F2C207D2082209A202A210E949E
:10362000310F882379F10E94C90F882359F18091C5
:103630004E03882339F146E050E050935003409305
:103640004F0388EC91E00E94D30C8CEA97E00E9433
:103650006A098823A9F1E1E0F0E0F0935003E093D8
:103660004F0385EE91E00E94D30CE0E0F0E0EF2BF9
:1036700009F480CF0E945D06882309F47BCF0E9465
:10368000000078CF0E94310F811109C082E090E0E4
:103690009093500380934F0383ED91E0D4CF0E9429
:1036A000C90F882399F380914E038111EFCFA7E0D2
:1036B000B0E0B0935003A0934F0388ED91E0C3CFE7
:1036C00084EB97E00E946A09882379F228E030E0D1
:1036D0003093500320934F0380EF91E0C4CF80914B
:1036E00090070E94CB038C01809192070E94CB032C
:1036F0009C01B801110F880B990B8901330F220B24
:10370000330B600F711F821F931F0E94162420919C
:1037100098073091990740919A0750919B070E9412
:103720000F2487FFD8C070E060E090E080E00E9446
:10373000270868EE73E080E090E00E94EC040E94AD
:103740001E0569966CAF7DAF8EAF9FAF69970E94E3
:103750001E0569962CAD3DAD4EAD5FAD6997621B00
:10376000730B840B950B693B7B408105910508F039
:10377000E8C08EEA96E00E94D909882341F38EEAD8
:1037800096E00E948E0A9B01AC0160E070E084E04C
:1037900092E40E94922561966CAF7DAF8EAF9FAF91
:1037A00061978EEA96E00E94480A9B01AC0160E0B6
:1037B00070E084E092E40E9492252B013C0120916C
:1037C0008607309187074091880750918907619655
:1037D0006CAD7DAD8EAD9FAD61970E9493256596D2
:1037E0006CAF7DAF8EAF9FAF659760938607709388
:1037F0008707809388079093890720918A073091E3
:103800008B0740918C0750918D07C301B2010E9434
:1038100093254B015C0180928A0790928B07A092BE
:103820008C07B0928D07C0907E07D0907F07E09004
:103830008007F09081078091820790918307A09183
:103840008407B09185072D968CAF9DAFAEAFBFAF0B
:103850002D97A7019601C301B2010E9475242B0187
:103860003C012D962CAD3DAD4EAD5FAD2D97C50104
:10387000B4010E9475249B01AC01C301B2010E94F6
:1038800093250E9476264B01A701960161966CADA7
:103890007DAD8EAD9FAD61970E9475246B017C015B
:1038A0002D962CAD3DAD4EAD5FAD2D9765966CADB3
:1038B0007DAD8EAD9FAD65970E9475249B01AC01D7
:1038C000C701B6010E9493250E947626CB01B40160
:1038D0000E9427083CCF809190070E94CB038C0167
:1038E000809192070E94CB03B801681B790B072EC9
:1038F000000C880B990B0E9416242091940730919C
:10390000950740919607509197070E9475246B0187
:103910007C0120E030E048E452E40E9493250E94BC
:1039200076264B01A701960160E070E088E492E4FE
:103930000E9492250E947626CB01B4010E9427089E
:1039400094CE70E060E090E080E00E94270820EED6
:103950003EE245E652E46091E8067091E906809106
:10396000EA069091EB060E9475246B017C0188EFBA
:1039700091E00E94CE0CC701B6010E94BD0C20E070
:1039800030E84DE953E4C701B6010E94EB26181652
:1039900054F020E030E044E352E4C701B6010E9455
:1039A0000F2487FFBBC087E592E00E94CE0C80E029
:1039B00092E00E94CE0C8091AC059091AD050E94E2
:1039C000150D85E192E00E94CE0CE091AC05F091DE
:1039D000AD05EE0FFF1FEE0FFF1FE450FC4F60819F
:1039E0007181828193810E94BA0C81E991E00E94E9
:1039F000CE0CE091AC05F091AD05EE0FFF1FEE0F80
:103A0000FF1FEC52FB4F60817181828193810E9484
:103A1000BD0C0091AC051091AD05C801880F991F30
:103A2000880F991FDC01A450BC4F7D01FC01E850B8
:103A3000FC4F20E030E040E85FE3608171818281EB
:103A400093810E949325F70160837183828393831E
:103A5000F801EE0FFF1FEE0FFF1FE053FB4F8081B9
:103A60009181A281B381000F111F000F111FF80176
:103A7000EC52FB4F80839183A283B38380E092E07A
:103A80000E94CE0C8091AC059091AD050E94150D61
:103A90008DE292E00E94CE0CE091AC05F091AD0574
:103AA000EE0FFF1FEE0FFF1FE450FC4F608171818E
:103AB000828193810E94BA0C81E991E00E94CE0C30
:103AC000E091AC05F091AD05EE0FFF1FEE0FFF1F6B
:103AD000EC52FB4F60817181828193810E94BD0C09
:103AE0008091AC059091AD0501969093AD058093C2
:103AF000AC058AEC92E00E94D30C0E94310F811138
:103B0000FBC10E94310F81110AC222E030E03093E4
:103B1000500320934F0383ED91E0A5CD20E030E0EA
:103B200044E352E4C701B6010E94EB2618160CF0DC
:103B300075C020E030E047E053E4C701B6010E94C1
:103B40000F2487FF6BC080E092E00E94CE0C809132
:103B5000AC059091AD050E94150D85E192E00E94A3
:103B6000CE0CE091AC05F091AD05EE0FFF1FEE0F0E
:103B7000FF1FE450FC4F60817181828193810E941C
:103B8000BA0C81E991E00E94CE0CE091AC05F09175
:103B9000AD05EE0FFF1FEE0FFF1FEC52FB4F6081D4
:103BA0007181828193810E94BD0CE090AC05F09000
:103BB000AD056701F1E0CF1AD1088701000F111F91
:103BC000000F111F0C521B4FF701EE0FFF1FEE0FDE
:103BD000FF1FE053FB4F20E030E040E85FE36081EF
:103BE0007181828193810E949325D8016D937D9389
:103BF0008D939C931397F601EE0FFF1FEE0FFF1F9F
:103C0000E450FC4F80819181A281B381F701EE0FD6
:103C1000FF1FEE0FFF1FE450FC4F2CCF20E030E0E1
:103C200047E053E4C701B6010E94EB2618160CF0DA
:103C3000A9C020E030E041E653E4C701B6010E948C
:103C40000F2487FF9FC080E092E00E94CE0C8091FD
:103C5000AC059091AD050E94150D85E192E00E94A2
:103C6000CE0CE091AC05F091AD05EE0FFF1FEE0F0D
:103C7000FF1FE450FC4F60817181828193810E941B
:103C8000BA0C81E991E00E94CE0CE091AC05F09174
:103C9000AD05EE0FFF1FEE0FFF1FEC52FB4F6081D3
:103CA0007181828193810E94BD0C0091AC051091BD
:103CB000AD05C801880F991F880F991FFC01E450BA
:103CC000FC4F7F01FC01E850FC4F20E030E040E871
:103CD0005FE360817181828193810E949225D70187
:103CE0006D937D938D939C931397F801EE0FFF1FB7
:103CF000EE0FFF1FE053FB4F80819181A281B381C2
:103D0000000F111F000F111FF801EC52FB4F8083B1
:103D10009183A283B38380E092E00E94CE0C8091D5
:103D2000AC059091AD050E94150D8DE292E00E94C8
:103D3000CE0CE091AC05F091AD05EE0FFF1FEE0F3C
:103D4000FF1FE450FC4F60817181828193810E944A
:103D5000BA0C81E991E00E94CE0CE091AC05F091A3
:103D6000AD05EE0FFF1FEE0FFF1FEC52FB4F608102
:103D70007181828193810E94BD0C85E492E00E9452
:103D8000CE0CAECE20E030E041E653E4C701B601F0
:103D90000E94EB2618160CF0ACC020E030E84DE98C
:103DA00053E4C701B6010E940F2487FFA2C080E040
:103DB00092E00E94CE0C8091AC059091AD050E94DE
:103DC000150D85E192E00E94CE0CE091AC05F091DA
:103DD000AD05EE0FFF1FEE0FFF1FE450FC4F60819B
:103DE0007181828193810E94BA0C81E991E00E94E5
:103DF000CE0CE091AC05F091AD05EE0FFF1FEE0F7C
:103E0000FF1FEC52FB4F60817181828193810E9480
:103E1000BD0CE090AC05F090AD056701B1E0CB1AA8
:103E2000D1088701000F111F000F111F0C521B4FEB
:103E3000F701EE0FFF1FEE0FFF1FE053FB4F20E0D7
:103E400030E040E85FE360817181828193810E946C
:103E50009225F8016083718382839383F601EE0FCC
:103E6000FF1FEE0FFF1FE450FC4F80819181A28164
:103E7000B381F701EE0FFF1FEE0FFF1FE450FC4F61
:103E800080839183A283B38380E092E00E94CE0C72
:103E90008091AC059091AD050E94150D8DE292E0E8
:103EA0000E94CE0CE091AC05F091AD05EE0FFF1F26
:103EB000EE0FFF1FE450FC4F60817181828193817E
:103EC0000E94BA0C81E991E00E94CE0CE091AC0511
:103ED000F091AD05EE0FFF1FEE0FFF1FEC52FB4FF1
:103EE00060817181828193810E94BD0C85E592E0A1
:103EF00046CF85E692E043CF0E94C90F882309F49C
:103F000000CE80914E03882309F4FBCD46E050E0BB
:103F10005093500340934F0388EC91E0A4CB0E9450
:103F2000C90F882309F4F1CD80914E038111EDCDA5
:103F300087E090E09093500380934F0388ED91E0E9
:103F400092CB86E191E00E94AE0920E030E0A90129
:103F50000E94EB2618166CF586E191E00E94AE09EE
:103F600020E030E040EF51E40E94EB2687FF2DC0B7
:103F700088E191E00E94AE0920E030E0A9010E94B2
:103F8000EB2618165CF588E191E00E94AE0920E06E
:103F900030E040EF51E40E940F2418160CF45BCB84
:103FA000E4E0F0E0F0935003E0934F0389EE92E0F9
:103FB0005ACB86E191E00E94AE0920E030E040EF6C
:103FC00051EC0E940F2418169CF2A3E0B0E0B093CD
:103FD0005003A0934F038FED92E045CB88E191E031
:103FE0000E94AE0920E030E040EF51EC0E94EB2649
:103FF00087FD31CBD5CF60E070E086E992E40E9486
:10400000B111882309F431CB0E94310F811115C001
:104010000E94310F882309F41ECB0E94C90F882308
:1040200009F419CB80914E03811115CB47E050E084
:104030005093500340934F0318CB0E94C90F88231D
:1040400039F380914E03882319F326E030E0309352
:10405000500320934F0309CB60E070E086E992ECB7
:104060000E94B111882309F400CB0E94310F811105
:104070001CC00E94310F811121C088E191E00E9493
:10408000AE0920E030E0A9010E94EB261816FCF0F2
:1040900088E191E00E94AE0920E030E040EF51EC71
:1040A0000E94EB2687FDD7CA1FC00E94C90F882334
:1040B00001F380914E038111C8CFDBCF0E94C90F5D
:1040C0008823D9F280914E038111D7CFAFCF88E1F9
:1040D00091E00E94AE0920E030E040EF51E40E9400
:1040E0000F2418160CF4B7CA85E090E090935003A3
:1040F00080934F0385EF92E0B6CA60E070E086E9F6
:1041000092EC7DCF62E073E0C1010E94910E67E006
:1041100073E0CE0101960E94910EB101CE0101968D
:104120000E94CF0DCE0101960E94E60AC1010E94B5
:10413000E60A9BCA80914C0390914D03892B09F4A8
:1041400094CA0E94E60C0E9497010E94E60C8CEF34
:10415000C82E83E0D82E04ED14E0F12CE12C82E18E
:1041600093E00E94CE0C5601D6016D917D918D9108
:104170009D916D010E94BA0CF501408151816281CF
:104180007381CE018D5B9F4F0E942F0EB701C1013D
:104190000E94650E62EB71E0CE0101960E94910EC5
:1041A000B101CE0101960E94710DBE016D5B7F4F82
:1041B0000E94CF0DCE0101960E94E60AC1010E9425
:1041C000E60ACE018D5B9F4F0E94E60A86E193E0EE
:1041D0000E94CE0C5801D8016D917D918D919D91D9
:1041E0008D010E94BD0CF501408151816281738176
:1041F000CE018D5B9F4F0E942F0EB701C1010E941F
:10420000650E63EE71E0CE0101960E94910EB10140
:10421000CE0101960E94710DBE016D5B7F4F0E9421
:10422000CF0DCE0101960E94E60AC1010E94E60A66
:10423000CE018D5B9F4F0E94E60AFFEFEF1AFF0A47
:1042400026E3E216F10409F08ACF10924D03109292
:104250004C030BCAAE014F5F5F4F7A018A016EE7D4
:1042600071E0C7010E94910E56E0E50EF11CE214C8
:10427000F304A9F78AEB95E00E945106892BB1F16E
:104280008AEB95E00E942F06D82E8DAF1EAEE090EF
:10429000AC06F090AD068FEFE81AF80AB70188EA8D
:1042A00096E00E94490D882389F02091A80630915C
:1042B000A9068091AC069091AD06B101820F931FC3
:1042C0000E943629F092AD06E092AC069AE0D9122F
:1042D000D1CF4091AC065091AD066091A806709187
:1042E000A90687E596E00E94FE06C4CF7101A6E00C
:1042F000EA1AF108C7010E94E60A0E151F05B9F770
:10430000B4C988EA96E00C94E60AEF920F931F93E3
:10431000CF93DF93E80134E047FD34E1042E000C35
:10432000550B57FF03C0519541955109E32E022FBC
:10433000242FAE010E94C821CE01DF91CF911F91A1
:104340000F91EF900895BB274A3031F4992322F45E
:10435000BDE2909581959F4F0C94AF21BB27FB0147
:104360005527AA27880F991FAA1FA41710F0A41B6E
:1043700083955051B9F7A05DAA3308F0A95DA193C8
:10438000009779F7B111B1931192CB010C94FF23EF
:10439000A9E0B0E0EEECF1E20C9439256A01F22ECE
:1043A000B02E102FFBE3AF2EA01608F41BE31F5F07
:1043B000012F27E0AE014F5F5F4F0E942723BC0112
:1043C0008981982F9970913009F43FC09BE2E1FCFC
:1043D00004C09E2D9170E0FC3AC05E2D5071E82F14
:1043E000E87083FF46C084E0911101C083E0EF2DA7
:1043F000E81B8F1508F0E0E0D6018E2F20E2552350
:1044000051F1992329F0D6019C93C60101966C01C4
:1044100096012D5F3F4FE2FE24C08EE4D6018C93BF
:1044200091E411969C93119712968C93D9018E2F3B
:1044300090E281111BC0E20FF32FF11D10828EEF6D
:104440009FEF2996ECE00C9455259DE2C6CF90E2B3
:10445000C4CF2D9381508111FCCFCE0ED11CE0E052
:10446000D0CF8EE6D6018C9391E6DBCF9D93815021
:10447000E0CF482F447082FF3DC084E0911101C01D
:1044800083E08F1510F4EF2DE81BD6018E2F20E26C
:10449000552309F1992329F0D6019C93C601019671
:1044A0006C0196012D5F3F4FE2FE1BC089E4D601EF
:1044B0008C938EE411968C93119786E412968C93CC
:1044C000D9018E2F90E2882309F4B5CF9D938150B6
:1044D000FACF2D9381508111FCCFCE0ED11CE0E09C
:1044E000D9CF89E6D6018C938EE611968C931197DD
:1044F00086E6E4CF9B0177FF02C030E020E0A1E038
:10450000B0E0911102C0B0E0A0E0F9013196AE0F29
:10451000BF1F8B2C912CBB2009F461C05401EFEF1D
:10452000AE1ABE0AAA0DBB1DFA161B0619F014F02E
:104530004F2D4A1B511188C0E3FC59C07601A42FAE
:10454000B0E2A1114FC0C40ED11C992309F45BC085
:1045500040E0D6011196F60190836D01552309F4D0
:1045600048C0012F060F9A81582F507184FF03C055
:10457000913309F4015010160CF047C0093008F0CF
:1045800008E0EEE2FE2E5B01A01AB10885019194CD
:10459000819491082F3F320729F4D601FC92F6014D
:1045A00031966F016217730794F1021713077CF5B8
:1045B000DB01A21BB30BAA24A394B12CAC0EBD1E2D
:1045C000AA0DBB1D11968C9121503109D60111966F
:1045D00028153905F4F0F60180836D01DBCFB12C8D
:1045E000A12CA0CFF701B1937F01A150AACF9111C7
:1045F000B0CFD601942F50E302C05D93915091113A
:10460000FCCFC40ED11C40E0ACCF01E0BACF80E3B8
:10461000DBCF6217730731F4963388F4953311F4C6
:10462000552369F0F6018083FD01842F90E281110A
:1046300008C0A40FB11D1C9290E080E002CF81E37E
:10464000F1CF91938150F3CF911183CF8ACF28304E
:1046500008F027E03327DA01990F311D87FD9160BB
:1046600000966105710539F432602E5F3D9330E3A9
:104670002A95E1F708959F3F30F080387105610574
:1046800009F03C5F3C5F3D93913008F08068911DDC
:10469000DF93CF931F930F93FF92EF92192F987F81
:1046A0009695E92F96959695E90FFF27EC5DFE4FBD
:1046B00099273327EE24FF24A701E70105900894EA
:1046C000079428F4360FE71EF81E491F511D660F88
:1046D000771F881F991F0694A1F70590079428F467
:1046E000E70EF81E491F561FC11D770F881F991F1F
:1046F000661F0694A1F70590079428F4F80E491F49
:10470000561FC71FD11D880F991F661F771F06945C
:10471000A1F70590079420F4490F561FC71FD81F13
:10472000990F661F771F881F0694A9F7849110952B
:10473000177041F0D695C79557954795F794E7942C
:104740001A95C1F7EAECF0E068941590159135914F
:104750006591959105907FE27395E118F10A430BFD
:10476000560BC90BD009C0F7E10CF11E431F561FB1
:10477000C91FD01D7EF4703311F48A95E6CFE894FA
:10478000015030F0080F0AF40027021708F4202F18
:104790002395022F7A3328F079E37D932A95E9F760
:1047A00010C07D932A9589F606949795679537955D
:1047B00017951794E118F10A430B560BC90BD00952
:1047C00098F023957E9173957A3308F070E37C938B
:1047D0002013B8F77E9170617D9330F0839571E37B
:1047E0007D9370E32A95E1F71124EF90FF900F91EC
:1047F0001F91CF91DF91992787FD90950895DC0156
:10480000FC01672F71917723E1F7329704C07C9107
:104810006D9370836291AE17BF07C8F308950E942D
:10482000512408F481E00895E89409C097FB3EF410
:1048300090958095709561957F4F8F4F9F4F9923ED
:10484000A9F0F92F96E9BB279395F695879577956B
:104850006795B795F111F8CFFAF4BB0F11F460FF2B
:104860001BC06F5F7F4F8F4F9F4F16C0882311F083
:1048700096E911C0772321F09EE8872F762F05C097
:10488000662371F096E8862F70E060E02AF09A9532
:10489000660F771F881FDAF7880F9695879597F927
:1048A0000895990F0008550FAA0BE0E8FEEF1616C1
:1048B0001706E807F907C0F012161306E407F50714
:1048C00098F0621B730B840B950B39F40A2661F088
:1048D000232B242B252B21F408950A2609F4A1402B
:1048E000A6958FEF811D811D08950E9488240C9448
:1048F000F9240E94EB2438F00E94F22420F0952342
:1049000011F00C94E2240C94E82411240C942D252D
:104910000E940A2570F3959FC1F3950F50E0551F33
:10492000629FF001729FBB27F00DB11D639FAA2704
:10493000F00DB11DAA1F649F6627B00DA11D661F53
:10494000829F2227B00DA11D621F739FB00DA11D74
:10495000621F839FA00D611D221F749F3327A00D2E
:10496000611D231F849F600D211D822F762F6A2FCA
:1049700011249F5750409AF0F1F088234AF0EE0F2F
:10498000FF1FBB1F661F771F881F91505040A9F75C
:104990009E3F510580F00C94E2240C942D255F3F3E
:1049A000E4F3983ED4F3869577956795B795F79598
:1049B000E7959F5FC1F7FE2B880F911D9695879510
:1049C00097F9089597F99F6780E870E060E008958F
:1049D0009FEF80EC089500240A9416161706180617
:1049E0000906089500240A941216130614060506F3
:1049F0000895092E0394000C11F4882352F0BB0F84
:104A000040F4BF2B11F460FF04C06F5F7F4F8F4FE6
:104A10009F4F089557FD9058440F551F59F05F3F21
:104A200071F04795880F97FB991F61F09F3F79F0D0
:104A300087950895121613061406551FF2CF469552
:104A4000F1DF08C0161617061806991FF1CF8695D4
:104A50007105610508940895E894BB2766277727B8
:104A6000CB0197F908952F923F924F925F926F92E8
:104A70007F928F929F92AF92BF92CF92DF92EF92EE
:104A8000FF920F931F93CF93DF93CDB7DEB7CA1B6F
:104A9000DB0B0FB6F894DEBF0FBECDBF09942A889A
:104AA000398848885F846E847D848C849B84AA8442
:104AB000B984C884DF80EE80FD800C811B81AA81CF
:104AC000B981CE0FD11D0FB6F894DEBF0FBECDBF9A
:104AD000ED010895A1E21A2EAA1BBB1BFD010DC01A
:104AE000AA1FBB1FEE1FFF1FA217B307E407F5079E
:104AF00020F0A21BB30BE40BF50B661F771F881F7A
:104B0000991F1A9469F760957095809590959B010F
:104B1000AC01BD01CF010895EE0FFF1F0590F49188
:104B2000E02D09945058BB27AA270E94AA250C946F
:104B3000F9240E94EB2438F00E94F22420F039F48A
:104B40009F3F19F426F40C94E8240EF4E095E7FB5B
:104B50000C94E224E92F0E940A2558F3BA17620741
:104B600073078407950720F079F4A6F50C942C259B
:104B70000EF4E0950B2EBA2FA02D0B01B901900178
:104B80000C01CA01A0011124FF27591B99F0593FBC
:104B900050F4503E68F11A16F040A22F232F342F04
:104BA0004427585FF3CF469537952795A795F04052
:104BB0005395C9F77EF41F16BA0B620B730B840B67
:104BC000BAF09150A1F0FF0FBB1F661F771F881F1F
:104BD000C2F70EC0BA0F621F731F841F48F4879577
:104BE00077956795B795F7959E3F08F0B0CF939569
:104BF000880F08F09927EE0F9795879508950E94E2
:104C0000AE26E3950C94D7260E9418260C94F9241E
:104C10000E94F22458F00E94EB2440F029F45F3FF8
:104C200029F00C94E22451110C942D250C94E824C5
:104C30000E940A2568F39923B1F3552391F3951B3C
:104C4000550BBB27AA2762177307840738F09F5FAD
:104C50005F4F220F331F441FAA1FA9F335D00E2E1A
:104C60003AF0E0E832D091505040E695001CCAF787
:104C70002BD0FE2F29D0660F771F881FBB1F26174A
:104C800037074807AB07B0E809F0BB0B802DBF0121
:104C9000FF2793585F4F3AF09E3F510578F00C94F0
:104CA000E2240C942D255F3FE4F3983ED4F38695DF
:104CB00077956795B795F7959F5FC9F7880F911D11
:104CC0009695879597F90895E1E0660F771F881FFD
:104CD000BB1F621773078407BA0720F0621B730BB0
:104CE000840BBA0BEE1F88F7E09508950E947D268D
:104CF0006894B1110C942D2508950E94122588F016
:104D00009F5798F0B92F9927B751B0F0E1F0660F8F
:104D1000771F881F991F1AF0BA95C9F714C0B130D0
:104D200091F00E942C25B1E008950C942C25672F5A
:104D3000782F8827B85F39F0B93FCCF386957795FF
:104D40006795B395D9F73EF49095809570956195E8
:104D50007F4F8F4F9F4F08950C94E8240E94122597
:104D6000D8F3E894E0E0BB279F57F0F02AED3FE04E
:104D700049EC06C0EE0FBB0F661F771F881F28F097
:104D8000B23A62077307840728F0B25A620B730BBA
:104D9000840BE3959A9572F7803830F49A95BB0F9F
:104DA000661F771F881FD2F790480C94FF26EF9359
:104DB000E0FF07C0A2EA2AED3FE049EC5FEB0E946A
:104DC000AA250E94F9240F90039401FC9058ECEA64
:104DD000F0E00C940B270E94512408F48FEF089503
:104DE0009F930E94AE260F9007FCEE5F0C94D7268F
:104DF0000E945124880B990B08959F3F31F09150E8
:104E000020F4879577956795B795880F911D9695AE
:104E1000879597F908959F938F937F936F93FF934F
:104E2000EF939B01AC010E947524EF91FF910E94CA
:104E30001F272F913F914F915F910C947524DF9321
:104E4000CF931F930F93FF92EF92DF927B018C0120
:104E5000689406C0DA2EEF010E948824FE01E894CF
:104E6000A5912591359145915591A6F3EF010E94A9
:104E7000AA25FE019701A801DA9469F7DF90EF9067
:104E8000FF900F911F91CF91DF9108950F931F9382
:104E9000CF93DF938230910510F482E090E0E091AF
:104EA000CF07F091D00730E020E0B0E0A0E03097ED
:104EB00099F42115310509F44AC0281B390B243017
:104EC0003105D8F58A819B816115710589F1FB0156
:104ED00093838283FE0111C040815181028113813D
:104EE00048175907E0F04817590799F4109761F0EF
:104EF00012960C93129713961C933296CF01DF9162
:104F0000CF911F910F9108950093CF071093D00771
:104F1000F4CF2115310551F04217530738F0A9019C
:104F2000DB019A01BD01DF01F801C1CFEF01F9CF2B
:104F30009093D0078093CF07CDCFFE01E20FF31FF0
:104F4000819391932250310939832883D7CF2091BF
:104F5000CD073091CE07232B41F420911D013091D4
:104F60001E013093CE072093CD0720911B01309175
:104F70001C012115310541F42DB73EB740911F01A9
:104F800050912001241B350BE091CD07F091CE0705
:104F9000E217F307A0F42E1B3F0B2817390778F010
:104FA000AC014E5F5F4F2417350748F04E0F5F1F6F
:104FB0005093CE074093CD07819391939FCFF0E01C
:104FC000E0E09CCFCF93DF930097E9F0FC013297AC
:104FD00013821282A091CF07B091D007ED0130E08B
:104FE00020E01097A1F420813181820F931F20913E
:104FF000CD073091CE072817390709F061C0F0932B
:10500000CE07E093CD07DF91CF910895EA01CE1747
:10501000DF07E8F54A815B819E0141155105B1F733
:10502000E901FB83EA8349915991C40FD51FEC171D
:10503000FD0761F4808191810296840F951FE9013B
:1050400099838883828193819B838A83F0E0E0E067
:1050500012968D919C9113970097B9F52D913C91E3
:105060001197CD010296820F931F2091CD073091A9
:10507000CE072817390739F6309751F51092D00727
:105080001092CF07B093CE07A093CD07BCCFD383A8
:10509000C28340815181840F951FC817D90761F4DD
:1050A0004E5F5F4F88819981480F591F518340831C
:1050B0008A819B81938382832115310509F0B0CFCA
:1050C000F093D007E093CF079ECFFD01DC01C0CF66
:1050D00013821282D7CFB0E0A0E0E1E7F8E20C94AF
:1050E00035258C01009751F4CB010E9446278C0195
:1050F000C801CDB7DEB7E0E10C945125FC01E60F05
:10510000F71F9C0122503109E217F30708F49DC0F4
:10511000D901CD91DC911197C617D70798F0C5300A
:10512000D10530F3CE0104978617970708F3C61B05
:10513000D70B2297C193D1936D937C93CF010E949B
:10514000E227D6CF5B01AC1ABD0A4C018C0E9D1E26
:10515000A091CF07B091D007512C412CF12CE12C1C
:10516000109731F58091CD079091CE07881599055C
:1051700009F05CC04616570608F058C080911B0124
:1051800090911C01009741F48DB79EB740911F018B
:1051900050912001841B950BE817F90708F055C0C2
:1051A000F093CE07E093CD07F90171836083A0CF20
:1051B0008D919C91119712966C90129713967C90FA
:1051C0001397A815B90559F56C0142E0C40ED11C1E
:1051D000CA14DB0420F1AC014A195B09DA0112960A
:1051E000159780F06282738251834083D9016D9359
:1051F0007C93E114F10471F0D7011396FC93EE93C4
:10520000129776CF22968C0F9D1FF9019183808390
:10521000F301EFCFF093D007E093CF0769CF4816A3
:10522000590608F42C017D01D3019ACFCB010E94CD
:1052300046277C01009749F0AE01B8010E942D2954
:10524000C8010E94E227870153CF10E000E050CF51
:1052500081E090E0F8940C943D29FB01DC0102C050
:1052600001900D9241505040D8F70895FB01DC01A8
:1052700001900D920020E1F7089511E0CCE6D1E015
:1052800004C0FE010E948C252196CD36D107C9F7B6
:04529000F894FFCFC0
:10529400FFFFFFFF00E10000000000002A052A05CF
:1052A4002A052A052A0512001200010000D10780F0
:1052B4000000C1808100000000000000B102A602CD
:1052C4001D067C029F028C027D02000000009206F3
:1052D400F0052006DE0651062F06430600000000F6
:1052E4008307FE06A4079907EA07A807C607000074
:1052F4000000290900000000530B00000000260BE9
:105304006E616E00696E66006F7666000D0A005469
:105314004845204D4150204F48204D5920474F4487
:105324000020200047455420494400546167204927
:10533400443A200047617261676520666F756E6448
:10534400210058004B657920666F756E6421004614
:10535400726F6E7420495200656E647072696D617B
:105364007279005455524E00454E445345434F4EB6
:10537400444152590044524956455F4C494E4500F8
:105384005245435F4D41500068656164696E670032
:1053940043757272656E7420436F6F7264696E61D7
:1053A40074653A20004F6C6420436F6F7264696EB9
:1053B400617465733A2028782C792920004E65772A
:1053C40020436F6F7264696E617465733A20287844
:1053D4002C79292000313830206465677265652096
:1053E40063617365003237302064656772656520D8
:1053F40063617365003C3C3C3C3C3C3C3C3C3C3C79
:105404003C3C3C3C3C3C3C3C3C3C3C3C3C3C3C3CD8
:105414003C3C3C5F5F5F5F5F5F5F5F5F5F5F5F5F01
:105424005F5F5F5F5F5F6572726F725F5F5F5F5F39
:105434005F5F5F5F5F5F5F5F5F5F5F5F3E3E3E3EFC
:105444003E3E3E3E3E3E3E3E3E3E3E3E3E3E3E3E78
:105454003E3E3E3E3E3E3E3E3E0052454143484572
:105464004420494E54455253454354494F4E004FEE
:1054740050454E5F4C45465400434C4F5345445FA2
:105484004C45465400434C4F5345445F46524F4E9F
:10549400540054525545004B657920466F756E642F
:0C54A4002000583A200020593A20000057
:00000001FF
