:100000000C946D010C94A1130C947A130C9453135B
:100010000C942C130C9495010C9495010C940513DD
:100020000C9495010C94C1160C94C8130C943714BD
:100030000C9495010C9495010C9495010C949501E8
:100040000C9495010C9495010C9495010C949501D8
:100050000C9495010C9495010C9495010C94BB1291
:100060000C9495010C948F160C9469160C949501C0
:100070000C9495010C9495010C9495010C949501A8
:100080000C9495010C9495010C9495010C94950198
:100090000C943D170C9495010C9495010C949501CA
:1000A0000C9495010C9495010C94950105A84CCDE8
:1000B000B2D44EB93836A9020C50B9918688083CA2
:1000C000A6AAAA2ABE000000803F00407A10F35A78
:1000D00000A0724E18090010A5D4E80000E8764888
:1000E000170000E40B54020000CA9A3B000000E134
:1000F000F505000080969800000040420F000000C7
:10010000A08601000000102700000000E8030000A6
:1001100000006400000000000A0000000000010070
:10012000000000002C76D888DC674F0823DFC1DF91
:10013000AE59E1B1B796E5E3E453C63AE651997694
:1001400096E8E6C28426EB898C9B62ED407C6FFCCE
:10015000EFBC9C9F40F2BAA56FA5F490055A2AF710
:100160005C936B6CF9676DC11BFCE0E40D47FEF519
:1001700020E6B500D0ED902E030094357705008081
:10018000841E080000204E0A000000C80C333333E0
:10019000330F986E12831141EF8D2114893BE65580
:1001A00016CFFEE6DB18D1844B381BF77C1D901D63
:1001B000A4BBE424203284725E228100C9F124ECC5
:1001C000A1E53D27000000002300260029002C00A7
:1001D0002F00080B000202020000090400000102C7
:1001E000020000052400100105240101010424027D
:1001F00006052406000107058103100040090401DB
:1002000000020A0000000705020240000007058303
:10021000024000000403090412010002EF02014041
:10022000FB1F0023000101020301506F6C6F6C750E
:1002300020436F72706F726174696F6E00506F6CE3
:100240006F6C7520412D5374617220333255340028
:10025000070605040100080A0B0C0D090000000048
:10026000240027002A002D00300000000000250097
:1002700028002B002E0031000404040404030405AC
:100280000202020204030202020206060606060633
:100290000404020202040404080201104080401019
:1002A000204080408008020401804020100201109C
:1002B0008010204040200000000200090F000003D1
:1002C0000401000C0000000000000000000000001D
:1002D0000000000000005C18442111241FBECFEF75
:1002E000DAE0DEBFCDBF27E0ACE9B2E001C01D928D
:1002F000A735B207E1F712E0A0E0B1E0EAE1F2E5EC
:1003000002C005900D92AC39B107D9F711E0CCE6E7
:10031000D1E004C02197FE010E944F25CB36D107C2
:10032000C9F70E9477190C9400290C9400006F9271
:100330007F928F929F92AF92BF92CF92DF92EF9275
:10034000FF920F931F93CF93DF938090320590908D
:100350003305340181E0681A7108C2E8D3E08EE504
:10036000E82E84E0F82E10E000E0061517050CF0EA
:1003700052C06801AFEFCA1ADA0A5E01B4E0AB0EF0
:10038000B11C8C149D0409F43FC0F50121913191F9
:10039000419151915F016C817D818E819F810E948D
:1003A000D22381112DC0F501EC52FF4F2081318104
:1003B00042815381D7016D917D918D919C910E94D5
:1003C000D22381111DC0FE01C801019634968C15FF
:1003D0009D05B4F44C815D816E817F8140835183A2
:1003E00062837383D7014D915D916D917C91DF01A3
:1003F000A852BF4F4D935D936D937C931397E5CFB8
:10040000BFEFCB1ADB0ABDCF0E5F1F4F2896E8E087
:10041000EE0EF11CAACFDF91CF911F910F91FF90AB
:10042000EF90DF90CF90BF90AF909F908F907F9094
:100430006F900895FC0180913303882311F13FB739
:10044000F89482E08093E9002091F200822F90E0FE
:100450001816190614F481E090E0882339F02898E2
:1004600044E6409332034091F1004083222339F067
:100470002091F200211103C02BE62093E8003FBF3A
:1004800008958FEF9FEF08952FB7F89483E080933E
:10049000E9009091E800892F807295FF04C0909147
:1004A000F20080E4891B2FBF089580912A038111F7
:1004B0000DC082E08093260384E08093270310928E
:1004C00029031092280381E080932A0386E293E0B7
:1004D000089581508F3008F047C0E82FF0E0ED58C4
:1004E000FD4F0C944F2590029402820288028C02E8
:1004F000B402B402B40297029D02A102A502AB02AB
:10050000B402AF02809180008F77809380000895BD
:10051000809180008F7DF9CF80918000877FF5CF1B
:1005200084B58F7784BD089584B58F7DFBCF80918E
:1005300090008F77809390000895809190008F7D38
:10054000F9CF80919000877FF5CF8091C0008F77A1
:100550008093C00008958091C0008F7DF9CF809175
:10056000C200877F8093C20008951F93CF93DF93CB
:10057000282F30E0F901EA54FD4F8491F901E95642
:10058000FD4FD491F901E858FD4FC491CC23A9F057
:10059000162F81110E946902EC2FF0E0EE0FFF1F71
:1005A000E659FD4FA591B4918FB7F894EC911111D4
:1005B00008C0D095DE23DC938FBFDF91CF911F91D0
:1005C0000895DE2BF8CFCF93DF9390E0FC01E9563E
:1005D000FD4F249188589D4FFC0184918823C9F0D8
:1005E00090E0880F991FFC01E45AFD4FA591B4914A
:1005F000FC01E659FD4FC591D49161110DC09FB723
:10060000F8948C91209582238C93888128232883C9
:100610009FBFDF91CF910895623051F49FB7F89456
:100620003C91822F809583238C93E8812E2BEFCFF2
:100630008FB7F894EC912E2B2C938FBFEACF823199
:1006400008F08251E82FF0E0E05BFD4FE4919091DB
:100650007B008E2F880F880F80729F7D892B80935F
:100660007B00E770E064E0937C0080917A00806416
:1006700080937A0080917A0086FDFCCF809178008B
:100680009091790008953FB7F8948091220390915A
:100690002303A0912403B091250326B5A89B05C090
:1006A0002F3F19F00196A11DB11D3FBFBA2FA92FF1
:1006B000982F8827BC01CD01620F711D811D911DEE
:1006C00042E0660F771F881F991F4A95D1F708955A
:1006D0008F929F92AF92BF92CF92DF92EF92FF9252
:1006E0004B015C010E9443036B017C010E944303A8
:1006F0006C197D098E099F09683E7340810591053B
:10070000A8F321E0821A9108A108B10888EEC80E6A
:1007100083E0D81EE11CF11C81149104A104B104F2
:1007200029F7FF90EF90DF90CF90BF90AF909F9010
:100730008F9008952FB7F89460911E0370911F0356
:1007400080912003909121032FBF0895089508956B
:1007500008954091080350910903209106033091B8
:10076000070342175307B4F49091E8009570E1F342
:100770009091E80092FD19C08093F10080910803E8
:100780009091090301968F739927892B19F48EEFA5
:100790008093E8008091080390910903019690935B
:1007A00009038093080381E0089580E00895EF92A3
:1007B000FF920F931F93CF93DF93F82E192FE62EFE
:1007C000042F81E0860F880F0E94A90383E00E9416
:1007D000A903CF2DD12FEC0EFD2EF11CCE15DF0578
:1007E000B9F007FF13C0FE0184910E94A903182FDE
:1007F00080E00E94A903812321968111EFCFDF9130
:10080000CF911F910F91FF90EF9008958881EDCFC8
:1008100081E0F5CFDF92EF92FF920F931F93CF937A
:10082000DF93D82E8A01EB017B01E40EF51ECE1575
:10083000DF0559F0D7FE12C0FE0184910E94A90382
:1008400021968111F4CF0FEF1FEFC801DF91CF91F7
:100850001F910F91FF90EF90DF9008958881EECF68
:100860000F931F93CF93DF931F92CDB7DEB782E034
:10087000898342E450E062ED71E080E80E940A045E
:100880000E945502DC0112960D911C910115110573
:1008900089F0D801ED91FC910280F381E02DBE0139
:1008A0006F5F7F4FC801099597FD04C0F80100856F
:1008B0001185ECCF89810F90DF91CF911F910F911E
:1008C0000895615030F02091F100FC0120830196E1
:1008D000F8CF289884E6809332030895AF92BF92B0
:1008E000CF92DF92EF92FF920F931F93CF93DF93FC
:1008F0006C017B018B01040F151FEB015E01AE182B
:10090000BF08C017D10759F06991D601ED91FC914C
:100910000190F081E02DC6010995892B79F7C50179
:10092000DF91CF911F910F91FF90EF90DF90CF90CB
:10093000BF90AF900895FC01538D448D252F30E07A
:10094000842F90E0821B930B541710F0CF960895DC
:1009500001970895FC01918D828D981761F0A28D09
:10096000AE0FBF2FB11D5D968C91928D9F5F9F73CF
:10097000928F90E008958FEF9FEF0895FC01918D85
:10098000828D981731F0828DE80FF11D858D90E0F2
:1009900008958FEF9FEF0895FC01918D228D892F8F
:1009A00090E0805C9F4F821B91098F739927089577
:1009B00084E395E00E94CC0421E0892B09F420E037
:1009C000822F089580E090E0892B29F00E94D804BE
:1009D00081110C9400000895FC01A48DA80FB92F7B
:1009E000B11DA35ABF4F2C91848D90E001968F7357
:1009F0009927848FA689B7892C93A089B1898C9176
:100A000082748C93938D848D981306C00288F38929
:100A1000E02D80818F7D80830895EF92FF920F9368
:100A20001F93CF93DF93EC0181E0888F9B8D8C8D9A
:100A3000981319C0E889F989808185FF14C09FB790
:100A4000F894EE89FF896083E889F989808182744E
:100A500080839FBF81E090E0DF91CF911F910F9144
:100A6000FF90EF900895F62E0B8D10E00F5F1F4F53
:100A70000F731127E02E8C8D8E110CC00FB607FC62
:100A8000FACFE889F989808185FFF5CFCE010E94F0
:100A9000EC04F1CFEB8DEC0FFD2FF11DE35AFF4F6E
:100AA000F0829FB7F8940B8FEA89FB89808180627E
:100AB000CFCFCF93DF93EC01888D8823B9F0AA893B
:100AC000BB89E889F9898C9185FD03C0808186FD09
:100AD0000DC00FB607FCF7CF8C9185FFF2CF808158
:100AE00085FFEDCFCE010E94EC04E9CFDF91CF91DD
:100AF00008958F929F92AF92BF92CF92DF92EF9222
:100B0000FF920F931F93CF93DF936C017B018A01B8
:100B100080910B01882309F45CC080913303882302
:100B200009F457C080910C0380FF05C08091E0005C
:100B300082608093E000E801B12C8AEFA82E93E058
:100B4000892E2AE3922E209711F4BB20D9F10E941E
:100B5000440281110AC0AA94AA20D9F161E070E090
:100B600080E090E00E946803EECF8C171D0611F024
:100B70000CF08C2F9FB7F8948092E9002091E80048
:100B800025FD02C09FBFDFCF282F30E0C21BD30B53
:100B9000F701815020F041914093F100FACFE20E2D
:100BA000F31EBB2021F09092E800B12CEBCF809196
:100BB000E80085FDE7CF9092E800BB24B39420972E
:100BC00009F3F3CF5D9884E680930B0310161106AA
:100BD0003CF081E090E0F6019383828310E000E036
:100BE000C801DF91CF911F910F91FF90EF90DF909F
:100BF000CF90BF90AF909F908F900895CF93DF9349
:100C00001F92CDB7DEB76983DC01ED91FC910280C4
:100C1000F381E02D41E050E0BE016F5F7F4F099509
:100C20000F90DF91CF91089583E08093E900809148
:100C3000F200882319F08AE38093E80008950E9467
:100C4000440290E00895CF93DF931F92CDB7DEB7B3
:100C5000FC018485958597FD08C02FEF3FEF358710
:100C600024870F90DF91CF910895CE0101960E94C5
:100C70001A02019719F4898190E0F3CF8FEF9FEF6B
:100C8000F0CF0F931F93CF93DF931F92CDB7DEB7B3
:100C90008C01FC018485958597FF0BC0CE010196E0
:100CA0000E941A02019771F4898190E0F8019587FA
:100CB0008487F801848595850F90DF91CF911F91EE
:100CC0000F9108958FEF9FEFF1CFFC0184859585FB
:100CD00097FD0BC09FB7F89482E08093E900809164
:100CE000F2009FBF90E0019608959FB7F89482E0CC
:100CF0008093E9008091F2009FBF90E008952E98C4
:100D0000269A2D98259A2A98229A2998219A2F98DE
:100D1000279A8AEA8093800089E18093810084EA9F
:100D200091E0909387008093860010928900109242
:100D3000880010928B0010928A0010928D00109201
:100D40008C0008950F931F93CF93DF938C01EB01D9
:100D50008091F502811105C081E08093F5020E9427
:100D60007F0680E017FF04C011950195110981E00D
:100D70000D3291E0190714F00CE211E010938B0092
:100D800000938A00882329F12A9A229A8091F502F9
:100D9000811105C081E08093F5020E947F0680E00A
:100DA000D7FF04C0D195C195D10981E0CD3291E042
:100DB000D90714F0CCE2D1E0D0938900C093880029
:100DC000882349F0299A219ADF91CF911F910F91A1
:100DD00008952A98DACF2998F6CF8CB1282F30E0E1
:100DE0003595279535952795422F417083B190E031
:100DF00054E0959587955A95E1F782278170209167
:100E0000F3029091F4026091F1027091F2022427B2
:100E10009827291B330B260F371F3093F20220939C
:100E2000F1022091F3029091F402281729F094170F
:100E300019F091E09093F0028093F3024093F40252
:100E400008959FB191708CB186FB882780F989271E
:100E50002091EE023091EF024091EC025091ED02B0
:100E600029273827231B330B240F351F3093ED021E
:100E70002093EC023091EE022091EF02381729F016
:100E8000291719F021E02093EB028093EE02909352
:100E9000EF02089524982C9A6A98729A6E98769A1E
:100EA0008098889AF89491E090936800EBE6F0E0DF
:100EB0008081806180832DEE36E03093FF022093A5
:100EC000FE029BBB809121068F7E8093210683B119
:100ED000909121068071892B80932106789481E27C
:100EE00097E09093150180931401EAE6F0E0808189
:100EF0008F7C80618083EE9A8CB182FB882780F999
:100F00008093F40293B18091F402929591708927B5
:100F10008093F3021092F2021092F1021092F0020A
:100F20008FB181708093EF029CB18091EF0296FBAC
:100F3000992790F989278093EE021092ED02109282
:100F4000EC021092EB0208950F931F93CF93DF935F
:100F5000EC01888581110EC0898591E098879A857A
:100F600062E0911101C060E00E94E3028FE090E036
:100F70000197F1F7298530E0F901EA54FD4F84919A
:100F8000F901E956FD4F0491F901E858FD4F14911C
:100F90001123C9F081110E946902E12FF0E0EE0FE8
:100FA000FF1FEC53FE4FA591B491EC910E2331E05D
:100FB00009F430E0832F2B8582278170DF91CF9158
:100FC0001F910F91089580E0F6CF0F931F93CF9359
:100FD000DF93EC01E881F9810190F081E02D099522
:100FE00001E0182F10270E949A032D81213091F0E3
:100FF00030F02230E9F0233009F110E005C0111182
:10100000FCCF7F836E830D83812FDF91CF911F9162
:101010000F910895112311F01D82EFCF2E813F8192
:10102000621B730B6F30710578F382E08D83E5CF1F
:10103000112351F37F836E8383E0F8CF1123A9F34B
:101040002E813F81621B730B6F307105B0F21D82E0
:10105000DBCF2091C802260F3327331F2132310501
:10106000ECF420917A03FC0190E080E0243069F0F8
:1010700082E00895A091C8022191AC0148555D4FCE
:10108000A40FB52FB11D2C930196861798F380916C
:10109000C802680F6093C80280E0089581E0089557
:1010A00010927A0381E0809359031092540361E017
:1010B00082E00E94B50261E083E00E94B502E9EBA4
:1010C000F0E080818E7F808380818D7F808388E4C3
:1010D0008093B80085E48093BC000895CF93DF939C
:1010E00091E09093A7028823B9F0C091B800D09105
:1010F000BA008091BC008A7B8093BC0060E082E0F3
:101100000E94B50260E083E00E94B5020E94500890
:10111000D093BA00C093B800DF91CF9108958F9219
:101120009F92AF92BF92CF92DF92EF92FF920F9376
:101130001F93CF93DF93D82FC62F142F613208F05F
:101140009CC00E9443036B017C0180917A03811152
:101150006FC081E080937A03109359039FEF9093BF
:101160005803109257039C0F909356038093550396
:1011700080915503DD0FD82BD093550380915403F4
:10118000813009F07CC0109254030E9443036B012C
:101190007C01809155038093BB0080917C039091EA
:1011A0007D03A0917E03B0917F03892B8A2B8B2B2B
:1011B000A1F00E94430300917C0310917D032091D4
:1011C0007E0330917F036C197D098E099F090617F4
:1011D00017072807390708F44CC08091BC0083FD2D
:1011E000D8CF85EC8093BC000E9443036B017C0147
:1011F00080917A03813009F444C0809157038C17A1
:1012000010F4C0915703E4E3F3E0AAE5B3E080E013
:101210008C1359C08C2FDF91CF911F910F91FF90AC
:10122000EF90DF90CF90BF90AF909F908F900895F8
:1012300080917C0390917D03A0917E03B0917F0308
:10124000892B8A2B8B2B09F480CF0E94430380903B
:101250007C0390907D03A0907E03B0907F036C1977
:101260007D098E099F0986169706A806B90608F01B
:101270006CCF80917B030E946E08C0E0CBCF85EEDF
:10128000B1CF80917C0390917D03A0917E03B091BA
:101290007F03892B8A2B8B2B09F4AACF0E9443034F
:1012A00000917C0310917D0320917E0330917F0398
:1012B0006C197D098E099F0906171707280739073A
:1012C00008F096CFD6CF91919D938F5FA1CF0895CF
:1012D000E091150380911403E81730F4F0E0E65A2A
:1012E000FC4F808190E008958FEF9FEF08959091DB
:1012F0001503809114032FEF3FEF981748F4E92F5F
:10130000F0E0E65AFC4F208130E09F5F9093150398
:10131000C90108958091140390911503891B990BBD
:101320000895CF93DF93CB01EA01642F0E9429082F
:10133000CE01DF91CF910895CF93DF931F92CDB768
:10134000DEB7698361E0CE0101960E94290881E041
:1013500090E00F90DF91CF91089590E080E00895A4
:10136000FC0180810E941F03BC01990F880B990B1F
:101370000E94D92320E030EC4FE754E40E94C725B7
:1013800020E030E040EA50E40E94382421E73DE3C9
:101390004AE05FE30E94552527ED33EA46E851E431
:1013A0000E94C7259B01AC0160E070E080E89FE3EC
:1013B0000E94C7250895CF92DF92EF92FF92CF93BC
:1013C000DF93EC010E949A036B017C018091A302E0
:1013D0009091A402A091A502B091A602B701A60126
:1013E000481B590B6A0B7B0B8C859D85092E000CC5
:1013F000AA0BBB0B481759076A077B0708F448C0BC
:1014000080918003909181039093A2028093A10226
:1014100080919F029091A00290939E0280939D02E2
:1014200080919C02811105C081E080939C020E9402
:101430004A07F8948091F1029091F2027894909387
:1014400081038093800380919C02811105C081E01B
:1014500080939C020E944A07F8948091EC0290913C
:10146000ED0278949093A00280939F020E949A03C9
:10147000C092A302D092A402E092A502F092A6022A
:1014800081E0DF91CF91FF90EF90DF90CF900895B2
:1014900080E0F7CFCF92DF92EF92FF92CF93DF936E
:1014A000EC01288139814A815B81688579858A854B
:1014B0009B850E94C7256B017C0160919F02709102
:1014C000A00280919D0290919E02681B790B072ECD
:1014D000000C880B990B0E94D9239B01AC01C7011A
:1014E000B6010E9438246B017C016C857D85072E36
:1014F000000C880B990B0E94D92320E030E04AE7CA
:1015000054E40E94C7259B01AC01C701B6010E94AB
:10151000C725DF91CF91FF90EF90DF90CF90089596
:10152000CF92DF92EF92FF92CF93DF93EC0128816D
:1015300039814A815B81688579858A859B850E948E
:10154000C7256B017C0160918003709181038091BC
:10155000A1029091A202681B790B072E000C880B48
:10156000990B0E94D9239B01AC01C701B6010E94CF
:1015700038246B017C016C857D85072E000C880B5F
:10158000990B0E94D92320E030E04AE754E40E94FE
:10159000C7259B01AC01C701B6010E94C725DF9199
:1015A000CF91FF90EF90DF90CF900895CF93DF938E
:1015B000EC0188819981009711F00E94A52719827A
:1015C00018821D821C821B821A82DF91CF9108959E
:1015D000FC0180819181009711F00C94A52708955A
:1015E0000E94EB28FB0101900020E9F73197AF0141
:1015F000461B570BDC01ED91FC910280F381E02D3D
:1016000009948F929F92AF92BF920F931F93CF93A3
:10161000DF93CDB7DEB7A1970FB6F894DEBF0FBE4C
:10162000CDBF19A2423008F44AE08E010F5D1F4F72
:10163000842E912CB12CA12CA50194010E942D2562
:10164000E62FB901CA01EA3004F5E05DD801EE9356
:101650008D01232B242B252B79F790E080E0109728
:1016600029F0BD0181ED95E00E94F20AA1960FB626
:10167000F894DEBF0FBECDBFDF91CF911F910F91C8
:10168000BF90AF909F908F900895E95CDFCF4F920D
:101690005F926F927F928F929F92AF92BF92CF9202
:1016A000DF92EF92FF920F931F93CF936B017C0118
:1016B000742EAC019B010E94BB2660E771E0811192
:1016C00026C046015701E894B7F82FEF3FEF4FE7E8
:1016D0005FE7C501B4010E94BB2681110CC02FEF4A
:1016E0003FEF4FE75FE7C501B4010E94D22364E7F3
:1016F00071E0181664F02FEF3FEF4FE75FE4C7018A
:10170000B6010E94AE261816ACF468E771E081EDD0
:1017100095E0CF911F910F91FF90EF90DF90CF90C8
:10172000BF90AF909F908F907F906F905F904F9001
:101730000C94F20A2FEF3FEF4FE75FECC701B601C1
:101740000E94D22387FDE1CF20E030E0A901C7014C
:10175000B6010E94D22310E000E087FF0AC06DE2CC
:1017600081ED95E00E94FE058C01F7FAF094F7F800
:10177000F094C0E060E070E080E09FE37C1641F010
:1017800020E030E040E251E40E94C725CF5FF6CF71
:10179000A70196010E9456252B013C010E9440267C
:1017A0004B015C014AE00E94010B7C01E00EF11E3E
:1017B000CC23C1F1C501B4010E94D7239B01AC0128
:1017C000C301B2010E9455254B015C016EE281ED1F
:1017D00095E00E94FE05E80EF91EC15018F120E0C8
:1017E00030E040E251E4C501B4010E9438242B01ED
:1017F0003C010E9440264B01B12CA12C4AE0C501BE
:10180000B4010E94010BE80EF91EC501B4010E944B
:10181000D7239B01AC01C301B2010E9455254B01A6
:101820005C01DBCFC701CF911F910F91FF90EF902B
:10183000DF90CF90BF90AF909F908F907F906F90F0
:101840005F904F900895CF93DF9342E00E94470B43
:10185000EC016CE771E081ED95E00E94F20A8C0FDB
:101860009D1FDF91CF910895BC0181ED95E00C940F
:10187000F20A0F931F93CF93DF936FE771E081ED2F
:1018800095E00E94F20A6CE771E081ED95E00E941C
:10189000F20A02E813E0D0E0C0E0809132059091B6
:1018A0003305C817D907C4F4F8016191719181918A
:1018B00091918F0142E00E94470B81E991E00E94E3
:1018C000340CF801EC52FF4F608171818281938169
:1018D0000E94230C2196E1CFDF91CF911F910F91B0
:1018E0000895CF92DF92EF92FF92CF93DF936C0136
:1018F000990FEE08FF08F7FE21C06DE281ED95E03B
:101900000E94FE05EC0166277727CB016C197D0943
:101910008E099F094AE00E94010BC80FD91F6CE78E
:1019200071E081ED95E00E94F20A8C0F9D1FDF911E
:10193000CF91FF90EF90DF90CF9008954AE0C701DC
:10194000B6010E94010BEC01EACFCF93DF93FC01BB
:10195000448155816081718184E395E00E946E0429
:10196000EC016CE771E084E395E00E94F20A8C0FD1
:101970009D1FDF91CF9108950F931F93CF93DF9316
:10198000EC0188819981009759F02A813B812617C3
:10199000370730F081E0DF91CF911F910F910895CB
:1019A0008B016F5F7F4F0E942E28009759F099831B
:1019B00088831B830A832C813D81232B59F7FC01EB
:1019C0001082E8CF80E0E7CFEF92FF920F931F9352
:1019D000CF93DF93EC01FB01E080F180E114F1048F
:1019E00011F10481158101151105A9F08C819D81EA
:1019F000080F191FB801CE010E94BC0C882399F072
:101A0000288139818C819D81B701820F931F0E94AB
:101A1000F9281D830C83CE01DF91CF911F910F9187
:101A2000FF90EF900895CE010E94D60AF4CFEF9276
:101A3000FF920F931F93CF93DF93EC017B018A01F9
:101A4000BA010E94BC0C81110BC0CE010E94D60AC3
:101A5000CE01DF91CF911F910F91FF90EF900895EC
:101A60001D830C83B701888199810E94F928F0CFEA
:101A7000FB0101900020E9F73197AF01461B570B9E
:101A80000C94170DEF92FF920F931F93CF93DF9358
:101A9000CDB7DEB72C970FB6F894DEBF0FBECDBF23
:101AA0008C017B011A8219821C821B821E821D827C
:101AB0008AE38F831886BE01695F7F4FCE0101964E
:101AC0000E94380D18861F821A8619861C861B866E
:101AD000F801608171816115710531F04481558192
:101AE000CE0107960E94170DBE016F5F7F4FCE019A
:101AF00007960E94E40CB7010E94E40C0E94A50C1A
:101B0000CE0107960E94E80ACE0101960E94E80ADB
:101B10002C960FB6F894DEBF0FBECDBFDF91CF91EC
:101B20001F910F91FF90EF900895EF92FF920F9306
:101B30001F93CF93DF93CDB7DEB7A1970FB6F8947D
:101B4000DEBF0FBECDBF7C01CB01BA01F701118210
:101B5000108213821282158214828E010F5F1F4F32
:101B600022E044E00E944821009789F0BC01C701AF
:101B70000E94380DA1960FB6F894DEBF0FBECDBF00
:101B8000DF91CF911F910F91FF90EF900895C701C2
:101B90000E94D60AEFCF0F931F93CF93DF93CDB759
:101BA000DEB762970FB6F894DEBF0FBECDBF8C01D3
:101BB000CB01F801118210821382128215821482E5
:101BC0004AE0BE016F5F7F4F0E946621BE016F5FDA
:101BD0007F4FC8010E94380D62960FB6F894DEBFA1
:101BE0000FBECDBFDF91CF911F910F910895FC01E2
:101BF000118210821382128215821482FB010190DD
:101C00000020E9F73197AF01461B570B0C94170DD5
:101C100085ED8093BC0080917C0390917D03A09121
:101C20007E03B0917F030796A11DB11D23E0B695F9
:101C3000A795979587952A95D1F72091BC0024FD0B
:101C400003C010927A03089540917C0350917D0364
:101C500060917E0370917F03452B462B472B69F3E0
:101C60000097A105B10541F02AE22A95F1F700C0DD
:101C70000197A109B109E1CF80917B030C946E0813
:101C8000CF93DF93A2EEB0E09C911C92E9EEF0E0DE
:101C900020811082C0EFD0E03881188240E028997E
:101CA0004160209942602098289A80E18A95F1F756
:101CB00083B141FB0EF0209840FB0EF028980EF403
:101CC000289A41FB0EF4209A1082388320839C933B
:101CD00080958170DF91CF910895CF93DF93A2EE2D
:101CE000B0E09C911C92E9EEF0E020811082C0EF00
:101CF000D0E03881188240E05D994160559942609A
:101D000055985D9A80E18A95F1F789B141FB0EF013
:101D1000559840FB0EF05D980EF45D9A41FB0EF471
:101D2000559A1082388320839C9390E025E0959506
:101D300087952A95E1F7809590958170DF91CF91F5
:101D40000895AF92BF92CF92DF92FF920F931F93AD
:101D5000CF93DF93CDB7DEB767970FB6F894DEBFAA
:101D60000FBECDBF8BE891E00197F1F741E061E054
:101D700082E10E948F081092150380931403813032
:101D800009F064C082E296E00E947709882309F492
:101D90005DC083EE93E00197F1F741E060E182E1FD
:101DA0000E948F081092150380931403803109F06C
:101DB0004DC0CE0101966C015E0191E1A90EB11CEE
:101DC000FC2C0D2D82E296E00E947709F6018193AA
:101DD0006F01AE16BF06B1F71D819E811B8A1A8A5C
:101DE0001D8A1C8A1F8A1E8A4AE06F2D702F812F40
:101DF0000E9471216F2D702FCE0142960E94380DE6
:101E000064E971E08F2D902F0E94F70DBE016E5E88
:101E10007F4F8F2D902F0E94420D8F2D902F0E946B
:101E2000E80ACE0142960E94E80A812F67960FB613
:101E3000F894DEBF0FBECDBFDF91CF911F910F9100
:101E4000FF90DF90CF90BF90AF900895EFCFEF92CB
:101E5000FF920F931F93CF93DF93CDB7DEB76297B7
:101E60000FB6F894DEBF0FBECDBF0E94A10E843026
:101E700009F070C081E080931A03809119038111E9
:101E800069C00E94970182E8E82E83E0F82E10E0F6
:101E900000E0F70141915191619171917F01CE0173
:101EA0000D960E94950DB801CE0107960E94CB0DAC
:101EB0006DE971E0CE0101960E94F70DBE01695FE8
:101EC0007F4FCE0101960E94E40CBE01635F7F4FFD
:101ED0000E94420DCE0101960E94E80ACE010796AB
:101EE0000E94E80ACE010D960E94E80AF701EC5222
:101EF000FF4F4081518162817381CE010D960E9416
:101F0000950DB801CE0107960E94CB0D6FE971E0E7
:101F1000CE0101960E94F70DBE01695F7F4FCE0191
:101F200001960E94E40CBE01635F7F4F0E94420D48
:101F3000CE0101960E94E80ACE0107960E94E80AA7
:101F4000CE010D960E94E80A0F5F1F4F0633110560
:101F500009F09FCF62960FB6F894DEBF0FBECDBFDB
:101F6000DF91CF911F910F91FF90EF9008950E9404
:101F7000A10E833051F480911A03882339F081E057
:101F80008093180381E08093190308951092180339
:101F9000F9CF4F925F926F927F928F929F92AF9202
:101FA000BF92CF92DF92EF92FF920F931F93CF9346
:101FB000DF93CDB7DEB76A970FB6F894DEBF0FBEDA
:101FC000CDBF9A8F898F4A015B01280139010E9498
:101FD0009A03A98DBA8D96966D937D938D939C935C
:101FE0009997A5019401C301B8010E9455256B0181
:101FF0007C0120E030E0A9010E94AE2618160CF00A
:1020000032C111E020E030E040E85EE3C701B601F4
:102010000E94AE2618160CF010E0A5019401C30131
:10202000B2010E9456254B015C01A98DBA8D1E9606
:102030008D919D910D90BC91A02D8D839E83AF833A
:10204000B887E98DFA8D46885788608C718CC301FA
:10205000B2010E94C22569877A878B879C87A98DE8
:10206000BA8D52968D919D910D90BC91A02D8D872A
:102070009E87AF87B88BC301B2010E94B326698BDC
:102080007A8B8B8B9C8B112309F4FAC0A98DBA8DA6
:102090009E968D919D910D90BC91A02D89839A83E0
:1020A000AB83BC8320E030E040E05FE3BC01CD01C6
:1020B0000E9438246D8B7E8B8F8B988FA7019601A1
:1020C000C501B4010E94C7259B01AC016D897E89C1
:1020D0008F89988D0E9438244B015C0129813A81B7
:1020E0004B815C81C701B6010E94C7252DEC3CECF9
:1020F0004CE45DE30E943824A30192010E9456251E
:102100006B017C010E94B3262B013C0129893A898D
:102110004B895C89C501B4010E9438249B01AC0144
:102120006D817E818F8198850E94552569837A8390
:102130008B839C83A5019401C301B2010E943824C2
:102140009B01AC0169817A818B819C810E9456251B
:10215000E98DFA8D66877787808B918BC701B601F1
:102160000E94C2252B013C0129853A854B855C855F
:10217000C501B4010E94382469837A838B839C83D0
:10218000A5019401C301B2010E9438249B01AC0156
:1021900069817A818B819C810E9455252D853E85A0
:1021A0004F8558890E945625A98DBA8D52966D93F8
:1021B0007D938D939C935597FD01C68AD78AE08EB7
:1021C000F18EA98DBA8D5696CD90DD90ED90FC9054
:1021D00059972BED3FE049EC50E4C701B6010E944E
:1021E000AE2618160CF08BC02BED3FE049EC50E406
:1021F000C701B6010E945525E98DFA8D668B778B54
:10220000808F918FE98DFA8D86859785A089B18918
:1022100082AB93ABA4ABB5AB82899389A489B58912
:1022200086AB97ABA0AFB1AF86899789A08DB18DF2
:1022300082AF93AFA4AFB5AF6A960FB6F894DEBF86
:102240000FBECDBFDF91CF911F910F91FF90EF9007
:10225000DF90CF90BF90AF909F908F907F906F90C6
:102260005F904F90089520E030E040E85EEBC701BA
:10227000B6010E94D223182F111F1127111FCDCE96
:1022800020E030E040E05FE3C501B4010E94382463
:102290006B017C0129853A854B855C850E94382439
:1022A0002DEC3CEC4CE45DE30E9438242D813E8112
:1022B0004F8158850E945625A98DBA8D1E966D9323
:1022C0007D938D939C93519729893A894B895C8999
:1022D000C701B6010E9438242DEC3CEC4CE45DE3D0
:1022E0000E9438242D853E854F8558890E945625A9
:1022F000E98DFA8D628B738B848B958B62CF20E096
:1023000030E0A901C701B6010E94D22387FF7ACF2E
:102310002BED3FE049EC50E4C701B6010E94562581
:10232000A98DBA8D56966D937D938D939C935997F5
:1023300069CF2F923F924F925F926F927F928F92CE
:102340009F92AF92BF92CF92DF92EF92FF920F9344
:102350001F93CF93DF93CDB7DEB72C970FB6F894CA
:10236000DEBF0FBECDBF6B017C012B013C0177FAB4
:10237000709477F8709480911A01882309F49CC0B6
:1023800020E030E0A901C7010E94AE2618160CF02B
:1023900086C07C2D6D2D9E2D8F2D272F362F492FFA
:1023A000582FC701B6010E94C7250E9439265B013C
:1023B00070E060E090E080E00E94A2068091140747
:1023C000909115072EE1289FA001299F500D1124FF
:1023D0005A83498380918003909181039C878B87E6
:1023E0001C013194219431089501BB0C440B550B11
:1023F0002F83388749875A874B855C8557FDA10114
:10240000809180039091810397FF03C091958195FE
:1024100091099A01281B390B121613061CF09C0116
:10242000241B350B49815A8142175307ECF16F8108
:10243000788589859A850E94D92320E030E046E995
:1024400052E40E9438244B015C010E9439266B83C0
:102450007C838D839E83C501B40190580E943926E8
:10246000CB016B817C810E94A20684E396E00E94EE
:10247000DB09882309F4C0CF84E396E00E944A0A6E
:102480004B015C0184E396E00E94900AAB01BC0121
:102490009501840184E396E00E94C90FADCF742DAD
:1024A000652D962D872D79CF70E060E090E080E07B
:1024B0000E94A20610921A01C701B6010E94392695
:1024C0006B01C301B2010E943926CB01B6010E9403
:1024D000A206809116070E941F039A838983809128
:1024E00018070E941F03C0901E07D0901F07E0909E
:1024F0002007F0902107BC01990F880B990B0E94CF
:10250000D923A70196010E94D22387FD10C0A9817B
:10251000BA81BD01BB0F880B990B0E94D9239B0187
:10252000AC01C701B6010E94AE26181614F570E082
:1025300060E090E080E00E94A20681E080931A01B2
:102540002C960FB6F894DEBF0FBECDBFDF91CF91B2
:102550001F910F91FF90EF90DF90CF90BF90AF90C1
:102560009F908F907F906F905F904F903F902F90B3
:10257000089580E0E5CF1F920F920FB60F921124BD
:102580002F933F938F939F93AF93BF9380911E039D
:1025900090911F03A0912003B091210330911D035E
:1025A00023E0230F2D3758F50196A11DB11D20936F
:1025B0001D0380931E0390931F03A0932003B093E9
:1025C00021038091220390912303A0912403B091D1
:1025D00025030196A11DB11D80932203909323032F
:1025E000A0932403B0932503BF91AF919F918F9146
:1025F0003F912F910F900FBE0F901F90189526E8D6
:10260000230F0296A11DB11DD2CF1F920F920FB6BC
:102610000F9211242F933F934F935F936F937F9368
:102620008F939F93AF93BF93EF93FF93E091140128
:10263000F09115010995FF91EF91BF91AF919F9195
:102640008F917F916F915F914F913F912F910F905B
:102650000FBE0F901F9018951F920F920FB60F92FA
:1026600011242F933F934F935F936F937F938F9397
:102670009F93AF93BF93EF93FF93E0911201F0917B
:1026800013010995FF91EF91BF91AF919F918F91A8
:102690007F916F915F914F913F912F910F900FBE5E
:1026A0000F901F9018951F920F920FB60F92112442
:1026B0002F933F934F935F936F937F938F939F934A
:1026C000AF93BF93EF93FF93E0911001F09111014D
:1026D0000995FF91EF91BF91AF919F918F917F915C
:1026E0006F915F914F913F912F910F900FBE0F907F
:1026F0001F9018951F920F920FB60F9211242F93CF
:102700003F934F935F936F937F938F939F93AF9379
:10271000BF93EF93FF93E0910E01F0910F010995A4
:10272000FF91EF91BF91AF919F918F917F916F91A9
:102730005F914F913F912F910F900FBE0F901F907F
:1027400018951F920F920FB60F9211242F933F935B
:102750004F935F936F937F938F939F93AF93BF93A9
:10276000EF93FF93E0910C01F0910D010995FF911A
:10277000EF91BF91AF919F918F917F916F915F91F9
:102780004F913F912F910F900FBE0F901F90189572
:102790001F920F920FB60F9211248F939F938091E7
:1027A000E1009091E100937F9093E10083FF0FC0DF
:1027B0001092E90091E09093EB001092EC0092E30C
:1027C0009093ED001092330398E09093F00082FF15
:1027D00022C093E09093E9009091F200992319F0C0
:1027E0009AE39093E80090910B03992341F0909124
:1027F0000B03915090930B03911101C05D9A90913E
:102800003203992341F09091320391509093320317
:10281000911101C0289A84FF18C08091E2008E7E39
:1028200081608093E2008091E1008F7E8093E100DF
:1028300080910C038E7E806180930C039F918F9119
:102840000F900FBE0F901F90189580FFF7CF8091CB
:10285000E2008E7E80618093E2008091E1008E7EB6
:102860008093E10080910C038E7E8160E5CF1F9202
:102870000F920FB60F921124CF92DF92EF92FF9238
:102880000F931F932F933F934F935F936F937F9378
:102890008F939F93AF93BF93EF93FF93CF93DF9368
:1028A000CDB7DEB76C97DEBFCDBF1092E900809147
:1028B000E80083FF25C068E0CE0145960E946104D0
:1028C00082EF8093E8008D8987FF39C09091E800FE
:1028D00090FFFCCF982F907609F034C19E894F89E4
:1028E000588D2F89F88C911131C0803861F5809115
:1028F0000D038093F1001092F1008EEF8093E800B9
:102900006C960FB6F894DEBF0FBECDBFDF91CF91AE
:10291000FF91EF91BF91AF919F918F917F916F91B7
:102920005F914F913F912F911F910F91FF90EF90E9
:10293000DF90CF900F900FBE0F901F9018959EEFD5
:102940009093E800C7CF1092F100D5CF913059F4A1
:102950008111D3CF4130510581F680910D038D7FD8
:1029600080930D03CACF933049F48111C6CF413013
:10297000510519F680910D038260F2CF953041F434
:102980008091E80080FFFCCF20682093E300B5CF62
:10299000963009F0A9C00B8D1C8D22E01092E90041
:1029A0001092090310920803F2122EC0109207032E
:1029B000109206030E9430041F8299E09983FA82E4
:1029C00091E09E8390EA98879AEF99872091080377
:1029D00030910903275F3F4F3C832B838D831092F7
:1029E000E900109209031092080310930703009363
:1029F000060349E050E0BE016F5F7F4F80E00E9418
:102A00000A040E94300479CF109307030093060351
:102A10000E945502DC0112960D911C9101151105C1
:102A200009F451C1D801ED91FC910480F581E02DAC
:102A3000BE016B5E7F4FC8010995009709F03EC14A
:102A4000F80100851185EACFF3E0FF120EC08F89EF
:102A5000882309F440C0823061F440E862E18DE3EC
:102A600092E00E94D703811148CF81E28093EB006E
:102A700047CF813029F440E862E18AE292E0F1CF69
:102A8000833099F70E945502DC011296ED90FC907C
:102A90008E010F5F1F4F6801E114F10479F0D70137
:102AA000ED91FC910680F781E02DB801C7010995F1
:102AB000080F111DF701E084F184EECFD8011C92BC
:102AC000F60101900020E9F73197BF016C197D09EB
:102AD00040E0C601C6CF64E172E0FB01449150E0E2
:102AE00080E80E940A0409CF973009F4BECF9830DD
:102AF00021F481E08093F10000CF993009F0FDCE00
:102B0000837009F0B2CFE2E2F1E081E031E096E3D8
:102B10002191222371F08093E9003093EB00DF01D3
:102B200011972C912093EC009093ED008F5F8730EC
:102B300079F78EE78093EA001092EA008F898093FC
:102B40003303DBCE8B8D9C8D1092E900109209032C
:102B5000109208039093070380930603898D8111D7
:102B600092C08E899D89913A49F4813209F07DCFD6
:102B700047E050E064E071E080E0B3CF913209F0CB
:102B800074CF833269F48F89988DB0E0A0E0809390
:102B9000000190930101A0930201B0930301ADCE17
:102BA000803269F48091E80082FFFCCF67E084E026
:102BB00091E00E9461048BEF8093E8009ECE823208
:102BC00009F09BCE8F8980930B01EEEFFFE7859193
:102BD00094918B3F9C4D51F1E0E0F8E0809104012D
:102BE00090910501A0910601B0910701803B9440AE
:102BF000A105B105F1F480910B0180FD1AC0EE3FF3
:102C00008AE0F80789F587E797E7918380838091C9
:102C1000600080930A0388E19BE00FB6F894A895C2
:102C2000809360000FBE9093600067CEEEEFFAE0F5
:102C3000D5CF808191818737974709F05ECEA895DF
:102C40008091600088618093600080910A03809386
:102C50006000EE3F2AE0F20789F08091FE0A909131
:102C6000FF0A9183808349CE8081918187379807BD
:102C700051F29093FF0A8093FE0AC5CF1092FF0A8B
:102C80001092FE0A3ACE0E945502DC0112960D9176
:102C90001C910115110509F4E8CED801ED91FC91C4
:102CA0000190F081E02DBE016B5E7F4FC801099558
:102CB000811123CEF80100851185EBCF1816190676
:102CC0000CF41BCED2CEF1E0FF12BECE68E172E072
:102CD00004CF1F920F920FB60F9211242F933F93A0
:102CE0004F935F936F937F938F939F93AF93BF9314
:102CF000EF93FF9384E395E00E94EC04FF91EF9142
:102D0000BF91AF919F918F917F916F915F914F9103
:102D10003F912F910F900FBE0F901F9018951F920B
:102D20000F920FB60F9211242F938F939F93EF93CF
:102D3000FF93E0914405F09145058081E0914A05BB
:102D4000F0914B0582FD1BC0908180914D058F5FF6
:102D50008F7320914E05821741F0E0914D05F0E010
:102D6000EC5CFA4F958F80934D05FF91EF919F9109
:102D70008F912F910F900FBE0F901F90189580810B
:102D8000F4CF1F920F920FB60F9211242F933F93FF
:102D90004F935F936F937F938F939F93AF93BF9363
:102DA000EF93FF93CF93DF9300D01F92CDB7DEB7A1
:102DB00083B1898389819091210689278A838091B3
:102DC0006B009A8189238B838B8180FF05C0E09102
:102DD000F602F091F70209958B8181FF05C0E09121
:102DE000F802F091F90209958B8182FF05C0E0910C
:102DF000FA02F091FB0209958B8183FF05C0E091F7
:102E0000FC02F091FD0209958B8184FF05C0E091E1
:102E1000FE02F091FF0209958B8185FF05C0E091CC
:102E20000003F091010309958B8186FF05C0E091B5
:102E30000203F091030309958B8187FF05C0E091A0
:102E40000403F091050309958981809321060F9071
:102E50000F900F90DF91CF91FF91EF91BF91AF91C4
:102E60009F918F917F916F915F914F913F912F91A2
:102E70000F900FBE0F901F9018951F920F920FB6D4
:102E80000F9211242F933F934F935F936F937F93F0
:102E90008F939F93AF93BF93EF93FF938091B9006C
:102EA000887F803609F44AC0F0F5883209F4A7C05B
:102EB00018F5803109F49BC0B8F4882309F4F9C0EF
:102EC000883009F494C0FF91EF91BF91AF919F9129
:102ED0008F917F916F915F914F913F912F910F90C3
:102EE0000FBE0F901F901895883109F488C080326A
:102EF00051F78093580314C0803409F49DC040F406
:102F00008033B9F38833F9F68093580385ECB0C069
:102F1000803509F485C0883509F496C0883499F65F
:102F20000E94080ED0CF883909F48CC038F5883754
:102F300029F050F4883611F0803729F683E0809329
:102F40007A031092EA0257C0883809F47BC08039AE
:102F500019F0803809F0B7CF8091EA02803208F08A
:102F600071C0E091EA0281E08E0F8093EA028091C5
:102F7000BB00F0E0E653FD4F80833DC0803B39F05D
:102F8000E0F4803A09F479C0883A09F09CCF84E0F3
:102F900080937A031092C9021092C802E091100344
:102FA000F091110309958091C80281110FC081E051
:102FB0008093C8021092A80209C0803C09F4A6CFF1
:102FC000883C09F4A3CF883B09F07DCFE091C9028A
:102FD00081E08E0F8093C902F0E0E855FD4F8081BB
:102FE0008093BB009091C9028091C80229C0809152
:102FF00055038093BB0085EC8093BC0064CF909117
:10300000570380915603981758F5E091570381E0D4
:103010008E0F80935703F0E0EC5CFC4F8081E9CF8A
:10302000E091570381E08E0F809357038091BB009E
:10303000F0E0EC5CFC4F8083909157038091560345
:103040009817C8F285E8D8CFE091570381E08E0F3A
:10305000809357038091BB00F0E0EC5CFC4F8083D1
:103060008091590381115CCF81E08093540384EAFD
:103070008093BC0010927A0326CF85EC8093BC002D
:1030800010927A038091EA02803230F4E091EA02F1
:10309000F0E0E653FD4F10826091EA0270E0E091AB
:1030A0000E03F0910F038AEC92E009951092EA0268
:1030B0000ACF1092580334CFE4E3F5E01382128272
:1030C00088EE93E0A0E0B0E084839583A683B78385
:1030D0002CE231E0318320832DEC30E035872487EA
:1030E0002CEC30E03787268728EC30E0318B208BC2
:1030F00029EC30E0338B228B2AEC30E0358B248BAB
:103100002EEC30E0378B268B118E128E138E148EA0
:10311000E1EDF5E01382128284839583A683B78361
:103120002EE331E0318320832FEF3FEF3587248773
:1031300023B120932106E2E2F6E013821282848317
:103140009583A683B78380E591E091838083109275
:103150005207EAE3F7E0128215828EE691E091834E
:103160008083E2E3F7E01282158288E691E09183A2
:103170008083E6E2F7E01282158210868EE0818776
:1031800081E08287838782E691E091838083E4E314
:10319000F6E080E090E0A4EBB4E480839183A28326
:1031A000B38380E090E0ACE0B2E484839583A683AF
:1031B000B78388E599EEABE5B3E480879187A28772
:1031C000B38782E390E09587848716861786108AF6
:1031D000118A128A138A148A158A168A178A108EFF
:1031E000118E128E138E148E158E168E178E10A2BF
:1031F00011A212A213A214A215A280E090EEAEE0DA
:10320000B3E486A797A7A0ABB1AB12AA13AA14AADE
:1032100015AA16AA17AA10AE11AE12AE13AE14AEAE
:1032200015AE80E090E0A0E0BFE3809304079093A8
:103230000507A0930607B09307078DEC9CECACE460
:10324000BEE38093080790930907A0930A07B09301
:103250000B0710920C0710920D0710920E07109298
:103260000F07109210071092110710921207109278
:10327000130788E090E0909315078093140785E189
:1032800090E0909317078093160786E190E0909363
:103290001907809318078DEC9CECACECBCE3809391
:1032A0001A0790931B07A0931C07B0931D0780E09B
:1032B00090E0A8E4B3E480931E0790931F07A093C7
:1032C0002007B093210780E090E0A8ECB2E480935F
:1032D000220790932307A0932407B09325076EE756
:1032E00071E08EE296E00E94F70D0C949A03CF9362
:1032F000DF93CDB7DEB7CC55D1090FB6F894DEBF5A
:103300000FBECDBF789484B5826084BD84B58160E2
:1033100084BD85B5826085BD85B5816085BD8091A0
:103320006E00816080936E00109281008091810018
:103330008260809381008091810081608093810010
:1033400080918000816080938000809191008260F4
:103350008093910080919100816080939100809191
:1033600090008160809390008091C1008460809380
:10337000C1008091C10082608093C1008091C10032
:1033800081608093C1008091C30081608093C300FD
:103390008091C00082608093C0008091C2008160F3
:1033A0008093C20080917A00846080937A0080913B
:1033B0007A00826080937A0080917A0081608093A5
:1033C0007A0080917A00806880937A0010923303AB
:1033D00010920D0310920C038091D70081608093AE
:1033E000D70080EA8093D80089B5806189BD89B50E
:1033F000826089BD09B400FEFDCF61E070E080E02D
:1034000090E00E9468038091D8008F7C8061809357
:10341000D8008091E000807F8093E0008091E100FF
:103420008E7E8093E1008DE08093E200559A209A91
:103430008FEF9FEF9093DE058093DD0510921503CB
:103440001092140310921303109212030E9450085A
:1034500086EA93E0909311038093100387EA93E048
:1034600090930F0380930E0388E48093B8000E942A
:103470009A0360935E0670935F0680936006909354
:103480006106109266061092670610926806109206
:10349000690610926A0610926B0610926C061092E2
:1034A0006D0610926E0610926F06109270061092C2
:1034B00071068091320590913305FC01EE0FFF1FDC
:1034C000EE0FFF1FEE57FC4F108211821282138203
:1034D000FC01EE0FFF1FEE0FFF1FE65AFB4F10829D
:1034E00011821282138201969093330580933205E4
:1034F00060E08DE10E94E3028DE190E0909317017E
:103500008093160160E082E10E94E30282E190E094
:103510009093190180931801E0914405F0914505BD
:1035200082E08083E0914005F09141051082E091B6
:103530004205F091430580E1808310924C05E091B3
:103540004805F091490586E08083E0914605F091B9
:103550004705808180618083E0914605F0914705B1
:10356000808188608083E0914605F09147058081E5
:1035700080688083E0914605F091470580818F7DCA
:1035800080839E012F5F3F4F390135E0432E512C40
:103590001E013DE3230E311C60911B0370911C033F
:1035A000C3010E94CB0D61EA71E0C1010E94F70DD9
:1035B000B301C1010E94420DC1010E94E80AC3018A
:1035C0000E94E80A60911B0370911C03C3010E94D2
:1035D000CB0D1EAE1DAE21961FAE1EAE21972396BB
:1035E0001FAE1EAE23978AE324968FAF24972596AD
:1035F0001FAE2597BE016D5B7F4FC1010E94380D44
:103600006DEA71E0CE018D5B9F4F0E94F70DB10115
:10361000CE018D5B9F4F0E94E40CB3010E94E40C2D
:103620000E94A50CCE018D5B9F4F0E94E80AC1014C
:103630000E94E80AC3010E94E80A84E396E00E941F
:10364000DB09882309F48FC284E396E00E944A0ACA
:103650006B017C0184E396E00E94900AAB01BC01FF
:103660009701860184E396E00E94C90FE0911B0355
:10367000F0911C03E930F10508F075C2EE5BF44EE1
:103680000C944F254B1B661BBA1F10202820672067
:1036900070208520F42082E397E00E94E5078823CC
:1036A00039F041E050E050931C0340931B035BC290
:1036B0008AE397E00E94E507882309F454C288E072
:1036C00090E090931C0380931B034DC280911607DA
:1036D0000E941F037C01809118070E941F039C0118
:1036E000B701FF0C880B990B032E000C440B550BF4
:1036F000620F731F841F951F0E94D92320911E07FC
:1037000030911F0740912007509121070E94D2233A
:1037100087FFECC070E060E090E080E00E94A206CD
:1037200068EE73E080E090E00E9468030E949A03D4
:103730006D966CAF7DAF8EAF9FAF6D970E949A0371
:103740006D962CAD3DAD4EAD5FAD6D97621B730BAD
:10375000840B950B693B7B408105910508F00DC1F9
:1037600084E396E00E94DB09882341F384E396E03A
:103770000E94900A9B01AC0160E070E084E092E45A
:103780000E94552565966CAF7DAF8EAF9FAF659754
:1037900084E396E00E944A0A9B01AC0160E070E07D
:1037A00084E092E40E9455252D966CAF7DAF8EAFDC
:1037B0009FAF2D9720910C0730910D0740910E0778
:1037C00050910F0765966CAD7DAD8EAD9FAD659741
:1037D0000E94562569966CAF7DAF8EAF9FAF6997FB
:1037E00060930C0770930D0780930E0790930F075B
:1037F0002091100730911107409112075091130743
:103800002D966CAD7DAD8EAD9FAD2D970E9456254A
:103810004B015C018092100790921107A092120751
:10382000B0921307C0900407D0900507E0900607F8
:10383000F09007078091080790910907A0910A0767
:10384000B0910B0761968CAF9DAFAEAFBFAF6197E4
:10385000A70196012D966CAD7DAD8EAD9FAD2D97D8
:103860000E9438242D966CAF7DAF8EAF9FAF2D9701
:1038700061962CAD3DAD4EAD5FAD6197C501B40114
:103880000E9438249B01AC012D966CAD7DAD8EADB0
:103890009FAD2D970E9456250E9439264B01A70106
:1038A000960165966CAD7DAD8EAD9FAD65970E941E
:1038B00038246B017C0161962CAD3DAD4EAD5FAD02
:1038C000619769966CAD7DAD8EAD9FAD69970E9495
:1038D00038249B01AC01C701B6010E9456250E9405
:1038E0003926CB01B4010E94A20628CF8091160789
:1038F0000E941F037C01809118070E941F03B701DB
:10390000681B790B072E000C880B990B0E94D9239A
:1039100020911A0730911B0740911C0750911D07F9
:103920000E9438246B017C0120E030E040E252E448
:103930000E9456250E9439264B01A701960160E09E
:1039400070E080E292E40E9455250E943926CB0166
:10395000B4010E94A2060E949A0324EF31E040E0E5
:1039600050E00E942D25672B682B692B09F4FBC0C2
:103970000E94270F0E94B70FF6C070E060E090E051
:1039800080E00E94A20620EE3EE245E652E460910D
:103990006E0670916F0680917006909171060E947C
:1039A00038246B017C0189EB91E00E94340CC70143
:1039B000B6010E94230C20E030E84DE953E4C70132
:1039C000B6010E94AE26181654F020E030E044E321
:1039D00052E4C701B6010E94D22387FFD1C088E11B
:1039E00092E00E94340C81EC91E00E94340C8091B2
:1039F0003205909133050E94710C86ED91E00E9492
:103A0000340CE0913205F0913305EE0FFF1FEE0FFD
:103A1000FF1FEE57FC4F608171818281938142E0EC
:103A20000E94470B81E991E00E94340CE09132053D
:103A3000F0913305EE0FFF1FEE0FFF1FE65AFB4F0D
:103A400060817181828193810E94230CE090320514
:103A5000F09033058701000F111F000F111F0E5743
:103A60001C4FF701EE0FFF1FEE0FFF1FE258FC4F38
:103A700020E030E040E85FE36081718182819381E2
:103A80000E945625D8016D937D938D939C93139737
:103A9000F701EE0FFF1FEE0FFF1FEA5AFB4F808169
:103AA0009181A281B381F701EE0FFF1FEE0FFF1F7F
:103AB000E65AFB4F80839183A283B38381EC91E02C
:103AC0000E94340C80913205909133050E94710C54
:103AD0008EEE91E00E94340CE0913205F0913305B6
:103AE000EE0FFF1FEE0FFF1FEE57FC4F608171813D
:103AF0008281938142E00E94470B81E991E00E941C
:103B0000340CE0913205F0913305EE0FFF1FEE0FFC
:103B1000FF1FE65AFB4F60817181828193810E9471
:103B2000230C8091320590913305019690933305D3
:103B3000809332050E94270F0E94B70F80911A03CD
:103B4000882309F414C280911903882309F40FC251
:103B500080911803882309F407C226E030E03093EF
:103B60001C0320931B0380E090E0892B09F414CD03
:103B70000E94D804882309F40BCD0E94000008CDD0
:103B800020E030E044E352E4C701B6010E94AE26D3
:103B900018160CF075C020E030E047E053E4C70190
:103BA000B6010E94D22387FF6BC081EC91E00E9496
:103BB000340C80913205909133050E94710C86ED92
:103BC00091E00E94340CE0913205F0913305EE0F44
:103BD000FF1FEE0FFF1FEE57FC4F60817181828146
:103BE000938142E00E94470B81E991E00E94340CEE
:103BF000E0913205F0913305EE0FFF1FEE0FFF1F2E
:103C0000E65AFB4F60817181828193810E94230C6F
:103C1000E0903205F09033056701B1E0CB1AD1088E
:103C20008701000F111F000F111F065A1B4FF701CC
:103C3000EE0FFF1FEE0FFF1FEA5AFB4F20E030E0B0
:103C400040E85FE360817181828193810E94562503
:103C5000F8016083718382839383F601EE0FFF1F67
:103C6000EE0FFF1FEE57FC4F80819181A281B3813F
:103C7000F701EE0FFF1FEE0FFF1FEE57FC4F1ACF9D
:103C800020E030E047E053E4C701B6010E94AE26D1
:103C900018160CF0ADC020E030E041E653E4C70157
:103CA000B6010E94D22387FFA3C081EC91E00E945D
:103CB000340C80913205909133050E94710C86ED91
:103CC00091E00E94340CE0913205F0913305EE0F43
:103CD000FF1FEE0FFF1FEE57FC4F60817181828145
:103CE000938142E00E94470B81E991E00E94340CED
:103CF000E0913205F0913305EE0FFF1FEE0FFF1F2D
:103D0000E65AFB4F60817181828193810E94230C6E
:103D1000E0903205F09033058701000F111F000F6E
:103D2000111F0E571C4FF701EE0FFF1FEE0FFF1F65
:103D3000E258FC4F20E030E040E85FE360817181B1
:103D4000828193810E945525D8016D937D938D9337
:103D50009C931397F701EE0FFF1FEE0FFF1FEA5A18
:103D6000FB4F80819181A281B381F701EE0FFF1F8C
:103D7000EE0FFF1FE65AFB4F80839183A283B3832C
:103D800081EC91E00E94340C8091320590913305D2
:103D90000E94710C8EEE91E00E94340CE09132058D
:103DA000F0913305EE0FFF1FEE0FFF1FEE57FC4F94
:103DB000608171818281938142E00E94470B81E999
:103DC00091E00E94340CE0913205F0913305EE0F42
:103DD000FF1FEE0FFF1FE65AFB4F6081718182814A
:103DE00093810E94230C86E092E00E94340C99CECD
:103DF00020E030E041E653E4C701B6010E94AE2660
:103E000018160CF0AEC020E030E84DE953E4C701CD
:103E1000B6010E94D22387FFA4C081EC91E00E94EA
:103E2000340C80913205909133050E94710C86ED1F
:103E300091E00E94340CE0913205F0913305EE0FD1
:103E4000FF1FEE0FFF1FEE57FC4F608171818281D3
:103E5000938142E00E94470B81E991E00E94340C7B
:103E6000E0913205F0913305EE0FFF1FEE0FFF1FBB
:103E7000E65AFB4F60817181828193810E94230CFD
:103E8000E0903205F09033056701B1E0CB1AD1081C
:103E90008701000F111F000F111F065A1B4FF7015A
:103EA000EE0FFF1FEE0FFF1FEA5AFB4F20E030E03E
:103EB00040E85FE360817181828193810E94552592
:103EC000F8016083718382839383F601EE0FFF1FF5
:103ED000EE0FFF1FEE57FC4F80819181A281B381CD
:103EE000F701EE0FFF1FEE0FFF1FEE57FC4F808311
:103EF0009183A283B38381EC91E00E94340C809182
:103F00003205909133050E94710C8EEE91E00E9473
:103F1000340CE0913205F0913305EE0FFF1FEE0FE8
:103F2000FF1FEE57FC4F608171818281938142E0D7
:103F30000E94470B81E991E00E94340CE091320528
:103F4000F0913305EE0FFF1FEE0FFF1FE65AFB4FF8
:103F500060817181828193810E94230C86E192E0CD
:103F600044CF86E292E041CF47E050E09CCB82E034
:103F700090E0A7CB88E191E00E94B00920E030E01A
:103F8000A9010E94AE2618165CF588E191E00E9416
:103F9000B00920E030E040EF51E40E94AE2687FFF8
:103FA0002BC086E191E00E94B00920E030E0A90139
:103FB0000E94AE2618163CF586E191E00E94B009F9
:103FC00020E030E040EF51E40E94D22318160CF4B8
:103FD00068CBE4E0F0E0F0931C03E0931B03C3CD57
:103FE00088E191E00E94B00920E030E040EF51EC20
:103FF0000E94D2231816ACF2A3E0B0E0B0931C03E9
:10400000A0931B03B0CD86E191E00E94B00920E0AF
:1040100030E040EF51EC0E94AE2687FD42CBD9CF75
:104020000E94270F0E94B70F60E070E080E292E4E8
:104030000E949911882309F496CD80911A03882350
:1040400009F42FCB80911903882309F42ACB80CD62
:104050000E94270F0E94B70F60E070E080E292ECB0
:104060000E949911882309F47ECD80911A03882338
:1040700021F08091190381116BCD86E191E00E94BE
:10408000B00920E030E0A9010E94AE26181694F491
:1040900086E191E00E94B00920E030E040EF51E479
:1040A0000E94D22318160CF4FCCA50921C034092B2
:1040B0001B0359CD86E191E00E94B00920E030E079
:1040C00040EF51EC0E94AE2687FDEBCAEECF0E9476
:1040D000270F0E94B70F60E070E080E292ECA8CF5B
:1040E0006BE872E0C3010E94F70D60E972E0C10164
:1040F0000E94F70DB301C1010E94420DC1010E944F
:10410000E80AC3010E94E80A2ECD8091160390911F
:104110001703892B09F427CD0E94390C0E949701BF
:104120000E94390C02E813E0F12CE12CD8014D91EA
:104130005D916D917D918D01C3010E94950DB70137
:10414000C1010E94CB0D6DE971E0CE018D5B9F4FE7
:104150000E94F70DB101CE018D5B9F4F0E94E40CD0
:10416000B3010E94420DCE018D5B9F4F0E94E80A71
:10417000C1010E94E80AC3010E94E80AF801EC525A
:10418000FF4F4081518162817381C3010E94950D6F
:10419000B701C1010E94CB0D6FE971E0CE018D5BCB
:1041A0009F4F0E94F70DB101CE018D5B9F4F0E9482
:1041B000E40CB3010E94420DCE018D5B9F4F0E9423
:1041C000E80AC1010E94E80AC3010E94E80ABFEFA1
:1041D000EB1AFB0AE6E3EE16F10409F0A7CF109202
:1041E000170310921603BFCC83016EE771E0C8017C
:1041F0000E94F70D0A5F1F4F20163106B1F784E3C6
:1042000095E00E94CC04892BA9F184E395E00E94FB
:10421000AA04182F8DAF1EAEE0903206F090330640
:10422000FFEFEF1AFF0AB7018EE296E00E94BC0C86
:10423000882389F020912E0630912F068091320636
:1042400090913306B101820F931F0E94F928F092DA
:104250003306E09232061A3091F6409132065091C0
:10426000330660912E0670912F0681ED95E00E9435
:104270007905C5CF810106501109C8010E94E80ADD
:1042800060167106C1F76FCC8EE296E00C94E80AD6
:10429000EF920F931F93CF93DF93E80134E047FD34
:1042A00034E1042E000C550B57FF03C05195419586
:1042B0005109E32E022F242FAE010E948B21CE0143
:1042C000DF91CF911F910F91EF900895BB274A3056
:1042D00031F4992322F4BDE2909581959F4F0C947F
:1042E0007221BB27FB015527AA27880F991FAA1FF8
:1042F000A41710F0A41B83955051B9F7A05DAA3301
:1043000008F0A95DA193009779F7B111B1931192CB
:10431000CB010C94C223A9E0B0E0E1E9F1E20C94F6
:10432000FC246A01F22EB02E102FFBE3AF2EA01654
:1043300008F41BE31F5F012F27E0AE014F5F5F4FC3
:104340000E94EA22BC018981982F9970913009F46A
:104350003FC09BE2E1FC04C09E2D9170E0FC3AC09E
:104360005E2D5071E82FE87083FF46C084E0911104
:1043700001C083E0EF2DE81B8F1508F0E0E0D601C7
:104380008E2F20E2552351F1992329F0D6019C93D9
:10439000C60101966C0196012D5F3F4FE2FE24C0DD
:1043A0008EE4D6018C9391E411969C93119712960A
:1043B0008C93D9018E2F90E281111BC0E20FF32F55
:1043C000F11D10828EEF9FEF2996ECE00C941825DA
:1043D0009DE2C6CF90E2C4CF2D9381508111FCCFD6
:1043E000CE0ED11CE0E0D0CF8EE6D6018C9391E6C4
:1043F000DBCF9D938150E0CF482F447082FF3DC0BA
:1044000084E0911101C083E08F1510F4EF2DE81BBB
:10441000D6018E2F20E2552309F1992329F0D601E8
:104420009C93C60101966C0196012D5F3F4FE2FE01
:104430001BC089E4D6018C938EE411968C9311975E
:1044400086E412968C93D9018E2F90E2882309F48A
:10445000B5CF9D938150FACF2D9381508111FCCF20
:10446000CE0ED11CE0E0D9CF89E6D6018C938EE642
:1044700011968C93119786E6E4CF9B0177FF02C0DB
:1044800030E020E0A1E0B0E0911102C0B0E0A0E097
:10449000F9013196AE0FBF1F8B2C912CBB2009F474
:1044A00061C05401EFEFAE1ABE0AAA0DBB1DFA1689
:1044B0001B0619F014F04F2D4A1B511188C0E3FC64
:1044C00059C07601A42FB0E2A1114FC0C40ED11C77
:1044D000992309F45BC040E0D6011196F601908360
:1044E0006D01552309F448C0012F060F9A81582FFA
:1044F000507184FF03C0913309F4015010160CF081
:1045000047C0093008F008E0EEE2FE2E5B01A01A79
:10451000B10885019194819491082F3F320729F4C5
:10452000D601FC92F60131966F016217730794F180
:10453000021713077CF5DB01A21BB30BAA24A3947B
:10454000B12CAC0EBD1EAA0DBB1D11968C91215035
:104550003109D601119628153905F4F0F60180834A
:104560006D01DBCFB12CA12CA0CFF701B1937F015E
:10457000A150AACF9111B0CFD601942F50E302C021
:104580005D9391509111FCCFC40ED11C40E0ACCF93
:1045900001E0BACF80E3DBCF6217730731F49633C3
:1045A00088F4953311F4552369F0F6018083FD01F9
:1045B000842F90E2811108C0A40FB11D1C9290E0DD
:1045C00080E002CF81E3F1CF91938150F3CF91113D
:1045D00083CF8ACF283008F027E03327DA01990FFC
:1045E000311D87FD916000966105710539F43260D7
:1045F0002E5F3D9330E32A95E1F708959F3F30F019
:1046000080387105610509F03C5F3C5F3D93913056
:1046100008F08068911DDF93CF931F930F93FF9253
:10462000EF92192F987F9695E92F96959695E90F19
:10463000FF27EC5DFE4F99273327EE24FF24A701C7
:10464000E70105900894079428F4360FE71EF81E3A
:10465000491F511D660F771F881F991F0694A1F7E8
:104660000590079428F4E70EF81E491F561FC11D38
:10467000770F881F991F661F0694A1F7059007946E
:1046800028F4F80E491F561FC71FD11D880F991F08
:10469000661F771F0694A1F70590079420F4490F31
:1046A000561FC71FD81F990F661F771F881F0694B4
:1046B000A9F784911095177041F0D695C795579535
:1046C0004795F794E7941A95C1F7EAECF0E06894FF
:1046D0001590159135916591959105907FE27395AF
:1046E000E118F10A430B560BC90BD009C0F7E10CD6
:1046F000F11E431F561FC91FD01D7EF4703311F4E5
:104700008A95E6CFE894015030F0080F0AF40027AC
:10471000021708F4202F2395022F7A3328F079E32B
:104720007D932A95E9F710C07D932A9589F6069422
:1047300097956795379517951794E118F10A430BEC
:10474000560BC90BD00998F023957E9173957A3357
:1047500008F070E37C932013B8F77E9170617D932D
:1047600030F0839571E37D9370E32A95E1F711248E
:10477000EF90FF900F911F91CF91DF91992787FDC7
:1047800090950895DC01FC01672F71917723E1F783
:10479000329704C07C916D9370836291AE17BF070E
:1047A000C8F308950E94142408F481E00895E89461
:1047B00009C097FB3EF490958095709561957F4F69
:1047C0008F4F9F4F9923A9F0F92F96E9BB27939517
:1047D000F695879577956795B795F111F8CFFAF427
:1047E000BB0F11F460FF1BC06F5F7F4F8F4F9F4F58
:1047F00016C0882311F096E911C0772321F09EE8B6
:10480000872F762F05C0662371F096E8862F70E01B
:1048100060E02AF09A95660F771F881FDAF7880FF5
:104820009695879597F90895990F0008550FAA0B4B
:10483000E0E8FEEF16161706E807F907C0F01216B3
:104840001306E407F50798F0621B730B840B950BB6
:1048500039F40A2661F0232B242B252B21F408950B
:104860000A2609F4A140A6958FEF811D811D0895A8
:104870000E944B240C94BC240E94AE2438F00E9469
:10488000B52420F0952311F00C94A5240C94AB24AE
:1048900011240C94F0240E94CD2470F3959FC1F351
:1048A000950F50E0551F629FF001729FBB27F00DDE
:1048B000B11D639FAA27F00DB11DAA1F649F662733
:1048C000B00DA11D661F829F2227B00DA11D621F82
:1048D000739FB00DA11D621F839FA00D611D221F3C
:1048E000749F3327A00D611D231F849F600D211D20
:1048F000822F762F6A2F11249F5750409AF0F1F0A3
:1049000088234AF0EE0FFF1FBB1F661F771F881F0B
:1049100091505040A9F79E3F510580F00C94A5247A
:104920000C94F0245F3FE4F3983ED4F3869577959A
:104930006795B795F795E7959F5FC1F7FE2B880FB1
:10494000911D9695879597F9089597F99F6780E847
:1049500070E060E008959FEF80EC089500240A94D1
:104960001616170618060906089500240A9412164A
:104970001306140605060895092E0394000C11F47D
:10498000882352F0BB0F40F4BF2B11F460FF04C02A
:104990006F5F7F4F8F4F9F4F089557FD9058440F83
:1049A000551F59F05F3F71F04795880F97FB991F8E
:1049B00061F09F3F79F0879508951216130614064B
:1049C000551FF2CF4695F1DF08C0161617061806D8
:1049D000991FF1CF86957105610508940895E894B3
:1049E000BB2766277727CB0197F908952F923F922F
:1049F0004F925F926F927F928F929F92AF92BF92EF
:104A0000CF92DF92EF92FF920F931F93CF93DF939A
:104A1000CDB7DEB7CA1BDB0B0FB6F894DEBF0FBEF7
:104A2000CDBF09942A88398848885F846E847D8444
:104A30008C849B84AA84B984C884DF80EE80FD8046
:104A40000C811B81AA81B981CE0FD11D0FB6F894BC
:104A5000DEBF0FBECDBFED010895A1E21A2EAA1B45
:104A6000BB1BFD010DC0AA1FBB1FEE1FFF1FA2171E
:104A7000B307E407F50720F0A21BB30BE40BF50B1B
:104A8000661F771F881F991F1A9469F760957095A4
:104A9000809590959B01AC01BD01CF010895EE0F6B
:104AA000FF1F0590F491E02D09945058BB27AA27C9
:104AB0000E946D250C94BC240E94AE2438F00E9404
:104AC000B52420F039F49F3F19F426F40C94AB245C
:104AD0000EF4E095E7FB0C94A524E92F0E94CD2469
:104AE00058F3BA17620773078407950720F079F423
:104AF000A6F50C94EF240EF4E0950B2EBA2FA02D02
:104B00000B01B90190010C01CA01A0011124FF277A
:104B1000591B99F0593F50F4503E68F11A16F04075
:104B2000A22F232F342F4427585FF3CF4695379574
:104B30002795A795F0405395C9F77EF41F16BA0B39
:104B4000620B730B840BBAF09150A1F0FF0FBB1FE7
:104B5000661F771F881FC2F70EC0BA0F621F731F30
:104B6000841F48F4879577956795B795F7959E3F8D
:104B700008F0B0CF9395880F08F09927EE0F97951E
:104B8000879508950E947126E3950C949A260E94B9
:104B9000DB250C94BC240E94B52458F00E94AE245E
:104BA00040F029F45F3F29F00C94A52451110C9496
:104BB000F0240C94AB240E94CD2468F39923B1F324
:104BC000552391F3951B550BBB27AA276217730733
:104BD000840738F09F5F5F4F220F331F441FAA1FC7
:104BE000A9F335D00E2E3AF0E0E832D09150504083
:104BF000E695001CCAF72BD0FE2F29D0660F771F31
:104C0000881FBB1F261737074807AB07B0E809F016
:104C1000BB0B802DBF01FF2793585F4F3AF09E3F9B
:104C2000510578F00C94A5240C94F0245F3FE4F334
:104C3000983ED4F3869577956795B795F7959F5FDE
:104C4000C9F7880F911D9695879597F90895E1E02A
:104C5000660F771F881FBB1F621773078407BA0789
:104C600020F0621B730B840BBA0BEE1F88F7E095E4
:104C700008950E9440266894B1110C94F024089580
:104C80000E94D52488F09F5798F0B92F9927B751E3
:104C9000B0F0E1F0660F771F881F991F1AF0BA95E0
:104CA000C9F714C0B13091F00E94EF24B1E008952B
:104CB0000C94EF24672F782F8827B85F39F0B93F1D
:104CC000CCF3869577956795B395D9F73EF4909593
:104CD0008095709561957F4F8F4F9F4F08950C94ED
:104CE000AB240E94D524D8F3E894E0E0BB279F577B
:104CF000F0F02AED3FE049EC06C0EE0FBB0F661F57
:104D0000771F881F28F0B23A62077307840728F0DC
:104D1000B25A620B730B840BE3959A9572F7803845
:104D200030F49A95BB0F661F771F881FD2F7904803
:104D30000C94C226EF93E0FF07C0A2EA2AED3FE001
:104D400049EC5FEB0E946D250E94BC240F900394F8
:104D500001FC9058ECEAF0E00C94CE260E9414245A
:104D600008F48FEF08959F930E9471260F9007FC1F
:104D7000EE5F0C949A260E941424880B990B0895D8
:104D80009F3F31F0915020F4879577956795B795BF
:104D9000880F911D9695879597F908959F938F9306
:104DA0007F936F93FF93EF939B01AC010E94382494
:104DB000EF91FF910E94E2262F913F914F915F91D9
:104DC0000C943824DF93CF931F930F93FF92EF92AD
:104DD000DF927B018C01689406C0DA2EEF010E94FD
:104DE0004B24FE01E894A59125913591459155916B
:104DF000A6F3EF010E946D25FE019701A801DA9448
:104E000069F7DF90EF90FF900F911F91CF91DF91A5
:104E100008950F931F93CF93DF938230910510F481
:104E200082E090E0E0915507F091560730E020E0F5
:104E3000B0E0A0E0309799F42115310509F44AC09B
:104E4000281B390B24303105D8F58A819B816115E7
:104E5000710589F1FB0193838283FE0111C04081BA
:104E600051810281138148175907E0F0481759070B
:104E700099F4109761F012960C93129713961C9365
:104E80003296CF01DF91CF911F910F91089500933A
:104E9000550710935607F4CF2115310551F04217ED
:104EA000530738F0A901DB019A01BD01DF01F801C8
:104EB000C1CFEF01F9CF9093560780935507CDCF1F
:104EC000FE01E20FF31F8193919322503109398340
:104ED0002883D7CF2091530730915407232B41F4D7
:104EE00020911D0130911E013093540720935307E8
:104EF00020911B0130911C012115310541F42DB782
:104F00003EB740911F0150912001241B350BE091C9
:104F10005307F0915407E217F307A0F42E1B3F0B41
:104F20002817390778F0AC014E5F5F4F241735071B
:104F300048F04E0F5F1F50935407409353078193DF
:104F400091939FCFF0E0E0E09CCFCF93DF93009769
:104F5000E9F0FC01329713821282A0915507B091BB
:104F60005607ED0130E020E01097A1F42081318157
:104F7000820F931F20915307309154072817390748
:104F800009F061C0F0935407E0935307DF91CF918C
:104F90000895EA01CE17DF07E8F54A815B819E019B
:104FA00041155105B1F7E901FB83EA834991599114
:104FB000C40FD51FEC17FD0761F480819181029623
:104FC000840F951FE90199838883828193819B8354
:104FD0008A83F0E0E0E012968D919C911397009700
:104FE000B9F52D913C911197CD010296820F931F37
:104FF00020915307309154072817390739F6309715
:1050000051F51092560710925507B0935407A0938C
:105010005307BCCFD383C28340815181840F951F36
:10502000C817D90761F44E5F5F4F88819981480F97
:10503000591F518340838A819B81938382832115E9
:10504000310509F0B0CFF0935607E09355079ECF96
:10505000FD01DC01C0CF13821282D7CFB0E0A0E007
:10506000E4E3F8E20C94F8248C01009751F4CB01AE
:105070000E9409278C01C801CDB7DEB7E0E10C948E
:105080001425FC01E60FF71F9C0122503109E2179D
:10509000F30708F49DC0D901CD91DC911197C61793
:1050A000D70798F0C530D10530F3CE0104978617A5
:1050B000970708F3C61BD70B2297C193D1936D9323
:1050C0007C93CF010E94A527D6CF5B01AC1ABD0A05
:1050D0004C018C0E9D1EA0915507B0915607512C86
:1050E000412CF12CE12C109731F5809153079091D0
:1050F00054078815990509F05CC04616570608F054
:1051000058C080911B0190911C01009741F48DB70C
:105110009EB740911F0150912001841B950BE81709
:10512000F90708F055C0F0935407E0935307F901CD
:1051300071836083A0CF8D919C91119712966C9092
:10514000129713967C901397A815B90559F56C0121
:1051500042E0C40ED11CCA14DB0420F1AC014A1990
:105160005B09DA011296159780F06282738251838F
:105170004083D9016D937C93E114F10471F0D70160
:105180001396FC93EE93129776CF22968C0F9D1F69
:10519000F90191838083F301EFCFF0935607E093F9
:1051A000550769CF4816590608F42C017D01D30133
:1051B0009ACFCB010E9409277C01009749F0AE01EC
:1051C000B8010E94F028C8010E94A527870153CF8B
:1051D00010E000E050CF81E090E0F8940C940029BA
:1051E000FB01DC0102C001900D9241505040D8F704
:1051F0000895FB01DC0101900D920020E1F7089574
:1052000011E0CCE6D1E004C0FE010E944F252196BA
:0A521000CD36D107C9F7F894FFCF9F
:10521A00FFFFFFFF00E1000000000000A803A80351
:10522A00A803A803A8031200120001000057078070
:10523A000000C18081000000000000000D056E041E
:10524A009B045905CC04AA04BE0400000000FE0514
:10525A0079051F06140665062306410600000000AC
:10526A009C099109AD0967098A097709680900004B
:10527A000000A407000000006D0E00000000400EB0
:10528A006E616E00696E66006F7666000D0A0054E4
:10529A004845204D4150204F48204D5920474F4402
:1052AA00002020005461672049443A2000580059E0
:1052BA0000524F424F5420535441544500526F629A
:1052CA006F742053746174650068656164696E6700
:1052DA000043757272656E7420436F6F7264696EF3
:1052EA006174653A20004F6C6420436F6F72646981
:1052FA006E617465733A2028782C792920004E65EE
:10530A007720436F6F7264696E617465733A2028FF
:10531A00782C7929200031383020646567726565F8
:10532A002063617365003237302064656772656592
:10533A002063617365003C3C3C3C3C3C3C3C3C3C4F
:10534A003C3C3C3C3C3C3C3C3C3C3C3C3C3C3C3C93
:10535A003C3C3C3C5F5F5F5F5F5F5F5F5F5F5F5FDF
:10536A005F5F5F5F5F5F5F6572726F725F5F5F5FF4
:10537A005F5F5F5F5F5F5F5F5F5F5F5F5F3E3E3E96
:10538A003E3E3E3E3E3E3E3E3E3E3E3E3E3E3E3E33
:10539A003E3E3E3E3E3E3E3E3E3E00545255450057
:0C53AA004B657920466F756E6420000092
:00000001FF
